{
  "_format": "hh-sol-artifact-1",
  "contractName": "ERC20PermitMock",
  "sourceName": "contracts/mocks/ERC20PermitMock.sol",
  "abi": [
    {
      "inputs": [
        {
          "internalType": "string",
          "name": "name",
          "type": "string"
        },
        {
          "internalType": "string",
          "name": "symbol",
          "type": "string"
        },
        {
          "internalType": "address",
          "name": "initialAccount",
          "type": "address"
        },
        {
          "internalType": "uint256",
          "name": "initialBalance",
          "type": "uint256"
        }
      ],
      "stateMutability": "payable",
      "type": "constructor"
    },
    {
      "anonymous": false,
      "inputs": [
        {
          "indexed": true,
          "internalType": "address",
          "name": "owner",
          "type": "address"
        },
        {
          "indexed": true,
          "internalType": "address",
          "name": "spender",
          "type": "address"
        },
        {
          "indexed": false,
          "internalType": "uint256",
          "name": "value",
          "type": "uint256"
        }
      ],
      "name": "Approval",
      "type": "event"
    },
    {
      "anonymous": false,
      "inputs": [
        {
          "indexed": true,
          "internalType": "address",
          "name": "from",
          "type": "address"
        },
        {
          "indexed": true,
          "internalType": "address",
          "name": "to",
          "type": "address"
        },
        {
          "indexed": false,
          "internalType": "uint256",
          "name": "value",
          "type": "uint256"
        }
      ],
      "name": "Transfer",
      "type": "event"
    },
    {
      "inputs": [],
      "name": "DOMAIN_SEPARATOR",
      "outputs": [
        {
          "internalType": "bytes32",
          "name": "",
          "type": "bytes32"
        }
      ],
      "stateMutability": "view",
      "type": "function"
    },
    {
      "inputs": [],
      "name": "EIP712DOMAIN_HASH",
      "outputs": [
        {
          "internalType": "bytes32",
          "name": "",
          "type": "bytes32"
        }
      ],
      "stateMutability": "view",
      "type": "function"
    },
    {
      "inputs": [],
      "name": "NAME_HASH",
      "outputs": [
        {
          "internalType": "bytes32",
          "name": "",
          "type": "bytes32"
        }
      ],
      "stateMutability": "view",
      "type": "function"
    },
    {
      "inputs": [],
      "name": "PERMIT_TYPEHASH",
      "outputs": [
        {
          "internalType": "bytes32",
          "name": "",
          "type": "bytes32"
        }
      ],
      "stateMutability": "view",
      "type": "function"
    },
    {
      "inputs": [],
      "name": "VERSION_HASH",
      "outputs": [
        {
          "internalType": "bytes32",
          "name": "",
          "type": "bytes32"
        }
      ],
      "stateMutability": "view",
      "type": "function"
    },
    {
      "inputs": [
        {
          "internalType": "address",
          "name": "owner",
          "type": "address"
        },
        {
          "internalType": "address",
          "name": "spender",
          "type": "address"
        }
      ],
      "name": "allowance",
      "outputs": [
        {
          "internalType": "uint256",
          "name": "",
          "type": "uint256"
        }
      ],
      "stateMutability": "view",
      "type": "function"
    },
    {
      "inputs": [
        {
          "internalType": "address",
          "name": "spender",
          "type": "address"
        },
        {
          "internalType": "uint256",
          "name": "amount",
          "type": "uint256"
        }
      ],
      "name": "approve",
      "outputs": [
        {
          "internalType": "bool",
          "name": "",
          "type": "bool"
        }
      ],
      "stateMutability": "nonpayable",
      "type": "function"
    },
    {
      "inputs": [
        {
          "internalType": "address",
          "name": "owner",
          "type": "address"
        },
        {
          "internalType": "address",
          "name": "spender",
          "type": "address"
        },
        {
          "internalType": "uint256",
          "name": "value",
          "type": "uint256"
        }
      ],
      "name": "approveInternal",
      "outputs": [],
      "stateMutability": "nonpayable",
      "type": "function"
    },
    {
      "inputs": [
        {
          "internalType": "address",
          "name": "account",
          "type": "address"
        }
      ],
      "name": "balanceOf",
      "outputs": [
        {
          "internalType": "uint256",
          "name": "",
          "type": "uint256"
        }
      ],
      "stateMutability": "view",
      "type": "function"
    },
    {
      "inputs": [
        {
          "internalType": "uint256",
          "name": "amount",
          "type": "uint256"
        }
      ],
      "name": "burn",
      "outputs": [],
      "stateMutability": "nonpayable",
      "type": "function"
    },
    {
      "inputs": [],
      "name": "decimals",
      "outputs": [
        {
          "internalType": "uint8",
          "name": "",
          "type": "uint8"
        }
      ],
      "stateMutability": "view",
      "type": "function"
    },
    {
      "inputs": [
        {
          "internalType": "address",
          "name": "spender",
          "type": "address"
        },
        {
          "internalType": "uint256",
          "name": "subtractedValue",
          "type": "uint256"
        }
      ],
      "name": "decreaseAllowance",
      "outputs": [
        {
          "internalType": "bool",
          "name": "",
          "type": "bool"
        }
      ],
      "stateMutability": "nonpayable",
      "type": "function"
    },
    {
      "inputs": [],
      "name": "getChainId",
      "outputs": [
        {
          "internalType": "uint256",
          "name": "chainId",
          "type": "uint256"
        }
      ],
      "stateMutability": "view",
      "type": "function"
    },
    {
      "inputs": [
        {
          "internalType": "address",
          "name": "spender",
          "type": "address"
        },
        {
          "internalType": "uint256",
          "name": "addedValue",
          "type": "uint256"
        }
      ],
      "name": "increaseAllowance",
      "outputs": [
        {
          "internalType": "bool",
          "name": "",
          "type": "bool"
        }
      ],
      "stateMutability": "nonpayable",
      "type": "function"
    },
    {
      "inputs": [
        {
          "internalType": "address",
          "name": "account",
          "type": "address"
        },
        {
          "internalType": "uint256",
          "name": "amount",
          "type": "uint256"
        }
      ],
      "name": "mint",
      "outputs": [],
      "stateMutability": "nonpayable",
      "type": "function"
    },
    {
      "inputs": [],
      "name": "name",
      "outputs": [
        {
          "internalType": "string",
          "name": "",
          "type": "string"
        }
      ],
      "stateMutability": "view",
      "type": "function"
    },
    {
      "inputs": [
        {
          "internalType": "address",
          "name": "",
          "type": "address"
        }
      ],
      "name": "nonces",
      "outputs": [
        {
          "internalType": "uint256",
          "name": "",
          "type": "uint256"
        }
      ],
      "stateMutability": "view",
      "type": "function"
    },
    {
      "inputs": [
        {
          "internalType": "address",
          "name": "owner",
          "type": "address"
        },
        {
          "internalType": "address",
          "name": "spender",
          "type": "address"
        },
        {
          "internalType": "uint256",
          "name": "value",
          "type": "uint256"
        },
        {
          "internalType": "uint256",
          "name": "deadline",
          "type": "uint256"
        },
        {
          "internalType": "uint8",
          "name": "v",
          "type": "uint8"
        },
        {
          "internalType": "bytes32",
          "name": "r",
          "type": "bytes32"
        },
        {
          "internalType": "bytes32",
          "name": "s",
          "type": "bytes32"
        }
      ],
      "name": "permit",
      "outputs": [],
      "stateMutability": "nonpayable",
      "type": "function"
    },
    {
      "inputs": [],
      "name": "symbol",
      "outputs": [
        {
          "internalType": "string",
          "name": "",
          "type": "string"
        }
      ],
      "stateMutability": "view",
      "type": "function"
    },
    {
      "inputs": [],
      "name": "totalSupply",
      "outputs": [
        {
          "internalType": "uint256",
          "name": "",
          "type": "uint256"
        }
      ],
      "stateMutability": "view",
      "type": "function"
    },
    {
      "inputs": [
        {
          "internalType": "address",
          "name": "to",
          "type": "address"
        },
        {
          "internalType": "uint256",
          "name": "amount",
          "type": "uint256"
        }
      ],
      "name": "transfer",
      "outputs": [
        {
          "internalType": "bool",
          "name": "",
          "type": "bool"
        }
      ],
      "stateMutability": "nonpayable",
      "type": "function"
    },
    {
      "inputs": [
        {
          "internalType": "address",
          "name": "from",
          "type": "address"
        },
        {
          "internalType": "address",
          "name": "to",
          "type": "address"
        },
        {
          "internalType": "uint256",
          "name": "amount",
          "type": "uint256"
        }
      ],
      "name": "transferFrom",
      "outputs": [
        {
          "internalType": "bool",
          "name": "",
          "type": "bool"
        }
      ],
      "stateMutability": "nonpayable",
      "type": "function"
    },
    {
      "inputs": [
        {
          "internalType": "address",
          "name": "from",
          "type": "address"
        },
        {
          "internalType": "address",
          "name": "to",
          "type": "address"
        },
        {
          "internalType": "uint256",
          "name": "value",
          "type": "uint256"
        }
      ],
      "name": "transferInternal",
      "outputs": [],
      "stateMutability": "nonpayable",
      "type": "function"
    }
  ],
  "bytecode": "0x608060405260405162002a8e38038062002a8e833981810160405281019062000029919062000425565b838381600390816200003c919062000716565b5080600490816200004e919062000716565b5050506200006382826200007b60201b60201c565b83805190602001206006819055505050505062000918565b600073ffffffffffffffffffffffffffffffffffffffff168273ffffffffffffffffffffffffffffffffffffffff1603620000ed576040517f08c379a0000000000000000000000000000000000000000000000000000000008152600401620000e4906200085e565b60405180910390fd5b6200010160008383620001e860201b60201c565b8060026000828254620001159190620008af565b92505081905550806000808473ffffffffffffffffffffffffffffffffffffffff1673ffffffffffffffffffffffffffffffffffffffff168152602001908152602001600020600082825401925050819055508173ffffffffffffffffffffffffffffffffffffffff16600073ffffffffffffffffffffffffffffffffffffffff167fddf252ad1be2c89b69c2b068fc378daa952ba7f163c4a11628f55a4df523b3ef83604051620001c89190620008fb565b60405180910390a3620001e460008383620001ed60201b60201c565b5050565b505050565b505050565b6000604051905090565b600080fd5b600080fd5b600080fd5b600080fd5b6000601f19601f8301169050919050565b7f4e487b7100000000000000000000000000000000000000000000000000000000600052604160045260246000fd5b6200025b8262000210565b810181811067ffffffffffffffff821117156200027d576200027c62000221565b5b80604052505050565b600062000292620001f2565b9050620002a0828262000250565b919050565b600067ffffffffffffffff821115620002c357620002c262000221565b5b620002ce8262000210565b9050602081019050919050565b60005b83811015620002fb578082015181840152602081019050620002de565b60008484015250505050565b60006200031e6200031884620002a5565b62000286565b9050828152602081018484840111156200033d576200033c6200020b565b5b6200034a848285620002db565b509392505050565b600082601f8301126200036a576200036962000206565b5b81516200037c84826020860162000307565b91505092915050565b600073ffffffffffffffffffffffffffffffffffffffff82169050919050565b6000620003b28262000385565b9050919050565b620003c481620003a5565b8114620003d057600080fd5b50565b600081519050620003e481620003b9565b92915050565b6000819050919050565b620003ff81620003ea565b81146200040b57600080fd5b50565b6000815190506200041f81620003f4565b92915050565b60008060008060808587031215620004425762000441620001fc565b5b600085015167ffffffffffffffff81111562000463576200046262000201565b5b620004718782880162000352565b945050602085015167ffffffffffffffff81111562000495576200049462000201565b5b620004a38782880162000352565b9350506040620004b687828801620003d3565b9250506060620004c9878288016200040e565b91505092959194509250565b600081519050919050565b7f4e487b7100000000000000000000000000000000000000000000000000000000600052602260045260246000fd5b600060028204905060018216806200052857607f821691505b6020821081036200053e576200053d620004e0565b5b50919050565b60008190508160005260206000209050919050565b60006020601f8301049050919050565b600082821b905092915050565b600060088302620005a87fffffffffffffffffffffffffffffffffffffffffffffffffffffffffffffffff8262000569565b620005b4868362000569565b95508019841693508086168417925050509392505050565b6000819050919050565b6000620005f7620005f1620005eb84620003ea565b620005cc565b620003ea565b9050919050565b6000819050919050565b6200061383620005d6565b6200062b6200062282620005fe565b84845462000576565b825550505050565b600090565b6200064262000633565b6200064f81848462000608565b505050565b5b8181101562000677576200066b60008262000638565b60018101905062000655565b5050565b601f821115620006c657620006908162000544565b6200069b8462000559565b81016020851015620006ab578190505b620006c3620006ba8562000559565b83018262000654565b50505b505050565b600082821c905092915050565b6000620006eb60001984600802620006cb565b1980831691505092915050565b6000620007068383620006d8565b9150826002028217905092915050565b6200072182620004d5565b67ffffffffffffffff8111156200073d576200073c62000221565b5b6200074982546200050f565b620007568282856200067b565b600060209050601f8311600181146200078e576000841562000779578287015190505b620007858582620006f8565b865550620007f5565b601f1984166200079e8662000544565b60005b82811015620007c857848901518255600182019150602085019450602081019050620007a1565b86831015620007e85784890151620007e4601f891682620006d8565b8355505b6001600288020188555050505b505050505050565b600082825260208201905092915050565b7f45524332303a206d696e7420746f20746865207a65726f206164647265737300600082015250565b600062000846601f83620007fd565b915062000853826200080e565b602082019050919050565b60006020820190508181036000830152620008798162000837565b9050919050565b7f4e487b7100000000000000000000000000000000000000000000000000000000600052601160045260246000fd5b6000620008bc82620003ea565b9150620008c983620003ea565b9250828201905080821115620008e457620008e362000880565b5b92915050565b620008f581620003ea565b82525050565b6000602082019050620009126000830184620008ea565b92915050565b61216680620009286000396000f3fe608060405234801561001057600080fd5b506004361061014d5760003560e01c806340c10f19116100c35780639e4e73181161007c5780639e4e7318146103a2578063a457c2d7146103c0578063a9059cbb146103f0578063c473af3314610420578063d505accf1461043e578063dd62ed3e1461045a5761014d565b806340c10f19146102d057806342966c68146102ec57806356189cb41461030857806370a08231146103245780637ecebe001461035457806395d89b41146103845761014d565b806323b872dd1161011557806323b872dd146101f857806330adf81f14610228578063313ce567146102465780633408e470146102645780633644e5151461028257806339509351146102a05761014d565b806304622c2e1461015257806306fdde0314610170578063095ea7b31461018e57806318160ddd146101be578063222f5be0146101dc575b600080fd5b61015a61048a565b60405161016791906113e4565b60405180910390f35b610178610490565b604051610185919061148f565b60405180910390f35b6101a860048036038101906101a3919061154a565b610522565b6040516101b591906115a5565b60405180910390f35b6101c6610545565b6040516101d391906115cf565b60405180910390f35b6101f660048036038101906101f191906115ea565b61054f565b005b610212600480360381019061020d91906115ea565b61055f565b60405161021f91906115a5565b60405180910390f35b61023061058e565b60405161023d91906113e4565b60405180910390f35b61024e6105b2565b60405161025b9190611659565b60405180910390f35b61026c6105bb565b60405161027991906115cf565b60405180910390f35b61028a6105c3565b60405161029791906113e4565b60405180910390f35b6102ba60048036038101906102b5919061154a565b610648565b6040516102c791906115a5565b60405180910390f35b6102ea60048036038101906102e5919061154a565b61067f565b005b61030660048036038101906103019190611674565b61068d565b005b610322600480360381019061031d91906115ea565b61069a565b005b61033e600480360381019061033991906116a1565b6106aa565b60405161034b91906115cf565b60405180910390f35b61036e600480360381019061036991906116a1565b6106f2565b60405161037b91906115cf565b60405180910390f35b61038c61070a565b604051610399919061148f565b60405180910390f35b6103aa61079c565b6040516103b791906113e4565b60405180910390f35b6103da60048036038101906103d5919061154a565b6107c3565b6040516103e791906115a5565b60405180910390f35b61040a6004803603810190610405919061154a565b61083a565b60405161041791906115a5565b60405180910390f35b61042861085d565b60405161043591906113e4565b60405180910390f35b61045860048036038101906104539190611726565b610884565b005b610474600480360381019061046f91906117c8565b610991565b60405161048191906115cf565b60405180910390f35b60065481565b60606003805461049f90611837565b80601f01602080910402602001604051908101604052809291908181526020018280546104cb90611837565b80156105185780601f106104ed57610100808354040283529160200191610518565b820191906000526020600020905b8154815290600101906020018083116104fb57829003601f168201915b5050505050905090565b60008061052d610a18565b905061053a818585610a20565b600191505092915050565b6000600254905090565b61055a838383610be9565b505050565b60008061056a610a18565b9050610577858285610e5f565b610582858585610be9565b60019150509392505050565b7f6e71edae12b1b97f4d1f60370fef10105fa2faae0126114a169c64845d6126c981565b60006012905090565b600046905090565b60007f8b73c3c69bb8fe3d512ecc4cf759cc79239f7b179b0ffacaa9a75d522b39400f60001b6006547fc89efdaa54c0f20c7adf612882df0950f5a951637e0307cdcb4c672f298b8bc660001b6106186105bb565b3060405160200161062d959493929190611877565b60405160208183030381529060405280519060200120905090565b600080610653610a18565b90506106748185856106658589610991565b61066f91906118f9565b610a20565b600191505092915050565b6106898282610eeb565b5050565b6106973382611041565b50565b6106a5838383610a20565b505050565b60008060008373ffffffffffffffffffffffffffffffffffffffff1673ffffffffffffffffffffffffffffffffffffffff168152602001908152602001600020549050919050565b60056020528060005260406000206000915090505481565b60606004805461071990611837565b80601f016020809104026020016040519081016040528092919081815260200182805461074590611837565b80156107925780601f1061076757610100808354040283529160200191610792565b820191906000526020600020905b81548152906001019060200180831161077557829003601f168201915b5050505050905090565b7fc89efdaa54c0f20c7adf612882df0950f5a951637e0307cdcb4c672f298b8bc660001b81565b6000806107ce610a18565b905060006107dc8286610991565b905083811015610821576040517f08c379a00000000000000000000000000000000000000000000000000000000081526004016108189061199f565b60405180910390fd5b61082e8286868403610a20565b60019250505092915050565b600080610845610a18565b9050610852818585610be9565b600191505092915050565b7f8b73c3c69bb8fe3d512ecc4cf759cc79239f7b179b0ffacaa9a75d522b39400f60001b81565b428410156108c7576040517f08c379a00000000000000000000000000000000000000000000000000000000081526004016108be90611a0b565b60405180910390fd5b60007f6e71edae12b1b97f4d1f60370fef10105fa2faae0126114a169c64845d6126c9888888600560008d73ffffffffffffffffffffffffffffffffffffffff1673ffffffffffffffffffffffffffffffffffffffff168152602001908152602001600020600081548092919061093d90611a2b565b919050558960405160200161095796959493929190611a73565b60405160208183030381529060405280519060200120905061097c888286868661120e565b610987888888610a20565b5050505050505050565b6000600160008473ffffffffffffffffffffffffffffffffffffffff1673ffffffffffffffffffffffffffffffffffffffff16815260200190815260200160002060008373ffffffffffffffffffffffffffffffffffffffff1673ffffffffffffffffffffffffffffffffffffffff16815260200190815260200160002054905092915050565b600033905090565b600073ffffffffffffffffffffffffffffffffffffffff168373ffffffffffffffffffffffffffffffffffffffff1603610a8f576040517f08c379a0000000000000000000000000000000000000000000000000000000008152600401610a8690611b46565b60405180910390fd5b600073ffffffffffffffffffffffffffffffffffffffff168273ffffffffffffffffffffffffffffffffffffffff1603610afe576040517f08c379a0000000000000000000000000000000000000000000000000000000008152600401610af590611bd8565b60405180910390fd5b80600160008573ffffffffffffffffffffffffffffffffffffffff1673ffffffffffffffffffffffffffffffffffffffff16815260200190815260200160002060008473ffffffffffffffffffffffffffffffffffffffff1673ffffffffffffffffffffffffffffffffffffffff168152602001908152602001600020819055508173ffffffffffffffffffffffffffffffffffffffff168373ffffffffffffffffffffffffffffffffffffffff167f8c5be1e5ebec7d5bd14f71427d1e84f3dd0314c0f7b2291e5b200ac8c7c3b92583604051610bdc91906115cf565b60405180910390a3505050565b600073ffffffffffffffffffffffffffffffffffffffff168373ffffffffffffffffffffffffffffffffffffffff1603610c58576040517f08c379a0000000000000000000000000000000000000000000000000000000008152600401610c4f90611c6a565b60405180910390fd5b600073ffffffffffffffffffffffffffffffffffffffff168273ffffffffffffffffffffffffffffffffffffffff1603610cc7576040517f08c379a0000000000000000000000000000000000000000000000000000000008152600401610cbe90611cfc565b60405180910390fd5b610cd28383836113c1565b60008060008573ffffffffffffffffffffffffffffffffffffffff1673ffffffffffffffffffffffffffffffffffffffff16815260200190815260200160002054905081811015610d58576040517f08c379a0000000000000000000000000000000000000000000000000000000008152600401610d4f90611d8e565b60405180910390fd5b8181036000808673ffffffffffffffffffffffffffffffffffffffff1673ffffffffffffffffffffffffffffffffffffffff16815260200190815260200160002081905550816000808573ffffffffffffffffffffffffffffffffffffffff1673ffffffffffffffffffffffffffffffffffffffff168152602001908152602001600020600082825401925050819055508273ffffffffffffffffffffffffffffffffffffffff168473ffffffffffffffffffffffffffffffffffffffff167fddf252ad1be2c89b69c2b068fc378daa952ba7f163c4a11628f55a4df523b3ef84604051610e4691906115cf565b60405180910390a3610e598484846113c6565b50505050565b6000610e6b8484610991565b90507fffffffffffffffffffffffffffffffffffffffffffffffffffffffffffffffff8114610ee55781811015610ed7576040517f08c379a0000000000000000000000000000000000000000000000000000000008152600401610ece90611dfa565b60405180910390fd5b610ee48484848403610a20565b5b50505050565b600073ffffffffffffffffffffffffffffffffffffffff168273ffffffffffffffffffffffffffffffffffffffff1603610f5a576040517f08c379a0000000000000000000000000000000000000000000000000000000008152600401610f5190611e66565b60405180910390fd5b610f66600083836113c1565b8060026000828254610f7891906118f9565b92505081905550806000808473ffffffffffffffffffffffffffffffffffffffff1673ffffffffffffffffffffffffffffffffffffffff168152602001908152602001600020600082825401925050819055508173ffffffffffffffffffffffffffffffffffffffff16600073ffffffffffffffffffffffffffffffffffffffff167fddf252ad1be2c89b69c2b068fc378daa952ba7f163c4a11628f55a4df523b3ef8360405161102991906115cf565b60405180910390a361103d600083836113c6565b5050565b600073ffffffffffffffffffffffffffffffffffffffff168273ffffffffffffffffffffffffffffffffffffffff16036110b0576040517f08c379a00000000000000000000000000000000000000000000000000000000081526004016110a790611ef8565b60405180910390fd5b6110bc826000836113c1565b60008060008473ffffffffffffffffffffffffffffffffffffffff1673ffffffffffffffffffffffffffffffffffffffff16815260200190815260200160002054905081811015611142576040517f08c379a000000000000000000000000000000000000000000000000000000000815260040161113990611f8a565b60405180910390fd5b8181036000808573ffffffffffffffffffffffffffffffffffffffff1673ffffffffffffffffffffffffffffffffffffffff1681526020019081526020016000208190555081600260008282540392505081905550600073ffffffffffffffffffffffffffffffffffffffff168373ffffffffffffffffffffffffffffffffffffffff167fddf252ad1be2c89b69c2b068fc378daa952ba7f163c4a11628f55a4df523b3ef846040516111f591906115cf565b60405180910390a3611209836000846113c6565b505050565b60007f8b73c3c69bb8fe3d512ecc4cf759cc79239f7b179b0ffacaa9a75d522b39400f60001b6006547fc89efdaa54c0f20c7adf612882df0950f5a951637e0307cdcb4c672f298b8bc660001b6112636105bb565b30604051602001611278959493929190611877565b604051602081830303815290604052805190602001209050600081866040516020016112a5929190612022565b6040516020818303038152906040528051906020012090506000600182878787604051600081526020016040526040516112e29493929190612059565b6020604051602081039080840390855afa158015611304573d6000803e3d6000fd5b505050602060405103519050600073ffffffffffffffffffffffffffffffffffffffff168173ffffffffffffffffffffffffffffffffffffffff161415801561137857508773ffffffffffffffffffffffffffffffffffffffff168173ffffffffffffffffffffffffffffffffffffffff16145b6113b7576040517f08c379a00000000000000000000000000000000000000000000000000000000081526004016113ae90612110565b60405180910390fd5b5050505050505050565b505050565b505050565b6000819050919050565b6113de816113cb565b82525050565b60006020820190506113f960008301846113d5565b92915050565b600081519050919050565b600082825260208201905092915050565b60005b8381101561143957808201518184015260208101905061141e565b60008484015250505050565b6000601f19601f8301169050919050565b6000611461826113ff565b61146b818561140a565b935061147b81856020860161141b565b61148481611445565b840191505092915050565b600060208201905081810360008301526114a98184611456565b905092915050565b600080fd5b600073ffffffffffffffffffffffffffffffffffffffff82169050919050565b60006114e1826114b6565b9050919050565b6114f1816114d6565b81146114fc57600080fd5b50565b60008135905061150e816114e8565b92915050565b6000819050919050565b61152781611514565b811461153257600080fd5b50565b6000813590506115448161151e565b92915050565b60008060408385031215611561576115606114b1565b5b600061156f858286016114ff565b925050602061158085828601611535565b9150509250929050565b60008115159050919050565b61159f8161158a565b82525050565b60006020820190506115ba6000830184611596565b92915050565b6115c981611514565b82525050565b60006020820190506115e460008301846115c0565b92915050565b600080600060608486031215611603576116026114b1565b5b6000611611868287016114ff565b9350506020611622868287016114ff565b925050604061163386828701611535565b9150509250925092565b600060ff82169050919050565b6116538161163d565b82525050565b600060208201905061166e600083018461164a565b92915050565b60006020828403121561168a576116896114b1565b5b600061169884828501611535565b91505092915050565b6000602082840312156116b7576116b66114b1565b5b60006116c5848285016114ff565b91505092915050565b6116d78161163d565b81146116e257600080fd5b50565b6000813590506116f4816116ce565b92915050565b611703816113cb565b811461170e57600080fd5b50565b600081359050611720816116fa565b92915050565b600080600080600080600060e0888a031215611745576117446114b1565b5b60006117538a828b016114ff565b97505060206117648a828b016114ff565b96505060406117758a828b01611535565b95505060606117868a828b01611535565b94505060806117978a828b016116e5565b93505060a06117a88a828b01611711565b92505060c06117b98a828b01611711565b91505092959891949750929550565b600080604083850312156117df576117de6114b1565b5b60006117ed858286016114ff565b92505060206117fe858286016114ff565b9150509250929050565b7f4e487b7100000000000000000000000000000000000000000000000000000000600052602260045260246000fd5b6000600282049050600182168061184f57607f821691505b60208210810361186257611861611808565b5b50919050565b611871816114d6565b82525050565b600060a08201905061188c60008301886113d5565b61189960208301876113d5565b6118a660408301866113d5565b6118b360608301856115c0565b6118c06080830184611868565b9695505050505050565b7f4e487b7100000000000000000000000000000000000000000000000000000000600052601160045260246000fd5b600061190482611514565b915061190f83611514565b9250828201905080821115611927576119266118ca565b5b92915050565b7f45524332303a2064656372656173656420616c6c6f77616e63652062656c6f7760008201527f207a65726f000000000000000000000000000000000000000000000000000000602082015250565b600061198960258361140a565b91506119948261192d565b604082019050919050565b600060208201905081810360008301526119b88161197c565b9050919050565b7f48455a3a3a7065726d69743a20415554485f4558504952454400000000000000600082015250565b60006119f560198361140a565b9150611a00826119bf565b602082019050919050565b60006020820190508181036000830152611a24816119e8565b9050919050565b6000611a3682611514565b91507fffffffffffffffffffffffffffffffffffffffffffffffffffffffffffffffff8203611a6857611a676118ca565b5b600182019050919050565b600060c082019050611a8860008301896113d5565b611a956020830188611868565b611aa26040830187611868565b611aaf60608301866115c0565b611abc60808301856115c0565b611ac960a08301846115c0565b979650505050505050565b7f45524332303a20617070726f76652066726f6d20746865207a65726f2061646460008201527f7265737300000000000000000000000000000000000000000000000000000000602082015250565b6000611b3060248361140a565b9150611b3b82611ad4565b604082019050919050565b60006020820190508181036000830152611b5f81611b23565b9050919050565b7f45524332303a20617070726f766520746f20746865207a65726f20616464726560008201527f7373000000000000000000000000000000000000000000000000000000000000602082015250565b6000611bc260228361140a565b9150611bcd82611b66565b604082019050919050565b60006020820190508181036000830152611bf181611bb5565b9050919050565b7f45524332303a207472616e736665722066726f6d20746865207a65726f20616460008201527f6472657373000000000000000000000000000000000000000000000000000000602082015250565b6000611c5460258361140a565b9150611c5f82611bf8565b604082019050919050565b60006020820190508181036000830152611c8381611c47565b9050919050565b7f45524332303a207472616e7366657220746f20746865207a65726f206164647260008201527f6573730000000000000000000000000000000000000000000000000000000000602082015250565b6000611ce660238361140a565b9150611cf182611c8a565b604082019050919050565b60006020820190508181036000830152611d1581611cd9565b9050919050565b7f45524332303a207472616e7366657220616d6f756e742065786365656473206260008201527f616c616e63650000000000000000000000000000000000000000000000000000602082015250565b6000611d7860268361140a565b9150611d8382611d1c565b604082019050919050565b60006020820190508181036000830152611da781611d6b565b9050919050565b7f45524332303a20696e73756666696369656e7420616c6c6f77616e6365000000600082015250565b6000611de4601d8361140a565b9150611def82611dae565b602082019050919050565b60006020820190508181036000830152611e1381611dd7565b9050919050565b7f45524332303a206d696e7420746f20746865207a65726f206164647265737300600082015250565b6000611e50601f8361140a565b9150611e5b82611e1a565b602082019050919050565b60006020820190508181036000830152611e7f81611e43565b9050919050565b7f45524332303a206275726e2066726f6d20746865207a65726f2061646472657360008201527f7300000000000000000000000000000000000000000000000000000000000000602082015250565b6000611ee260218361140a565b9150611eed82611e86565b604082019050919050565b60006020820190508181036000830152611f1181611ed5565b9050919050565b7f45524332303a206275726e20616d6f756e7420657863656564732062616c616e60008201527f6365000000000000000000000000000000000000000000000000000000000000602082015250565b6000611f7460228361140a565b9150611f7f82611f18565b604082019050919050565b60006020820190508181036000830152611fa381611f67565b9050919050565b600081905092915050565b7f1901000000000000000000000000000000000000000000000000000000000000600082015250565b6000611feb600283611faa565b9150611ff682611fb5565b600282019050919050565b6000819050919050565b61201c612017826113cb565b612001565b82525050565b600061202d82611fde565b9150612039828561200b565b602082019150612049828461200b565b6020820191508190509392505050565b600060808201905061206e60008301876113d5565b61207b602083018661164a565b61208860408301856113d5565b61209560608301846113d5565b95945050505050565b7f48455a3a3a5f76616c69646174655369676e6564446174613a20494e56414c4960008201527f445f5349474e4154555245000000000000000000000000000000000000000000602082015250565b60006120fa602b8361140a565b91506121058261209e565b604082019050919050565b60006020820190508181036000830152612129816120ed565b905091905056fea2646970667358221220efba5f69a2f3ece77ae8eae9cd6102b0a856b8d6b372ab33c0d4e8b1e99f1d7564736f6c63430008140033",
  "linkReferences": {},
  "deployedLinkReferences": {}
}