{
  "_format": "hh-sol-artifact-1",
  "contractName": "PolygonZkEVMBridge",
  "sourceName": "contracts/PolygonZkEVMBridge.sol",
  "abi": [
    {
      "inputs": [],
      "name": "AlreadyClaimed",
      "type": "error"
    },
    {
      "inputs": [],
      "name": "AmountDoesNotMatchMsgValue",
      "type": "error"
    },
    {
      "inputs": [],
      "name": "DestinationNetworkInvalid",
      "type": "error"
    },
    {
      "inputs": [],
      "name": "EtherTransferFailed",
      "type": "error"
    },
    {
      "inputs": [],
      "name": "GlobalExitRootInvalid",
      "type": "error"
    },
    {
      "inputs": [],
      "name": "InvalidSmtProof",
      "type": "error"
    },
    {
      "inputs": [],
      "name": "MerkleTreeFull",
      "type": "error"
    },
    {
      "inputs": [],
      "name": "MessageFailed",
      "type": "error"
    },
    {
      "inputs": [],
      "name": "MsgValueNotZero",
      "type": "error"
    },
    {
      "inputs": [],
      "name": "NotValidAmount",
      "type": "error"
    },
    {
      "inputs": [],
      "name": "NotValidOwner",
      "type": "error"
    },
    {
      "inputs": [],
      "name": "NotValidSignature",
      "type": "error"
    },
    {
      "inputs": [],
      "name": "NotValidSpender",
      "type": "error"
    },
    {
      "inputs": [],
      "name": "OnlyEmergencyState",
      "type": "error"
    },
    {
      "inputs": [],
      "name": "OnlyNotEmergencyState",
      "type": "error"
    },
    {
      "inputs": [],
      "name": "OnlyPolygonZkEVM",
      "type": "error"
    },
    {
      "anonymous": false,
      "inputs": [
        {
          "indexed": false,
          "internalType": "uint8",
          "name": "leafType",
          "type": "uint8"
        },
        {
          "indexed": false,
          "internalType": "uint32",
          "name": "originNetwork",
          "type": "uint32"
        },
        {
          "indexed": false,
          "internalType": "address",
          "name": "originAddress",
          "type": "address"
        },
        {
          "indexed": false,
          "internalType": "uint32",
          "name": "destinationNetwork",
          "type": "uint32"
        },
        {
          "indexed": false,
          "internalType": "address",
          "name": "destinationAddress",
          "type": "address"
        },
        {
          "indexed": false,
          "internalType": "uint256",
          "name": "amount",
          "type": "uint256"
        },
        {
          "indexed": false,
          "internalType": "bytes",
          "name": "metadata",
          "type": "bytes"
        },
        {
          "indexed": false,
          "internalType": "uint32",
          "name": "depositCount",
          "type": "uint32"
        }
      ],
      "name": "BridgeEvent",
      "type": "event"
    },
    {
      "anonymous": false,
      "inputs": [
        {
          "indexed": false,
          "internalType": "uint32",
          "name": "index",
          "type": "uint32"
        },
        {
          "indexed": false,
          "internalType": "uint32",
          "name": "originNetwork",
          "type": "uint32"
        },
        {
          "indexed": false,
          "internalType": "address",
          "name": "originAddress",
          "type": "address"
        },
        {
          "indexed": false,
          "internalType": "address",
          "name": "destinationAddress",
          "type": "address"
        },
        {
          "indexed": false,
          "internalType": "uint256",
          "name": "amount",
          "type": "uint256"
        }
      ],
      "name": "ClaimEvent",
      "type": "event"
    },
    {
      "anonymous": false,
      "inputs": [],
      "name": "EmergencyStateActivated",
      "type": "event"
    },
    {
      "anonymous": false,
      "inputs": [],
      "name": "EmergencyStateDeactivated",
      "type": "event"
    },
    {
      "anonymous": false,
      "inputs": [
        {
          "indexed": false,
          "internalType": "uint8",
          "name": "version",
          "type": "uint8"
        }
      ],
      "name": "Initialized",
      "type": "event"
    },
    {
      "anonymous": false,
      "inputs": [
        {
          "indexed": false,
          "internalType": "uint32",
          "name": "originNetwork",
          "type": "uint32"
        },
        {
          "indexed": false,
          "internalType": "address",
          "name": "originTokenAddress",
          "type": "address"
        },
        {
          "indexed": false,
          "internalType": "address",
          "name": "wrappedTokenAddress",
          "type": "address"
        },
        {
          "indexed": false,
          "internalType": "bytes",
          "name": "metadata",
          "type": "bytes"
        }
      ],
      "name": "NewWrappedToken",
      "type": "event"
    },
    {
      "inputs": [],
      "name": "activateEmergencyState",
      "outputs": [],
      "stateMutability": "nonpayable",
      "type": "function"
    },
    {
      "inputs": [
        {
          "internalType": "uint32",
          "name": "destinationNetwork",
          "type": "uint32"
        },
        {
          "internalType": "address",
          "name": "destinationAddress",
          "type": "address"
        },
        {
          "internalType": "uint256",
          "name": "amount",
          "type": "uint256"
        },
        {
          "internalType": "address",
          "name": "token",
          "type": "address"
        },
        {
          "internalType": "bool",
          "name": "forceUpdateGlobalExitRoot",
          "type": "bool"
        },
        {
          "internalType": "bytes",
          "name": "permitData",
          "type": "bytes"
        }
      ],
      "name": "bridgeAsset",
      "outputs": [],
      "stateMutability": "payable",
      "type": "function"
    },
    {
      "inputs": [
        {
          "internalType": "uint32",
          "name": "destinationNetwork",
          "type": "uint32"
        },
        {
          "internalType": "address",
          "name": "destinationAddress",
          "type": "address"
        },
        {
          "internalType": "bool",
          "name": "forceUpdateGlobalExitRoot",
          "type": "bool"
        },
        {
          "internalType": "bytes",
          "name": "metadata",
          "type": "bytes"
        }
      ],
      "name": "bridgeMessage",
      "outputs": [],
      "stateMutability": "payable",
      "type": "function"
    },
    {
      "inputs": [
        {
          "internalType": "bytes32[32]",
          "name": "smtProof",
          "type": "bytes32[32]"
        },
        {
          "internalType": "uint32",
          "name": "index",
          "type": "uint32"
        },
        {
          "internalType": "bytes32",
          "name": "mainnetExitRoot",
          "type": "bytes32"
        },
        {
          "internalType": "bytes32",
          "name": "rollupExitRoot",
          "type": "bytes32"
        },
        {
          "internalType": "uint32",
          "name": "originNetwork",
          "type": "uint32"
        },
        {
          "internalType": "address",
          "name": "originTokenAddress",
          "type": "address"
        },
        {
          "internalType": "uint32",
          "name": "destinationNetwork",
          "type": "uint32"
        },
        {
          "internalType": "address",
          "name": "destinationAddress",
          "type": "address"
        },
        {
          "internalType": "uint256",
          "name": "amount",
          "type": "uint256"
        },
        {
          "internalType": "bytes",
          "name": "metadata",
          "type": "bytes"
        }
      ],
      "name": "claimAsset",
      "outputs": [],
      "stateMutability": "nonpayable",
      "type": "function"
    },
    {
      "inputs": [
        {
          "internalType": "bytes32[32]",
          "name": "smtProof",
          "type": "bytes32[32]"
        },
        {
          "internalType": "uint32",
          "name": "index",
          "type": "uint32"
        },
        {
          "internalType": "bytes32",
          "name": "mainnetExitRoot",
          "type": "bytes32"
        },
        {
          "internalType": "bytes32",
          "name": "rollupExitRoot",
          "type": "bytes32"
        },
        {
          "internalType": "uint32",
          "name": "originNetwork",
          "type": "uint32"
        },
        {
          "internalType": "address",
          "name": "originAddress",
          "type": "address"
        },
        {
          "internalType": "uint32",
          "name": "destinationNetwork",
          "type": "uint32"
        },
        {
          "internalType": "address",
          "name": "destinationAddress",
          "type": "address"
        },
        {
          "internalType": "uint256",
          "name": "amount",
          "type": "uint256"
        },
        {
          "internalType": "bytes",
          "name": "metadata",
          "type": "bytes"
        }
      ],
      "name": "claimMessage",
      "outputs": [],
      "stateMutability": "nonpayable",
      "type": "function"
    },
    {
      "inputs": [
        {
          "internalType": "uint256",
          "name": "",
          "type": "uint256"
        }
      ],
      "name": "claimedBitMap",
      "outputs": [
        {
          "internalType": "uint256",
          "name": "",
          "type": "uint256"
        }
      ],
      "stateMutability": "view",
      "type": "function"
    },
    {
      "inputs": [],
      "name": "deactivateEmergencyState",
      "outputs": [],
      "stateMutability": "nonpayable",
      "type": "function"
    },
    {
      "inputs": [],
      "name": "depositCount",
      "outputs": [
        {
          "internalType": "uint256",
          "name": "",
          "type": "uint256"
        }
      ],
      "stateMutability": "view",
      "type": "function"
    },
    {
      "inputs": [],
      "name": "getDepositRoot",
      "outputs": [
        {
          "internalType": "bytes32",
          "name": "",
          "type": "bytes32"
        }
      ],
      "stateMutability": "view",
      "type": "function"
    },
    {
      "inputs": [
        {
          "internalType": "uint8",
          "name": "leafType",
          "type": "uint8"
        },
        {
          "internalType": "uint32",
          "name": "originNetwork",
          "type": "uint32"
        },
        {
          "internalType": "address",
          "name": "originAddress",
          "type": "address"
        },
        {
          "internalType": "uint32",
          "name": "destinationNetwork",
          "type": "uint32"
        },
        {
          "internalType": "address",
          "name": "destinationAddress",
          "type": "address"
        },
        {
          "internalType": "uint256",
          "name": "amount",
          "type": "uint256"
        },
        {
          "internalType": "bytes32",
          "name": "metadataHash",
          "type": "bytes32"
        }
      ],
      "name": "getLeafValue",
      "outputs": [
        {
          "internalType": "bytes32",
          "name": "",
          "type": "bytes32"
        }
      ],
      "stateMutability": "pure",
      "type": "function"
    },
    {
      "inputs": [
        {
          "internalType": "uint32",
          "name": "originNetwork",
          "type": "uint32"
        },
        {
          "internalType": "address",
          "name": "originTokenAddress",
          "type": "address"
        }
      ],
      "name": "getTokenWrappedAddress",
      "outputs": [
        {
          "internalType": "address",
          "name": "",
          "type": "address"
        }
      ],
      "stateMutability": "view",
      "type": "function"
    },
    {
      "inputs": [],
      "name": "globalExitRootManager",
      "outputs": [
        {
          "internalType": "contract IBasePolygonZkEVMGlobalExitRoot",
          "name": "",
          "type": "address"
        }
      ],
      "stateMutability": "view",
      "type": "function"
    },
    {
      "inputs": [
        {
          "internalType": "uint32",
          "name": "_networkID",
          "type": "uint32"
        },
        {
          "internalType": "contract IBasePolygonZkEVMGlobalExitRoot",
          "name": "_globalExitRootManager",
          "type": "address"
        },
        {
          "internalType": "address",
          "name": "_polygonZkEVMaddress",
          "type": "address"
        }
      ],
      "name": "initialize",
      "outputs": [],
      "stateMutability": "nonpayable",
      "type": "function"
    },
    {
      "inputs": [
        {
          "internalType": "uint256",
          "name": "index",
          "type": "uint256"
        }
      ],
      "name": "isClaimed",
      "outputs": [
        {
          "internalType": "bool",
          "name": "",
          "type": "bool"
        }
      ],
      "stateMutability": "view",
      "type": "function"
    },
    {
      "inputs": [],
      "name": "isEmergencyState",
      "outputs": [
        {
          "internalType": "bool",
          "name": "",
          "type": "bool"
        }
      ],
      "stateMutability": "view",
      "type": "function"
    },
    {
      "inputs": [],
      "name": "lastUpdatedDepositCount",
      "outputs": [
        {
          "internalType": "uint32",
          "name": "",
          "type": "uint32"
        }
      ],
      "stateMutability": "view",
      "type": "function"
    },
    {
      "inputs": [],
      "name": "networkID",
      "outputs": [
        {
          "internalType": "uint32",
          "name": "",
          "type": "uint32"
        }
      ],
      "stateMutability": "view",
      "type": "function"
    },
    {
      "inputs": [],
      "name": "polygonZkEVMaddress",
      "outputs": [
        {
          "internalType": "address",
          "name": "",
          "type": "address"
        }
      ],
      "stateMutability": "view",
      "type": "function"
    },
    {
      "inputs": [
        {
          "internalType": "uint32",
          "name": "originNetwork",
          "type": "uint32"
        },
        {
          "internalType": "address",
          "name": "originTokenAddress",
          "type": "address"
        },
        {
          "internalType": "string",
          "name": "name",
          "type": "string"
        },
        {
          "internalType": "string",
          "name": "symbol",
          "type": "string"
        },
        {
          "internalType": "uint8",
          "name": "decimals",
          "type": "uint8"
        }
      ],
      "name": "precalculatedWrapperAddress",
      "outputs": [
        {
          "internalType": "address",
          "name": "",
          "type": "address"
        }
      ],
      "stateMutability": "view",
      "type": "function"
    },
    {
      "inputs": [
        {
          "internalType": "bytes32",
          "name": "",
          "type": "bytes32"
        }
      ],
      "name": "tokenInfoToWrappedToken",
      "outputs": [
        {
          "internalType": "address",
          "name": "",
          "type": "address"
        }
      ],
      "stateMutability": "view",
      "type": "function"
    },
    {
      "inputs": [],
      "name": "updateGlobalExitRoot",
      "outputs": [],
      "stateMutability": "nonpayable",
      "type": "function"
    },
    {
      "inputs": [
        {
          "internalType": "bytes32",
          "name": "leafHash",
          "type": "bytes32"
        },
        {
          "internalType": "bytes32[32]",
          "name": "smtProof",
          "type": "bytes32[32]"
        },
        {
          "internalType": "uint32",
          "name": "index",
          "type": "uint32"
        },
        {
          "internalType": "bytes32",
          "name": "root",
          "type": "bytes32"
        }
      ],
      "name": "verifyMerkleProof",
      "outputs": [
        {
          "internalType": "bool",
          "name": "",
          "type": "bool"
        }
      ],
      "stateMutability": "pure",
      "type": "function"
    },
    {
      "inputs": [
        {
          "internalType": "address",
          "name": "",
          "type": "address"
        }
      ],
      "name": "wrappedTokenToTokenInfo",
      "outputs": [
        {
          "internalType": "uint32",
          "name": "originNetwork",
          "type": "uint32"
        },
        {
          "internalType": "address",
          "name": "originTokenAddress",
          "type": "address"
        }
      ],
      "stateMutability": "view",
      "type": "function"
    }
  ],
  "bytecode": "0x608060405234801561001057600080fd5b50617dc880620000216000396000f3fe6080604052600436106200015e5760003560e01c8063647c576c11620000c7578063be5831c71162000079578063be5831c714620004ca578063cd58657914620004fa578063d02103ca146200051a578063dbc16976146200054a578063ee25560b1462000564578063fb57083414620005a8576200015e565b8063647c576c146200038657806379e2cf9714620003b457806381b1c17414620003ce5780639e34070f1462000412578063aaa13cc21462000456578063bab161bf146200049a576200015e565b80632d2c9d9411620001215780632d2c9d94146200023f5780632dfdf0b5146200026d578063318aee3d146200029d57806334ac9cf214620002e25780633ae0504714620003125780633e1970431462000342576200015e565b806315064c9614620001635780632072f6c5146200019357806322e95f2c14620001ad578063240ff37814620001f15780632cffd02e1462000211575b600080fd5b3480156200017057600080fd5b506200017b620005ec565b6040516200018a9190620031d9565b60405180910390f35b348015620001a057600080fd5b50620001ab620005ff565b005b348015620001ba57600080fd5b50620001d96004803603810190620001d39190620032b0565b62000693565b604051620001e8919062003308565b60405180910390f35b6200020f6004803603810190620002099190620033c4565b620006fb565b005b3480156200021e57600080fd5b506200023d6004803603810190620002379190620034f4565b62000873565b005b3480156200024c57600080fd5b506200026b6004803603810190620002659190620034f4565b62000e13565b005b3480156200027a57600080fd5b506200028562000fc8565b60405162000294919062003626565b60405180910390f35b348015620002aa57600080fd5b50620002c96004803603810190620002c3919062003643565b62000fce565b604051620002d992919062003686565b60405180910390f35b348015620002ef57600080fd5b50620002fa62001022565b60405162000309919062003308565b60405180910390f35b3480156200031f57600080fd5b506200032a62001048565b604051620003399190620036c4565b60405180910390f35b3480156200034f57600080fd5b506200036e60048036038101906200036891906200371f565b6200113b565b6040516200037d9190620036c4565b60405180910390f35b3480156200039357600080fd5b50620003b26004803603810190620003ac919062003817565b6200117f565b005b348015620003c157600080fd5b50620003cc62001371565b005b348015620003db57600080fd5b50620003fa6004803603810190620003f4919062003873565b620013a1565b60405162000409919062003308565b60405180910390f35b3480156200041f57600080fd5b506200043e6004803603810190620004389190620038a5565b620013d4565b6040516200044d9190620031d9565b60405180910390f35b3480156200046357600080fd5b506200048260048036038101906200047c919062003936565b62001413565b60405162000491919062003308565b60405180910390f35b348015620004a757600080fd5b50620004b262001505565b604051620004c1919062003a05565b60405180910390f35b348015620004d757600080fd5b50620004e26200151b565b604051620004f1919062003a05565b60405180910390f35b62000518600480360381019062000512919062003a22565b62001531565b005b3480156200052757600080fd5b506200053262001a94565b60405162000541919062003b4e565b60405180910390f35b3480156200055757600080fd5b506200056262001aba565b005b3480156200057157600080fd5b506200059060048036038101906200058a9190620038a5565b62001b4e565b6040516200059f919062003626565b60405180910390f35b348015620005b557600080fd5b50620005d46004803603810190620005ce919062003b6b565b62001b66565b604051620005e39190620031d9565b60405180910390f35b606860009054906101000a900460ff1681565b3373ffffffffffffffffffffffffffffffffffffffff16606c60009054906101000a900473ffffffffffffffffffffffffffffffffffffffff1673ffffffffffffffffffffffffffffffffffffffff161462000687576040517fe2e8106b00000000000000000000000000000000000000000000000000000000815260040160405180910390fd5b6200069162001c4d565b565b6000606a60008484604051602001620006ae92919062003c6c565b60405160208183030381529060405280519060200120815260200190815260200160002060009054906101000a900473ffffffffffffffffffffffffffffffffffffffff16905092915050565b606860009054906101000a900460ff161562000743576040517f2f0047fc00000000000000000000000000000000000000000000000000000000815260040160405180910390fd5b606860019054906101000a900463ffffffff1663ffffffff168563ffffffff1614806200077d5750600263ffffffff168563ffffffff1610155b15620007b5576040517f0595ea2e00000000000000000000000000000000000000000000000000000000815260040160405180910390fd5b7f501781209a1f8899323b96b4ef08b168df93e0a90c673d1e4cce39366cb62f9b6001606860019054906101000a900463ffffffff163388883488886053546040516200080b9998979695949392919062003d11565b60405180910390a16200085a620008546001606860019054906101000a900463ffffffff163389893489896040516200084692919062003ddc565b60405180910390206200113b565b62001cde565b82156200086c576200086b62001e0c565b5b5050505050565b606860009054906101000a900460ff1615620008bb576040517f2f0047fc00000000000000000000000000000000000000000000000000000000815260040160405180910390fd5b620008d28b8b8b8b8b8b8b8b8b8b8b600062001ecb565b600073ffffffffffffffffffffffffffffffffffffffff168673ffffffffffffffffffffffffffffffffffffffff160362000a095760008473ffffffffffffffffffffffffffffffffffffffff1684600067ffffffffffffffff8111156200093f576200093e62003df7565b5b6040519080825280601f01601f191660200182016040528015620009725781602001600182028036833780820191505090505b5060405162000982919062003e94565b60006040518083038185875af1925050503d8060008114620009c1576040519150601f19603f3d011682016040523d82523d6000602084013e620009c6565b606091505b505090508062000a02576040517f6747a28800000000000000000000000000000000000000000000000000000000815260040160405180910390fd5b5062000dc5565b606860019054906101000a900463ffffffff1663ffffffff168763ffffffff160362000a625762000a5c84848873ffffffffffffffffffffffffffffffffffffffff16620020d39092919063ffffffff16565b62000dc4565b6000878760405160200162000a7992919062003c6c565b6040516020818303038152906040528051906020012090506000606a600083815260200190815260200160002060009054906101000a900473ffffffffffffffffffffffffffffffffffffffff169050600073ffffffffffffffffffffffffffffffffffffffff168173ffffffffffffffffffffffffffffffffffffffff160362000d4f576000806000868681019062000b14919062003fbb565b92509250925060008584848460405162000b2e90620031ae565b62000b3c93929190620040b2565b8190604051809103906000f590508015801562000b5d573d6000803e3d6000fd5b5090508073ffffffffffffffffffffffffffffffffffffffff166340c10f198b8b6040518363ffffffff1660e01b815260040162000b9d929190620040fd565b600060405180830381600087803b15801562000bb857600080fd5b505af115801562000bcd573d6000803e3d6000fd5b5050505080606a600088815260200190815260200160002060006101000a81548173ffffffffffffffffffffffffffffffffffffffff021916908373ffffffffffffffffffffffffffffffffffffffff16021790555060405180604001604052808e63ffffffff1681526020018d73ffffffffffffffffffffffffffffffffffffffff16815250606b60008373ffffffffffffffffffffffffffffffffffffffff1673ffffffffffffffffffffffffffffffffffffffff16815260200190815260200160002060008201518160000160006101000a81548163ffffffff021916908363ffffffff16021790555060208201518160000160046101000a81548173ffffffffffffffffffffffffffffffffffffffff021916908373ffffffffffffffffffffffffffffffffffffffff1602179055509050507f490e59a1701b938786ac72570a1efeac994a3dbe96e2e883e19e902ace6e6a398d8d838b8b60405162000d3d9594939291906200412a565b60405180910390a15050505062000dc1565b8073ffffffffffffffffffffffffffffffffffffffff166340c10f1987876040518363ffffffff1660e01b815260040162000d8c929190620040fd565b600060405180830381600087803b15801562000da757600080fd5b505af115801562000dbc573d6000803e3d6000fd5b505050505b50505b5b7f25308c93ceeed162da955b3f7ce3e3f93606579e40fb92029faa9efe275459838a8888878760405162000dfe95949392919062004180565b60405180910390a15050505050505050505050565b606860009054906101000a900460ff161562000e5b576040517f2f0047fc00000000000000000000000000000000000000000000000000000000815260040160405180910390fd5b62000e728b8b8b8b8b8b8b8b8b8b8b600162001ecb565b60008473ffffffffffffffffffffffffffffffffffffffff1684888a868660405160240162000ea59493929190620041dd565b604051602081830303815290604052631806b5f260e01b6020820180517bffffffffffffffffffffffffffffffffffffffffffffffffffffffff838183161783525050505060405162000ef9919062003e94565b60006040518083038185875af1925050503d806000811462000f38576040519150601f19603f3d011682016040523d82523d6000602084013e62000f3d565b606091505b505090508062000f79576040517f37e391c300000000000000000000000000000000000000000000000000000000815260040160405180910390fd5b7f25308c93ceeed162da955b3f7ce3e3f93606579e40fb92029faa9efe275459838b8989888860405162000fb295949392919062004180565b60405180910390a1505050505050505050505050565b60535481565b606b6020528060005260406000206000915090508060000160009054906101000a900463ffffffff16908060000160049054906101000a900473ffffffffffffffffffffffffffffffffffffffff16905082565b606c60009054906101000a900473ffffffffffffffffffffffffffffffffffffffff1681565b6000806000605354905060008060001b905060005b602081101562001131576001808285901c1603620010c057603381602081106200108c576200108b62004223565b5b015484604051602001620010a292919062004277565b604051602081830303815290604052805190602001209350620010ee565b8382604051602001620010d592919062004277565b6040516020818303038152906040528051906020012093505b81826040516020016200110392919062004277565b60405160208183030381529060405280519060200120915080806200112890620042d6565b9150506200105d565b5082935050505090565b6000878787878787876040516020016200115c979695949392919062004384565b604051602081830303815290604052805190602001209050979650505050505050565b60008060019054906101000a900460ff16159050808015620011b15750600160008054906101000a900460ff1660ff16105b80620011e25750620011c3306200215d565b158015620011e15750600160008054906101000a900460ff1660ff16145b5b62001224576040517f08c379a00000000000000000000000000000000000000000000000000000000081526004016200121b9062004489565b60405180910390fd5b60016000806101000a81548160ff021916908360ff160217905550801562001262576001600060016101000a81548160ff0219169083151502179055505b83606860016101000a81548163ffffffff021916908363ffffffff16021790555082606860056101000a81548173ffffffffffffffffffffffffffffffffffffffff021916908373ffffffffffffffffffffffffffffffffffffffff16021790555081606c60006101000a81548173ffffffffffffffffffffffffffffffffffffffff021916908373ffffffffffffffffffffffffffffffffffffffff1602179055506200130f62002180565b80156200136b5760008060016101000a81548160ff0219169083151502179055507f7f26b83ff96e1f2b6a682f133852f6798a09c465da95921460cefb38474024986001604051620013629190620044ee565b60405180910390a15b50505050565b605354606860199054906101000a900463ffffffff1663ffffffff1610156200139f576200139e62001e0c565b5b565b606a6020528060005260406000206000915054906101000a900473ffffffffffffffffffffffffffffffffffffffff1681565b6000806000620013e484620021de565b915091506000816001901b90508081606960008681526020019081526020016000205416149350505050919050565b60008088886040516020016200142b92919062003c6c565b604051602081830303815290604052805190602001209050600060ff60f81b3083604051806020016200145e90620031ae565b6020820181038252601f19601f820116604052508b8b8b8b8b6040516020016200148d9594939291906200453e565b604051602081830303815290604052604051602001620014af9291906200458d565b60405160208183030381529060405280519060200120604051602001620014da949392919062004606565b6040516020818303038152906040528051906020012090508060001c92505050979650505050505050565b606860019054906101000a900463ffffffff1681565b606860199054906101000a900463ffffffff1681565b606860009054906101000a900460ff161562001579576040517f2f0047fc00000000000000000000000000000000000000000000000000000000815260040160405180910390fd5b6200158362002214565b606860019054906101000a900463ffffffff1663ffffffff168763ffffffff161480620015bd5750600263ffffffff168763ffffffff1610155b15620015f5576040517f0595ea2e00000000000000000000000000000000000000000000000000000000815260040160405180910390fd5b60008060606000889050600073ffffffffffffffffffffffffffffffffffffffff168873ffffffffffffffffffffffffffffffffffffffff160362001678578834146200166e576040517fb89240f500000000000000000000000000000000000000000000000000000000815260040160405180910390fd5b60009250620019fe565b60003414620016b3576040517f798ee6f100000000000000000000000000000000000000000000000000000000815260040160405180910390fd5b6000606b60008a73ffffffffffffffffffffffffffffffffffffffff1673ffffffffffffffffffffffffffffffffffffffff1681526020019081526020016000206040518060400160405290816000820160009054906101000a900463ffffffff1663ffffffff1663ffffffff1681526020016000820160049054906101000a900473ffffffffffffffffffffffffffffffffffffffff1673ffffffffffffffffffffffffffffffffffffffff1673ffffffffffffffffffffffffffffffffffffffff16815250509050600073ffffffffffffffffffffffffffffffffffffffff16816020015173ffffffffffffffffffffffffffffffffffffffff16146200183b578873ffffffffffffffffffffffffffffffffffffffff16639dc29fac338c6040518363ffffffff1660e01b8152600401620017f3929190620040fd565b600060405180830381600087803b1580156200180e57600080fd5b505af115801562001823573d6000803e3d6000fd5b505050508060200151945080600001519350620019fc565b60008787905014620018565762001855898b898962002266565b5b60008973ffffffffffffffffffffffffffffffffffffffff166370a08231306040518263ffffffff1660e01b815260040162001893919062003308565b602060405180830381865afa158015620018b1573d6000803e3d6000fd5b505050506040513d601f19601f82011682018060405250810190620018d7919062004673565b90506200190833308d8d73ffffffffffffffffffffffffffffffffffffffff16620027a9909392919063ffffffff16565b60008a73ffffffffffffffffffffffffffffffffffffffff166370a08231306040518263ffffffff1660e01b815260040162001945919062003308565b602060405180830381865afa15801562001963573d6000803e3d6000fd5b505050506040513d601f19601f8201168201806040525081019062001989919062004673565b90508181620019999190620046a5565b93508a9650606860019054906101000a900463ffffffff169550620019be8b62002836565b620019c98c6200294a565b620019d48d62002a5e565b604051602001620019e893929190620040b2565b604051602081830303815290604052945050505b505b7f501781209a1f8899323b96b4ef08b168df93e0a90c673d1e4cce39366cb62f9b600084868e8e868860535460405162001a4098979695949392919062004721565b60405180910390a162001a6b62001a65600085878f8f8789805190602001206200113b565b62001cde565b861562001a7d5762001a7c62001e0c565b5b5050505062001a8b62002b57565b50505050505050565b606860059054906101000a900473ffffffffffffffffffffffffffffffffffffffff1681565b3373ffffffffffffffffffffffffffffffffffffffff16606c60009054906101000a900473ffffffffffffffffffffffffffffffffffffffff1673ffffffffffffffffffffffffffffffffffffffff161462001b42576040517fe2e8106b00000000000000000000000000000000000000000000000000000000815260040160405180910390fd5b62001b4c62002b60565b565b60696020528060005260406000206000915090505481565b60008085905060005b602081101562001c3e57600180828763ffffffff16901c1663ffffffff160362001be05785816020811062001ba95762001ba862004223565b5b60200201358260405160200162001bc292919062004277565b60405160208183030381529060405280519060200120915062001c28565b8186826020811062001bf75762001bf662004223565b5b602002013560405160200162001c0f92919062004277565b6040516020818303038152906040528051906020012091505b808062001c3590620042d6565b91505062001b6f565b50828114915050949350505050565b606860009054906101000a900460ff161562001c95576040517f2f0047fc00000000000000000000000000000000000000000000000000000000815260040160405180910390fd5b6001606860006101000a81548160ff0219169083151502179055507f2261efe5aef6fedc1fd1550b25facc9181745623049c7901287030b9ad1a549760405160405180910390a1565b600081905060016020600262001cf591906200490a565b62001d019190620046a5565b6053541062001d3c576040517fef5ccf6600000000000000000000000000000000000000000000000000000000815260040160405180910390fd5b600060536000815462001d4f90620042d6565b919050819055905060005b602081101562001df3576001808284901c160362001d9857826033826020811062001d8a5762001d8962004223565b5b018190555050505062001e09565b6033816020811062001daf5762001dae62004223565b5b01548360405160200162001dc592919062004277565b604051602081830303815290604052805190602001209250808062001dea90620042d6565b91505062001d5a565b50600062001e065762001e056200495b565b5b50505b50565b605354606860196101000a81548163ffffffff021916908363ffffffff160217905550606860059054906101000a900473ffffffffffffffffffffffffffffffffffffffff1673ffffffffffffffffffffffffffffffffffffffff166333d6247d62001e7762001048565b6040518263ffffffff1660e01b815260040162001e959190620036c4565b600060405180830381600087803b15801562001eb057600080fd5b505af115801562001ec5573d6000803e3d6000fd5b50505050565b62001edc8b63ffffffff1662002bf0565b6000606860059054906101000a900473ffffffffffffffffffffffffffffffffffffffff1673ffffffffffffffffffffffffffffffffffffffff1663257b363262001f288d8d62002c73565b6040518263ffffffff1660e01b815260040162001f469190620036c4565b6020604051808303816000875af115801562001f66573d6000803e3d6000fd5b505050506040513d601f19601f8201168201806040525081019062001f8c919062004673565b90506000810362001fc8576040517e2f6fad00000000000000000000000000000000000000000000000000000000815260040160405180910390fd5b606860019054906101000a900463ffffffff1663ffffffff168763ffffffff161462002020576040517f0595ea2e00000000000000000000000000000000000000000000000000000000815260040160405180910390fd5b60008063ffffffff16606860019054906101000a900463ffffffff1663ffffffff160362002051578a905062002055565b8b90505b6200208c62002083848c8c8c8c8c8c8c6040516200207592919062003ddc565b60405180910390206200113b565b8f8f8462001b66565b620020c3576040517fe0417cec00000000000000000000000000000000000000000000000000000000815260040160405180910390fd5b5050505050505050505050505050565b620021588363a9059cbb60e01b8484604051602401620020f5929190620040fd565b604051602081830303815290604052907bffffffffffffffffffffffffffffffffffffffffffffffffffffffff19166020820180517bffffffffffffffffffffffffffffffffffffffffffffffffffffffff838183161783525050505062002ca8565b505050565b6000808273ffffffffffffffffffffffffffffffffffffffff163b119050919050565b600060019054906101000a900460ff16620021d2576040517f08c379a0000000000000000000000000000000000000000000000000000000008152600401620021c99062004a00565b60405180910390fd5b620021dc62002d78565b565b600080600883901c7effffffffffffffffffffffffffffffffffffffffffffffffffffffffffffff1691508260ff169050915091565b6002600154036200225c576040517f08c379a0000000000000000000000000000000000000000000000000000000008152600401620022539062004a72565b60405180910390fd5b6002600181905550565b600082826000906004926200227e9392919062004a9e565b906200228b919062004b23565b905063d505accf60e01b7bffffffffffffffffffffffffffffffffffffffffffffffffffffffff1916817bffffffffffffffffffffffffffffffffffffffffffffffffffffffff1916036200251b57600080600080600080600089896004908092620022fa9392919062004a9e565b81019062002309919062004bce565b96509650965096509650965096503373ffffffffffffffffffffffffffffffffffffffff168773ffffffffffffffffffffffffffffffffffffffff16146200237d576040517f912ecce700000000000000000000000000000000000000000000000000000000815260040160405180910390fd5b3073ffffffffffffffffffffffffffffffffffffffff168673ffffffffffffffffffffffffffffffffffffffff1614620023e3576040517f750643af00000000000000000000000000000000000000000000000000000000815260040160405180910390fd5b8a85146200241d576040517f03fffc4b00000000000000000000000000000000000000000000000000000000815260040160405180910390fd5b8b73ffffffffffffffffffffffffffffffffffffffff1663d505accf60e01b888888888888886040516024016200245b979695949392919062004c81565b604051602081830303815290604052907bffffffffffffffffffffffffffffffffffffffffffffffffffffffff19166020820180517bffffffffffffffffffffffffffffffffffffffffffffffffffffffff8381831617835250505050604051620024c7919062003e94565b6000604051808303816000865af19150503d806000811462002506576040519150601f19603f3d011682016040523d82523d6000602084013e6200250b565b606091505b50505050505050505050620027a2565b638fcbaf0c60e01b7bffffffffffffffffffffffffffffffffffffffffffffffffffffffff1916817bffffffffffffffffffffffffffffffffffffffffffffffffffffffff1916146200259a576040517fe282c0ba00000000000000000000000000000000000000000000000000000000815260040160405180910390fd5b6000806000806000806000808a8a6004908092620025bb9392919062004a9e565b810190620025ca919062004cfe565b975097509750975097509750975097503373ffffffffffffffffffffffffffffffffffffffff168873ffffffffffffffffffffffffffffffffffffffff161462002640576040517f912ecce700000000000000000000000000000000000000000000000000000000815260040160405180910390fd5b3073ffffffffffffffffffffffffffffffffffffffff168773ffffffffffffffffffffffffffffffffffffffff1614620026a6576040517f750643af00000000000000000000000000000000000000000000000000000000815260040160405180910390fd5b8c73ffffffffffffffffffffffffffffffffffffffff16638fcbaf0c60e01b8989898989898989604051602401620026e698979695949392919062004dc7565b604051602081830303815290604052907bffffffffffffffffffffffffffffffffffffffffffffffffffffffff19166020820180517bffffffffffffffffffffffffffffffffffffffffffffffffffffffff838183161783525050505060405162002752919062003e94565b6000604051808303816000865af19150503d806000811462002791576040519150601f19603f3d011682016040523d82523d6000602084013e62002796565b606091505b50505050505050505050505b5050505050565b62002830846323b872dd60e01b858585604051602401620027cd9392919062004e55565b604051602081830303815290604052907bffffffffffffffffffffffffffffffffffffffffffffffffffffffff19166020820180517bffffffffffffffffffffffffffffffffffffffffffffffffffffffff838183161783525050505062002ca8565b50505050565b60606000808373ffffffffffffffffffffffffffffffffffffffff166040516024016040516020818303038152906040526306fdde0360e01b6020820180517bffffffffffffffffffffffffffffffffffffffffffffffffffffffff8381831617835250505050604051620028ac919062003e94565b600060405180830381855afa9150503d8060008114620028e9576040519150601f19603f3d011682016040523d82523d6000602084013e620028ee565b606091505b50915091508162002935576040518060400160405280600781526020017f4e4f5f4e414d450000000000000000000000000000000000000000000000000081525062002941565b620029408162002dd3565b5b92505050919050565b60606000808373ffffffffffffffffffffffffffffffffffffffff166040516024016040516020818303038152906040526395d89b4160e01b6020820180517bffffffffffffffffffffffffffffffffffffffffffffffffffffffff8381831617835250505050604051620029c0919062003e94565b600060405180830381855afa9150503d8060008114620029fd576040519150601f19603f3d011682016040523d82523d6000602084013e62002a02565b606091505b50915091508162002a49576040518060400160405280600981526020017f4e4f5f53594d424f4c000000000000000000000000000000000000000000000081525062002a55565b62002a548162002dd3565b5b92505050919050565b60008060008373ffffffffffffffffffffffffffffffffffffffff1660405160240160405160208183030381529060405263313ce56760e01b6020820180517bffffffffffffffffffffffffffffffffffffffffffffffffffffffff838183161783525050505060405162002ad4919062003e94565b600060405180830381855afa9150503d806000811462002b11576040519150601f19603f3d011682016040523d82523d6000602084013e62002b16565b606091505b509150915081801562002b2a575060208151145b62002b3757601262002b4e565b8080602001905181019062002b4d919062004ea9565b5b92505050919050565b60018081905550565b606860009054906101000a900460ff1662002ba7576040517f5386698100000000000000000000000000000000000000000000000000000000815260040160405180910390fd5b6000606860006101000a81548160ff0219169083151502179055507f1e5e34eea33501aecf2ebec9fe0e884a40804275ea7fe10b2ba084c8374308b360405160405180910390a1565b60008062002bfe83620021de565b915091506000816001901b905060008160696000868152602001908152602001600020600082825418925050819055905060008282160362002c6c576040517f646cf55800000000000000000000000000000000000000000000000000000000815260040160405180910390fd5b5050505050565b6000828260405160200162002c8a92919062004277565b60405160208183030381529060405280519060200120905092915050565b600062002d0c826040518060400160405280602081526020017f5361666545524332303a206c6f772d6c6576656c2063616c6c206661696c65648152508573ffffffffffffffffffffffffffffffffffffffff1662002fec9092919063ffffffff16565b905060008151148062002d3157508080602001905181019062002d30919062004ef2565b5b62002d73576040517f08c379a000000000000000000000000000000000000000000000000000000000815260040162002d6a9062004f9a565b60405180910390fd5b505050565b600060019054906101000a900460ff1662002dca576040517f08c379a000000000000000000000000000000000000000000000000000000000815260040162002dc19062004a00565b60405180910390fd5b60018081905550565b6060604082511062002dfd578180602001905181019062002df591906200503a565b905062002fe7565b602082510362002fae5760005b60208110801562002e615750600060f81b83828151811062002e315762002e3062004223565b5b602001015160f81c60f81b7effffffffffffffffffffffffffffffffffffffffffffffffffffffffffffff191614155b1562002e7d57808062002e7490620042d6565b91505062002e0a565b6000810362002ec5576040518060400160405280601281526020017f4e4f545f56414c49445f454e434f44494e47000000000000000000000000000081525091505062002fe7565b60008167ffffffffffffffff81111562002ee45762002ee362003df7565b5b6040519080825280601f01601f19166020018201604052801562002f175781602001600182028036833780820191505090505b50905060005b8281101562002fa25784818151811062002f3c5762002f3b62004223565b5b602001015160f81c60f81b82828151811062002f5d5762002f5c62004223565b5b60200101907effffffffffffffffffffffffffffffffffffffffffffffffffffffffffffff1916908160001a905350808062002f9990620042d6565b91505062002f1d565b50809250505062002fe7565b6040518060400160405280601281526020017f4e4f545f56414c49445f454e434f44494e47000000000000000000000000000081525090505b919050565b606062002ffd848460008562003006565b90509392505050565b6060824710156200304e576040517f08c379a0000000000000000000000000000000000000000000000000000000008152600401620030459062005101565b60405180910390fd5b6000808673ffffffffffffffffffffffffffffffffffffffff16858760405162003079919062003e94565b60006040518083038185875af1925050503d8060008114620030b8576040519150601f19603f3d011682016040523d82523d6000602084013e620030bd565b606091505b5091509150620030d087838387620030dc565b92505050949350505050565b60608315620031465760008351036200313d57620030fa856200215d565b6200313c576040517f08c379a0000000000000000000000000000000000000000000000000000000008152600401620031339062005173565b60405180910390fd5b5b82905062003153565b6200315283836200315b565b5b949350505050565b6000825111156200316f5781518083602001fd5b806040517f08c379a0000000000000000000000000000000000000000000000000000000008152600401620031a5919062005195565b60405180910390fd5b612bd980620051ba83390190565b60008115159050919050565b620031d381620031bc565b82525050565b6000602082019050620031f06000830184620031c8565b92915050565b6000604051905090565b600080fd5b600080fd5b600063ffffffff82169050919050565b62003225816200320a565b81146200323157600080fd5b50565b60008135905062003245816200321a565b92915050565b600073ffffffffffffffffffffffffffffffffffffffff82169050919050565b600062003278826200324b565b9050919050565b6200328a816200326b565b81146200329657600080fd5b50565b600081359050620032aa816200327f565b92915050565b60008060408385031215620032ca57620032c962003200565b5b6000620032da8582860162003234565b9250506020620032ed8582860162003299565b9150509250929050565b62003302816200326b565b82525050565b60006020820190506200331f6000830184620032f7565b92915050565b6200333081620031bc565b81146200333c57600080fd5b50565b600081359050620033508162003325565b92915050565b600080fd5b600080fd5b600080fd5b60008083601f8401126200337e576200337d62003356565b5b8235905067ffffffffffffffff8111156200339e576200339d6200335b565b5b602083019150836001820283011115620033bd57620033bc62003360565b5b9250929050565b600080600080600060808688031215620033e357620033e262003200565b5b6000620033f38882890162003234565b9550506020620034068882890162003299565b945050604062003419888289016200333f565b935050606086013567ffffffffffffffff8111156200343d576200343c62003205565b5b6200344b8882890162003365565b92509250509295509295909350565b600081905082602080028201111562003478576200347762003360565b5b92915050565b6000819050919050565b62003493816200347e565b81146200349f57600080fd5b50565b600081359050620034b38162003488565b92915050565b6000819050919050565b620034ce81620034b9565b8114620034da57600080fd5b50565b600081359050620034ee81620034c3565b92915050565b60008060008060008060008060008060006105208c8e0312156200351d576200351c62003200565b5b60006200352d8e828f016200345a565b9b5050610400620035418e828f0162003234565b9a5050610420620035558e828f01620034a2565b995050610440620035698e828f01620034a2565b9850506104606200357d8e828f0162003234565b975050610480620035918e828f0162003299565b9650506104a0620035a58e828f0162003234565b9550506104c0620035b98e828f0162003299565b9450506104e0620035cd8e828f01620034dd565b9350506105008c013567ffffffffffffffff811115620035f257620035f162003205565b5b620036008e828f0162003365565b92509250509295989b509295989b9093969950565b6200362081620034b9565b82525050565b60006020820190506200363d600083018462003615565b92915050565b6000602082840312156200365c576200365b62003200565b5b60006200366c8482850162003299565b91505092915050565b62003680816200320a565b82525050565b60006040820190506200369d600083018562003675565b620036ac6020830184620032f7565b9392505050565b620036be816200347e565b82525050565b6000602082019050620036db6000830184620036b3565b92915050565b600060ff82169050919050565b620036f981620036e1565b81146200370557600080fd5b50565b6000813590506200371981620036ee565b92915050565b600080600080600080600060e0888a03121562003741576200374062003200565b5b6000620037518a828b0162003708565b9750506020620037648a828b0162003234565b9650506040620037778a828b0162003299565b95505060606200378a8a828b0162003234565b94505060806200379d8a828b0162003299565b93505060a0620037b08a828b01620034dd565b92505060c0620037c38a828b01620034a2565b91505092959891949750929550565b6000620037df826200326b565b9050919050565b620037f181620037d2565b8114620037fd57600080fd5b50565b6000813590506200381181620037e6565b92915050565b60008060006060848603121562003833576200383262003200565b5b6000620038438682870162003234565b9350506020620038568682870162003800565b9250506040620038698682870162003299565b9150509250925092565b6000602082840312156200388c576200388b62003200565b5b60006200389c84828501620034a2565b91505092915050565b600060208284031215620038be57620038bd62003200565b5b6000620038ce84828501620034dd565b91505092915050565b60008083601f840112620038f057620038ef62003356565b5b8235905067ffffffffffffffff81111562003910576200390f6200335b565b5b6020830191508360018202830111156200392f576200392e62003360565b5b9250929050565b600080600080600080600060a0888a03121562003958576200395762003200565b5b6000620039688a828b0162003234565b97505060206200397b8a828b0162003299565b965050604088013567ffffffffffffffff8111156200399f576200399e62003205565b5b620039ad8a828b01620038d7565b9550955050606088013567ffffffffffffffff811115620039d357620039d262003205565b5b620039e18a828b01620038d7565b93509350506080620039f68a828b0162003708565b91505092959891949750929550565b600060208201905062003a1c600083018462003675565b92915050565b600080600080600080600060c0888a03121562003a445762003a4362003200565b5b600062003a548a828b0162003234565b975050602062003a678a828b0162003299565b965050604062003a7a8a828b01620034dd565b955050606062003a8d8a828b0162003299565b945050608062003aa08a828b016200333f565b93505060a088013567ffffffffffffffff81111562003ac45762003ac362003205565b5b62003ad28a828b0162003365565b925092505092959891949750929550565b6000819050919050565b600062003b0e62003b0862003b02846200324b565b62003ae3565b6200324b565b9050919050565b600062003b228262003aed565b9050919050565b600062003b368262003b15565b9050919050565b62003b488162003b29565b82525050565b600060208201905062003b65600083018462003b3d565b92915050565b600080600080610460858703121562003b895762003b8862003200565b5b600062003b9987828801620034a2565b945050602062003bac878288016200345a565b93505061042062003bc08782880162003234565b92505061044062003bd487828801620034a2565b91505092959194509250565b60008160e01b9050919050565b600062003bfa8262003be0565b9050919050565b62003c1662003c10826200320a565b62003bed565b82525050565b60008160601b9050919050565b600062003c368262003c1c565b9050919050565b600062003c4a8262003c29565b9050919050565b62003c6662003c60826200326b565b62003c3d565b82525050565b600062003c7a828562003c01565b60048201915062003c8c828462003c51565b6014820191508190509392505050565b62003ca781620036e1565b82525050565b600082825260208201905092915050565b82818337600083830152505050565b6000601f19601f8301169050919050565b600062003cec838562003cad565b935062003cfb83858462003cbe565b62003d068362003ccd565b840190509392505050565b60006101008201905062003d29600083018c62003c9c565b62003d38602083018b62003675565b62003d47604083018a620032f7565b62003d56606083018962003675565b62003d656080830188620032f7565b62003d7460a083018762003615565b81810360c083015262003d8981858762003cde565b905062003d9a60e083018462003675565b9a9950505050505050505050565b600081905092915050565b600062003dc1838562003da8565b935062003dd083858462003cbe565b82840190509392505050565b600062003deb82848662003db3565b91508190509392505050565b7f4e487b7100000000000000000000000000000000000000000000000000000000600052604160045260246000fd5b600081519050919050565b60005b8381101562003e5157808201518184015260208101905062003e34565b60008484015250505050565b600062003e6a8262003e26565b62003e76818562003da8565b935062003e8881856020860162003e31565b80840191505092915050565b600062003ea2828462003e5d565b915081905092915050565b600080fd5b62003ebd8262003ccd565b810181811067ffffffffffffffff8211171562003edf5762003ede62003df7565b5b80604052505050565b600062003ef4620031f6565b905062003f02828262003eb2565b919050565b600067ffffffffffffffff82111562003f255762003f2462003df7565b5b62003f308262003ccd565b9050602081019050919050565b600062003f5462003f4e8462003f07565b62003ee8565b90508281526020810184848401111562003f735762003f7262003ead565b5b62003f8084828562003cbe565b509392505050565b600082601f83011262003fa05762003f9f62003356565b5b813562003fb284826020860162003f3d565b91505092915050565b60008060006060848603121562003fd75762003fd662003200565b5b600084013567ffffffffffffffff81111562003ff85762003ff762003205565b5b620040068682870162003f88565b935050602084013567ffffffffffffffff8111156200402a576200402962003205565b5b620040388682870162003f88565b92505060406200404b8682870162003708565b9150509250925092565b600081519050919050565b600082825260208201905092915050565b60006200407e8262004055565b6200408a818562004060565b93506200409c81856020860162003e31565b620040a78162003ccd565b840191505092915050565b60006060820190508181036000830152620040ce818662004071565b90508181036020830152620040e4818562004071565b9050620040f5604083018462003c9c565b949350505050565b6000604082019050620041146000830185620032f7565b62004123602083018462003615565b9392505050565b600060808201905062004141600083018862003675565b620041506020830187620032f7565b6200415f6040830186620032f7565b81810360608301526200417481848662003cde565b90509695505050505050565b600060a08201905062004197600083018862003675565b620041a6602083018762003675565b620041b56040830186620032f7565b620041c46060830185620032f7565b620041d3608083018462003615565b9695505050505050565b6000606082019050620041f46000830187620032f7565b62004203602083018662003675565b81810360408301526200421881848662003cde565b905095945050505050565b7f4e487b7100000000000000000000000000000000000000000000000000000000600052603260045260246000fd5b6000819050919050565b620042716200426b826200347e565b62004252565b82525050565b60006200428582856200425c565b6020820191506200429782846200425c565b6020820191508190509392505050565b7f4e487b7100000000000000000000000000000000000000000000000000000000600052601160045260246000fd5b6000620042e382620034b9565b91507fffffffffffffffffffffffffffffffffffffffffffffffffffffffffffffffff8203620043185762004317620042a7565b5b600182019050919050565b60008160f81b9050919050565b60006200433d8262004323565b9050919050565b620043596200435382620036e1565b62004330565b82525050565b6000819050919050565b6200437e6200437882620034b9565b6200435f565b82525050565b600062004392828a62004344565b600182019150620043a4828962003c01565b600482019150620043b6828862003c51565b601482019150620043c8828762003c01565b600482019150620043da828662003c51565b601482019150620043ec828562004369565b602082019150620043fe82846200425c565b60208201915081905098975050505050505050565b7f496e697469616c697a61626c653a20636f6e747261637420697320616c72656160008201527f647920696e697469616c697a6564000000000000000000000000000000000000602082015250565b600062004471602e8362004060565b91506200447e8262004413565b604082019050919050565b60006020820190508181036000830152620044a48162004462565b9050919050565b6000819050919050565b6000620044d6620044d0620044ca84620044ab565b62003ae3565b620036e1565b9050919050565b620044e881620044b5565b82525050565b6000602082019050620045056000830184620044dd565b92915050565b600062004519838562004060565b93506200452883858462003cbe565b620045338362003ccd565b840190509392505050565b600060608201905081810360008301526200455b8187896200450b565b90508181036020830152620045728185876200450b565b905062004583604083018462003c9c565b9695505050505050565b60006200459b828562003e5d565b9150620045a9828462003e5d565b91508190509392505050565b60007fff0000000000000000000000000000000000000000000000000000000000000082169050919050565b6000819050919050565b62004600620045fa82620045b5565b620045e1565b82525050565b6000620046148287620045eb565b60018201915062004626828662003c51565b6014820191506200463882856200425c565b6020820191506200464a82846200425c565b60208201915081905095945050505050565b6000815190506200466d81620034c3565b92915050565b6000602082840312156200468c576200468b62003200565b5b60006200469c848285016200465c565b91505092915050565b6000620046b282620034b9565b9150620046bf83620034b9565b9250828203905081811115620046da57620046d9620042a7565b5b92915050565b6000620046ed8262003e26565b620046f9818562003cad565b93506200470b81856020860162003e31565b620047168162003ccd565b840191505092915050565b60006101008201905062004739600083018b62003c9c565b62004748602083018a62003675565b620047576040830189620032f7565b62004766606083018862003675565b620047756080830187620032f7565b6200478460a083018662003615565b81810360c0830152620047988185620046e0565b9050620047a960e083018462003675565b9998505050505050505050565b60008160011c9050919050565b6000808291508390505b60018511156200481557808604811115620047ed57620047ec620042a7565b5b6001851615620047fd5780820291505b80810290506200480d85620047b6565b9450620047cd565b94509492505050565b60008262004830576001905062004903565b8162004840576000905062004903565b816001811462004859576002811462004864576200489a565b600191505062004903565b60ff841115620048795762004878620042a7565b5b8360020a915084821115620048935762004892620042a7565b5b5062004903565b5060208310610133831016604e8410600b8410161715620048d45782820a905083811115620048ce57620048cd620042a7565b5b62004903565b620048e38484846001620047c3565b92509050818404811115620048fd57620048fc620042a7565b5b81810290505b9392505050565b60006200491782620034b9565b91506200492483620034b9565b9250620049537fffffffffffffffffffffffffffffffffffffffffffffffffffffffffffffffff84846200481e565b905092915050565b7f4e487b7100000000000000000000000000000000000000000000000000000000600052600160045260246000fd5b7f496e697469616c697a61626c653a20636f6e7472616374206973206e6f74206960008201527f6e697469616c697a696e67000000000000000000000000000000000000000000602082015250565b6000620049e8602b8362004060565b9150620049f5826200498a565b604082019050919050565b6000602082019050818103600083015262004a1b81620049d9565b9050919050565b7f5265656e7472616e637947756172643a207265656e7472616e742063616c6c00600082015250565b600062004a5a601f8362004060565b915062004a678262004a22565b602082019050919050565b6000602082019050818103600083015262004a8d8162004a4b565b9050919050565b600080fd5b600080fd5b6000808585111562004ab55762004ab462004a94565b5b8386111562004ac95762004ac862004a99565b5b6001850283019150848603905094509492505050565b600082905092915050565b60007fffffffff0000000000000000000000000000000000000000000000000000000082169050919050565b600082821b905092915050565b600062004b31838362004adf565b8262004b3e813562004aea565b9250600482101562004b815762004b7c7fffffffff000000000000000000000000000000000000000000000000000000008360040360080262004b16565b831692505b505092915050565b600062004b96826200324b565b9050919050565b62004ba88162004b89565b811462004bb457600080fd5b50565b60008135905062004bc88162004b9d565b92915050565b600080600080600080600060e0888a03121562004bf05762004bef62003200565b5b600062004c008a828b0162004bb7565b975050602062004c138a828b0162004bb7565b965050604062004c268a828b01620034dd565b955050606062004c398a828b01620034dd565b945050608062004c4c8a828b0162003708565b93505060a062004c5f8a828b01620034a2565b92505060c062004c728a828b01620034a2565b91505092959891949750929550565b600060e08201905062004c98600083018a620032f7565b62004ca76020830189620032f7565b62004cb6604083018862003615565b62004cc5606083018762003615565b62004cd4608083018662003c9c565b62004ce360a0830185620036b3565b62004cf260c0830184620036b3565b98975050505050505050565b600080600080600080600080610100898b03121562004d225762004d2162003200565b5b600062004d328b828c0162004bb7565b985050602062004d458b828c0162004bb7565b975050604062004d588b828c01620034dd565b965050606062004d6b8b828c01620034dd565b955050608062004d7e8b828c016200333f565b94505060a062004d918b828c0162003708565b93505060c062004da48b828c01620034a2565b92505060e062004db78b828c01620034a2565b9150509295985092959890939650565b60006101008201905062004ddf600083018b620032f7565b62004dee602083018a620032f7565b62004dfd604083018962003615565b62004e0c606083018862003615565b62004e1b6080830187620031c8565b62004e2a60a083018662003c9c565b62004e3960c0830185620036b3565b62004e4860e0830184620036b3565b9998505050505050505050565b600060608201905062004e6c6000830186620032f7565b62004e7b6020830185620032f7565b62004e8a604083018462003615565b949350505050565b60008151905062004ea381620036ee565b92915050565b60006020828403121562004ec25762004ec162003200565b5b600062004ed28482850162004e92565b91505092915050565b60008151905062004eec8162003325565b92915050565b60006020828403121562004f0b5762004f0a62003200565b5b600062004f1b8482850162004edb565b91505092915050565b7f5361666545524332303a204552433230206f7065726174696f6e20646964206e60008201527f6f74207375636365656400000000000000000000000000000000000000000000602082015250565b600062004f82602a8362004060565b915062004f8f8262004f24565b604082019050919050565b6000602082019050818103600083015262004fb58162004f73565b9050919050565b600062004fd362004fcd8462003f07565b62003ee8565b90508281526020810184848401111562004ff25762004ff162003ead565b5b62004fff84828562003e31565b509392505050565b600082601f8301126200501f576200501e62003356565b5b81516200503184826020860162004fbc565b91505092915050565b60006020828403121562005053576200505262003200565b5b600082015167ffffffffffffffff81111562005074576200507362003205565b5b620050828482850162005007565b91505092915050565b7f416464726573733a20696e73756666696369656e742062616c616e636520666f60008201527f722063616c6c0000000000000000000000000000000000000000000000000000602082015250565b6000620050e960268362004060565b9150620050f6826200508b565b604082019050919050565b600060208201905081810360008301526200511c81620050da565b9050919050565b7f416464726573733a2063616c6c20746f206e6f6e2d636f6e7472616374000000600082015250565b60006200515b601d8362004060565b9150620051688262005123565b602082019050919050565b600060208201905081810360008301526200518e816200514c565b9050919050565b60006020820190508181036000830152620051b1818462004071565b90509291505056fe6101006040523480156200001257600080fd5b5060405162002bd938038062002bd98339818101604052810190620000389190620003e2565b828281600390816200004b9190620006c7565b5080600490816200005d9190620006c7565b5050503373ffffffffffffffffffffffffffffffffffffffff1660c08173ffffffffffffffffffffffffffffffffffffffff16815250508060ff1660e08160ff16815250504660808181525050620000bb46620000cb60201b60201c565b60a081815250505050506200087c565b60007f8b73c3c69bb8fe3d512ecc4cf759cc79239f7b179b0ffacaa9a75d522b39400f620000fe6200017760201b60201c565b805190602001206040518060400160405280600181526020017f31000000000000000000000000000000000000000000000000000000000000008152508051906020012084306040516020016200015a9594939291906200081f565b604051602081830303815290604052805190602001209050919050565b6060600380546200018890620004b6565b80601f0160208091040260200160405190810160405280929190818152602001828054620001b690620004b6565b8015620002075780601f10620001db5761010080835404028352916020019162000207565b820191906000526020600020905b815481529060010190602001808311620001e957829003601f168201915b5050505050905090565b6000604051905090565b600080fd5b600080fd5b600080fd5b600080fd5b6000601f19601f8301169050919050565b7f4e487b7100000000000000000000000000000000000000000000000000000000600052604160045260246000fd5b6200027a826200022f565b810181811067ffffffffffffffff821117156200029c576200029b62000240565b5b80604052505050565b6000620002b162000211565b9050620002bf82826200026f565b919050565b600067ffffffffffffffff821115620002e257620002e162000240565b5b620002ed826200022f565b9050602081019050919050565b60005b838110156200031a578082015181840152602081019050620002fd565b60008484015250505050565b60006200033d6200033784620002c4565b620002a5565b9050828152602081018484840111156200035c576200035b6200022a565b5b62000369848285620002fa565b509392505050565b600082601f83011262000389576200038862000225565b5b81516200039b84826020860162000326565b91505092915050565b600060ff82169050919050565b620003bc81620003a4565b8114620003c857600080fd5b50565b600081519050620003dc81620003b1565b92915050565b600080600060608486031215620003fe57620003fd6200021b565b5b600084015167ffffffffffffffff8111156200041f576200041e62000220565b5b6200042d8682870162000371565b935050602084015167ffffffffffffffff81111562000451576200045062000220565b5b6200045f8682870162000371565b92505060406200047286828701620003cb565b9150509250925092565b600081519050919050565b7f4e487b7100000000000000000000000000000000000000000000000000000000600052602260045260246000fd5b60006002820490506001821680620004cf57607f821691505b602082108103620004e557620004e462000487565b5b50919050565b60008190508160005260206000209050919050565b60006020601f8301049050919050565b600082821b905092915050565b6000600883026200054f7fffffffffffffffffffffffffffffffffffffffffffffffffffffffffffffffff8262000510565b6200055b868362000510565b95508019841693508086168417925050509392505050565b6000819050919050565b6000819050919050565b6000620005a8620005a26200059c8462000573565b6200057d565b62000573565b9050919050565b6000819050919050565b620005c48362000587565b620005dc620005d382620005af565b8484546200051d565b825550505050565b600090565b620005f3620005e4565b62000600818484620005b9565b505050565b5b8181101562000628576200061c600082620005e9565b60018101905062000606565b5050565b601f82111562000677576200064181620004eb565b6200064c8462000500565b810160208510156200065c578190505b620006746200066b8562000500565b83018262000605565b50505b505050565b600082821c905092915050565b60006200069c600019846008026200067c565b1980831691505092915050565b6000620006b7838362000689565b9150826002028217905092915050565b620006d2826200047c565b67ffffffffffffffff811115620006ee57620006ed62000240565b5b620006fa8254620004b6565b620007078282856200062c565b600060209050601f8311600181146200073f57600084156200072a578287015190505b620007368582620006a9565b865550620007a6565b601f1984166200074f86620004eb565b60005b82811015620007795784890151825560018201915060208501945060208101905062000752565b8683101562000799578489015162000795601f89168262000689565b8355505b6001600288020188555050505b505050505050565b6000819050919050565b620007c381620007ae565b82525050565b620007d48162000573565b82525050565b600073ffffffffffffffffffffffffffffffffffffffff82169050919050565b60006200080782620007da565b9050919050565b6200081981620007fa565b82525050565b600060a082019050620008366000830188620007b8565b620008456020830187620007b8565b620008546040830186620007b8565b620008636060830185620007c9565b6200087260808301846200080e565b9695505050505050565b60805160a05160c05160e05161230e620008cb6000396000610576015260008181610631015281816107bf015261085b015260006105d301526000818161059e0152610919015261230e6000f3fe608060405234801561001057600080fd5b50600436106101375760003560e01c806370a08231116100b8578063a457c2d71161007c578063a457c2d714610354578063a9059cbb14610384578063cd0d0096146103b4578063d505accf146103d2578063dd62ed3e146103ee578063ffa1ad741461041e57610137565b806370a082311461029c5780637ecebe00146102cc57806395d89b41146102fc5780639dc29fac1461031a578063a3c573eb1461033657610137565b806330adf81f116100ff57806330adf81f146101f6578063313ce567146102145780633644e51514610232578063395093511461025057806340c10f191461028057610137565b806306fdde031461013c578063095ea7b31461015a57806318160ddd1461018a57806320606b70146101a857806323b872dd146101c6575b600080fd5b61014461043c565b604051610151919061155d565b60405180910390f35b610174600480360381019061016f9190611618565b6104ce565b6040516101819190611673565b60405180910390f35b6101926104f1565b60405161019f919061169d565b60405180910390f35b6101b06104fb565b6040516101bd91906116d1565b60405180910390f35b6101e060048036038101906101db91906116ec565b61051f565b6040516101ed9190611673565b60405180910390f35b6101fe61054e565b60405161020b91906116d1565b60405180910390f35b61021c610572565b604051610229919061175b565b60405180910390f35b61023a61059a565b60405161024791906116d1565b60405180910390f35b61026a60048036038101906102659190611618565b6105f8565b6040516102779190611673565b60405180910390f35b61029a60048036038101906102959190611618565b61062f565b005b6102b660048036038101906102b19190611776565b6106cb565b6040516102c3919061169d565b60405180910390f35b6102e660048036038101906102e19190611776565b610713565b6040516102f3919061169d565b60405180910390f35b61030461072b565b604051610311919061155d565b60405180910390f35b610334600480360381019061032f9190611618565b6107bd565b005b61033e610859565b60405161034b91906117b2565b60405180910390f35b61036e60048036038101906103699190611618565b61087d565b60405161037b9190611673565b60405180910390f35b61039e60048036038101906103999190611618565b6108f4565b6040516103ab9190611673565b60405180910390f35b6103bc610917565b6040516103c9919061169d565b60405180910390f35b6103ec60048036038101906103e79190611825565b61093b565b005b610408600480360381019061040391906118c7565b610b6b565b604051610415919061169d565b60405180910390f35b610426610bf2565b604051610433919061155d565b60405180910390f35b60606003805461044b90611936565b80601f016020809104026020016040519081016040528092919081815260200182805461047790611936565b80156104c45780601f10610499576101008083540402835291602001916104c4565b820191906000526020600020905b8154815290600101906020018083116104a757829003601f168201915b5050505050905090565b6000806104d9610c2b565b90506104e6818585610c33565b600191505092915050565b6000600254905090565b7f8b73c3c69bb8fe3d512ecc4cf759cc79239f7b179b0ffacaa9a75d522b39400f81565b60008061052a610c2b565b9050610537858285610dfc565b610542858585610e88565b60019150509392505050565b7f6e71edae12b1b97f4d1f60370fef10105fa2faae0126114a169c64845d6126c981565b60007f0000000000000000000000000000000000000000000000000000000000000000905090565b60007f000000000000000000000000000000000000000000000000000000000000000046146105d1576105cc466110fe565b6105f3565b7f00000000000000000000000000000000000000000000000000000000000000005b905090565b600080610603610c2b565b90506106248185856106158589610b6b565b61061f9190611996565b610c33565b600191505092915050565b7f000000000000000000000000000000000000000000000000000000000000000073ffffffffffffffffffffffffffffffffffffffff163373ffffffffffffffffffffffffffffffffffffffff16146106bd576040517f08c379a00000000000000000000000000000000000000000000000000000000081526004016106b490611a3c565b60405180910390fd5b6106c782826111a0565b5050565b60008060008373ffffffffffffffffffffffffffffffffffffffff1673ffffffffffffffffffffffffffffffffffffffff168152602001908152602001600020549050919050565b60056020528060005260406000206000915090505481565b60606004805461073a90611936565b80601f016020809104026020016040519081016040528092919081815260200182805461076690611936565b80156107b35780601f10610788576101008083540402835291602001916107b3565b820191906000526020600020905b81548152906001019060200180831161079657829003601f168201915b5050505050905090565b7f000000000000000000000000000000000000000000000000000000000000000073ffffffffffffffffffffffffffffffffffffffff163373ffffffffffffffffffffffffffffffffffffffff161461084b576040517f08c379a000000000000000000000000000000000000000000000000000000000815260040161084290611a3c565b60405180910390fd5b61085582826112f6565b5050565b7f000000000000000000000000000000000000000000000000000000000000000081565b600080610888610c2b565b905060006108968286610b6b565b9050838110156108db576040517f08c379a00000000000000000000000000000000000000000000000000000000081526004016108d290611ace565b60405180910390fd5b6108e88286868403610c33565b60019250505092915050565b6000806108ff610c2b565b905061090c818585610e88565b600191505092915050565b7f000000000000000000000000000000000000000000000000000000000000000081565b8342111561097e576040517f08c379a000000000000000000000000000000000000000000000000000000000815260040161097590611b60565b60405180910390fd5b60007f6e71edae12b1b97f4d1f60370fef10105fa2faae0126114a169c64845d6126c9888888600560008d73ffffffffffffffffffffffffffffffffffffffff1673ffffffffffffffffffffffffffffffffffffffff16815260200190815260200160002060008154809291906109f490611b80565b9190505589604051602001610a0e96959493929190611bc8565b6040516020818303038152906040528051906020012090506000610a3061059a565b82604051602001610a42929190611ca1565b604051602081830303815290604052805190602001209050600060018287878760405160008152602001604052604051610a7f9493929190611cd8565b6020604051602081039080840390855afa158015610aa1573d6000803e3d6000fd5b505050602060405103519050600073ffffffffffffffffffffffffffffffffffffffff168173ffffffffffffffffffffffffffffffffffffffff1614158015610b1557508973ffffffffffffffffffffffffffffffffffffffff168173ffffffffffffffffffffffffffffffffffffffff16145b610b54576040517f08c379a0000000000000000000000000000000000000000000000000000000008152600401610b4b90611d8f565b60405180910390fd5b610b5f8a8a8a610c33565b50505050505050505050565b6000600160008473ffffffffffffffffffffffffffffffffffffffff1673ffffffffffffffffffffffffffffffffffffffff16815260200190815260200160002060008373ffffffffffffffffffffffffffffffffffffffff1673ffffffffffffffffffffffffffffffffffffffff16815260200190815260200160002054905092915050565b6040518060400160405280600181526020017f310000000000000000000000000000000000000000000000000000000000000081525081565b600033905090565b600073ffffffffffffffffffffffffffffffffffffffff168373ffffffffffffffffffffffffffffffffffffffff1603610ca2576040517f08c379a0000000000000000000000000000000000000000000000000000000008152600401610c9990611e21565b60405180910390fd5b600073ffffffffffffffffffffffffffffffffffffffff168273ffffffffffffffffffffffffffffffffffffffff1603610d11576040517f08c379a0000000000000000000000000000000000000000000000000000000008152600401610d0890611eb3565b60405180910390fd5b80600160008573ffffffffffffffffffffffffffffffffffffffff1673ffffffffffffffffffffffffffffffffffffffff16815260200190815260200160002060008473ffffffffffffffffffffffffffffffffffffffff1673ffffffffffffffffffffffffffffffffffffffff168152602001908152602001600020819055508173ffffffffffffffffffffffffffffffffffffffff168373ffffffffffffffffffffffffffffffffffffffff167f8c5be1e5ebec7d5bd14f71427d1e84f3dd0314c0f7b2291e5b200ac8c7c3b92583604051610def919061169d565b60405180910390a3505050565b6000610e088484610b6b565b90507fffffffffffffffffffffffffffffffffffffffffffffffffffffffffffffffff8114610e825781811015610e74576040517f08c379a0000000000000000000000000000000000000000000000000000000008152600401610e6b90611f1f565b60405180910390fd5b610e818484848403610c33565b5b50505050565b600073ffffffffffffffffffffffffffffffffffffffff168373ffffffffffffffffffffffffffffffffffffffff1603610ef7576040517f08c379a0000000000000000000000000000000000000000000000000000000008152600401610eee90611fb1565b60405180910390fd5b600073ffffffffffffffffffffffffffffffffffffffff168273ffffffffffffffffffffffffffffffffffffffff1603610f66576040517f08c379a0000000000000000000000000000000000000000000000000000000008152600401610f5d90612043565b60405180910390fd5b610f718383836114c3565b60008060008573ffffffffffffffffffffffffffffffffffffffff1673ffffffffffffffffffffffffffffffffffffffff16815260200190815260200160002054905081811015610ff7576040517f08c379a0000000000000000000000000000000000000000000000000000000008152600401610fee906120d5565b60405180910390fd5b8181036000808673ffffffffffffffffffffffffffffffffffffffff1673ffffffffffffffffffffffffffffffffffffffff16815260200190815260200160002081905550816000808573ffffffffffffffffffffffffffffffffffffffff1673ffffffffffffffffffffffffffffffffffffffff168152602001908152602001600020600082825401925050819055508273ffffffffffffffffffffffffffffffffffffffff168473ffffffffffffffffffffffffffffffffffffffff167fddf252ad1be2c89b69c2b068fc378daa952ba7f163c4a11628f55a4df523b3ef846040516110e5919061169d565b60405180910390a36110f88484846114c8565b50505050565b60007f8b73c3c69bb8fe3d512ecc4cf759cc79239f7b179b0ffacaa9a75d522b39400f61112961043c565b805190602001206040518060400160405280600181526020017f31000000000000000000000000000000000000000000000000000000000000008152508051906020012084306040516020016111839594939291906120f5565b604051602081830303815290604052805190602001209050919050565b600073ffffffffffffffffffffffffffffffffffffffff168273ffffffffffffffffffffffffffffffffffffffff160361120f576040517f08c379a000000000000000000000000000000000000000000000000000000000815260040161120690612194565b60405180910390fd5b61121b600083836114c3565b806002600082825461122d9190611996565b92505081905550806000808473ffffffffffffffffffffffffffffffffffffffff1673ffffffffffffffffffffffffffffffffffffffff168152602001908152602001600020600082825401925050819055508173ffffffffffffffffffffffffffffffffffffffff16600073ffffffffffffffffffffffffffffffffffffffff167fddf252ad1be2c89b69c2b068fc378daa952ba7f163c4a11628f55a4df523b3ef836040516112de919061169d565b60405180910390a36112f2600083836114c8565b5050565b600073ffffffffffffffffffffffffffffffffffffffff168273ffffffffffffffffffffffffffffffffffffffff1603611365576040517f08c379a000000000000000000000000000000000000000000000000000000000815260040161135c90612226565b60405180910390fd5b611371826000836114c3565b60008060008473ffffffffffffffffffffffffffffffffffffffff1673ffffffffffffffffffffffffffffffffffffffff168152602001908152602001600020549050818110156113f7576040517f08c379a00000000000000000000000000000000000000000000000000000000081526004016113ee906122b8565b60405180910390fd5b8181036000808573ffffffffffffffffffffffffffffffffffffffff1673ffffffffffffffffffffffffffffffffffffffff1681526020019081526020016000208190555081600260008282540392505081905550600073ffffffffffffffffffffffffffffffffffffffff168373ffffffffffffffffffffffffffffffffffffffff167fddf252ad1be2c89b69c2b068fc378daa952ba7f163c4a11628f55a4df523b3ef846040516114aa919061169d565b60405180910390a36114be836000846114c8565b505050565b505050565b505050565b600081519050919050565b600082825260208201905092915050565b60005b838110156115075780820151818401526020810190506114ec565b60008484015250505050565b6000601f19601f8301169050919050565b600061152f826114cd565b61153981856114d8565b93506115498185602086016114e9565b61155281611513565b840191505092915050565b600060208201905081810360008301526115778184611524565b905092915050565b600080fd5b600073ffffffffffffffffffffffffffffffffffffffff82169050919050565b60006115af82611584565b9050919050565b6115bf816115a4565b81146115ca57600080fd5b50565b6000813590506115dc816115b6565b92915050565b6000819050919050565b6115f5816115e2565b811461160057600080fd5b50565b600081359050611612816115ec565b92915050565b6000806040838503121561162f5761162e61157f565b5b600061163d858286016115cd565b925050602061164e85828601611603565b9150509250929050565b60008115159050919050565b61166d81611658565b82525050565b60006020820190506116886000830184611664565b92915050565b611697816115e2565b82525050565b60006020820190506116b2600083018461168e565b92915050565b6000819050919050565b6116cb816116b8565b82525050565b60006020820190506116e660008301846116c2565b92915050565b6000806000606084860312156117055761170461157f565b5b6000611713868287016115cd565b9350506020611724868287016115cd565b925050604061173586828701611603565b9150509250925092565b600060ff82169050919050565b6117558161173f565b82525050565b6000602082019050611770600083018461174c565b92915050565b60006020828403121561178c5761178b61157f565b5b600061179a848285016115cd565b91505092915050565b6117ac816115a4565b82525050565b60006020820190506117c760008301846117a3565b92915050565b6117d68161173f565b81146117e157600080fd5b50565b6000813590506117f3816117cd565b92915050565b611802816116b8565b811461180d57600080fd5b50565b60008135905061181f816117f9565b92915050565b600080600080600080600060e0888a0312156118445761184361157f565b5b60006118528a828b016115cd565b97505060206118638a828b016115cd565b96505060406118748a828b01611603565b95505060606118858a828b01611603565b94505060806118968a828b016117e4565b93505060a06118a78a828b01611810565b92505060c06118b88a828b01611810565b91505092959891949750929550565b600080604083850312156118de576118dd61157f565b5b60006118ec858286016115cd565b92505060206118fd858286016115cd565b9150509250929050565b7f4e487b7100000000000000000000000000000000000000000000000000000000600052602260045260246000fd5b6000600282049050600182168061194e57607f821691505b60208210810361196157611960611907565b5b50919050565b7f4e487b7100000000000000000000000000000000000000000000000000000000600052601160045260246000fd5b60006119a1826115e2565b91506119ac836115e2565b92508282019050808211156119c4576119c3611967565b5b92915050565b7f546f6b656e577261707065643a3a6f6e6c794272696467653a204e6f7420506f60008201527f6c79676f6e5a6b45564d42726964676500000000000000000000000000000000602082015250565b6000611a266030836114d8565b9150611a31826119ca565b604082019050919050565b60006020820190508181036000830152611a5581611a19565b9050919050565b7f45524332303a2064656372656173656420616c6c6f77616e63652062656c6f7760008201527f207a65726f000000000000000000000000000000000000000000000000000000602082015250565b6000611ab86025836114d8565b9150611ac382611a5c565b604082019050919050565b60006020820190508181036000830152611ae781611aab565b9050919050565b7f546f6b656e577261707065643a3a7065726d69743a204578706972656420706560008201527f726d697400000000000000000000000000000000000000000000000000000000602082015250565b6000611b4a6024836114d8565b9150611b5582611aee565b604082019050919050565b60006020820190508181036000830152611b7981611b3d565b9050919050565b6000611b8b826115e2565b91507fffffffffffffffffffffffffffffffffffffffffffffffffffffffffffffffff8203611bbd57611bbc611967565b5b600182019050919050565b600060c082019050611bdd60008301896116c2565b611bea60208301886117a3565b611bf760408301876117a3565b611c04606083018661168e565b611c11608083018561168e565b611c1e60a083018461168e565b979650505050505050565b600081905092915050565b7f1901000000000000000000000000000000000000000000000000000000000000600082015250565b6000611c6a600283611c29565b9150611c7582611c34565b600282019050919050565b6000819050919050565b611c9b611c96826116b8565b611c80565b82525050565b6000611cac82611c5d565b9150611cb88285611c8a565b602082019150611cc88284611c8a565b6020820191508190509392505050565b6000608082019050611ced60008301876116c2565b611cfa602083018661174c565b611d0760408301856116c2565b611d1460608301846116c2565b95945050505050565b7f546f6b656e577261707065643a3a7065726d69743a20496e76616c696420736960008201527f676e617475726500000000000000000000000000000000000000000000000000602082015250565b6000611d796027836114d8565b9150611d8482611d1d565b604082019050919050565b60006020820190508181036000830152611da881611d6c565b9050919050565b7f45524332303a20617070726f76652066726f6d20746865207a65726f2061646460008201527f7265737300000000000000000000000000000000000000000000000000000000602082015250565b6000611e0b6024836114d8565b9150611e1682611daf565b604082019050919050565b60006020820190508181036000830152611e3a81611dfe565b9050919050565b7f45524332303a20617070726f766520746f20746865207a65726f20616464726560008201527f7373000000000000000000000000000000000000000000000000000000000000602082015250565b6000611e9d6022836114d8565b9150611ea882611e41565b604082019050919050565b60006020820190508181036000830152611ecc81611e90565b9050919050565b7f45524332303a20696e73756666696369656e7420616c6c6f77616e6365000000600082015250565b6000611f09601d836114d8565b9150611f1482611ed3565b602082019050919050565b60006020820190508181036000830152611f3881611efc565b9050919050565b7f45524332303a207472616e736665722066726f6d20746865207a65726f20616460008201527f6472657373000000000000000000000000000000000000000000000000000000602082015250565b6000611f9b6025836114d8565b9150611fa682611f3f565b604082019050919050565b60006020820190508181036000830152611fca81611f8e565b9050919050565b7f45524332303a207472616e7366657220746f20746865207a65726f206164647260008201527f6573730000000000000000000000000000000000000000000000000000000000602082015250565b600061202d6023836114d8565b915061203882611fd1565b604082019050919050565b6000602082019050818103600083015261205c81612020565b9050919050565b7f45524332303a207472616e7366657220616d6f756e742065786365656473206260008201527f616c616e63650000000000000000000000000000000000000000000000000000602082015250565b60006120bf6026836114d8565b91506120ca82612063565b604082019050919050565b600060208201905081810360008301526120ee816120b2565b9050919050565b600060a08201905061210a60008301886116c2565b61211760208301876116c2565b61212460408301866116c2565b612131606083018561168e565b61213e60808301846117a3565b9695505050505050565b7f45524332303a206d696e7420746f20746865207a65726f206164647265737300600082015250565b600061217e601f836114d8565b915061218982612148565b602082019050919050565b600060208201905081810360008301526121ad81612171565b9050919050565b7f45524332303a206275726e2066726f6d20746865207a65726f2061646472657360008201527f7300000000000000000000000000000000000000000000000000000000000000602082015250565b60006122106021836114d8565b915061221b826121b4565b604082019050919050565b6000602082019050818103600083015261223f81612203565b9050919050565b7f45524332303a206275726e20616d6f756e7420657863656564732062616c616e60008201527f6365000000000000000000000000000000000000000000000000000000000000602082015250565b60006122a26022836114d8565b91506122ad82612246565b604082019050919050565b600060208201905081810360008301526122d181612295565b905091905056fea2646970667358221220248362cdfc2a04a00b997ba09dac2946776c2d4c009ced5c2e041507f70b9af364736f6c63430008140033a2646970667358221220688c0ca75a7b20a41998ed35a66f193746bbe9f2790e2a766ee90037783a7b5b64736f6c63430008140033",
  "linkReferences": {},
  "deployedLinkReferences": {}
}