{
  "_format": "hh-sol-artifact-1",
  "contractName": "DepositContract",
  "sourceName": "contracts/lib/DepositContract.sol",
  "abi": [
    {
      "inputs": [],
      "name": "MerkleTreeFull",
      "type": "error"
    },
    {
      "anonymous": false,
      "inputs": [
        {
          "indexed": false,
          "internalType": "uint8",
          "name": "version",
          "type": "uint8"
        }
      ],
      "name": "Initialized",
      "type": "event"
    },
    {
      "inputs": [],
      "name": "depositCount",
      "outputs": [
        {
          "internalType": "uint256",
          "name": "",
          "type": "uint256"
        }
      ],
      "stateMutability": "view",
      "type": "function"
    },
    {
      "inputs": [],
      "name": "getDepositRoot",
      "outputs": [
        {
          "internalType": "bytes32",
          "name": "",
          "type": "bytes32"
        }
      ],
      "stateMutability": "view",
      "type": "function"
    },
    {
      "inputs": [
        {
          "internalType": "uint8",
          "name": "leafType",
          "type": "uint8"
        },
        {
          "internalType": "uint32",
          "name": "originNetwork",
          "type": "uint32"
        },
        {
          "internalType": "address",
          "name": "originAddress",
          "type": "address"
        },
        {
          "internalType": "uint32",
          "name": "destinationNetwork",
          "type": "uint32"
        },
        {
          "internalType": "address",
          "name": "destinationAddress",
          "type": "address"
        },
        {
          "internalType": "uint256",
          "name": "amount",
          "type": "uint256"
        },
        {
          "internalType": "bytes32",
          "name": "metadataHash",
          "type": "bytes32"
        }
      ],
      "name": "getLeafValue",
      "outputs": [
        {
          "internalType": "bytes32",
          "name": "",
          "type": "bytes32"
        }
      ],
      "stateMutability": "pure",
      "type": "function"
    },
    {
      "inputs": [
        {
          "internalType": "bytes32",
          "name": "leafHash",
          "type": "bytes32"
        },
        {
          "internalType": "bytes32[32]",
          "name": "smtProof",
          "type": "bytes32[32]"
        },
        {
          "internalType": "uint32",
          "name": "index",
          "type": "uint32"
        },
        {
          "internalType": "bytes32",
          "name": "root",
          "type": "bytes32"
        }
      ],
      "name": "verifyMerkleProof",
      "outputs": [
        {
          "internalType": "bool",
          "name": "",
          "type": "bool"
        }
      ],
      "stateMutability": "pure",
      "type": "function"
    }
  ],
  "bytecode": "0x608060405234801561001057600080fd5b5061086f806100206000396000f3fe608060405234801561001057600080fd5b506004361061004c5760003560e01c80632dfdf0b5146100515780633ae050471461006f5780633e1970431461008d578063fb570834146100bd575b600080fd5b6100596100ed565b6040516100669190610309565b60405180910390f35b6100776100f3565b604051610084919061033d565b60405180910390f35b6100a760048036038101906100a29190610488565b6101d7565b6040516100b4919061033d565b60405180910390f35b6100d760048036038101906100d29190610550565b610219565b6040516100e491906105d5565b60405180910390f35b60535481565b6000806000605354905060008060001b905060005b60208110156101cd576001808285901c16036101635760338160208110610132576101316105f0565b5b015484604051602001610146929190610640565b60405160208183030381529060405280519060200120935061018f565b8382604051602001610176929190610640565b6040516020818303038152906040528051906020012093505b81826040516020016101a2929190610640565b60405160208183030381529060405280519060200120915080806101c59061069b565b915050610108565b5082935050505090565b6000878787878787876040516020016101f697969594939291906107b8565b604051602081830303815290604052805190602001209050979650505050505050565b60008085905060005b60208110156102e157600180828763ffffffff16901c1663ffffffff160361028b57858160208110610257576102566105f0565b5b60200201358260405160200161026e929190610640565b6040516020818303038152906040528051906020012091506102ce565b8186826020811061029f5761029e6105f0565b5b60200201356040516020016102b5929190610640565b6040516020818303038152906040528051906020012091505b80806102d99061069b565b915050610222565b50828114915050949350505050565b6000819050919050565b610303816102f0565b82525050565b600060208201905061031e60008301846102fa565b92915050565b6000819050919050565b61033781610324565b82525050565b6000602082019050610352600083018461032e565b92915050565b600080fd5b600060ff82169050919050565b6103738161035d565b811461037e57600080fd5b50565b6000813590506103908161036a565b92915050565b600063ffffffff82169050919050565b6103af81610396565b81146103ba57600080fd5b50565b6000813590506103cc816103a6565b92915050565b600073ffffffffffffffffffffffffffffffffffffffff82169050919050565b60006103fd826103d2565b9050919050565b61040d816103f2565b811461041857600080fd5b50565b60008135905061042a81610404565b92915050565b610439816102f0565b811461044457600080fd5b50565b60008135905061045681610430565b92915050565b61046581610324565b811461047057600080fd5b50565b6000813590506104828161045c565b92915050565b600080600080600080600060e0888a0312156104a7576104a6610358565b5b60006104b58a828b01610381565b97505060206104c68a828b016103bd565b96505060406104d78a828b0161041b565b95505060606104e88a828b016103bd565b94505060806104f98a828b0161041b565b93505060a061050a8a828b01610447565b92505060c061051b8a828b01610473565b91505092959891949750929550565b600080fd5b600081905082602080028201111561054a5761054961052a565b5b92915050565b600080600080610460858703121561056b5761056a610358565b5b600061057987828801610473565b945050602061058a8782880161052f565b93505061042061059c878288016103bd565b9250506104406105ae87828801610473565b91505092959194509250565b60008115159050919050565b6105cf816105ba565b82525050565b60006020820190506105ea60008301846105c6565b92915050565b7f4e487b7100000000000000000000000000000000000000000000000000000000600052603260045260246000fd5b6000819050919050565b61063a61063582610324565b61061f565b82525050565b600061064c8285610629565b60208201915061065c8284610629565b6020820191508190509392505050565b7f4e487b7100000000000000000000000000000000000000000000000000000000600052601160045260246000fd5b60006106a6826102f0565b91507fffffffffffffffffffffffffffffffffffffffffffffffffffffffffffffffff82036106d8576106d761066c565b5b600182019050919050565b60008160f81b9050919050565b60006106fb826106e3565b9050919050565b61071361070e8261035d565b6106f0565b82525050565b60008160e01b9050919050565b600061073182610719565b9050919050565b61074961074482610396565b610726565b82525050565b60008160601b9050919050565b60006107678261074f565b9050919050565b60006107798261075c565b9050919050565b61079161078c826103f2565b61076e565b82525050565b6000819050919050565b6107b26107ad826102f0565b610797565b82525050565b60006107c4828a610702565b6001820191506107d48289610738565b6004820191506107e48288610780565b6014820191506107f48287610738565b6004820191506108048286610780565b60148201915061081482856107a1565b6020820191506108248284610629565b6020820191508190509897505050505050505056fea264697066735822122066c52a72dfacc126c7b8016891c7a53bfddbbb0b82a34932c941bfc819d6553c64736f6c63430008140033",
  "linkReferences": {},
  "deployedLinkReferences": {}
}