{
  "_format": "hh-sol-artifact-1",
  "contractName": "SendData",
  "sourceName": "contracts/mocks/SequenceBatchesMock.sol",
  "abi": [
    {
      "inputs": [
        {
          "internalType": "address",
          "name": "destination",
          "type": "address"
        },
        {
          "internalType": "bytes",
          "name": "data",
          "type": "bytes"
        }
      ],
      "name": "sendData",
      "outputs": [],
      "stateMutability": "nonpayable",
      "type": "function"
    }
  ],
  "bytecode": "0x608060405234801561001057600080fd5b5061038c806100206000396000f3fe608060405234801561001057600080fd5b506004361061002b5760003560e01c80638823d22414610030575b600080fd5b61004a60048036038101906100459190610272565b61004c565b005b8173ffffffffffffffffffffffffffffffffffffffff1681604051610071919061033f565b6000604051808303816000865af19150503d80600081146100ae576040519150601f19603f3d011682016040523d82523d6000602084013e6100b3565b606091505b5050505050565b6000604051905090565b600080fd5b600080fd5b600073ffffffffffffffffffffffffffffffffffffffff82169050919050565b60006100f9826100ce565b9050919050565b610109816100ee565b811461011457600080fd5b50565b60008135905061012681610100565b92915050565b600080fd5b600080fd5b6000601f19601f8301169050919050565b7f4e487b7100000000000000000000000000000000000000000000000000000000600052604160045260246000fd5b61017f82610136565b810181811067ffffffffffffffff8211171561019e5761019d610147565b5b80604052505050565b60006101b16100ba565b90506101bd8282610176565b919050565b600067ffffffffffffffff8211156101dd576101dc610147565b5b6101e682610136565b9050602081019050919050565b82818337600083830152505050565b6000610215610210846101c2565b6101a7565b90508281526020810184848401111561023157610230610131565b5b61023c8482856101f3565b509392505050565b600082601f8301126102595761025861012c565b5b8135610269848260208601610202565b91505092915050565b60008060408385031215610289576102886100c4565b5b600061029785828601610117565b925050602083013567ffffffffffffffff8111156102b8576102b76100c9565b5b6102c485828601610244565b9150509250929050565b600081519050919050565b600081905092915050565b60005b838110156103025780820151818401526020810190506102e7565b60008484015250505050565b6000610319826102ce565b61032381856102d9565b93506103338185602086016102e4565b80840191505092915050565b600061034b828461030e565b91508190509291505056fea2646970667358221220b7c488d6406e61ddddfc461b957f9ea9d30c0ab94f7299911dac6c26b227c66f64736f6c63430008140033",
  "linkReferences": {},
  "deployedLinkReferences": {}
}