{
  "_format": "hh-sol-artifact-1",
  "contractName": "PolygonZkEVMGlobalExitRootL2",
  "sourceName": "contracts/PolygonZkEVMGlobalExitRootL2.sol",
  "abi": [
    {
      "inputs": [
        {
          "internalType": "address",
          "name": "_bridgeAddress",
          "type": "address"
        }
      ],
      "stateMutability": "nonpayable",
      "type": "constructor"
    },
    {
      "inputs": [],
      "name": "OnlyAllowedContracts",
      "type": "error"
    },
    {
      "inputs": [],
      "name": "bridgeAddress",
      "outputs": [
        {
          "internalType": "address",
          "name": "",
          "type": "address"
        }
      ],
      "stateMutability": "view",
      "type": "function"
    },
    {
      "inputs": [
        {
          "internalType": "bytes32",
          "name": "",
          "type": "bytes32"
        }
      ],
      "name": "globalExitRootMap",
      "outputs": [
        {
          "internalType": "uint256",
          "name": "",
          "type": "uint256"
        }
      ],
      "stateMutability": "view",
      "type": "function"
    },
    {
      "inputs": [],
      "name": "lastRollupExitRoot",
      "outputs": [
        {
          "internalType": "bytes32",
          "name": "",
          "type": "bytes32"
        }
      ],
      "stateMutability": "view",
      "type": "function"
    },
    {
      "inputs": [
        {
          "internalType": "bytes32",
          "name": "newRoot",
          "type": "bytes32"
        }
      ],
      "name": "updateExitRoot",
      "outputs": [],
      "stateMutability": "nonpayable",
      "type": "function"
    }
  ],
  "bytecode": "0x60a060405234801561001057600080fd5b5060405161041f38038061041f833981810160405281019061003291906100cf565b8073ffffffffffffffffffffffffffffffffffffffff1660808173ffffffffffffffffffffffffffffffffffffffff1681525050506100fc565b600080fd5b600073ffffffffffffffffffffffffffffffffffffffff82169050919050565b600061009c82610071565b9050919050565b6100ac81610091565b81146100b757600080fd5b50565b6000815190506100c9816100a3565b92915050565b6000602082840312156100e5576100e461006c565b5b60006100f3848285016100ba565b91505092915050565b60805161030261011d6000396000818160f9015261018801526103026000f3fe608060405234801561001057600080fd5b506004361061004c5760003560e01c806301fd904414610051578063257b36321461006f57806333d6247d1461009f578063a3c573eb146100bb575b600080fd5b6100596100d9565b60405161006691906101c3565b60405180910390f35b6100896004803603810190610084919061020f565b6100df565b6040516100969190610255565b60405180910390f35b6100b960048036038101906100b4919061020f565b6100f7565b005b6100c3610186565b6040516100d091906102b1565b60405180910390f35b60015481565b60006020528060005260406000206000915090505481565b7f000000000000000000000000000000000000000000000000000000000000000073ffffffffffffffffffffffffffffffffffffffff163373ffffffffffffffffffffffffffffffffffffffff161461017c576040517fb49365dd00000000000000000000000000000000000000000000000000000000815260040160405180910390fd5b8060018190555050565b7f000000000000000000000000000000000000000000000000000000000000000081565b6000819050919050565b6101bd816101aa565b82525050565b60006020820190506101d860008301846101b4565b92915050565b600080fd5b6101ec816101aa565b81146101f757600080fd5b50565b600081359050610209816101e3565b92915050565b600060208284031215610225576102246101de565b5b6000610233848285016101fa565b91505092915050565b6000819050919050565b61024f8161023c565b82525050565b600060208201905061026a6000830184610246565b92915050565b600073ffffffffffffffffffffffffffffffffffffffff82169050919050565b600061029b82610270565b9050919050565b6102ab81610290565b82525050565b60006020820190506102c660008301846102a2565b9291505056fea2646970667358221220423d604fade66c1f0eb55a464b49eb9f002489d967497be9eaa536975e7a368464736f6c63430008140033",
  "linkReferences": {},
  "deployedLinkReferences": {}
}