{
  "_format": "hh-sol-artifact-1",
  "contractName": "CDKValidium",
  "sourceName": "contracts/CDKValidium.sol",
  "abi": [
    {
      "inputs": [
        {
          "internalType": "contract IPolygonZkEVMGlobalExitRoot",
          "name": "_globalExitRootManager",
          "type": "address"
        },
        {
          "internalType": "contract IERC20Upgradeable",
          "name": "_matic",
          "type": "address"
        },
        {
          "internalType": "contract IVerifierRollup",
          "name": "_rollupVerifier",
          "type": "address"
        },
        {
          "internalType": "contract IPolygonZkEVMBridge",
          "name": "_bridgeAddress",
          "type": "address"
        },
        {
          "internalType": "contract ICDKDataCommittee",
          "name": "_dataCommitteeAddress",
          "type": "address"
        },
        {
          "internalType": "uint64",
          "name": "_chainID",
          "type": "uint64"
        },
        {
          "internalType": "uint64",
          "name": "_forkID",
          "type": "uint64"
        }
      ],
      "stateMutability": "nonpayable",
      "type": "constructor"
    },
    {
      "inputs": [],
      "name": "BatchAlreadyVerified",
      "type": "error"
    },
    {
      "inputs": [],
      "name": "BatchNotSequencedOrNotSequenceEnd",
      "type": "error"
    },
    {
      "inputs": [],
      "name": "ExceedMaxVerifyBatches",
      "type": "error"
    },
    {
      "inputs": [],
      "name": "FinalNumBatchBelowLastVerifiedBatch",
      "type": "error"
    },
    {
      "inputs": [],
      "name": "FinalNumBatchDoesNotMatchPendingState",
      "type": "error"
    },
    {
      "inputs": [],
      "name": "FinalPendingStateNumInvalid",
      "type": "error"
    },
    {
      "inputs": [],
      "name": "ForceBatchNotAllowed",
      "type": "error"
    },
    {
      "inputs": [],
      "name": "ForceBatchTimeoutNotExpired",
      "type": "error"
    },
    {
      "inputs": [],
      "name": "ForceBatchesAlreadyActive",
      "type": "error"
    },
    {
      "inputs": [],
      "name": "ForceBatchesOverflow",
      "type": "error"
    },
    {
      "inputs": [],
      "name": "ForcedDataDoesNotMatch",
      "type": "error"
    },
    {
      "inputs": [],
      "name": "GlobalExitRootNotExist",
      "type": "error"
    },
    {
      "inputs": [],
      "name": "HaltTimeoutNotExpired",
      "type": "error"
    },
    {
      "inputs": [],
      "name": "InitNumBatchAboveLastVerifiedBatch",
      "type": "error"
    },
    {
      "inputs": [],
      "name": "InitNumBatchDoesNotMatchPendingState",
      "type": "error"
    },
    {
      "inputs": [],
      "name": "InvalidProof",
      "type": "error"
    },
    {
      "inputs": [],
      "name": "InvalidRangeBatchTimeTarget",
      "type": "error"
    },
    {
      "inputs": [],
      "name": "InvalidRangeForceBatchTimeout",
      "type": "error"
    },
    {
      "inputs": [],
      "name": "InvalidRangeMultiplierBatchFee",
      "type": "error"
    },
    {
      "inputs": [],
      "name": "NewAccInputHashDoesNotExist",
      "type": "error"
    },
    {
      "inputs": [],
      "name": "NewPendingStateTimeoutMustBeLower",
      "type": "error"
    },
    {
      "inputs": [],
      "name": "NewStateRootNotInsidePrime",
      "type": "error"
    },
    {
      "inputs": [],
      "name": "NewTrustedAggregatorTimeoutMustBeLower",
      "type": "error"
    },
    {
      "inputs": [],
      "name": "NotEnoughMaticAmount",
      "type": "error"
    },
    {
      "inputs": [],
      "name": "OldAccInputHashDoesNotExist",
      "type": "error"
    },
    {
      "inputs": [],
      "name": "OldStateRootDoesNotExist",
      "type": "error"
    },
    {
      "inputs": [],
      "name": "OnlyAdmin",
      "type": "error"
    },
    {
      "inputs": [],
      "name": "OnlyEmergencyState",
      "type": "error"
    },
    {
      "inputs": [],
      "name": "OnlyNotEmergencyState",
      "type": "error"
    },
    {
      "inputs": [],
      "name": "OnlyPendingAdmin",
      "type": "error"
    },
    {
      "inputs": [],
      "name": "OnlyTrustedAggregator",
      "type": "error"
    },
    {
      "inputs": [],
      "name": "OnlyTrustedSequencer",
      "type": "error"
    },
    {
      "inputs": [],
      "name": "PendingStateDoesNotExist",
      "type": "error"
    },
    {
      "inputs": [],
      "name": "PendingStateInvalid",
      "type": "error"
    },
    {
      "inputs": [],
      "name": "PendingStateNotConsolidable",
      "type": "error"
    },
    {
      "inputs": [],
      "name": "PendingStateTimeoutExceedHaltAggregationTimeout",
      "type": "error"
    },
    {
      "inputs": [],
      "name": "SequenceZeroBatches",
      "type": "error"
    },
    {
      "inputs": [],
      "name": "SequencedTimestampBelowForcedTimestamp",
      "type": "error"
    },
    {
      "inputs": [],
      "name": "SequencedTimestampInvalid",
      "type": "error"
    },
    {
      "inputs": [],
      "name": "StoredRootMustBeDifferentThanNewRoot",
      "type": "error"
    },
    {
      "inputs": [],
      "name": "TransactionsLengthAboveMax",
      "type": "error"
    },
    {
      "inputs": [],
      "name": "TrustedAggregatorTimeoutExceedHaltAggregationTimeout",
      "type": "error"
    },
    {
      "inputs": [],
      "name": "TrustedAggregatorTimeoutNotExpired",
      "type": "error"
    },
    {
      "anonymous": false,
      "inputs": [
        {
          "indexed": false,
          "internalType": "address",
          "name": "newAdmin",
          "type": "address"
        }
      ],
      "name": "AcceptAdminRole",
      "type": "event"
    },
    {
      "anonymous": false,
      "inputs": [],
      "name": "ActivateForceBatches",
      "type": "event"
    },
    {
      "anonymous": false,
      "inputs": [
        {
          "indexed": true,
          "internalType": "uint64",
          "name": "numBatch",
          "type": "uint64"
        },
        {
          "indexed": false,
          "internalType": "bytes32",
          "name": "stateRoot",
          "type": "bytes32"
        },
        {
          "indexed": true,
          "internalType": "uint64",
          "name": "pendingStateNum",
          "type": "uint64"
        }
      ],
      "name": "ConsolidatePendingState",
      "type": "event"
    },
    {
      "anonymous": false,
      "inputs": [],
      "name": "EmergencyStateActivated",
      "type": "event"
    },
    {
      "anonymous": false,
      "inputs": [],
      "name": "EmergencyStateDeactivated",
      "type": "event"
    },
    {
      "anonymous": false,
      "inputs": [
        {
          "indexed": true,
          "internalType": "uint64",
          "name": "forceBatchNum",
          "type": "uint64"
        },
        {
          "indexed": false,
          "internalType": "bytes32",
          "name": "lastGlobalExitRoot",
          "type": "bytes32"
        },
        {
          "indexed": false,
          "internalType": "address",
          "name": "sequencer",
          "type": "address"
        },
        {
          "indexed": false,
          "internalType": "bytes",
          "name": "transactions",
          "type": "bytes"
        }
      ],
      "name": "ForceBatch",
      "type": "event"
    },
    {
      "anonymous": false,
      "inputs": [
        {
          "indexed": false,
          "internalType": "uint8",
          "name": "version",
          "type": "uint8"
        }
      ],
      "name": "Initialized",
      "type": "event"
    },
    {
      "anonymous": false,
      "inputs": [
        {
          "indexed": true,
          "internalType": "uint64",
          "name": "numBatch",
          "type": "uint64"
        },
        {
          "indexed": false,
          "internalType": "bytes32",
          "name": "stateRoot",
          "type": "bytes32"
        },
        {
          "indexed": true,
          "internalType": "address",
          "name": "aggregator",
          "type": "address"
        }
      ],
      "name": "OverridePendingState",
      "type": "event"
    },
    {
      "anonymous": false,
      "inputs": [
        {
          "indexed": true,
          "internalType": "address",
          "name": "previousOwner",
          "type": "address"
        },
        {
          "indexed": true,
          "internalType": "address",
          "name": "newOwner",
          "type": "address"
        }
      ],
      "name": "OwnershipTransferred",
      "type": "event"
    },
    {
      "anonymous": false,
      "inputs": [
        {
          "indexed": false,
          "internalType": "bytes32",
          "name": "storedStateRoot",
          "type": "bytes32"
        },
        {
          "indexed": false,
          "internalType": "bytes32",
          "name": "provedStateRoot",
          "type": "bytes32"
        }
      ],
      "name": "ProveNonDeterministicPendingState",
      "type": "event"
    },
    {
      "anonymous": false,
      "inputs": [
        {
          "indexed": true,
          "internalType": "uint64",
          "name": "numBatch",
          "type": "uint64"
        }
      ],
      "name": "SequenceBatches",
      "type": "event"
    },
    {
      "anonymous": false,
      "inputs": [
        {
          "indexed": true,
          "internalType": "uint64",
          "name": "numBatch",
          "type": "uint64"
        }
      ],
      "name": "SequenceForceBatches",
      "type": "event"
    },
    {
      "anonymous": false,
      "inputs": [
        {
          "indexed": false,
          "internalType": "uint64",
          "name": "newforceBatchTimeout",
          "type": "uint64"
        }
      ],
      "name": "SetForceBatchTimeout",
      "type": "event"
    },
    {
      "anonymous": false,
      "inputs": [
        {
          "indexed": false,
          "internalType": "uint16",
          "name": "newMultiplierBatchFee",
          "type": "uint16"
        }
      ],
      "name": "SetMultiplierBatchFee",
      "type": "event"
    },
    {
      "anonymous": false,
      "inputs": [
        {
          "indexed": false,
          "internalType": "uint64",
          "name": "newPendingStateTimeout",
          "type": "uint64"
        }
      ],
      "name": "SetPendingStateTimeout",
      "type": "event"
    },
    {
      "anonymous": false,
      "inputs": [
        {
          "indexed": false,
          "internalType": "address",
          "name": "newTrustedAggregator",
          "type": "address"
        }
      ],
      "name": "SetTrustedAggregator",
      "type": "event"
    },
    {
      "anonymous": false,
      "inputs": [
        {
          "indexed": false,
          "internalType": "uint64",
          "name": "newTrustedAggregatorTimeout",
          "type": "uint64"
        }
      ],
      "name": "SetTrustedAggregatorTimeout",
      "type": "event"
    },
    {
      "anonymous": false,
      "inputs": [
        {
          "indexed": false,
          "internalType": "address",
          "name": "newTrustedSequencer",
          "type": "address"
        }
      ],
      "name": "SetTrustedSequencer",
      "type": "event"
    },
    {
      "anonymous": false,
      "inputs": [
        {
          "indexed": false,
          "internalType": "string",
          "name": "newTrustedSequencerURL",
          "type": "string"
        }
      ],
      "name": "SetTrustedSequencerURL",
      "type": "event"
    },
    {
      "anonymous": false,
      "inputs": [
        {
          "indexed": false,
          "internalType": "uint64",
          "name": "newVerifyBatchTimeTarget",
          "type": "uint64"
        }
      ],
      "name": "SetVerifyBatchTimeTarget",
      "type": "event"
    },
    {
      "anonymous": false,
      "inputs": [
        {
          "indexed": false,
          "internalType": "address",
          "name": "newPendingAdmin",
          "type": "address"
        }
      ],
      "name": "TransferAdminRole",
      "type": "event"
    },
    {
      "anonymous": false,
      "inputs": [
        {
          "indexed": false,
          "internalType": "uint64",
          "name": "numBatch",
          "type": "uint64"
        },
        {
          "indexed": false,
          "internalType": "uint64",
          "name": "forkID",
          "type": "uint64"
        },
        {
          "indexed": false,
          "internalType": "string",
          "name": "version",
          "type": "string"
        }
      ],
      "name": "UpdateZkEVMVersion",
      "type": "event"
    },
    {
      "anonymous": false,
      "inputs": [
        {
          "indexed": true,
          "internalType": "uint64",
          "name": "numBatch",
          "type": "uint64"
        },
        {
          "indexed": false,
          "internalType": "bytes32",
          "name": "stateRoot",
          "type": "bytes32"
        },
        {
          "indexed": true,
          "internalType": "address",
          "name": "aggregator",
          "type": "address"
        }
      ],
      "name": "VerifyBatches",
      "type": "event"
    },
    {
      "anonymous": false,
      "inputs": [
        {
          "indexed": true,
          "internalType": "uint64",
          "name": "numBatch",
          "type": "uint64"
        },
        {
          "indexed": false,
          "internalType": "bytes32",
          "name": "stateRoot",
          "type": "bytes32"
        },
        {
          "indexed": true,
          "internalType": "address",
          "name": "aggregator",
          "type": "address"
        }
      ],
      "name": "VerifyBatchesTrustedAggregator",
      "type": "event"
    },
    {
      "inputs": [],
      "name": "acceptAdminRole",
      "outputs": [],
      "stateMutability": "nonpayable",
      "type": "function"
    },
    {
      "inputs": [
        {
          "internalType": "uint64",
          "name": "sequencedBatchNum",
          "type": "uint64"
        }
      ],
      "name": "activateEmergencyState",
      "outputs": [],
      "stateMutability": "nonpayable",
      "type": "function"
    },
    {
      "inputs": [],
      "name": "activateForceBatches",
      "outputs": [],
      "stateMutability": "nonpayable",
      "type": "function"
    },
    {
      "inputs": [],
      "name": "admin",
      "outputs": [
        {
          "internalType": "address",
          "name": "",
          "type": "address"
        }
      ],
      "stateMutability": "view",
      "type": "function"
    },
    {
      "inputs": [],
      "name": "batchFee",
      "outputs": [
        {
          "internalType": "uint256",
          "name": "",
          "type": "uint256"
        }
      ],
      "stateMutability": "view",
      "type": "function"
    },
    {
      "inputs": [
        {
          "internalType": "uint64",
          "name": "",
          "type": "uint64"
        }
      ],
      "name": "batchNumToStateRoot",
      "outputs": [
        {
          "internalType": "bytes32",
          "name": "",
          "type": "bytes32"
        }
      ],
      "stateMutability": "view",
      "type": "function"
    },
    {
      "inputs": [],
      "name": "bridgeAddress",
      "outputs": [
        {
          "internalType": "contract IPolygonZkEVMBridge",
          "name": "",
          "type": "address"
        }
      ],
      "stateMutability": "view",
      "type": "function"
    },
    {
      "inputs": [],
      "name": "calculateRewardPerBatch",
      "outputs": [
        {
          "internalType": "uint256",
          "name": "",
          "type": "uint256"
        }
      ],
      "stateMutability": "view",
      "type": "function"
    },
    {
      "inputs": [],
      "name": "chainID",
      "outputs": [
        {
          "internalType": "uint64",
          "name": "",
          "type": "uint64"
        }
      ],
      "stateMutability": "view",
      "type": "function"
    },
    {
      "inputs": [
        {
          "internalType": "uint256",
          "name": "newStateRoot",
          "type": "uint256"
        }
      ],
      "name": "checkStateRootInsidePrime",
      "outputs": [
        {
          "internalType": "bool",
          "name": "",
          "type": "bool"
        }
      ],
      "stateMutability": "pure",
      "type": "function"
    },
    {
      "inputs": [
        {
          "internalType": "uint64",
          "name": "pendingStateNum",
          "type": "uint64"
        }
      ],
      "name": "consolidatePendingState",
      "outputs": [],
      "stateMutability": "nonpayable",
      "type": "function"
    },
    {
      "inputs": [],
      "name": "dataCommitteeAddress",
      "outputs": [
        {
          "internalType": "contract ICDKDataCommittee",
          "name": "",
          "type": "address"
        }
      ],
      "stateMutability": "view",
      "type": "function"
    },
    {
      "inputs": [],
      "name": "deactivateEmergencyState",
      "outputs": [],
      "stateMutability": "nonpayable",
      "type": "function"
    },
    {
      "inputs": [
        {
          "internalType": "bytes",
          "name": "transactions",
          "type": "bytes"
        },
        {
          "internalType": "uint256",
          "name": "maticAmount",
          "type": "uint256"
        }
      ],
      "name": "forceBatch",
      "outputs": [],
      "stateMutability": "nonpayable",
      "type": "function"
    },
    {
      "inputs": [],
      "name": "forceBatchTimeout",
      "outputs": [
        {
          "internalType": "uint64",
          "name": "",
          "type": "uint64"
        }
      ],
      "stateMutability": "view",
      "type": "function"
    },
    {
      "inputs": [
        {
          "internalType": "uint64",
          "name": "",
          "type": "uint64"
        }
      ],
      "name": "forcedBatches",
      "outputs": [
        {
          "internalType": "bytes32",
          "name": "",
          "type": "bytes32"
        }
      ],
      "stateMutability": "view",
      "type": "function"
    },
    {
      "inputs": [],
      "name": "forkID",
      "outputs": [
        {
          "internalType": "uint64",
          "name": "",
          "type": "uint64"
        }
      ],
      "stateMutability": "view",
      "type": "function"
    },
    {
      "inputs": [],
      "name": "getForcedBatchFee",
      "outputs": [
        {
          "internalType": "uint256",
          "name": "",
          "type": "uint256"
        }
      ],
      "stateMutability": "view",
      "type": "function"
    },
    {
      "inputs": [
        {
          "internalType": "uint64",
          "name": "initNumBatch",
          "type": "uint64"
        },
        {
          "internalType": "uint64",
          "name": "finalNewBatch",
          "type": "uint64"
        },
        {
          "internalType": "bytes32",
          "name": "newLocalExitRoot",
          "type": "bytes32"
        },
        {
          "internalType": "bytes32",
          "name": "oldStateRoot",
          "type": "bytes32"
        },
        {
          "internalType": "bytes32",
          "name": "newStateRoot",
          "type": "bytes32"
        }
      ],
      "name": "getInputSnarkBytes",
      "outputs": [
        {
          "internalType": "bytes",
          "name": "",
          "type": "bytes"
        }
      ],
      "stateMutability": "view",
      "type": "function"
    },
    {
      "inputs": [],
      "name": "getLastVerifiedBatch",
      "outputs": [
        {
          "internalType": "uint64",
          "name": "",
          "type": "uint64"
        }
      ],
      "stateMutability": "view",
      "type": "function"
    },
    {
      "inputs": [],
      "name": "globalExitRootManager",
      "outputs": [
        {
          "internalType": "contract IPolygonZkEVMGlobalExitRoot",
          "name": "",
          "type": "address"
        }
      ],
      "stateMutability": "view",
      "type": "function"
    },
    {
      "inputs": [
        {
          "components": [
            {
              "internalType": "address",
              "name": "admin",
              "type": "address"
            },
            {
              "internalType": "address",
              "name": "trustedSequencer",
              "type": "address"
            },
            {
              "internalType": "uint64",
              "name": "pendingStateTimeout",
              "type": "uint64"
            },
            {
              "internalType": "address",
              "name": "trustedAggregator",
              "type": "address"
            },
            {
              "internalType": "uint64",
              "name": "trustedAggregatorTimeout",
              "type": "uint64"
            }
          ],
          "internalType": "struct CDKValidium.InitializePackedParameters",
          "name": "initializePackedParameters",
          "type": "tuple"
        },
        {
          "internalType": "bytes32",
          "name": "genesisRoot",
          "type": "bytes32"
        },
        {
          "internalType": "string",
          "name": "_trustedSequencerURL",
          "type": "string"
        },
        {
          "internalType": "string",
          "name": "_networkName",
          "type": "string"
        },
        {
          "internalType": "string",
          "name": "_version",
          "type": "string"
        }
      ],
      "name": "initialize",
      "outputs": [],
      "stateMutability": "nonpayable",
      "type": "function"
    },
    {
      "inputs": [],
      "name": "isEmergencyState",
      "outputs": [
        {
          "internalType": "bool",
          "name": "",
          "type": "bool"
        }
      ],
      "stateMutability": "view",
      "type": "function"
    },
    {
      "inputs": [],
      "name": "isForcedBatchDisallowed",
      "outputs": [
        {
          "internalType": "bool",
          "name": "",
          "type": "bool"
        }
      ],
      "stateMutability": "view",
      "type": "function"
    },
    {
      "inputs": [
        {
          "internalType": "uint64",
          "name": "pendingStateNum",
          "type": "uint64"
        }
      ],
      "name": "isPendingStateConsolidable",
      "outputs": [
        {
          "internalType": "bool",
          "name": "",
          "type": "bool"
        }
      ],
      "stateMutability": "view",
      "type": "function"
    },
    {
      "inputs": [],
      "name": "lastBatchSequenced",
      "outputs": [
        {
          "internalType": "uint64",
          "name": "",
          "type": "uint64"
        }
      ],
      "stateMutability": "view",
      "type": "function"
    },
    {
      "inputs": [],
      "name": "lastForceBatch",
      "outputs": [
        {
          "internalType": "uint64",
          "name": "",
          "type": "uint64"
        }
      ],
      "stateMutability": "view",
      "type": "function"
    },
    {
      "inputs": [],
      "name": "lastForceBatchSequenced",
      "outputs": [
        {
          "internalType": "uint64",
          "name": "",
          "type": "uint64"
        }
      ],
      "stateMutability": "view",
      "type": "function"
    },
    {
      "inputs": [],
      "name": "lastPendingState",
      "outputs": [
        {
          "internalType": "uint64",
          "name": "",
          "type": "uint64"
        }
      ],
      "stateMutability": "view",
      "type": "function"
    },
    {
      "inputs": [],
      "name": "lastPendingStateConsolidated",
      "outputs": [
        {
          "internalType": "uint64",
          "name": "",
          "type": "uint64"
        }
      ],
      "stateMutability": "view",
      "type": "function"
    },
    {
      "inputs": [],
      "name": "lastTimestamp",
      "outputs": [
        {
          "internalType": "uint64",
          "name": "",
          "type": "uint64"
        }
      ],
      "stateMutability": "view",
      "type": "function"
    },
    {
      "inputs": [],
      "name": "lastVerifiedBatch",
      "outputs": [
        {
          "internalType": "uint64",
          "name": "",
          "type": "uint64"
        }
      ],
      "stateMutability": "view",
      "type": "function"
    },
    {
      "inputs": [],
      "name": "matic",
      "outputs": [
        {
          "internalType": "contract IERC20Upgradeable",
          "name": "",
          "type": "address"
        }
      ],
      "stateMutability": "view",
      "type": "function"
    },
    {
      "inputs": [],
      "name": "multiplierBatchFee",
      "outputs": [
        {
          "internalType": "uint16",
          "name": "",
          "type": "uint16"
        }
      ],
      "stateMutability": "view",
      "type": "function"
    },
    {
      "inputs": [],
      "name": "networkName",
      "outputs": [
        {
          "internalType": "string",
          "name": "",
          "type": "string"
        }
      ],
      "stateMutability": "view",
      "type": "function"
    },
    {
      "inputs": [
        {
          "internalType": "uint64",
          "name": "initPendingStateNum",
          "type": "uint64"
        },
        {
          "internalType": "uint64",
          "name": "finalPendingStateNum",
          "type": "uint64"
        },
        {
          "internalType": "uint64",
          "name": "initNumBatch",
          "type": "uint64"
        },
        {
          "internalType": "uint64",
          "name": "finalNewBatch",
          "type": "uint64"
        },
        {
          "internalType": "bytes32",
          "name": "newLocalExitRoot",
          "type": "bytes32"
        },
        {
          "internalType": "bytes32",
          "name": "newStateRoot",
          "type": "bytes32"
        },
        {
          "internalType": "bytes32[24]",
          "name": "proof",
          "type": "bytes32[24]"
        }
      ],
      "name": "overridePendingState",
      "outputs": [],
      "stateMutability": "nonpayable",
      "type": "function"
    },
    {
      "inputs": [],
      "name": "owner",
      "outputs": [
        {
          "internalType": "address",
          "name": "",
          "type": "address"
        }
      ],
      "stateMutability": "view",
      "type": "function"
    },
    {
      "inputs": [],
      "name": "pendingAdmin",
      "outputs": [
        {
          "internalType": "address",
          "name": "",
          "type": "address"
        }
      ],
      "stateMutability": "view",
      "type": "function"
    },
    {
      "inputs": [],
      "name": "pendingStateTimeout",
      "outputs": [
        {
          "internalType": "uint64",
          "name": "",
          "type": "uint64"
        }
      ],
      "stateMutability": "view",
      "type": "function"
    },
    {
      "inputs": [
        {
          "internalType": "uint256",
          "name": "",
          "type": "uint256"
        }
      ],
      "name": "pendingStateTransitions",
      "outputs": [
        {
          "internalType": "uint64",
          "name": "timestamp",
          "type": "uint64"
        },
        {
          "internalType": "uint64",
          "name": "lastVerifiedBatch",
          "type": "uint64"
        },
        {
          "internalType": "bytes32",
          "name": "exitRoot",
          "type": "bytes32"
        },
        {
          "internalType": "bytes32",
          "name": "stateRoot",
          "type": "bytes32"
        }
      ],
      "stateMutability": "view",
      "type": "function"
    },
    {
      "inputs": [
        {
          "internalType": "uint64",
          "name": "initPendingStateNum",
          "type": "uint64"
        },
        {
          "internalType": "uint64",
          "name": "finalPendingStateNum",
          "type": "uint64"
        },
        {
          "internalType": "uint64",
          "name": "initNumBatch",
          "type": "uint64"
        },
        {
          "internalType": "uint64",
          "name": "finalNewBatch",
          "type": "uint64"
        },
        {
          "internalType": "bytes32",
          "name": "newLocalExitRoot",
          "type": "bytes32"
        },
        {
          "internalType": "bytes32",
          "name": "newStateRoot",
          "type": "bytes32"
        },
        {
          "internalType": "bytes32[24]",
          "name": "proof",
          "type": "bytes32[24]"
        }
      ],
      "name": "proveNonDeterministicPendingState",
      "outputs": [],
      "stateMutability": "nonpayable",
      "type": "function"
    },
    {
      "inputs": [],
      "name": "renounceOwnership",
      "outputs": [],
      "stateMutability": "nonpayable",
      "type": "function"
    },
    {
      "inputs": [],
      "name": "rollupVerifier",
      "outputs": [
        {
          "internalType": "contract IVerifierRollup",
          "name": "",
          "type": "address"
        }
      ],
      "stateMutability": "view",
      "type": "function"
    },
    {
      "inputs": [
        {
          "components": [
            {
              "internalType": "bytes32",
              "name": "transactionsHash",
              "type": "bytes32"
            },
            {
              "internalType": "bytes32",
              "name": "globalExitRoot",
              "type": "bytes32"
            },
            {
              "internalType": "uint64",
              "name": "timestamp",
              "type": "uint64"
            },
            {
              "internalType": "uint64",
              "name": "minForcedTimestamp",
              "type": "uint64"
            }
          ],
          "internalType": "struct CDKValidium.BatchData[]",
          "name": "batches",
          "type": "tuple[]"
        },
        {
          "internalType": "address",
          "name": "l2Coinbase",
          "type": "address"
        },
        {
          "internalType": "bytes",
          "name": "signaturesAndAddrs",
          "type": "bytes"
        }
      ],
      "name": "sequenceBatches",
      "outputs": [],
      "stateMutability": "nonpayable",
      "type": "function"
    },
    {
      "inputs": [
        {
          "components": [
            {
              "internalType": "bytes",
              "name": "transactions",
              "type": "bytes"
            },
            {
              "internalType": "bytes32",
              "name": "globalExitRoot",
              "type": "bytes32"
            },
            {
              "internalType": "uint64",
              "name": "minForcedTimestamp",
              "type": "uint64"
            }
          ],
          "internalType": "struct CDKValidium.ForcedBatchData[]",
          "name": "batches",
          "type": "tuple[]"
        }
      ],
      "name": "sequenceForceBatches",
      "outputs": [],
      "stateMutability": "nonpayable",
      "type": "function"
    },
    {
      "inputs": [
        {
          "internalType": "uint64",
          "name": "",
          "type": "uint64"
        }
      ],
      "name": "sequencedBatches",
      "outputs": [
        {
          "internalType": "bytes32",
          "name": "accInputHash",
          "type": "bytes32"
        },
        {
          "internalType": "uint64",
          "name": "sequencedTimestamp",
          "type": "uint64"
        },
        {
          "internalType": "uint64",
          "name": "previousLastBatchSequenced",
          "type": "uint64"
        }
      ],
      "stateMutability": "view",
      "type": "function"
    },
    {
      "inputs": [
        {
          "internalType": "uint64",
          "name": "newforceBatchTimeout",
          "type": "uint64"
        }
      ],
      "name": "setForceBatchTimeout",
      "outputs": [],
      "stateMutability": "nonpayable",
      "type": "function"
    },
    {
      "inputs": [
        {
          "internalType": "uint16",
          "name": "newMultiplierBatchFee",
          "type": "uint16"
        }
      ],
      "name": "setMultiplierBatchFee",
      "outputs": [],
      "stateMutability": "nonpayable",
      "type": "function"
    },
    {
      "inputs": [
        {
          "internalType": "uint64",
          "name": "newPendingStateTimeout",
          "type": "uint64"
        }
      ],
      "name": "setPendingStateTimeout",
      "outputs": [],
      "stateMutability": "nonpayable",
      "type": "function"
    },
    {
      "inputs": [
        {
          "internalType": "address",
          "name": "newTrustedAggregator",
          "type": "address"
        }
      ],
      "name": "setTrustedAggregator",
      "outputs": [],
      "stateMutability": "nonpayable",
      "type": "function"
    },
    {
      "inputs": [
        {
          "internalType": "uint64",
          "name": "newTrustedAggregatorTimeout",
          "type": "uint64"
        }
      ],
      "name": "setTrustedAggregatorTimeout",
      "outputs": [],
      "stateMutability": "nonpayable",
      "type": "function"
    },
    {
      "inputs": [
        {
          "internalType": "address",
          "name": "newTrustedSequencer",
          "type": "address"
        }
      ],
      "name": "setTrustedSequencer",
      "outputs": [],
      "stateMutability": "nonpayable",
      "type": "function"
    },
    {
      "inputs": [
        {
          "internalType": "string",
          "name": "newTrustedSequencerURL",
          "type": "string"
        }
      ],
      "name": "setTrustedSequencerURL",
      "outputs": [],
      "stateMutability": "nonpayable",
      "type": "function"
    },
    {
      "inputs": [
        {
          "internalType": "uint64",
          "name": "newVerifyBatchTimeTarget",
          "type": "uint64"
        }
      ],
      "name": "setVerifyBatchTimeTarget",
      "outputs": [],
      "stateMutability": "nonpayable",
      "type": "function"
    },
    {
      "inputs": [
        {
          "internalType": "address",
          "name": "newPendingAdmin",
          "type": "address"
        }
      ],
      "name": "transferAdminRole",
      "outputs": [],
      "stateMutability": "nonpayable",
      "type": "function"
    },
    {
      "inputs": [
        {
          "internalType": "address",
          "name": "newOwner",
          "type": "address"
        }
      ],
      "name": "transferOwnership",
      "outputs": [],
      "stateMutability": "nonpayable",
      "type": "function"
    },
    {
      "inputs": [],
      "name": "trustedAggregator",
      "outputs": [
        {
          "internalType": "address",
          "name": "",
          "type": "address"
        }
      ],
      "stateMutability": "view",
      "type": "function"
    },
    {
      "inputs": [],
      "name": "trustedAggregatorTimeout",
      "outputs": [
        {
          "internalType": "uint64",
          "name": "",
          "type": "uint64"
        }
      ],
      "stateMutability": "view",
      "type": "function"
    },
    {
      "inputs": [],
      "name": "trustedSequencer",
      "outputs": [
        {
          "internalType": "address",
          "name": "",
          "type": "address"
        }
      ],
      "stateMutability": "view",
      "type": "function"
    },
    {
      "inputs": [],
      "name": "trustedSequencerURL",
      "outputs": [
        {
          "internalType": "string",
          "name": "",
          "type": "string"
        }
      ],
      "stateMutability": "view",
      "type": "function"
    },
    {
      "inputs": [],
      "name": "verifyBatchTimeTarget",
      "outputs": [
        {
          "internalType": "uint64",
          "name": "",
          "type": "uint64"
        }
      ],
      "stateMutability": "view",
      "type": "function"
    },
    {
      "inputs": [
        {
          "internalType": "uint64",
          "name": "pendingStateNum",
          "type": "uint64"
        },
        {
          "internalType": "uint64",
          "name": "initNumBatch",
          "type": "uint64"
        },
        {
          "internalType": "uint64",
          "name": "finalNewBatch",
          "type": "uint64"
        },
        {
          "internalType": "bytes32",
          "name": "newLocalExitRoot",
          "type": "bytes32"
        },
        {
          "internalType": "bytes32",
          "name": "newStateRoot",
          "type": "bytes32"
        },
        {
          "internalType": "bytes32[24]",
          "name": "proof",
          "type": "bytes32[24]"
        }
      ],
      "name": "verifyBatches",
      "outputs": [],
      "stateMutability": "nonpayable",
      "type": "function"
    },
    {
      "inputs": [
        {
          "internalType": "uint64",
          "name": "pendingStateNum",
          "type": "uint64"
        },
        {
          "internalType": "uint64",
          "name": "initNumBatch",
          "type": "uint64"
        },
        {
          "internalType": "uint64",
          "name": "finalNewBatch",
          "type": "uint64"
        },
        {
          "internalType": "bytes32",
          "name": "newLocalExitRoot",
          "type": "bytes32"
        },
        {
          "internalType": "bytes32",
          "name": "newStateRoot",
          "type": "bytes32"
        },
        {
          "internalType": "bytes32[24]",
          "name": "proof",
          "type": "bytes32[24]"
        }
      ],
      "name": "verifyBatchesTrustedAggregator",
      "outputs": [],
      "stateMutability": "nonpayable",
      "type": "function"
    }
  ],
  "bytecode": "0x6101606040523480156200001257600080fd5b50604051620081893803806200818983398181016040528101906200003891906200035b565b8673ffffffffffffffffffffffffffffffffffffffff1660c08173ffffffffffffffffffffffffffffffffffffffff16815250508573ffffffffffffffffffffffffffffffffffffffff1660808173ffffffffffffffffffffffffffffffffffffffff16815250508473ffffffffffffffffffffffffffffffffffffffff1660a08173ffffffffffffffffffffffffffffffffffffffff16815250508373ffffffffffffffffffffffffffffffffffffffff1660e08173ffffffffffffffffffffffffffffffffffffffff16815250508273ffffffffffffffffffffffffffffffffffffffff166101008173ffffffffffffffffffffffffffffffffffffffff16815250508167ffffffffffffffff166101208167ffffffffffffffff16815250508067ffffffffffffffff166101408167ffffffffffffffff1681525050505050505050506200040e565b600080fd5b600073ffffffffffffffffffffffffffffffffffffffff82169050919050565b6000620001b68262000189565b9050919050565b6000620001ca82620001a9565b9050919050565b620001dc81620001bd565b8114620001e857600080fd5b50565b600081519050620001fc81620001d1565b92915050565b60006200020f82620001a9565b9050919050565b620002218162000202565b81146200022d57600080fd5b50565b600081519050620002418162000216565b92915050565b60006200025482620001a9565b9050919050565b620002668162000247565b81146200027257600080fd5b50565b60008151905062000286816200025b565b92915050565b60006200029982620001a9565b9050919050565b620002ab816200028c565b8114620002b757600080fd5b50565b600081519050620002cb81620002a0565b92915050565b6000620002de82620001a9565b9050919050565b620002f081620002d1565b8114620002fc57600080fd5b50565b6000815190506200031081620002e5565b92915050565b600067ffffffffffffffff82169050919050565b620003358162000316565b81146200034157600080fd5b50565b60008151905062000355816200032a565b92915050565b600080600080600080600060e0888a0312156200037d576200037c62000184565b5b60006200038d8a828b01620001eb565b9750506020620003a08a828b0162000230565b9650506040620003b38a828b0162000275565b9550506060620003c68a828b01620002ba565b9450506080620003d98a828b01620002ff565b93505060a0620003ec8a828b0162000344565b92505060c0620003ff8a828b0162000344565b91505092959891949750929550565b60805160a05160c05160e051610100516101205161014051617c9b620004ee60003960008181610e9301528181612b950152613ad0015260008181610e7201526133aa015260008181611b530152612042015260008181611e47015281816132840152818161419301526157fd0152600081816110a1015281816112f6015281816119b60152818161264201528181613690015281816143bd015261539101526000818161423701528181614a850152614f84015260008181611df801528181612d9d01528181613434015281816143740152614b910152617c9b6000f3fe608060405234801561001057600080fd5b50600436106103c55760003560e01c8063837a4738116101ff578063c754c7ed1161011a578063e7a7ed02116100ad578063f14916d61161007c578063f14916d614610ac3578063f2fde38b14610adf578063f851a44014610afb578063f8b823e414610b19576103c5565b8063e7a7ed0214610a4d578063e8bf92ed14610a6b578063eaeb077b14610a89578063ed6b010414610aa5576103c5565b8063d2e129f9116100e9578063d2e129f9146109ed578063d8d1091b14610a09578063d939b31514610a25578063dbc1697614610a43576103c5565b8063c754c7ed14610977578063c89e42df14610995578063cfa8ed47146109b1578063d02103ca146109cf576103c5565b8063a3c573eb11610192578063b4d63f5811610161578063b4d63f58146108d9578063b6b0b0971461090b578063ba58ae3914610929578063c0ed84e014610959576103c5565b8063a3c573eb14610863578063ada8f91914610881578063adc879e91461089d578063afd23cbe146108bb576103c5565b806399f5634e116101ce57806399f5634e146107f15780639aa972a31461080f5780639c9f3dfe1461082b578063a066215c14610847576103c5565b8063837a473814610778578063841b24d7146107ab5780638c3d7301146107c95780638da5cb5b146107d3576103c5565b8063458c0477116102ef5780636046916911610282578063715018a611610251578063715018a6146107165780637215541a146107205780637fcb36531461073c578063831c7ead1461075a576103c5565b80636046916914610690578063621dd411146106ae5780636b8616ce146106ca5780636ff512cc146106fa576103c5565b80634e487706116102be5780634e4877061461061c5780635392c5e014610638578063542028d5146106685780635ec9195814610686576103c5565b8063458c0477146105a65780634a1a89a7146105c45780634a910e6a146105e25780634df61d24146105fe576103c5565b80632987898311610367578063394218e911610336578063394218e914610532578063423fa8561461054e578063438a53991461056c5780634560526714610588576103c5565b806329878983146104ac5780632b0006fa146104ca5780632c1f816a146104e6578063383b3be814610502576103c5565b80631816b7e5116103a35780631816b7e51461042457806319d8ac6114610440578063220d78991461045e578063267822471461048e576103c5565b80630a0d9fbe146103ca578063107bf28c146103e857806315064c9614610406575b600080fd5b6103d2610b37565b6040516103df9190615d4b565b60405180910390f35b6103f0610b51565b6040516103fd9190615df6565b60405180910390f35b61040e610bdf565b60405161041b9190615e33565b60405180910390f35b61043e60048036038101906104399190615e9c565b610bf2565b005b610448610d20565b6040516104559190615d4b565b60405180910390f35b61047860048036038101906104739190615f2b565b610d3a565b6040516104859190615ffb565b60405180910390f35b610496610eeb565b6040516104a3919061605e565b60405180910390f35b6104b4610f11565b6040516104c1919061605e565b60405180910390f35b6104e460048036038101906104df91906160a0565b610f37565b005b61050060048036038101906104fb919061612e565b61118b565b005b61051c600480360381019061051791906161d1565b61140d565b6040516105299190615e33565b60405180910390f35b61054c600480360381019061054791906161d1565b611479565b005b61055661162c565b6040516105639190615d4b565b60405180910390f35b610586600480360381019061058191906162e0565b611646565b005b610590611f0a565b60405161059d9190615d4b565b60405180910390f35b6105ae611f24565b6040516105bb9190615d4b565b60405180910390f35b6105cc611f3e565b6040516105d99190615d4b565b60405180910390f35b6105fc60048036038101906105f791906161d1565b611f58565b005b610606612040565b60405161061391906163d4565b60405180910390f35b610636600480360381019061063191906161d1565b612064565b005b610652600480360381019061064d91906161d1565b612217565b60405161065f91906163fe565b60405180910390f35b61067061222f565b60405161067d9190615df6565b60405180910390f35b61068e6122bd565b005b6106986123d3565b6040516106a59190616432565b60405180910390f35b6106c860048036038101906106c391906160a0565b6123e9565b005b6106e460048036038101906106df91906161d1565b612864565b6040516106f191906163fe565b60405180910390f35b610714600480360381019061070f919061644d565b61287c565b005b61071e61297e565b005b61073a600480360381019061073591906161d1565b612992565b005b610744612b79565b6040516107519190615d4b565b60405180910390f35b610762612b93565b60405161076f9190615d4b565b60405180910390f35b610792600480360381019061078d91906164a6565b612bb7565b6040516107a294939291906164d3565b60405180910390f35b6107b3612c0f565b6040516107c09190615d4b565b60405180910390f35b6107d1612c29565b005b6107db612d6e565b6040516107e8919061605e565b60405180910390f35b6107f9612d98565b6040516108069190616432565b60405180910390f35b6108296004803603810190610824919061612e565b612ed7565b005b610845600480360381019061084091906161d1565b612f9e565b005b610861600480360381019061085c91906161d1565b613151565b005b61086b613282565b6040516108789190616539565b60405180910390f35b61089b6004803603810190610896919061644d565b6132a6565b005b6108a56133a8565b6040516108b29190615d4b565b60405180910390f35b6108c36133cc565b6040516108d09190616563565b60405180910390f35b6108f360048036038101906108ee91906161d1565b6133e0565b6040516109029392919061657e565b60405180910390f35b610913613432565b60405161092091906165d6565b60405180910390f35b610943600480360381019061093e91906164a6565b613456565b6040516109509190615e33565b60405180910390f35b6109616134e4565b60405161096e9190615d4b565b60405180910390f35b61097f61357d565b60405161098c9190615d4b565b60405180910390f35b6109af60048036038101906109aa9190616721565b613597565b005b6109b9613668565b6040516109c6919061605e565b60405180910390f35b6109d761368e565b6040516109e4919061678b565b60405180910390f35b610a076004803603810190610a029190616820565b6136b2565b005b610a236004803603810190610a1e919061694a565b613b6b565b005b610a2d6140f0565b604051610a3a9190615d4b565b60405180910390f35b610a4b61410a565b005b610a5561421b565b604051610a629190615d4b565b60405180910390f35b610a73614235565b604051610a8091906169b8565b60405180910390f35b610aa36004803603810190610a9e91906169d3565b614259565b005b610aad614614565b604051610aba9190615e33565b60405180910390f35b610add6004803603810190610ad8919061644d565b614627565b005b610af96004803603810190610af4919061644d565b614729565b005b610b036147ac565b604051610b10919061605e565b60405180910390f35b610b216147d2565b604051610b2e9190616432565b60405180910390f35b606f60019054906101000a900467ffffffffffffffff1681565b60778054610b5e90616a62565b80601f0160208091040260200160405190810160405280929190818152602001828054610b8a90616a62565b8015610bd75780601f10610bac57610100808354040283529160200191610bd7565b820191906000526020600020905b815481529060010190602001808311610bba57829003601f168201915b505050505081565b606f60009054906101000a900460ff1681565b3373ffffffffffffffffffffffffffffffffffffffff16607a60009054906101000a900473ffffffffffffffffffffffffffffffffffffffff1673ffffffffffffffffffffffffffffffffffffffff1614610c79576040517f4755657900000000000000000000000000000000000000000000000000000000815260040160405180910390fd5b6103e88161ffff161080610c9257506103ff8161ffff16115b15610cc9576040517f4c2533c800000000000000000000000000000000000000000000000000000000815260040160405180910390fd5b80606f60096101000a81548161ffff021916908361ffff1602179055507f7019933d795eba185c180209e8ae8bffbaa25bcef293364687702c31f4d302c581604051610d159190616563565b60405180910390a150565b607360009054906101000a900467ffffffffffffffff1681565b60606000607260008867ffffffffffffffff1667ffffffffffffffff1681526020019081526020016000206000015490506000607260008867ffffffffffffffff1667ffffffffffffffff16815260200190815260200160002060000154905060008867ffffffffffffffff1614158015610db757506000801b82145b15610dee576040517f6818c29e00000000000000000000000000000000000000000000000000000000815260040160405180910390fd5b6000801b8103610e2a576040517f66385b5100000000000000000000000000000000000000000000000000000000815260040160405180910390fd5b610e368460001c613456565b610e6c576040517f176b913c00000000000000000000000000000000000000000000000000000000815260040160405180910390fd5b3385838a7f00000000000000000000000000000000000000000000000000000000000000007f000000000000000000000000000000000000000000000000000000000000000089878d8f604051602001610ecf9a99989796959493929190616b32565b6040516020818303038152906040529250505095945050505050565b607b60009054906101000a900473ffffffffffffffffffffffffffffffffffffffff1681565b607460089054906101000a900473ffffffffffffffffffffffffffffffffffffffff1681565b3373ffffffffffffffffffffffffffffffffffffffff16607460089054906101000a900473ffffffffffffffffffffffffffffffffffffffff1673ffffffffffffffffffffffffffffffffffffffff1614610fbe576040517fbbcbbc0500000000000000000000000000000000000000000000000000000000815260040160405180910390fd5b610fcc8686868686866147d8565b83607460006101000a81548167ffffffffffffffff021916908367ffffffffffffffff16021790555081607560008667ffffffffffffffff1667ffffffffffffffff168152602001908152602001600020819055506000607960009054906101000a900467ffffffffffffffff1667ffffffffffffffff16111561109f576000607960006101000a81548167ffffffffffffffff021916908367ffffffffffffffff1602179055506000607960086101000a81548167ffffffffffffffff021916908367ffffffffffffffff1602179055505b7f000000000000000000000000000000000000000000000000000000000000000073ffffffffffffffffffffffffffffffffffffffff166333d6247d846040518263ffffffff1660e01b81526004016110f891906163fe565b600060405180830381600087803b15801561111257600080fd5b505af1158015611126573d6000803e3d6000fd5b505050503373ffffffffffffffffffffffffffffffffffffffff168467ffffffffffffffff167fcb339b570a7f0b25afa7333371ff11192092a0aeace12b671f4c212f2815c6fe8460405161117b91906163fe565b60405180910390a3505050505050565b3373ffffffffffffffffffffffffffffffffffffffff16607460089054906101000a900473ffffffffffffffffffffffffffffffffffffffff1673ffffffffffffffffffffffffffffffffffffffff1614611212576040517fbbcbbc0500000000000000000000000000000000000000000000000000000000815260040160405180910390fd5b61122187878787878787614be1565b83607460006101000a81548167ffffffffffffffff021916908367ffffffffffffffff16021790555081607560008667ffffffffffffffff1667ffffffffffffffff168152602001908152602001600020819055506000607960009054906101000a900467ffffffffffffffff1667ffffffffffffffff1611156112f4576000607960006101000a81548167ffffffffffffffff021916908367ffffffffffffffff1602179055506000607960086101000a81548167ffffffffffffffff021916908367ffffffffffffffff1602179055505b7f000000000000000000000000000000000000000000000000000000000000000073ffffffffffffffffffffffffffffffffffffffff166333d6247d846040518263ffffffff1660e01b815260040161134d91906163fe565b600060405180830381600087803b15801561136757600080fd5b505af115801561137b573d6000803e3d6000fd5b5050505062093a80607960186101000a81548167ffffffffffffffff021916908367ffffffffffffffff1602179055503373ffffffffffffffffffffffffffffffffffffffff168467ffffffffffffffff167fcc1b5520188bf1dd3e63f98164b577c4d75c11a619ddea692112f0d1aec4cf72846040516113fc91906163fe565b60405180910390a350505050505050565b600042607960109054906101000a900467ffffffffffffffff16607860008567ffffffffffffffff16815260200190815260200160002060000160009054906101000a900467ffffffffffffffff166114669190616c15565b67ffffffffffffffff1611159050919050565b3373ffffffffffffffffffffffffffffffffffffffff16607a60009054906101000a900473ffffffffffffffffffffffffffffffffffffffff1673ffffffffffffffffffffffffffffffffffffffff1614611500576040517f4755657900000000000000000000000000000000000000000000000000000000815260040160405180910390fd5b62093a8067ffffffffffffffff168167ffffffffffffffff161115611551576040517f1d06e87900000000000000000000000000000000000000000000000000000000815260040160405180910390fd5b606f60009054906101000a900460ff166115c957607960189054906101000a900467ffffffffffffffff1667ffffffffffffffff168167ffffffffffffffff16106115c8576040517f401636df00000000000000000000000000000000000000000000000000000000815260040160405180910390fd5b5b80607960186101000a81548167ffffffffffffffff021916908367ffffffffffffffff1602179055507f1f4fa24c2e4bad19a7f3ec5c5485f70d46c798461c2e684f55bbd0fc661373a1816040516116219190615d4b565b60405180910390a150565b607360089054906101000a900467ffffffffffffffff1681565b606f60009054906101000a900460ff161561168d576040517f2f0047fc00000000000000000000000000000000000000000000000000000000815260040160405180910390fd5b3373ffffffffffffffffffffffffffffffffffffffff16606f600b9054906101000a900473ffffffffffffffffffffffffffffffffffffffff1673ffffffffffffffffffffffffffffffffffffffff1614611714576040517f11e7be1500000000000000000000000000000000000000000000000000000000815260040160405180910390fd5b600085859050905060008103611756576040517fcb591a5f00000000000000000000000000000000000000000000000000000000815260040160405180910390fd5b6103e867ffffffffffffffff1681111561179c576040517fb59f753a00000000000000000000000000000000000000000000000000000000815260040160405180910390fd5b6000607360009054906101000a900467ffffffffffffffff1690506000607360089054906101000a900467ffffffffffffffff1690506000607360109054906101000a900467ffffffffffffffff1690506000607260008467ffffffffffffffff1667ffffffffffffffff168152602001908152602001600020600001549050600082905060005b86811015611b505760008c8c8381811061184157611840616c51565b5b9050608002018036038101906118579190616d02565b90506000816060015167ffffffffffffffff1611156119a057848061187b90616d2f565b95505060008160000151826020015183606001516040516020016118a193929190616d5f565b604051602081830303815290604052805190602001209050607160008767ffffffffffffffff1667ffffffffffffffff168152602001908152602001600020548114611919576040517fce3d755e00000000000000000000000000000000000000000000000000000000815260040160405180910390fd5b607160008767ffffffffffffffff1667ffffffffffffffff16815260200190815260200160002060009055816060015167ffffffffffffffff16826040015167ffffffffffffffff16101561199a576040517f7f7ab87200000000000000000000000000000000000000000000000000000000815260040160405180910390fd5b50611a8e565b6000801b816020015114158015611a56575060007f000000000000000000000000000000000000000000000000000000000000000073ffffffffffffffffffffffffffffffffffffffff1663257b363283602001516040518263ffffffff1660e01b8152600401611a1191906163fe565b6020604051808303816000875af1158015611a30573d6000803e3d6000fd5b505050506040513d601f19601f82011682018060405250810190611a549190616db1565b145b15611a8d576040517f73bd668d00000000000000000000000000000000000000000000000000000000815260040160405180910390fd5b5b8667ffffffffffffffff16816040015167ffffffffffffffff161080611ac1575042816040015167ffffffffffffffff16115b15611af8576040517fea82791600000000000000000000000000000000000000000000000000000000815260040160405180910390fd5b838160000151826020015183604001518e604051602001611b1d959493929190616dde565b60405160208183030381529060405280519060200120935080604001519650508080611b4890616e3d565b915050611824565b507f000000000000000000000000000000000000000000000000000000000000000073ffffffffffffffffffffffffffffffffffffffff1663c7a823e0838a8a6040518463ffffffff1660e01b8152600401611bae93929190616eb2565b60006040518083038186803b158015611bc657600080fd5b505afa158015611bda573d6000803e3d6000fd5b505050508584611bea9190616c15565b9350607360189054906101000a900467ffffffffffffffff1667ffffffffffffffff168367ffffffffffffffff161115611c50576040517fc630a00d00000000000000000000000000000000000000000000000000000000815260040160405180910390fd5b60008184611c5e9190616ee4565b67ffffffffffffffff1687611c739190616f20565b905060405180606001604052808481526020014267ffffffffffffffff168152602001607360089054906101000a900467ffffffffffffffff1667ffffffffffffffff16815250607260008767ffffffffffffffff1667ffffffffffffffff1681526020019081526020016000206000820151816000015560208201518160010160006101000a81548167ffffffffffffffff021916908367ffffffffffffffff16021790555060408201518160010160086101000a81548167ffffffffffffffff021916908367ffffffffffffffff16021790555090505085607360006101000a81548167ffffffffffffffff021916908367ffffffffffffffff16021790555084607360086101000a81548167ffffffffffffffff021916908367ffffffffffffffff1602179055508167ffffffffffffffff168467ffffffffffffffff1614611de35783607360106101000a81548167ffffffffffffffff021916908367ffffffffffffffff1602179055505b611e3d333083607054611df69190616f54565b7f000000000000000000000000000000000000000000000000000000000000000073ffffffffffffffffffffffffffffffffffffffff166150c7909392919063ffffffff16565b611e45615150565b7f000000000000000000000000000000000000000000000000000000000000000073ffffffffffffffffffffffffffffffffffffffff166379e2cf976040518163ffffffff1660e01b8152600401600060405180830381600087803b158015611ead57600080fd5b505af1158015611ec1573d6000803e3d6000fd5b505050508467ffffffffffffffff167f303446e6a8cb73c83dff421c0b1d5e5ce0719dab1bff13660fc254e58cc17fce60405160405180910390a2505050505050505050505050565b607360109054906101000a900467ffffffffffffffff1681565b607960009054906101000a900467ffffffffffffffff1681565b607960089054906101000a900467ffffffffffffffff1681565b607460089054906101000a900473ffffffffffffffffffffffffffffffffffffffff1673ffffffffffffffffffffffffffffffffffffffff163373ffffffffffffffffffffffffffffffffffffffff161461203457606f60009054906101000a900460ff1615611ff4576040517f2f0047fc00000000000000000000000000000000000000000000000000000000815260040160405180910390fd5b611ffd8161140d565b612033576040517f0ce9e4a200000000000000000000000000000000000000000000000000000000815260040160405180910390fd5b5b61203d81615236565b50565b7f000000000000000000000000000000000000000000000000000000000000000081565b3373ffffffffffffffffffffffffffffffffffffffff16607a60009054906101000a900473ffffffffffffffffffffffffffffffffffffffff1673ffffffffffffffffffffffffffffffffffffffff16146120eb576040517f4755657900000000000000000000000000000000000000000000000000000000815260040160405180910390fd5b62093a8067ffffffffffffffff168167ffffffffffffffff16111561213c576040517ff5e37f2f00000000000000000000000000000000000000000000000000000000815260040160405180910390fd5b606f60009054906101000a900460ff166121b457607b60149054906101000a900467ffffffffffffffff1667ffffffffffffffff168167ffffffffffffffff16106121b3576040517ff5e37f2f00000000000000000000000000000000000000000000000000000000815260040160405180910390fd5b5b80607b60146101000a81548167ffffffffffffffff021916908367ffffffffffffffff1602179055507fa7eb6cb8a613eb4e8bddc1ac3d61ec6cf10898760f0b187bcca794c6ca6fa40b8160405161220c9190615d4b565b60405180910390a150565b60756020528060005260406000206000915090505481565b6076805461223c90616a62565b80601f016020809104026020016040519081016040528092919081815260200182805461226890616a62565b80156122b55780601f1061228a576101008083540402835291602001916122b5565b820191906000526020600020905b81548152906001019060200180831161229857829003601f168201915b505050505081565b3373ffffffffffffffffffffffffffffffffffffffff16607a60009054906101000a900473ffffffffffffffffffffffffffffffffffffffff1673ffffffffffffffffffffffffffffffffffffffff1614612344576040517f4755657900000000000000000000000000000000000000000000000000000000815260040160405180910390fd5b607b601c9054906101000a900460ff1661238a576040517ff6ba91a100000000000000000000000000000000000000000000000000000000815260040160405180910390fd5b6000607b601c6101000a81548160ff0219169083151502179055507f854dd6ce5a1445c4c54388b21cffd11cf5bba1b9e763aec48ce3da75d617412f60405160405180910390a1565b600060646070546123e49190616f54565b905090565b606f60009054906101000a900460ff1615612430576040517f2f0047fc00000000000000000000000000000000000000000000000000000000815260040160405180910390fd5b42607960189054906101000a900467ffffffffffffffff16607260008767ffffffffffffffff1667ffffffffffffffff16815260200190815260200160002060010160009054906101000a900467ffffffffffffffff166124919190616c15565b67ffffffffffffffff1611156124d3576040517f8a0704d300000000000000000000000000000000000000000000000000000000815260040160405180910390fd5b6103e867ffffffffffffffff1685856124ec9190616ee4565b67ffffffffffffffff16111561252e576040517fb59f753a00000000000000000000000000000000000000000000000000000000815260040160405180910390fd5b61253c8686868686866147d8565b61254584615474565b6000607960109054906101000a900467ffffffffffffffff1667ffffffffffffffff16036126d05783607460006101000a81548167ffffffffffffffff021916908367ffffffffffffffff16021790555081607560008667ffffffffffffffff1667ffffffffffffffff168152602001908152602001600020819055506000607960009054906101000a900467ffffffffffffffff1667ffffffffffffffff161115612640576000607960006101000a81548167ffffffffffffffff021916908367ffffffffffffffff1602179055506000607960086101000a81548167ffffffffffffffff021916908367ffffffffffffffff1602179055505b7f000000000000000000000000000000000000000000000000000000000000000073ffffffffffffffffffffffffffffffffffffffff166333d6247d846040518263ffffffff1660e01b815260040161269991906163fe565b600060405180830381600087803b1580156126b357600080fd5b505af11580156126c7573d6000803e3d6000fd5b50505050612803565b6126d8615150565b6079600081819054906101000a900467ffffffffffffffff16809291906126fe90616d2f565b91906101000a81548167ffffffffffffffff021916908367ffffffffffffffff1602179055505060405180608001604052804267ffffffffffffffff1681526020018567ffffffffffffffff1681526020018481526020018381525060786000607960009054906101000a900467ffffffffffffffff1667ffffffffffffffff16815260200190815260200160002060008201518160000160006101000a81548167ffffffffffffffff021916908367ffffffffffffffff16021790555060208201518160000160086101000a81548167ffffffffffffffff021916908367ffffffffffffffff16021790555060408201518160010155606082015181600201559050505b3373ffffffffffffffffffffffffffffffffffffffff168467ffffffffffffffff167f9c72852172521097ba7e1482e6b44b351323df0155f97f4ea18fcec28e1f59668460405161285491906163fe565b60405180910390a3505050505050565b60716020528060005260406000206000915090505481565b3373ffffffffffffffffffffffffffffffffffffffff16607a60009054906101000a900473ffffffffffffffffffffffffffffffffffffffff1673ffffffffffffffffffffffffffffffffffffffff1614612903576040517f4755657900000000000000000000000000000000000000000000000000000000815260040160405180910390fd5b80606f600b6101000a81548173ffffffffffffffffffffffffffffffffffffffff021916908373ffffffffffffffffffffffffffffffffffffffff1602179055507ff54144f9611984021529f814a1cb6a41e22c58351510a0d9f7e822618abb9cc081604051612973919061605e565b60405180910390a150565b6129866156b7565b6129906000615735565b565b61299a612d6e565b73ffffffffffffffffffffffffffffffffffffffff163373ffffffffffffffffffffffffffffffffffffffff1614612b6e5760006129d66134e4565b90508067ffffffffffffffff168267ffffffffffffffff1611612a25576040517f812a372d00000000000000000000000000000000000000000000000000000000815260040160405180910390fd5b607360089054906101000a900467ffffffffffffffff1667ffffffffffffffff168267ffffffffffffffff161180612aa557506000607260008467ffffffffffffffff1667ffffffffffffffff16815260200190815260200160002060010160009054906101000a900467ffffffffffffffff1667ffffffffffffffff16145b15612adc576040517f98c5c01400000000000000000000000000000000000000000000000000000000815260040160405180910390fd5b4262093a80607260008567ffffffffffffffff1667ffffffffffffffff16815260200190815260200160002060010160009054906101000a900467ffffffffffffffff16612b2a9190616c15565b67ffffffffffffffff161115612b6c576040517fd257555a00000000000000000000000000000000000000000000000000000000815260040160405180910390fd5b505b612b766157fb565b50565b607460009054906101000a900467ffffffffffffffff1681565b7f000000000000000000000000000000000000000000000000000000000000000081565b60786020528060005260406000206000915090508060000160009054906101000a900467ffffffffffffffff16908060000160089054906101000a900467ffffffffffffffff16908060010154908060020154905084565b607960189054906101000a900467ffffffffffffffff1681565b3373ffffffffffffffffffffffffffffffffffffffff16607b60009054906101000a900473ffffffffffffffffffffffffffffffffffffffff1673ffffffffffffffffffffffffffffffffffffffff1614612cb0576040517fd1ec4b2300000000000000000000000000000000000000000000000000000000815260040160405180910390fd5b607b60009054906101000a900473ffffffffffffffffffffffffffffffffffffffff16607a60006101000a81548173ffffffffffffffffffffffffffffffffffffffff021916908373ffffffffffffffffffffffffffffffffffffffff1602179055507f056dc487bbf0795d0bbb1b4f0af523a855503cff740bfb4d5475f7a90c091e8e607b60009054906101000a900473ffffffffffffffffffffffffffffffffffffffff16604051612d64919061605e565b60405180910390a1565b6000603360009054906101000a900473ffffffffffffffffffffffffffffffffffffffff16905090565b6000807f000000000000000000000000000000000000000000000000000000000000000073ffffffffffffffffffffffffffffffffffffffff166370a08231306040518263ffffffff1660e01b8152600401612df4919061605e565b602060405180830381865afa158015612e11573d6000803e3d6000fd5b505050506040513d601f19601f82011682018060405250810190612e359190616db1565b90506000612e416134e4565b607360089054906101000a900467ffffffffffffffff16607360109054906101000a900467ffffffffffffffff16607360189054906101000a900467ffffffffffffffff16612e909190616ee4565b612e9a9190616c15565b612ea49190616ee4565b67ffffffffffffffff16905060008103612ec357600092505050612ed4565b8082612ecf9190616fc5565b925050505b90565b606f60009054906101000a900460ff1615612f1e576040517f2f0047fc00000000000000000000000000000000000000000000000000000000815260040160405180910390fd5b612f2d87878787878787614be1565b7f1f44c21118c4603cfb4e1b621dbcfa2b73efcececee2b99b620b2953d33a7010607560008667ffffffffffffffff1667ffffffffffffffff1681526020019081526020016000205483604051612f85929190616ff6565b60405180910390a1612f956157fb565b50505050505050565b3373ffffffffffffffffffffffffffffffffffffffff16607a60009054906101000a900473ffffffffffffffffffffffffffffffffffffffff1673ffffffffffffffffffffffffffffffffffffffff1614613025576040517f4755657900000000000000000000000000000000000000000000000000000000815260040160405180910390fd5b62093a8067ffffffffffffffff168167ffffffffffffffff161115613076576040517fcc96507000000000000000000000000000000000000000000000000000000000815260040160405180910390fd5b606f60009054906101000a900460ff166130ee57607960109054906101000a900467ffffffffffffffff1667ffffffffffffffff168167ffffffffffffffff16106130ed576040517f48a05a9000000000000000000000000000000000000000000000000000000000815260040160405180910390fd5b5b80607960106101000a81548167ffffffffffffffff021916908367ffffffffffffffff1602179055507fc4121f4e22c69632ebb7cf1f462be0511dc034f999b52013eddfb24aab765c75816040516131469190615d4b565b60405180910390a150565b3373ffffffffffffffffffffffffffffffffffffffff16607a60009054906101000a900473ffffffffffffffffffffffffffffffffffffffff1673ffffffffffffffffffffffffffffffffffffffff16146131d8576040517f4755657900000000000000000000000000000000000000000000000000000000815260040160405180910390fd5b620151808167ffffffffffffffff16111561321f576040517fe067dfe800000000000000000000000000000000000000000000000000000000815260040160405180910390fd5b80606f60016101000a81548167ffffffffffffffff021916908367ffffffffffffffff1602179055507f1b023231a1ab6b5d93992f168fb44498e1a7e64cef58daff6f1c216de6a68c28816040516132779190615d4b565b60405180910390a150565b7f000000000000000000000000000000000000000000000000000000000000000081565b3373ffffffffffffffffffffffffffffffffffffffff16607a60009054906101000a900473ffffffffffffffffffffffffffffffffffffffff1673ffffffffffffffffffffffffffffffffffffffff161461332d576040517f4755657900000000000000000000000000000000000000000000000000000000815260040160405180910390fd5b80607b60006101000a81548173ffffffffffffffffffffffffffffffffffffffff021916908373ffffffffffffffffffffffffffffffffffffffff1602179055507fa5b56b7906fd0a20e3f35120dd8343db1e12e037a6c90111c7e42885e82a1ce68160405161339d919061605e565b60405180910390a150565b7f000000000000000000000000000000000000000000000000000000000000000081565b606f60099054906101000a900461ffff1681565b60726020528060005260406000206000915090508060000154908060010160009054906101000a900467ffffffffffffffff16908060010160089054906101000a900467ffffffffffffffff16905083565b7f000000000000000000000000000000000000000000000000000000000000000081565b600067ffffffff0000000167ffffffffffffffff80168316108015613492575067ffffffff0000000167ffffffffffffffff8016604084901c16105b80156134b5575067ffffffff0000000167ffffffffffffffff8016608084901c16105b80156134cc575067ffffffff0000000160c083901c105b156134da57600190506134df565b600090505b919050565b600080607960009054906101000a900467ffffffffffffffff1667ffffffffffffffff1611156135605760786000607960009054906101000a900467ffffffffffffffff1667ffffffffffffffff16815260200190815260200160002060000160089054906101000a900467ffffffffffffffff16905061357a565b607460009054906101000a900467ffffffffffffffff1690505b90565b607b60149054906101000a900467ffffffffffffffff1681565b3373ffffffffffffffffffffffffffffffffffffffff16607a60009054906101000a900473ffffffffffffffffffffffffffffffffffffffff1673ffffffffffffffffffffffffffffffffffffffff161461361e576040517f4755657900000000000000000000000000000000000000000000000000000000815260040160405180910390fd5b806076908161362d91906171c1565b507f6b8f723a4c7a5335cafae8a598a0aa0301be1387c037dccc085b62add6448b208160405161365d9190615df6565b60405180910390a150565b606f600b9054906101000a900473ffffffffffffffffffffffffffffffffffffffff1681565b7f000000000000000000000000000000000000000000000000000000000000000081565b60008060019054906101000a900460ff161590508080156136e35750600160008054906101000a900460ff1660ff16105b8061371057506136f230615885565b15801561370f5750600160008054906101000a900460ff1660ff16145b5b61374f576040517f08c379a000000000000000000000000000000000000000000000000000000000815260040161374690617305565b60405180910390fd5b60016000806101000a81548160ff021916908360ff160217905550801561378c576001600060016101000a81548160ff0219169083151502179055505b86600001602081019061379f919061644d565b607a60006101000a81548173ffffffffffffffffffffffffffffffffffffffff021916908373ffffffffffffffffffffffffffffffffffffffff1602179055508660200160208101906137f2919061644d565b606f600b6101000a81548173ffffffffffffffffffffffffffffffffffffffff021916908373ffffffffffffffffffffffffffffffffffffffff160217905550866060016020810190613845919061644d565b607460086101000a81548173ffffffffffffffffffffffffffffffffffffffff021916908373ffffffffffffffffffffffffffffffffffffffff16021790555085607560008067ffffffffffffffff1681526020019081526020016000208190555084607690816138b691906171c1565b5083607790816138c691906171c1565b5062093a8067ffffffffffffffff168760400160208101906138e891906161d1565b67ffffffffffffffff16111561392a576040517fcc96507000000000000000000000000000000000000000000000000000000000815260040160405180910390fd5b86604001602081019061393d91906161d1565b607960106101000a81548167ffffffffffffffff021916908367ffffffffffffffff16021790555062093a8067ffffffffffffffff1687608001602081019061398691906161d1565b67ffffffffffffffff1611156139c8576040517f1d06e87900000000000000000000000000000000000000000000000000000000815260040160405180910390fd5b8660800160208101906139db91906161d1565b607960186101000a81548167ffffffffffffffff021916908367ffffffffffffffff16021790555067016345785d8a0000607081905550610708606f60016101000a81548167ffffffffffffffff021916908367ffffffffffffffff1602179055506103ea606f60096101000a81548161ffff021916908361ffff16021790555062069780607b60146101000a81548167ffffffffffffffff021916908367ffffffffffffffff1602179055506001607b601c6101000a81548160ff021916908315150217905550613aab6158a8565b7fed7be53c9f1a96a481223b15568a5b1a475e01a74b347d6ca187c8bf0c078cd660007f00000000000000000000000000000000000000000000000000000000000000008585604051613b01949392919061738d565b60405180910390a18015613b625760008060016101000a81548160ff0219169083151502179055507f7f26b83ff96e1f2b6a682f133852f6798a09c465da95921460cefb38474024986001604051613b599190617415565b60405180910390a15b50505050505050565b607b601c9054906101000a900460ff1615613bb2576040517f24eff8c300000000000000000000000000000000000000000000000000000000815260040160405180910390fd5b606f60009054906101000a900460ff1615613bf9576040517f2f0047fc00000000000000000000000000000000000000000000000000000000815260040160405180910390fd5b600082829050905060008103613c3b576040517fcb591a5f00000000000000000000000000000000000000000000000000000000815260040160405180910390fd5b6103e867ffffffffffffffff16811115613c81576040517fb59f753a00000000000000000000000000000000000000000000000000000000815260040160405180910390fd5b607360189054906101000a900467ffffffffffffffff1667ffffffffffffffff1681607360109054906101000a900467ffffffffffffffff1667ffffffffffffffff16613cce9190617430565b1115613d06576040517fc630a00d00000000000000000000000000000000000000000000000000000000815260040160405180910390fd5b6000607360089054906101000a900467ffffffffffffffff1690506000607360109054906101000a900467ffffffffffffffff1690506000607260008467ffffffffffffffff1667ffffffffffffffff16815260200190815260200160002060000154905060005b84811015613f50576000878783818110613d8b57613d8a616c51565b5b9050602002810190613d9d9190617469565b613da6906175b2565b90508380613db390616d2f565b9450506000816000015180519060200120905060008183602001518460400151604051602001613de593929190616d5f565b604051602081830303815290604052805190602001209050607160008767ffffffffffffffff1667ffffffffffffffff168152602001908152602001600020548114613e5d576040517fce3d755e00000000000000000000000000000000000000000000000000000000815260040160405180910390fd5b607160008767ffffffffffffffff1667ffffffffffffffff16815260200190815260200160002060009055600188613e959190616f20565b8403613f055742607b60149054906101000a900467ffffffffffffffff168460400151613ec29190616c15565b67ffffffffffffffff161115613f04576040517fc44a082100000000000000000000000000000000000000000000000000000000815260040160405180910390fd5b5b848284602001514233604051602001613f22959493929190616dde565b6040516020818303038152906040528051906020012094505050508080613f4890616e3d565b915050613d6e565b508383613f5d9190616c15565b925042607360006101000a81548167ffffffffffffffff021916908367ffffffffffffffff16021790555060405180606001604052808281526020014267ffffffffffffffff168152602001607360089054906101000a900467ffffffffffffffff1667ffffffffffffffff16815250607260008567ffffffffffffffff1667ffffffffffffffff1681526020019081526020016000206000820151816000015560208201518160010160006101000a81548167ffffffffffffffff021916908367ffffffffffffffff16021790555060408201518160010160086101000a81548167ffffffffffffffff021916908367ffffffffffffffff16021790555090505082607360086101000a81548167ffffffffffffffff021916908367ffffffffffffffff16021790555081607360106101000a81548167ffffffffffffffff021916908367ffffffffffffffff1602179055508267ffffffffffffffff167f648a61dd2438f072f5a1960939abd30f37aea80d2e94c9792ad142d3e0a490a460405160405180910390a2505050505050565b607960109054906101000a900467ffffffffffffffff1681565b3373ffffffffffffffffffffffffffffffffffffffff16607a60009054906101000a900473ffffffffffffffffffffffffffffffffffffffff1673ffffffffffffffffffffffffffffffffffffffff1614614191576040517f4755657900000000000000000000000000000000000000000000000000000000815260040160405180910390fd5b7f000000000000000000000000000000000000000000000000000000000000000073ffffffffffffffffffffffffffffffffffffffff1663dbc169766040518163ffffffff1660e01b8152600401600060405180830381600087803b1580156141f957600080fd5b505af115801561420d573d6000803e3d6000fd5b50505050614219615909565b565b607360189054906101000a900467ffffffffffffffff1681565b7f000000000000000000000000000000000000000000000000000000000000000081565b607b601c9054906101000a900460ff16156142a0576040517f24eff8c300000000000000000000000000000000000000000000000000000000815260040160405180910390fd5b606f60009054906101000a900460ff16156142e7576040517f2f0047fc00000000000000000000000000000000000000000000000000000000815260040160405180910390fd5b60006142f16123d3565b90508181111561432d576040517f4732fdb500000000000000000000000000000000000000000000000000000000815260040160405180910390fd5b61138884849050111561436c576040517fa29a6c7c00000000000000000000000000000000000000000000000000000000815260040160405180910390fd5b6143b93330837f000000000000000000000000000000000000000000000000000000000000000073ffffffffffffffffffffffffffffffffffffffff166150c7909392919063ffffffff16565b60007f000000000000000000000000000000000000000000000000000000000000000073ffffffffffffffffffffffffffffffffffffffff16633ed691ef6040518163ffffffff1660e01b8152600401602060405180830381865afa158015614426573d6000803e3d6000fd5b505050506040513d601f19601f8201168201806040525081019061444a91906175da565b90506073601881819054906101000a900467ffffffffffffffff168092919061447290616d2f565b91906101000a81548167ffffffffffffffff021916908367ffffffffffffffff1602179055505084846040516144a9929190617637565b604051809103902081426040516020016144c593929190616d5f565b6040516020818303038152906040528051906020012060716000607360189054906101000a900467ffffffffffffffff1667ffffffffffffffff1667ffffffffffffffff168152602001908152602001600020819055503273ffffffffffffffffffffffffffffffffffffffff163373ffffffffffffffffffffffffffffffffffffffff16036145ae57607360189054906101000a900467ffffffffffffffff1667ffffffffffffffff167ff94bb37db835f1ab585ee00041849a09b12cd081d77fa15ca070757619cbc93182336040516145a1929190617676565b60405180910390a261460d565b607360189054906101000a900467ffffffffffffffff1667ffffffffffffffff167ff94bb37db835f1ab585ee00041849a09b12cd081d77fa15ca070757619cbc9318233888860405161460494939291906176b2565b60405180910390a25b5050505050565b607b601c9054906101000a900460ff1681565b3373ffffffffffffffffffffffffffffffffffffffff16607a60009054906101000a900473ffffffffffffffffffffffffffffffffffffffff1673ffffffffffffffffffffffffffffffffffffffff16146146ae576040517f4755657900000000000000000000000000000000000000000000000000000000815260040160405180910390fd5b80607460086101000a81548173ffffffffffffffffffffffffffffffffffffffff021916908373ffffffffffffffffffffffffffffffffffffffff1602179055507f61f8fec29495a3078e9271456f05fb0707fd4e41f7661865f80fc437d06681ca8160405161471e919061605e565b60405180910390a150565b6147316156b7565b600073ffffffffffffffffffffffffffffffffffffffff168173ffffffffffffffffffffffffffffffffffffffff16036147a0576040517f08c379a000000000000000000000000000000000000000000000000000000000815260040161479790617764565b60405180910390fd5b6147a981615735565b50565b607a60009054906101000a900473ffffffffffffffffffffffffffffffffffffffff1681565b60705481565b6000806147e36134e4565b905060008867ffffffffffffffff16146148ee57607960009054906101000a900467ffffffffffffffff1667ffffffffffffffff168867ffffffffffffffff16111561485b576040517fbb14c20500000000000000000000000000000000000000000000000000000000815260040160405180910390fd5b6000607860008a67ffffffffffffffff1681526020019081526020016000209050806002015492508060000160089054906101000a900467ffffffffffffffff1667ffffffffffffffff168867ffffffffffffffff16146148e8576040517f2bd2e3e700000000000000000000000000000000000000000000000000000000815260040160405180910390fd5b506149a3565b607560008867ffffffffffffffff1667ffffffffffffffff1681526020019081526020016000205491506000801b8203614954576040517f4997b98600000000000000000000000000000000000000000000000000000000815260040160405180910390fd5b8067ffffffffffffffff168767ffffffffffffffff1611156149a2576040517f1e56e9e200000000000000000000000000000000000000000000000000000000815260040160405180910390fd5b5b8067ffffffffffffffff168667ffffffffffffffff16116149f0576040517fb9b18f5700000000000000000000000000000000000000000000000000000000815260040160405180910390fd5b60006149ff8888888689610d3a565b905060007f30644e72e131a029b85045b68181585d2833e84879b9709143e1f593f0000001600283604051614a3491906177b5565b602060405180830381855afa158015614a51573d6000803e3d6000fd5b5050506040513d601f19601f82011682018060405250810190614a7491906175da565b60001c614a8191906177cc565b90507f000000000000000000000000000000000000000000000000000000000000000073ffffffffffffffffffffffffffffffffffffffff16639121da8a866040518060200160405280858152506040518363ffffffff1660e01b8152600401614aec9291906178c2565b602060405180830381865afa158015614b09573d6000803e3d6000fd5b505050506040513d601f19601f82011682018060405250810190614b2d9190617919565b614b63576040517f09bde33900000000000000000000000000000000000000000000000000000000815260040160405180910390fd5b614bd533848a614b739190616ee4565b67ffffffffffffffff16614b85612d98565b614b8f9190616f54565b7f000000000000000000000000000000000000000000000000000000000000000073ffffffffffffffffffffffffffffffffffffffff166159989092919063ffffffff16565b50505050505050505050565b6000808867ffffffffffffffff1614614ceb57607960009054906101000a900467ffffffffffffffff1667ffffffffffffffff168867ffffffffffffffff161115614c58576040517fbb14c20500000000000000000000000000000000000000000000000000000000815260040160405180910390fd5b6000607860008a67ffffffffffffffff1681526020019081526020016000209050806002015491508060000160089054906101000a900467ffffffffffffffff1667ffffffffffffffff168767ffffffffffffffff1614614ce5576040517f2bd2e3e700000000000000000000000000000000000000000000000000000000815260040160405180910390fd5b50614db6565b607560008767ffffffffffffffff1667ffffffffffffffff1681526020019081526020016000205490506000801b8103614d51576040517f4997b98600000000000000000000000000000000000000000000000000000000815260040160405180910390fd5b607460009054906101000a900467ffffffffffffffff1667ffffffffffffffff168667ffffffffffffffff161115614db5576040517f1e56e9e200000000000000000000000000000000000000000000000000000000815260040160405180910390fd5b5b607960009054906101000a900467ffffffffffffffff1667ffffffffffffffff168767ffffffffffffffff161180614e0257508767ffffffffffffffff168767ffffffffffffffff1611155b80614e375750607960089054906101000a900467ffffffffffffffff1667ffffffffffffffff168767ffffffffffffffff1611155b15614e6e576040517fbfa7079f00000000000000000000000000000000000000000000000000000000815260040160405180910390fd5b607860008867ffffffffffffffff16815260200190815260200160002060000160089054906101000a900467ffffffffffffffff1667ffffffffffffffff168567ffffffffffffffff1614614eef576040517f32a2a77f00000000000000000000000000000000000000000000000000000000815260040160405180910390fd5b6000614efe8787878588610d3a565b905060007f30644e72e131a029b85045b68181585d2833e84879b9709143e1f593f0000001600283604051614f3391906177b5565b602060405180830381855afa158015614f50573d6000803e3d6000fd5b5050506040513d601f19601f82011682018060405250810190614f7391906175da565b60001c614f8091906177cc565b90507f000000000000000000000000000000000000000000000000000000000000000073ffffffffffffffffffffffffffffffffffffffff16639121da8a856040518060200160405280858152506040518363ffffffff1660e01b8152600401614feb9291906178c2565b602060405180830381865afa158015615008573d6000803e3d6000fd5b505050506040513d601f19601f8201168201806040525081019061502c9190617919565b615062576040517f09bde33900000000000000000000000000000000000000000000000000000000815260040160405180910390fd5b84607860008b67ffffffffffffffff16815260200190815260200160002060020154036150bb576040517fa47276bd00000000000000000000000000000000000000000000000000000000815260040160405180910390fd5b50505050505050505050565b61514a846323b872dd60e01b8585856040516024016150e893929190617946565b604051602081830303815290604052907bffffffffffffffffffffffffffffffffffffffffffffffffffffffff19166020820180517bffffffffffffffffffffffffffffffffffffffffffffffffffffffff8381831617835250505050615a1e565b50505050565b607960089054906101000a900467ffffffffffffffff1667ffffffffffffffff16607960009054906101000a900467ffffffffffffffff1667ffffffffffffffff1611156152345760006001607960089054906101000a900467ffffffffffffffff166151bd9190616c15565b90506151c88161140d565b15615232576000600282607960009054906101000a900467ffffffffffffffff166151f39190616ee4565b6151fd919061797d565b826152089190616c15565b90506152138161140d565b156152265761522181615236565b615230565b61522f82615236565b5b505b505b565b607960089054906101000a900467ffffffffffffffff1667ffffffffffffffff168167ffffffffffffffff161115806152985750607960009054906101000a900467ffffffffffffffff1667ffffffffffffffff168167ffffffffffffffff16115b156152cf576040517fd086b70b00000000000000000000000000000000000000000000000000000000815260040160405180910390fd5b6000607860008367ffffffffffffffff168152602001908152602001600020905060008160000160089054906101000a900467ffffffffffffffff16905080607460006101000a81548167ffffffffffffffff021916908367ffffffffffffffff1602179055508160020154607560008367ffffffffffffffff1667ffffffffffffffff1681526020019081526020016000208190555082607960086101000a81548167ffffffffffffffff021916908367ffffffffffffffff1602179055507f000000000000000000000000000000000000000000000000000000000000000073ffffffffffffffffffffffffffffffffffffffff166333d6247d83600101546040518263ffffffff1660e01b81526004016153ec91906163fe565b600060405180830381600087803b15801561540657600080fd5b505af115801561541a573d6000803e3d6000fd5b505050508267ffffffffffffffff168167ffffffffffffffff167f328d3c6c0fd6f1be0515e422f2d87e59f25922cbc2233568515a0c4bc3f8510e846002015460405161546791906163fe565b60405180910390a3505050565b600061547e6134e4565b9050600082905060008083856154949190616ee4565b67ffffffffffffffff1690506000606f60019054906101000a900467ffffffffffffffff1667ffffffffffffffff16426154ce9190616f20565b90505b8467ffffffffffffffff168467ffffffffffffffff1614615585576000607260008667ffffffffffffffff1667ffffffffffffffff16815260200190815260200160002090508060010160009054906101000a900467ffffffffffffffff1667ffffffffffffffff16821015615561578060010160089054906101000a900467ffffffffffffffff16945061557f565b858561556d9190616ee4565b67ffffffffffffffff16935050615585565b506154d1565b600083836155939190616f20565b9050838110156155f25760008185039050600c81116155b257806155b5565b600c5b9050806103e80a81606f60099054906101000a900461ffff1661ffff160a60705402816155e5576155e4616f96565b5b046070819055505061566b565b60008482039050600c8111615607578061560a565b600c5b90506000816103e80a82606f60099054906101000a900461ffff1661ffff160a670de0b6b3a7640000028161564257615641616f96565b5b04905080607054670de0b6b3a7640000028161566157615660616f96565b5b0460708190555050505b683635c9adc5dea00000607054111561569357683635c9adc5dea000006070819055506156ae565b633b9aca0060705410156156ad57633b9aca006070819055505b5b50505050505050565b6156bf615ae6565b73ffffffffffffffffffffffffffffffffffffffff166156dd612d6e565b73ffffffffffffffffffffffffffffffffffffffff1614615733576040517f08c379a000000000000000000000000000000000000000000000000000000000815260040161572a906179fa565b60405180910390fd5b565b6000603360009054906101000a900473ffffffffffffffffffffffffffffffffffffffff16905081603360006101000a81548173ffffffffffffffffffffffffffffffffffffffff021916908373ffffffffffffffffffffffffffffffffffffffff1602179055508173ffffffffffffffffffffffffffffffffffffffff168173ffffffffffffffffffffffffffffffffffffffff167f8be0079c531659141344cd1fd0a4f28419497f9722a3daafe3b4186f6b6457e060405160405180910390a35050565b7f000000000000000000000000000000000000000000000000000000000000000073ffffffffffffffffffffffffffffffffffffffff16632072f6c56040518163ffffffff1660e01b8152600401600060405180830381600087803b15801561586357600080fd5b505af1158015615877573d6000803e3d6000fd5b50505050615883615aee565b565b6000808273ffffffffffffffffffffffffffffffffffffffff163b119050919050565b600060019054906101000a900460ff166158f7576040517f08c379a00000000000000000000000000000000000000000000000000000000081526004016158ee90617a8c565b60405180910390fd5b615907615902615ae6565b615735565b565b606f60009054906101000a900460ff1661594f576040517f5386698100000000000000000000000000000000000000000000000000000000815260040160405180910390fd5b6000606f60006101000a81548160ff0219169083151502179055507f1e5e34eea33501aecf2ebec9fe0e884a40804275ea7fe10b2ba084c8374308b360405160405180910390a1565b615a198363a9059cbb60e01b84846040516024016159b7929190617aac565b604051602081830303815290604052907bffffffffffffffffffffffffffffffffffffffffffffffffffffffff19166020820180517bffffffffffffffffffffffffffffffffffffffffffffffffffffffff8381831617835250505050615a1e565b505050565b6000615a80826040518060400160405280602081526020017f5361666545524332303a206c6f772d6c6576656c2063616c6c206661696c65648152508573ffffffffffffffffffffffffffffffffffffffff16615b7e9092919063ffffffff16565b9050600081511480615aa2575080806020019051810190615aa19190617919565b5b615ae1576040517f08c379a0000000000000000000000000000000000000000000000000000000008152600401615ad890617b47565b60405180910390fd5b505050565b600033905090565b606f60009054906101000a900460ff1615615b35576040517f2f0047fc00000000000000000000000000000000000000000000000000000000815260040160405180910390fd5b6001606f60006101000a81548160ff0219169083151502179055507f2261efe5aef6fedc1fd1550b25facc9181745623049c7901287030b9ad1a549760405160405180910390a1565b6060615b8d8484600085615b96565b90509392505050565b606082471015615bdb576040517f08c379a0000000000000000000000000000000000000000000000000000000008152600401615bd290617bd9565b60405180910390fd5b6000808673ffffffffffffffffffffffffffffffffffffffff168587604051615c0491906177b5565b60006040518083038185875af1925050503d8060008114615c41576040519150601f19603f3d011682016040523d82523d6000602084013e615c46565b606091505b5091509150615c5787838387615c63565b92505050949350505050565b60608315615cc5576000835103615cbd57615c7d85615885565b615cbc576040517f08c379a0000000000000000000000000000000000000000000000000000000008152600401615cb390617c45565b60405180910390fd5b5b829050615cd0565b615ccf8383615cd8565b5b949350505050565b600082511115615ceb5781518083602001fd5b806040517f08c379a0000000000000000000000000000000000000000000000000000000008152600401615d1f9190615df6565b60405180910390fd5b600067ffffffffffffffff82169050919050565b615d4581615d28565b82525050565b6000602082019050615d606000830184615d3c565b92915050565b600081519050919050565b600082825260208201905092915050565b60005b83811015615da0578082015181840152602081019050615d85565b60008484015250505050565b6000601f19601f8301169050919050565b6000615dc882615d66565b615dd28185615d71565b9350615de2818560208601615d82565b615deb81615dac565b840191505092915050565b60006020820190508181036000830152615e108184615dbd565b905092915050565b60008115159050919050565b615e2d81615e18565b82525050565b6000602082019050615e486000830184615e24565b92915050565b6000604051905090565b600080fd5b600080fd5b600061ffff82169050919050565b615e7981615e62565b8114615e8457600080fd5b50565b600081359050615e9681615e70565b92915050565b600060208284031215615eb257615eb1615e58565b5b6000615ec084828501615e87565b91505092915050565b615ed281615d28565b8114615edd57600080fd5b50565b600081359050615eef81615ec9565b92915050565b6000819050919050565b615f0881615ef5565b8114615f1357600080fd5b50565b600081359050615f2581615eff565b92915050565b600080600080600060a08688031215615f4757615f46615e58565b5b6000615f5588828901615ee0565b9550506020615f6688828901615ee0565b9450506040615f7788828901615f16565b9350506060615f8888828901615f16565b9250506080615f9988828901615f16565b9150509295509295909350565b600081519050919050565b600082825260208201905092915050565b6000615fcd82615fa6565b615fd78185615fb1565b9350615fe7818560208601615d82565b615ff081615dac565b840191505092915050565b600060208201905081810360008301526160158184615fc2565b905092915050565b600073ffffffffffffffffffffffffffffffffffffffff82169050919050565b60006160488261601d565b9050919050565b6160588161603d565b82525050565b6000602082019050616073600083018461604f565b92915050565b600080fd5b60008190508260206018028201111561609a57616099616079565b5b92915050565b6000806000806000806103a087890312156160be576160bd615e58565b5b60006160cc89828a01615ee0565b96505060206160dd89828a01615ee0565b95505060406160ee89828a01615ee0565b94505060606160ff89828a01615f16565b935050608061611089828a01615f16565b92505060a061612189828a0161607e565b9150509295509295509295565b60008060008060008060006103c0888a03121561614e5761614d615e58565b5b600061615c8a828b01615ee0565b975050602061616d8a828b01615ee0565b965050604061617e8a828b01615ee0565b955050606061618f8a828b01615ee0565b94505060806161a08a828b01615f16565b93505060a06161b18a828b01615f16565b92505060c06161c28a828b0161607e565b91505092959891949750929550565b6000602082840312156161e7576161e6615e58565b5b60006161f584828501615ee0565b91505092915050565b600080fd5b600080fd5b60008083601f84011261621e5761621d6161fe565b5b8235905067ffffffffffffffff81111561623b5761623a616203565b5b60208301915083608082028301111561625757616256616079565b5b9250929050565b6162678161603d565b811461627257600080fd5b50565b6000813590506162848161625e565b92915050565b60008083601f8401126162a05761629f6161fe565b5b8235905067ffffffffffffffff8111156162bd576162bc616203565b5b6020830191508360018202830111156162d9576162d8616079565b5b9250929050565b6000806000806000606086880312156162fc576162fb615e58565b5b600086013567ffffffffffffffff81111561631a57616319615e5d565b5b61632688828901616208565b9550955050602061633988828901616275565b935050604086013567ffffffffffffffff81111561635a57616359615e5d565b5b6163668882890161628a565b92509250509295509295909350565b6000819050919050565b600061639a6163956163908461601d565b616375565b61601d565b9050919050565b60006163ac8261637f565b9050919050565b60006163be826163a1565b9050919050565b6163ce816163b3565b82525050565b60006020820190506163e960008301846163c5565b92915050565b6163f881615ef5565b82525050565b600060208201905061641360008301846163ef565b92915050565b6000819050919050565b61642c81616419565b82525050565b60006020820190506164476000830184616423565b92915050565b60006020828403121561646357616462615e58565b5b600061647184828501616275565b91505092915050565b61648381616419565b811461648e57600080fd5b50565b6000813590506164a08161647a565b92915050565b6000602082840312156164bc576164bb615e58565b5b60006164ca84828501616491565b91505092915050565b60006080820190506164e86000830187615d3c565b6164f56020830186615d3c565b61650260408301856163ef565b61650f60608301846163ef565b95945050505050565b6000616523826163a1565b9050919050565b61653381616518565b82525050565b600060208201905061654e600083018461652a565b92915050565b61655d81615e62565b82525050565b60006020820190506165786000830184616554565b92915050565b600060608201905061659360008301866163ef565b6165a06020830185615d3c565b6165ad6040830184615d3c565b949350505050565b60006165c0826163a1565b9050919050565b6165d0816165b5565b82525050565b60006020820190506165eb60008301846165c7565b92915050565b600080fd5b7f4e487b7100000000000000000000000000000000000000000000000000000000600052604160045260246000fd5b61662e82615dac565b810181811067ffffffffffffffff8211171561664d5761664c6165f6565b5b80604052505050565b6000616660615e4e565b905061666c8282616625565b919050565b600067ffffffffffffffff82111561668c5761668b6165f6565b5b61669582615dac565b9050602081019050919050565b82818337600083830152505050565b60006166c46166bf84616671565b616656565b9050828152602081018484840111156166e0576166df6165f1565b5b6166eb8482856166a2565b509392505050565b600082601f830112616708576167076161fe565b5b81356167188482602086016166b1565b91505092915050565b60006020828403121561673757616736615e58565b5b600082013567ffffffffffffffff81111561675557616754615e5d565b5b616761848285016166f3565b91505092915050565b6000616775826163a1565b9050919050565b6167858161676a565b82525050565b60006020820190506167a0600083018461677c565b92915050565b600080fd5b600060a082840312156167c1576167c06167a6565b5b81905092915050565b60008083601f8401126167e0576167df6161fe565b5b8235905067ffffffffffffffff8111156167fd576167fc616203565b5b60208301915083600182028301111561681957616818616079565b5b9250929050565b600080600080600080610120878903121561683e5761683d615e58565b5b600061684c89828a016167ab565b96505060a061685d89828a01615f16565b95505060c087013567ffffffffffffffff81111561687e5761687d615e5d565b5b61688a89828a016166f3565b94505060e087013567ffffffffffffffff8111156168ab576168aa615e5d565b5b6168b789828a016166f3565b93505061010087013567ffffffffffffffff8111156168d9576168d8615e5d565b5b6168e589828a016167ca565b92509250509295509295509295565b60008083601f84011261690a576169096161fe565b5b8235905067ffffffffffffffff81111561692757616926616203565b5b60208301915083602082028301111561694357616942616079565b5b9250929050565b6000806020838503121561696157616960615e58565b5b600083013567ffffffffffffffff81111561697f5761697e615e5d565b5b61698b858286016168f4565b92509250509250929050565b60006169a2826163a1565b9050919050565b6169b281616997565b82525050565b60006020820190506169cd60008301846169a9565b92915050565b6000806000604084860312156169ec576169eb615e58565b5b600084013567ffffffffffffffff811115616a0a57616a09615e5d565b5b616a168682870161628a565b93509350506020616a2986828701616491565b9150509250925092565b7f4e487b7100000000000000000000000000000000000000000000000000000000600052602260045260246000fd5b60006002820490506001821680616a7a57607f821691505b602082108103616a8d57616a8c616a33565b5b50919050565b60008160601b9050919050565b6000616aab82616a93565b9050919050565b6000616abd82616aa0565b9050919050565b616ad5616ad08261603d565b616ab2565b82525050565b6000819050919050565b616af6616af182615ef5565b616adb565b82525050565b60008160c01b9050919050565b6000616b1482616afc565b9050919050565b616b2c616b2782615d28565b616b09565b82525050565b6000616b3e828d616ac4565b601482019150616b4e828c616ae5565b602082019150616b5e828b616ae5565b602082019150616b6e828a616b1b565b600882019150616b7e8289616b1b565b600882019150616b8e8288616b1b565b600882019150616b9e8287616ae5565b602082019150616bae8286616ae5565b602082019150616bbe8285616ae5565b602082019150616bce8284616b1b565b6008820191508190509b9a5050505050505050505050565b7f4e487b7100000000000000000000000000000000000000000000000000000000600052601160045260246000fd5b6000616c2082615d28565b9150616c2b83615d28565b9250828201905067ffffffffffffffff811115616c4b57616c4a616be6565b5b92915050565b7f4e487b7100000000000000000000000000000000000000000000000000000000600052603260045260246000fd5b600080fd5b600080fd5b600060808284031215616ca057616c9f616c80565b5b616caa6080616656565b90506000616cba84828501615f16565b6000830152506020616cce84828501615f16565b6020830152506040616ce284828501615ee0565b6040830152506060616cf684828501615ee0565b60608301525092915050565b600060808284031215616d1857616d17615e58565b5b6000616d2684828501616c8a565b91505092915050565b6000616d3a82615d28565b915067ffffffffffffffff8203616d5457616d53616be6565b5b600182019050919050565b6000616d6b8286616ae5565b602082019150616d7b8285616ae5565b602082019150616d8b8284616b1b565b600882019150819050949350505050565b600081519050616dab8161647a565b92915050565b600060208284031215616dc757616dc6615e58565b5b6000616dd584828501616d9c565b91505092915050565b6000616dea8288616ae5565b602082019150616dfa8287616ae5565b602082019150616e0a8286616ae5565b602082019150616e1a8285616b1b565b600882019150616e2a8284616ac4565b6014820191508190509695505050505050565b6000616e4882616419565b91507fffffffffffffffffffffffffffffffffffffffffffffffffffffffffffffffff8203616e7a57616e79616be6565b5b600182019050919050565b6000616e918385615fb1565b9350616e9e8385846166a2565b616ea783615dac565b840190509392505050565b6000604082019050616ec760008301866163ef565b8181036020830152616eda818486616e85565b9050949350505050565b6000616eef82615d28565b9150616efa83615d28565b9250828203905067ffffffffffffffff811115616f1a57616f19616be6565b5b92915050565b6000616f2b82616419565b9150616f3683616419565b9250828203905081811115616f4e57616f4d616be6565b5b92915050565b6000616f5f82616419565b9150616f6a83616419565b9250828202616f7881616419565b91508282048414831517616f8f57616f8e616be6565b5b5092915050565b7f4e487b7100000000000000000000000000000000000000000000000000000000600052601260045260246000fd5b6000616fd082616419565b9150616fdb83616419565b925082616feb57616fea616f96565b5b828204905092915050565b600060408201905061700b60008301856163ef565b61701860208301846163ef565b9392505050565b60008190508160005260206000209050919050565b60006020601f8301049050919050565b600082821b905092915050565b6000600883026170817fffffffffffffffffffffffffffffffffffffffffffffffffffffffffffffffff82617044565b61708b8683617044565b95508019841693508086168417925050509392505050565b60006170be6170b96170b484616419565b616375565b616419565b9050919050565b6000819050919050565b6170d8836170a3565b6170ec6170e4826170c5565b848454617051565b825550505050565b600090565b6171016170f4565b61710c8184846170cf565b505050565b5b81811015617130576171256000826170f9565b600181019050617112565b5050565b601f821115617175576171468161701f565b61714f84617034565b8101602085101561715e578190505b61717261716a85617034565b830182617111565b50505b505050565b600082821c905092915050565b60006171986000198460080261717a565b1980831691505092915050565b60006171b18383617187565b9150826002028217905092915050565b6171ca82615d66565b67ffffffffffffffff8111156171e3576171e26165f6565b5b6171ed8254616a62565b6171f8828285617134565b600060209050601f83116001811461722b5760008415617219578287015190505b61722385826171a5565b86555061728b565b601f1984166172398661701f565b60005b828110156172615784890151825560018201915060208501945060208101905061723c565b8683101561727e578489015161727a601f891682617187565b8355505b6001600288020188555050505b505050505050565b7f496e697469616c697a61626c653a20636f6e747261637420697320616c72656160008201527f647920696e697469616c697a6564000000000000000000000000000000000000602082015250565b60006172ef602e83615d71565b91506172fa82617293565b604082019050919050565b6000602082019050818103600083015261731e816172e2565b9050919050565b6000819050919050565b600061734a61734561734084617325565b616375565b615d28565b9050919050565b61735a8161732f565b82525050565b600061736c8385615d71565b93506173798385846166a2565b61738283615dac565b840190509392505050565b60006060820190506173a26000830187617351565b6173af6020830186615d3c565b81810360408301526173c2818486617360565b905095945050505050565b6000819050919050565b600060ff82169050919050565b60006173ff6173fa6173f5846173cd565b616375565b6173d7565b9050919050565b61740f816173e4565b82525050565b600060208201905061742a6000830184617406565b92915050565b600061743b82616419565b915061744683616419565b925082820190508082111561745e5761745d616be6565b5b92915050565b600080fd5b60008235600160600383360303811261748557617484617464565b5b80830191505092915050565b600067ffffffffffffffff8211156174ac576174ab6165f6565b5b6174b582615dac565b9050602081019050919050565b60006174d56174d084617491565b616656565b9050828152602081018484840111156174f1576174f06165f1565b5b6174fc8482856166a2565b509392505050565b600082601f830112617519576175186161fe565b5b81356175298482602086016174c2565b91505092915050565b60006060828403121561754857617547616c80565b5b6175526060616656565b9050600082013567ffffffffffffffff81111561757257617571616c85565b5b61757e84828501617504565b600083015250602061759284828501615f16565b60208301525060406175a684828501615ee0565b60408301525092915050565b60006175be3683617532565b9050919050565b6000815190506175d481615eff565b92915050565b6000602082840312156175f0576175ef615e58565b5b60006175fe848285016175c5565b91505092915050565b600081905092915050565b600061761e8385617607565b935061762b8385846166a2565b82840190509392505050565b6000617644828486617612565b91508190509392505050565b50565b6000617660600083615fb1565b915061766b82617650565b600082019050919050565b600060608201905061768b60008301856163ef565b617698602083018461604f565b81810360408301526176a981617653565b90509392505050565b60006060820190506176c760008301876163ef565b6176d4602083018661604f565b81810360408301526176e7818486616e85565b905095945050505050565b7f4f776e61626c653a206e6577206f776e657220697320746865207a65726f206160008201527f6464726573730000000000000000000000000000000000000000000000000000602082015250565b600061774e602683615d71565b9150617759826176f2565b604082019050919050565b6000602082019050818103600083015261777d81617741565b9050919050565b600061778f82615fa6565b6177998185617607565b93506177a9818560208601615d82565b80840191505092915050565b60006177c18284617784565b915081905092915050565b60006177d782616419565b91506177e283616419565b9250826177f2576177f1616f96565b5b828206905092915050565b82818337505050565b61781361030083836177fd565b5050565b600060019050919050565b600081905092915050565b6000819050919050565b61784081616419565b82525050565b60006178528383617837565b60208301905092915050565b6000602082019050919050565b61787481617817565b61787e8184617822565b92506178898261782d565b8060005b838110156178ba5781516178a18782617846565b96506178ac8361785e565b92505060018101905061788d565b505050505050565b6000610320820190506178d86000830185617806565b6178e661030083018461786b565b9392505050565b6178f681615e18565b811461790157600080fd5b50565b600081519050617913816178ed565b92915050565b60006020828403121561792f5761792e615e58565b5b600061793d84828501617904565b91505092915050565b600060608201905061795b600083018661604f565b617968602083018561604f565b6179756040830184616423565b949350505050565b600061798882615d28565b915061799383615d28565b9250826179a3576179a2616f96565b5b828204905092915050565b7f4f776e61626c653a2063616c6c6572206973206e6f7420746865206f776e6572600082015250565b60006179e4602083615d71565b91506179ef826179ae565b602082019050919050565b60006020820190508181036000830152617a13816179d7565b9050919050565b7f496e697469616c697a61626c653a20636f6e7472616374206973206e6f74206960008201527f6e697469616c697a696e67000000000000000000000000000000000000000000602082015250565b6000617a76602b83615d71565b9150617a8182617a1a565b604082019050919050565b60006020820190508181036000830152617aa581617a69565b9050919050565b6000604082019050617ac1600083018561604f565b617ace6020830184616423565b9392505050565b7f5361666545524332303a204552433230206f7065726174696f6e20646964206e60008201527f6f74207375636365656400000000000000000000000000000000000000000000602082015250565b6000617b31602a83615d71565b9150617b3c82617ad5565b604082019050919050565b60006020820190508181036000830152617b6081617b24565b9050919050565b7f416464726573733a20696e73756666696369656e742062616c616e636520666f60008201527f722063616c6c0000000000000000000000000000000000000000000000000000602082015250565b6000617bc3602683615d71565b9150617bce82617b67565b604082019050919050565b60006020820190508181036000830152617bf281617bb6565b9050919050565b7f416464726573733a2063616c6c20746f206e6f6e2d636f6e7472616374000000600082015250565b6000617c2f601d83615d71565b9150617c3a82617bf9565b602082019050919050565b60006020820190508181036000830152617c5e81617c22565b905091905056fea26469706673582212207bdbaa081d2508dc33fea030854d4a8db0a07f27c1e6268b9943b5ebf95e115c64736f6c63430008140033",
  "linkReferences": {},
  "deployedLinkReferences": {}
}