{
  "_format": "hh-sol-artifact-1",
  "contractName": "VerifierRollupHelperMock",
  "sourceName": "contracts/mocks/VerifierRollupHelperMock.sol",
  "abi": [
    {
      "inputs": [
        {
          "internalType": "bytes32[24]",
          "name": "proof",
          "type": "bytes32[24]"
        },
        {
          "internalType": "uint256[1]",
          "name": "pubSignals",
          "type": "uint256[1]"
        }
      ],
      "name": "verifyProof",
      "outputs": [
        {
          "internalType": "bool",
          "name": "",
          "type": "bool"
        }
      ],
      "stateMutability": "view",
      "type": "function"
    }
  ],
  "bytecode": "0x608060405234801561001057600080fd5b506102c8806100206000396000f3fe608060405234801561001057600080fd5b506004361061002b5760003560e01c80639121da8a14610030575b600080fd5b61004a6004803603810190610045919061021a565b610060565b6040516100579190610277565b60405180910390f35b60006001905092915050565b6000604051905090565b600080fd5b600080fd5b60008190508260206018028201111561009c5761009b61007b565b5b92915050565b600080fd5b6000601f19601f8301169050919050565b7f4e487b7100000000000000000000000000000000000000000000000000000000600052604160045260246000fd5b6100f0826100a7565b810181811067ffffffffffffffff8211171561010f5761010e6100b8565b5b80604052505050565b600061012261006c565b905061012e82826100e7565b919050565b600067ffffffffffffffff82111561014e5761014d6100b8565b5b602082029050919050565b6000819050919050565b61016c81610159565b811461017757600080fd5b50565b60008135905061018981610163565b92915050565b60006101a261019d84610133565b610118565b905080602084028301858111156101bc576101bb61007b565b5b835b818110156101e557806101d1888261017a565b8452602084019350506020810190506101be565b5050509392505050565b600082601f830112610204576102036100a2565b5b600161021184828561018f565b91505092915050565b600080610320838503121561023257610231610076565b5b600061024085828601610080565b925050610300610252858286016101ef565b9150509250929050565b60008115159050919050565b6102718161025c565b82525050565b600060208201905061028c6000830184610268565b9291505056fea2646970667358221220650d62469b5fdcaa498a0398ab2d15944cbb5bfa01f28747f02a1ad18f79c18464736f6c63430008140033",
  "linkReferences": {},
  "deployedLinkReferences": {}
}