{
  "_format": "hh-sol-artifact-1",
  "contractName": "DepositContractMock",
  "sourceName": "contracts/mocks/DepositContractMock.sol",
  "abi": [
    {
      "inputs": [],
      "stateMutability": "nonpayable",
      "type": "constructor"
    },
    {
      "inputs": [],
      "name": "MerkleTreeFull",
      "type": "error"
    },
    {
      "anonymous": false,
      "inputs": [
        {
          "indexed": false,
          "internalType": "uint8",
          "name": "version",
          "type": "uint8"
        }
      ],
      "name": "Initialized",
      "type": "event"
    },
    {
      "inputs": [
        {
          "internalType": "uint8",
          "name": "leafType",
          "type": "uint8"
        },
        {
          "internalType": "uint32",
          "name": "originNetwork",
          "type": "uint32"
        },
        {
          "internalType": "address",
          "name": "originTokenAddress",
          "type": "address"
        },
        {
          "internalType": "uint32",
          "name": "destinationNetwork",
          "type": "uint32"
        },
        {
          "internalType": "address",
          "name": "destinationAddress",
          "type": "address"
        },
        {
          "internalType": "uint256",
          "name": "amount",
          "type": "uint256"
        },
        {
          "internalType": "bytes32",
          "name": "metadataHash",
          "type": "bytes32"
        }
      ],
      "name": "deposit",
      "outputs": [],
      "stateMutability": "nonpayable",
      "type": "function"
    },
    {
      "inputs": [],
      "name": "depositCount",
      "outputs": [
        {
          "internalType": "uint256",
          "name": "",
          "type": "uint256"
        }
      ],
      "stateMutability": "view",
      "type": "function"
    },
    {
      "inputs": [],
      "name": "getDepositRoot",
      "outputs": [
        {
          "internalType": "bytes32",
          "name": "",
          "type": "bytes32"
        }
      ],
      "stateMutability": "view",
      "type": "function"
    },
    {
      "inputs": [
        {
          "internalType": "uint8",
          "name": "leafType",
          "type": "uint8"
        },
        {
          "internalType": "uint32",
          "name": "originNetwork",
          "type": "uint32"
        },
        {
          "internalType": "address",
          "name": "originAddress",
          "type": "address"
        },
        {
          "internalType": "uint32",
          "name": "destinationNetwork",
          "type": "uint32"
        },
        {
          "internalType": "address",
          "name": "destinationAddress",
          "type": "address"
        },
        {
          "internalType": "uint256",
          "name": "amount",
          "type": "uint256"
        },
        {
          "internalType": "bytes32",
          "name": "metadataHash",
          "type": "bytes32"
        }
      ],
      "name": "getLeafValue",
      "outputs": [
        {
          "internalType": "bytes32",
          "name": "",
          "type": "bytes32"
        }
      ],
      "stateMutability": "pure",
      "type": "function"
    },
    {
      "inputs": [],
      "name": "initialize",
      "outputs": [],
      "stateMutability": "nonpayable",
      "type": "function"
    },
    {
      "inputs": [
        {
          "internalType": "bytes32",
          "name": "leafHash",
          "type": "bytes32"
        },
        {
          "internalType": "bytes32[32]",
          "name": "smtProof",
          "type": "bytes32[32]"
        },
        {
          "internalType": "uint32",
          "name": "index",
          "type": "uint32"
        },
        {
          "internalType": "bytes32",
          "name": "root",
          "type": "bytes32"
        }
      ],
      "name": "verifyMerkleProof",
      "outputs": [
        {
          "internalType": "bool",
          "name": "",
          "type": "bool"
        }
      ],
      "stateMutability": "pure",
      "type": "function"
    }
  ],
  "bytecode": "0x60806040523480156200001157600080fd5b50620000226200002860201b60201c565b620002b3565b60008060019054906101000a900460ff161590508080156200005a5750600160008054906101000a900460ff1660ff16105b8062000091575062000072306200017060201b60201c565b158015620000905750600160008054906101000a900460ff1660ff16145b5b620000d3576040517f08c379a0000000000000000000000000000000000000000000000000000000008152600401620000ca906200021a565b60405180910390fd5b60016000806101000a81548160ff021916908360ff160217905550801562000111576001600060016101000a81548160ff0219169083151502179055505b80156200016d5760008060016101000a81548160ff0219169083151502179055507f7f26b83ff96e1f2b6a682f133852f6798a09c465da95921460cefb3847402498600160405162000164919062000296565b60405180910390a15b50565b6000808273ffffffffffffffffffffffffffffffffffffffff163b119050919050565b600082825260208201905092915050565b7f496e697469616c697a61626c653a20636f6e747261637420697320616c72656160008201527f647920696e697469616c697a6564000000000000000000000000000000000000602082015250565b600062000202602e8362000193565b91506200020f82620001a4565b604082019050919050565b600060208201905081810360008301526200023581620001f3565b9050919050565b6000819050919050565b600060ff82169050919050565b6000819050919050565b60006200027e6200027862000272846200023c565b62000253565b62000246565b9050919050565b62000290816200025d565b82525050565b6000602082019050620002ad600083018462000285565b92915050565b610e1e80620002c36000396000f3fe608060405234801561001057600080fd5b50600436106100625760003560e01c80632dfdf0b5146100675780633ae05047146100855780633e197043146100a35780638129fc1c146100d357806382c01902146100dd578063fb570834146100f9575b600080fd5b61006f610129565b60405161007c91906105d4565b60405180910390f35b61008d61012f565b60405161009a9190610608565b60405180910390f35b6100bd60048036038101906100b89190610753565b610213565b6040516100ca9190610608565b60405180910390f35b6100db610255565b005b6100f760048036038101906100f29190610753565b61038b565b005b610113600480360381019061010e919061081b565b6103ab565b60405161012091906108a0565b60405180910390f35b60535481565b6000806000605354905060008060001b905060005b6020811015610209576001808285901c160361019f576033816020811061016e5761016d6108bb565b5b01548460405160200161018292919061090b565b6040516020818303038152906040528051906020012093506101cb565b83826040516020016101b292919061090b565b6040516020818303038152906040528051906020012093505b81826040516020016101de92919061090b565b604051602081830303815290604052805190602001209150808061020190610966565b915050610144565b5082935050505090565b6000878787878787876040516020016102329796959493929190610a83565b604051602081830303815290604052805190602001209050979650505050505050565b60008060019054906101000a900460ff161590508080156102865750600160008054906101000a900460ff1660ff16105b806102b3575061029530610482565b1580156102b25750600160008054906101000a900460ff1660ff16145b5b6102f2576040517f08c379a00000000000000000000000000000000000000000000000000000000081526004016102e990610b87565b60405180910390fd5b60016000806101000a81548160ff021916908360ff160217905550801561032f576001600060016101000a81548160ff0219169083151502179055505b80156103885760008060016101000a81548160ff0219169083151502179055507f7f26b83ff96e1f2b6a682f133852f6798a09c465da95921460cefb3847402498600160405161037f9190610bec565b60405180910390a15b50565b6103a261039d88888888888888610213565b6104a5565b50505050505050565b60008085905060005b602081101561047357600180828763ffffffff16901c1663ffffffff160361041d578581602081106103e9576103e86108bb565b5b60200201358260405160200161040092919061090b565b604051602081830303815290604052805190602001209150610460565b81868260208110610431576104306108bb565b5b602002013560405160200161044792919061090b565b6040516020818303038152906040528051906020012091505b808061046b90610966565b9150506103b4565b50828114915050949350505050565b6000808273ffffffffffffffffffffffffffffffffffffffff163b119050919050565b60008190506001602060026104ba9190610d3a565b6104c49190610d85565b605354106104fe576040517fef5ccf6600000000000000000000000000000000000000000000000000000000815260040160405180910390fd5b600060536000815461050f90610966565b919050819055905060005b60208110156105a5576001808284901c1603610552578260338260208110610545576105446108bb565b5b01819055505050506105b8565b60338160208110610566576105656108bb565b5b01548360405160200161057a92919061090b565b604051602081830303815290604052805190602001209250808061059d90610966565b91505061051a565b5060006105b5576105b4610db9565b5b50505b50565b6000819050919050565b6105ce816105bb565b82525050565b60006020820190506105e960008301846105c5565b92915050565b6000819050919050565b610602816105ef565b82525050565b600060208201905061061d60008301846105f9565b92915050565b600080fd5b600060ff82169050919050565b61063e81610628565b811461064957600080fd5b50565b60008135905061065b81610635565b92915050565b600063ffffffff82169050919050565b61067a81610661565b811461068557600080fd5b50565b60008135905061069781610671565b92915050565b600073ffffffffffffffffffffffffffffffffffffffff82169050919050565b60006106c88261069d565b9050919050565b6106d8816106bd565b81146106e357600080fd5b50565b6000813590506106f5816106cf565b92915050565b610704816105bb565b811461070f57600080fd5b50565b600081359050610721816106fb565b92915050565b610730816105ef565b811461073b57600080fd5b50565b60008135905061074d81610727565b92915050565b600080600080600080600060e0888a03121561077257610771610623565b5b60006107808a828b0161064c565b97505060206107918a828b01610688565b96505060406107a28a828b016106e6565b95505060606107b38a828b01610688565b94505060806107c48a828b016106e6565b93505060a06107d58a828b01610712565b92505060c06107e68a828b0161073e565b91505092959891949750929550565b600080fd5b6000819050826020800282011115610815576108146107f5565b5b92915050565b600080600080610460858703121561083657610835610623565b5b60006108448782880161073e565b9450506020610855878288016107fa565b93505061042061086787828801610688565b9250506104406108798782880161073e565b91505092959194509250565b60008115159050919050565b61089a81610885565b82525050565b60006020820190506108b56000830184610891565b92915050565b7f4e487b7100000000000000000000000000000000000000000000000000000000600052603260045260246000fd5b6000819050919050565b610905610900826105ef565b6108ea565b82525050565b600061091782856108f4565b60208201915061092782846108f4565b6020820191508190509392505050565b7f4e487b7100000000000000000000000000000000000000000000000000000000600052601160045260246000fd5b6000610971826105bb565b91507fffffffffffffffffffffffffffffffffffffffffffffffffffffffffffffffff82036109a3576109a2610937565b5b600182019050919050565b60008160f81b9050919050565b60006109c6826109ae565b9050919050565b6109de6109d982610628565b6109bb565b82525050565b60008160e01b9050919050565b60006109fc826109e4565b9050919050565b610a14610a0f82610661565b6109f1565b82525050565b60008160601b9050919050565b6000610a3282610a1a565b9050919050565b6000610a4482610a27565b9050919050565b610a5c610a57826106bd565b610a39565b82525050565b6000819050919050565b610a7d610a78826105bb565b610a62565b82525050565b6000610a8f828a6109cd565b600182019150610a9f8289610a03565b600482019150610aaf8288610a4b565b601482019150610abf8287610a03565b600482019150610acf8286610a4b565b601482019150610adf8285610a6c565b602082019150610aef82846108f4565b60208201915081905098975050505050505050565b600082825260208201905092915050565b7f496e697469616c697a61626c653a20636f6e747261637420697320616c72656160008201527f647920696e697469616c697a6564000000000000000000000000000000000000602082015250565b6000610b71602e83610b04565b9150610b7c82610b15565b604082019050919050565b60006020820190508181036000830152610ba081610b64565b9050919050565b6000819050919050565b6000819050919050565b6000610bd6610bd1610bcc84610ba7565b610bb1565b610628565b9050919050565b610be681610bbb565b82525050565b6000602082019050610c016000830184610bdd565b92915050565b60008160011c9050919050565b6000808291508390505b6001851115610c5e57808604811115610c3a57610c39610937565b5b6001851615610c495780820291505b8081029050610c5785610c07565b9450610c1e565b94509492505050565b600082610c775760019050610d33565b81610c855760009050610d33565b8160018114610c9b5760028114610ca557610cd4565b6001915050610d33565b60ff841115610cb757610cb6610937565b5b8360020a915084821115610cce57610ccd610937565b5b50610d33565b5060208310610133831016604e8410600b8410161715610d095782820a905083811115610d0457610d03610937565b5b610d33565b610d168484846001610c14565b92509050818404811115610d2d57610d2c610937565b5b81810290505b9392505050565b6000610d45826105bb565b9150610d50836105bb565b9250610d7d7fffffffffffffffffffffffffffffffffffffffffffffffffffffffffffffffff8484610c67565b905092915050565b6000610d90826105bb565b9150610d9b836105bb565b9250828203905081811115610db357610db2610937565b5b92915050565b7f4e487b7100000000000000000000000000000000000000000000000000000000600052600160045260246000fdfea2646970667358221220d3f7f5a96cef7a34cc40dff1845deb8da69b1bd5bba76f47db6cd5fc278bf24f64736f6c63430008140033",
  "linkReferences": {},
  "deployedLinkReferences": {}
}