{
  "_format": "hh-sol-artifact-1",
  "contractName": "ERC20WeirdMetadata",
  "sourceName": "contracts/mocks/ERC20WeirdMetadata.sol",
  "abi": [
    {
      "inputs": [
        {
          "internalType": "bytes32",
          "name": "name_",
          "type": "bytes32"
        },
        {
          "internalType": "bytes",
          "name": "symbol_",
          "type": "bytes"
        },
        {
          "internalType": "uint256",
          "name": "decimals_",
          "type": "uint256"
        }
      ],
      "stateMutability": "nonpayable",
      "type": "constructor"
    },
    {
      "anonymous": false,
      "inputs": [
        {
          "indexed": true,
          "internalType": "address",
          "name": "owner",
          "type": "address"
        },
        {
          "indexed": true,
          "internalType": "address",
          "name": "spender",
          "type": "address"
        },
        {
          "indexed": false,
          "internalType": "uint256",
          "name": "value",
          "type": "uint256"
        }
      ],
      "name": "Approval",
      "type": "event"
    },
    {
      "anonymous": false,
      "inputs": [
        {
          "indexed": true,
          "internalType": "address",
          "name": "from",
          "type": "address"
        },
        {
          "indexed": true,
          "internalType": "address",
          "name": "to",
          "type": "address"
        },
        {
          "indexed": false,
          "internalType": "uint256",
          "name": "value",
          "type": "uint256"
        }
      ],
      "name": "Transfer",
      "type": "event"
    },
    {
      "inputs": [
        {
          "internalType": "address",
          "name": "owner",
          "type": "address"
        },
        {
          "internalType": "address",
          "name": "spender",
          "type": "address"
        }
      ],
      "name": "allowance",
      "outputs": [
        {
          "internalType": "uint256",
          "name": "",
          "type": "uint256"
        }
      ],
      "stateMutability": "view",
      "type": "function"
    },
    {
      "inputs": [
        {
          "internalType": "address",
          "name": "spender",
          "type": "address"
        },
        {
          "internalType": "uint256",
          "name": "amount",
          "type": "uint256"
        }
      ],
      "name": "approve",
      "outputs": [
        {
          "internalType": "bool",
          "name": "",
          "type": "bool"
        }
      ],
      "stateMutability": "nonpayable",
      "type": "function"
    },
    {
      "inputs": [
        {
          "internalType": "address",
          "name": "account",
          "type": "address"
        }
      ],
      "name": "balanceOf",
      "outputs": [
        {
          "internalType": "uint256",
          "name": "",
          "type": "uint256"
        }
      ],
      "stateMutability": "view",
      "type": "function"
    },
    {
      "inputs": [],
      "name": "decimals",
      "outputs": [
        {
          "internalType": "uint256",
          "name": "",
          "type": "uint256"
        }
      ],
      "stateMutability": "view",
      "type": "function"
    },
    {
      "inputs": [
        {
          "internalType": "address",
          "name": "spender",
          "type": "address"
        },
        {
          "internalType": "uint256",
          "name": "subtractedValue",
          "type": "uint256"
        }
      ],
      "name": "decreaseAllowance",
      "outputs": [
        {
          "internalType": "bool",
          "name": "",
          "type": "bool"
        }
      ],
      "stateMutability": "nonpayable",
      "type": "function"
    },
    {
      "inputs": [
        {
          "internalType": "address",
          "name": "spender",
          "type": "address"
        },
        {
          "internalType": "uint256",
          "name": "addedValue",
          "type": "uint256"
        }
      ],
      "name": "increaseAllowance",
      "outputs": [
        {
          "internalType": "bool",
          "name": "",
          "type": "bool"
        }
      ],
      "stateMutability": "nonpayable",
      "type": "function"
    },
    {
      "inputs": [],
      "name": "isRevert",
      "outputs": [
        {
          "internalType": "bool",
          "name": "",
          "type": "bool"
        }
      ],
      "stateMutability": "view",
      "type": "function"
    },
    {
      "inputs": [
        {
          "internalType": "address",
          "name": "account",
          "type": "address"
        },
        {
          "internalType": "uint256",
          "name": "amount",
          "type": "uint256"
        }
      ],
      "name": "mint",
      "outputs": [],
      "stateMutability": "nonpayable",
      "type": "function"
    },
    {
      "inputs": [],
      "name": "name",
      "outputs": [
        {
          "internalType": "bytes32",
          "name": "",
          "type": "bytes32"
        }
      ],
      "stateMutability": "view",
      "type": "function"
    },
    {
      "inputs": [
        {
          "internalType": "uint256",
          "name": "newDecimals",
          "type": "uint256"
        }
      ],
      "name": "setDecimals",
      "outputs": [],
      "stateMutability": "nonpayable",
      "type": "function"
    },
    {
      "inputs": [],
      "name": "symbol",
      "outputs": [
        {
          "internalType": "bytes",
          "name": "",
          "type": "bytes"
        }
      ],
      "stateMutability": "view",
      "type": "function"
    },
    {
      "inputs": [],
      "name": "toggleIsRevert",
      "outputs": [],
      "stateMutability": "nonpayable",
      "type": "function"
    },
    {
      "inputs": [],
      "name": "totalSupply",
      "outputs": [
        {
          "internalType": "uint256",
          "name": "",
          "type": "uint256"
        }
      ],
      "stateMutability": "view",
      "type": "function"
    },
    {
      "inputs": [
        {
          "internalType": "address",
          "name": "to",
          "type": "address"
        },
        {
          "internalType": "uint256",
          "name": "amount",
          "type": "uint256"
        }
      ],
      "name": "transfer",
      "outputs": [
        {
          "internalType": "bool",
          "name": "",
          "type": "bool"
        }
      ],
      "stateMutability": "nonpayable",
      "type": "function"
    },
    {
      "inputs": [
        {
          "internalType": "address",
          "name": "from",
          "type": "address"
        },
        {
          "internalType": "address",
          "name": "to",
          "type": "address"
        },
        {
          "internalType": "uint256",
          "name": "amount",
          "type": "uint256"
        }
      ],
      "name": "transferFrom",
      "outputs": [
        {
          "internalType": "bool",
          "name": "",
          "type": "bool"
        }
      ],
      "stateMutability": "nonpayable",
      "type": "function"
    }
  ],
  "bytecode": "0x60806040523480156200001157600080fd5b5060405162001afc38038062001afc833981810160405281019062000037919062000269565b8260038190555081600490816200004f919062000525565b50806005819055505050506200060c565b6000604051905090565b600080fd5b600080fd5b6000819050919050565b620000898162000074565b81146200009557600080fd5b50565b600081519050620000a9816200007e565b92915050565b600080fd5b600080fd5b6000601f19601f8301169050919050565b7f4e487b7100000000000000000000000000000000000000000000000000000000600052604160045260246000fd5b6200010482620000b9565b810181811067ffffffffffffffff82111715620001265762000125620000ca565b5b80604052505050565b60006200013b62000060565b9050620001498282620000f9565b919050565b600067ffffffffffffffff8211156200016c576200016b620000ca565b5b6200017782620000b9565b9050602081019050919050565b60005b83811015620001a457808201518184015260208101905062000187565b60008484015250505050565b6000620001c7620001c1846200014e565b6200012f565b905082815260208101848484011115620001e657620001e5620000b4565b5b620001f384828562000184565b509392505050565b600082601f830112620002135762000212620000af565b5b815162000225848260208601620001b0565b91505092915050565b6000819050919050565b62000243816200022e565b81146200024f57600080fd5b50565b600081519050620002638162000238565b92915050565b6000806000606084860312156200028557620002846200006a565b5b6000620002958682870162000098565b935050602084015167ffffffffffffffff811115620002b957620002b86200006f565b5b620002c786828701620001fb565b9250506040620002da8682870162000252565b9150509250925092565b600081519050919050565b7f4e487b7100000000000000000000000000000000000000000000000000000000600052602260045260246000fd5b600060028204905060018216806200033757607f821691505b6020821081036200034d576200034c620002ef565b5b50919050565b60008190508160005260206000209050919050565b60006020601f8301049050919050565b600082821b905092915050565b600060088302620003b77fffffffffffffffffffffffffffffffffffffffffffffffffffffffffffffffff8262000378565b620003c3868362000378565b95508019841693508086168417925050509392505050565b6000819050919050565b60006200040662000400620003fa846200022e565b620003db565b6200022e565b9050919050565b6000819050919050565b6200042283620003e5565b6200043a62000431826200040d565b84845462000385565b825550505050565b600090565b6200045162000442565b6200045e81848462000417565b505050565b5b8181101562000486576200047a60008262000447565b60018101905062000464565b5050565b601f821115620004d5576200049f8162000353565b620004aa8462000368565b81016020851015620004ba578190505b620004d2620004c98562000368565b83018262000463565b50505b505050565b600082821c905092915050565b6000620004fa60001984600802620004da565b1980831691505092915050565b6000620005158383620004e7565b9150826002028217905092915050565b6200053082620002e4565b67ffffffffffffffff8111156200054c576200054b620000ca565b5b6200055882546200031e565b620005658282856200048a565b600060209050601f8311600181146200059d576000841562000588578287015190505b62000594858262000507565b86555062000604565b601f198416620005ad8662000353565b60005b82811015620005d757848901518255600182019150602085019450602081019050620005b0565b86831015620005f75784890151620005f3601f891682620004e7565b8355505b6001600288020188555050505b505050505050565b6114e0806200061c6000396000f3fe608060405234801561001057600080fd5b50600436106100f55760003560e01c80633ccafd111161009757806395d89b411161006657806395d89b4114610274578063a457c2d714610292578063a9059cbb146102c2578063dd62ed3e146102f2576100f5565b80633ccafd11146101ee57806340c10f191461020c57806370a08231146102285780638c8885c814610258576100f5565b806318160ddd116100d357806318160ddd1461015257806323b872dd14610170578063313ce567146101a057806339509351146101be576100f5565b806306fdde03146100fa578063095ea7b31461011857806315a87bee14610148575b600080fd5b610102610322565b60405161010f9190610c9f565b60405180910390f35b610132600480360381019061012d9190610d53565b61034d565b60405161013f9190610dae565b60405180910390f35b610150610369565b005b61015a610395565b6040516101679190610dd8565b60405180910390f35b61018a60048036038101906101859190610df3565b61039f565b6040516101979190610dae565b60405180910390f35b6101a86103c7565b6040516101b59190610dd8565b60405180910390f35b6101d860048036038101906101d39190610d53565b6103f2565b6040516101e59190610dae565b60405180910390f35b6101f6610422565b6040516102039190610dae565b60405180910390f35b61022660048036038101906102219190610d53565b610435565b005b610242600480360381019061023d9190610e46565b610443565b60405161024f9190610dd8565b60405180910390f35b610272600480360381019061026d9190610e73565b61048b565b005b61027c610495565b6040516102899190610f30565b60405180910390f35b6102ac60048036038101906102a79190610d53565b610548565b6040516102b99190610dae565b60405180910390f35b6102dc60048036038101906102d79190610d53565b6105b8565b6040516102e99190610dae565b60405180910390f35b61030c60048036038101906103079190610f52565b6105d4565b6040516103199190610dd8565b60405180910390f35b6000600660009054906101000a900460ff161561034557600061034457600080fd5b5b600354905090565b60008033905061035e81858561065b565b600191505092915050565b600660009054906101000a900460ff1615600660006101000a81548160ff021916908315150217905550565b6000600254905090565b6000803390506103b0858285610824565b6103bb8585856108b0565b60019150509392505050565b6000600660009054906101000a900460ff16156103ea5760006103e957600080fd5b5b600554905090565b60008033905061041781858561040885896105d4565b6104129190610fc1565b61065b565b600191505092915050565b600660009054906101000a900460ff1681565b61043f8282610b26565b5050565b60008060008373ffffffffffffffffffffffffffffffffffffffff1673ffffffffffffffffffffffffffffffffffffffff168152602001908152602001600020549050919050565b8060058190555050565b6060600660009054906101000a900460ff16156104b85760006104b757600080fd5b5b600480546104c590611024565b80601f01602080910402602001604051908101604052809291908181526020018280546104f190611024565b801561053e5780601f106105135761010080835404028352916020019161053e565b820191906000526020600020905b81548152906001019060200180831161052157829003601f168201915b5050505050905090565b600080339050600061055a82866105d4565b90508381101561059f576040517f08c379a0000000000000000000000000000000000000000000000000000000008152600401610596906110d8565b60405180910390fd5b6105ac828686840361065b565b60019250505092915050565b6000803390506105c98185856108b0565b600191505092915050565b6000600160008473ffffffffffffffffffffffffffffffffffffffff1673ffffffffffffffffffffffffffffffffffffffff16815260200190815260200160002060008373ffffffffffffffffffffffffffffffffffffffff1673ffffffffffffffffffffffffffffffffffffffff16815260200190815260200160002054905092915050565b600073ffffffffffffffffffffffffffffffffffffffff168373ffffffffffffffffffffffffffffffffffffffff16036106ca576040517f08c379a00000000000000000000000000000000000000000000000000000000081526004016106c19061116a565b60405180910390fd5b600073ffffffffffffffffffffffffffffffffffffffff168273ffffffffffffffffffffffffffffffffffffffff1603610739576040517f08c379a0000000000000000000000000000000000000000000000000000000008152600401610730906111fc565b60405180910390fd5b80600160008573ffffffffffffffffffffffffffffffffffffffff1673ffffffffffffffffffffffffffffffffffffffff16815260200190815260200160002060008473ffffffffffffffffffffffffffffffffffffffff1673ffffffffffffffffffffffffffffffffffffffff168152602001908152602001600020819055508173ffffffffffffffffffffffffffffffffffffffff168373ffffffffffffffffffffffffffffffffffffffff167f8c5be1e5ebec7d5bd14f71427d1e84f3dd0314c0f7b2291e5b200ac8c7c3b925836040516108179190610dd8565b60405180910390a3505050565b600061083084846105d4565b90507fffffffffffffffffffffffffffffffffffffffffffffffffffffffffffffffff81146108aa578181101561089c576040517f08c379a000000000000000000000000000000000000000000000000000000000815260040161089390611268565b60405180910390fd5b6108a9848484840361065b565b5b50505050565b600073ffffffffffffffffffffffffffffffffffffffff168373ffffffffffffffffffffffffffffffffffffffff160361091f576040517f08c379a0000000000000000000000000000000000000000000000000000000008152600401610916906112fa565b60405180910390fd5b600073ffffffffffffffffffffffffffffffffffffffff168273ffffffffffffffffffffffffffffffffffffffff160361098e576040517f08c379a00000000000000000000000000000000000000000000000000000000081526004016109859061138c565b60405180910390fd5b610999838383610c7c565b60008060008573ffffffffffffffffffffffffffffffffffffffff1673ffffffffffffffffffffffffffffffffffffffff16815260200190815260200160002054905081811015610a1f576040517f08c379a0000000000000000000000000000000000000000000000000000000008152600401610a169061141e565b60405180910390fd5b8181036000808673ffffffffffffffffffffffffffffffffffffffff1673ffffffffffffffffffffffffffffffffffffffff16815260200190815260200160002081905550816000808573ffffffffffffffffffffffffffffffffffffffff1673ffffffffffffffffffffffffffffffffffffffff168152602001908152602001600020600082825401925050819055508273ffffffffffffffffffffffffffffffffffffffff168473ffffffffffffffffffffffffffffffffffffffff167fddf252ad1be2c89b69c2b068fc378daa952ba7f163c4a11628f55a4df523b3ef84604051610b0d9190610dd8565b60405180910390a3610b20848484610c81565b50505050565b600073ffffffffffffffffffffffffffffffffffffffff168273ffffffffffffffffffffffffffffffffffffffff1603610b95576040517f08c379a0000000000000000000000000000000000000000000000000000000008152600401610b8c9061148a565b60405180910390fd5b610ba160008383610c7c565b8060026000828254610bb39190610fc1565b92505081905550806000808473ffffffffffffffffffffffffffffffffffffffff1673ffffffffffffffffffffffffffffffffffffffff168152602001908152602001600020600082825401925050819055508173ffffffffffffffffffffffffffffffffffffffff16600073ffffffffffffffffffffffffffffffffffffffff167fddf252ad1be2c89b69c2b068fc378daa952ba7f163c4a11628f55a4df523b3ef83604051610c649190610dd8565b60405180910390a3610c7860008383610c81565b5050565b505050565b505050565b6000819050919050565b610c9981610c86565b82525050565b6000602082019050610cb46000830184610c90565b92915050565b600080fd5b600073ffffffffffffffffffffffffffffffffffffffff82169050919050565b6000610cea82610cbf565b9050919050565b610cfa81610cdf565b8114610d0557600080fd5b50565b600081359050610d1781610cf1565b92915050565b6000819050919050565b610d3081610d1d565b8114610d3b57600080fd5b50565b600081359050610d4d81610d27565b92915050565b60008060408385031215610d6a57610d69610cba565b5b6000610d7885828601610d08565b9250506020610d8985828601610d3e565b9150509250929050565b60008115159050919050565b610da881610d93565b82525050565b6000602082019050610dc36000830184610d9f565b92915050565b610dd281610d1d565b82525050565b6000602082019050610ded6000830184610dc9565b92915050565b600080600060608486031215610e0c57610e0b610cba565b5b6000610e1a86828701610d08565b9350506020610e2b86828701610d08565b9250506040610e3c86828701610d3e565b9150509250925092565b600060208284031215610e5c57610e5b610cba565b5b6000610e6a84828501610d08565b91505092915050565b600060208284031215610e8957610e88610cba565b5b6000610e9784828501610d3e565b91505092915050565b600081519050919050565b600082825260208201905092915050565b60005b83811015610eda578082015181840152602081019050610ebf565b60008484015250505050565b6000601f19601f8301169050919050565b6000610f0282610ea0565b610f0c8185610eab565b9350610f1c818560208601610ebc565b610f2581610ee6565b840191505092915050565b60006020820190508181036000830152610f4a8184610ef7565b905092915050565b60008060408385031215610f6957610f68610cba565b5b6000610f7785828601610d08565b9250506020610f8885828601610d08565b9150509250929050565b7f4e487b7100000000000000000000000000000000000000000000000000000000600052601160045260246000fd5b6000610fcc82610d1d565b9150610fd783610d1d565b9250828201905080821115610fef57610fee610f92565b5b92915050565b7f4e487b7100000000000000000000000000000000000000000000000000000000600052602260045260246000fd5b6000600282049050600182168061103c57607f821691505b60208210810361104f5761104e610ff5565b5b50919050565b600082825260208201905092915050565b7f45524332303a2064656372656173656420616c6c6f77616e63652062656c6f7760008201527f207a65726f000000000000000000000000000000000000000000000000000000602082015250565b60006110c2602583611055565b91506110cd82611066565b604082019050919050565b600060208201905081810360008301526110f1816110b5565b9050919050565b7f45524332303a20617070726f76652066726f6d20746865207a65726f2061646460008201527f7265737300000000000000000000000000000000000000000000000000000000602082015250565b6000611154602483611055565b915061115f826110f8565b604082019050919050565b6000602082019050818103600083015261118381611147565b9050919050565b7f45524332303a20617070726f766520746f20746865207a65726f20616464726560008201527f7373000000000000000000000000000000000000000000000000000000000000602082015250565b60006111e6602283611055565b91506111f18261118a565b604082019050919050565b60006020820190508181036000830152611215816111d9565b9050919050565b7f45524332303a20696e73756666696369656e7420616c6c6f77616e6365000000600082015250565b6000611252601d83611055565b915061125d8261121c565b602082019050919050565b6000602082019050818103600083015261128181611245565b9050919050565b7f45524332303a207472616e736665722066726f6d20746865207a65726f20616460008201527f6472657373000000000000000000000000000000000000000000000000000000602082015250565b60006112e4602583611055565b91506112ef82611288565b604082019050919050565b60006020820190508181036000830152611313816112d7565b9050919050565b7f45524332303a207472616e7366657220746f20746865207a65726f206164647260008201527f6573730000000000000000000000000000000000000000000000000000000000602082015250565b6000611376602383611055565b91506113818261131a565b604082019050919050565b600060208201905081810360008301526113a581611369565b9050919050565b7f45524332303a207472616e7366657220616d6f756e742065786365656473206260008201527f616c616e63650000000000000000000000000000000000000000000000000000602082015250565b6000611408602683611055565b9150611413826113ac565b604082019050919050565b60006020820190508181036000830152611437816113fb565b9050919050565b7f45524332303a206d696e7420746f20746865207a65726f206164647265737300600082015250565b6000611474601f83611055565b915061147f8261143e565b602082019050919050565b600060208201905081810360008301526114a381611467565b905091905056fea2646970667358221220a3a3d2ba49f34eeaa2ab14b09b0e915c1a2236a48ac92258250ba222bf0181f564736f6c63430008140033",
  "linkReferences": {},
  "deployedLinkReferences": {}
}