{
  "_format": "hh-sol-artifact-1",
  "contractName": "CDKDataCommittee",
  "sourceName": "contracts/CDKDataCommittee.sol",
  "abi": [
    {
      "inputs": [],
      "name": "CommitteeAddressDoesntExist",
      "type": "error"
    },
    {
      "inputs": [],
      "name": "EmptyURLNotAllowed",
      "type": "error"
    },
    {
      "inputs": [],
      "name": "TooManyRequiredSignatures",
      "type": "error"
    },
    {
      "inputs": [],
      "name": "UnexpectedAddrsAndSignaturesSize",
      "type": "error"
    },
    {
      "inputs": [],
      "name": "UnexpectedAddrsBytesLength",
      "type": "error"
    },
    {
      "inputs": [],
      "name": "UnexpectedCommitteeHash",
      "type": "error"
    },
    {
      "inputs": [],
      "name": "WrongAddrOrder",
      "type": "error"
    },
    {
      "anonymous": false,
      "inputs": [
        {
          "indexed": false,
          "internalType": "bytes32",
          "name": "committeeHash",
          "type": "bytes32"
        }
      ],
      "name": "CommitteeUpdated",
      "type": "event"
    },
    {
      "anonymous": false,
      "inputs": [
        {
          "indexed": false,
          "internalType": "uint8",
          "name": "version",
          "type": "uint8"
        }
      ],
      "name": "Initialized",
      "type": "event"
    },
    {
      "anonymous": false,
      "inputs": [
        {
          "indexed": true,
          "internalType": "address",
          "name": "previousOwner",
          "type": "address"
        },
        {
          "indexed": true,
          "internalType": "address",
          "name": "newOwner",
          "type": "address"
        }
      ],
      "name": "OwnershipTransferred",
      "type": "event"
    },
    {
      "inputs": [],
      "name": "committeeHash",
      "outputs": [
        {
          "internalType": "bytes32",
          "name": "",
          "type": "bytes32"
        }
      ],
      "stateMutability": "view",
      "type": "function"
    },
    {
      "inputs": [],
      "name": "getAmountOfMembers",
      "outputs": [
        {
          "internalType": "uint256",
          "name": "",
          "type": "uint256"
        }
      ],
      "stateMutability": "view",
      "type": "function"
    },
    {
      "inputs": [],
      "name": "initialize",
      "outputs": [],
      "stateMutability": "nonpayable",
      "type": "function"
    },
    {
      "inputs": [
        {
          "internalType": "uint256",
          "name": "",
          "type": "uint256"
        }
      ],
      "name": "members",
      "outputs": [
        {
          "internalType": "string",
          "name": "url",
          "type": "string"
        },
        {
          "internalType": "address",
          "name": "addr",
          "type": "address"
        }
      ],
      "stateMutability": "view",
      "type": "function"
    },
    {
      "inputs": [],
      "name": "owner",
      "outputs": [
        {
          "internalType": "address",
          "name": "",
          "type": "address"
        }
      ],
      "stateMutability": "view",
      "type": "function"
    },
    {
      "inputs": [],
      "name": "renounceOwnership",
      "outputs": [],
      "stateMutability": "nonpayable",
      "type": "function"
    },
    {
      "inputs": [],
      "name": "requiredAmountOfSignatures",
      "outputs": [
        {
          "internalType": "uint256",
          "name": "",
          "type": "uint256"
        }
      ],
      "stateMutability": "view",
      "type": "function"
    },
    {
      "inputs": [
        {
          "internalType": "uint256",
          "name": "_requiredAmountOfSignatures",
          "type": "uint256"
        },
        {
          "internalType": "string[]",
          "name": "urls",
          "type": "string[]"
        },
        {
          "internalType": "bytes",
          "name": "addrsBytes",
          "type": "bytes"
        }
      ],
      "name": "setupCommittee",
      "outputs": [],
      "stateMutability": "nonpayable",
      "type": "function"
    },
    {
      "inputs": [
        {
          "internalType": "address",
          "name": "newOwner",
          "type": "address"
        }
      ],
      "name": "transferOwnership",
      "outputs": [],
      "stateMutability": "nonpayable",
      "type": "function"
    },
    {
      "inputs": [
        {
          "internalType": "bytes32",
          "name": "signedHash",
          "type": "bytes32"
        },
        {
          "internalType": "bytes",
          "name": "signaturesAndAddrs",
          "type": "bytes"
        }
      ],
      "name": "verifySignatures",
      "outputs": [],
      "stateMutability": "view",
      "type": "function"
    }
  ],
  "bytecode": "0x608060405234801561001057600080fd5b50611f66806100206000396000f3fe608060405234801561001057600080fd5b506004361061009e5760003560e01c80638129fc1c116100665780638129fc1c146101365780638da5cb5b14610140578063c7a823e01461015e578063dce1e2b61461017a578063f2fde38b146101985761009e565b8063078fba2a146100a35780635daf08ca146100bf578063609d4544146100f05780636beedd391461010e578063715018a61461012c575b600080fd5b6100bd60048036038101906100b891906110f1565b6101b4565b005b6100d960048036038101906100d49190611186565b610506565b6040516100e7929190611284565b60405180910390f35b6100f86105e2565b60405161010591906112cd565b60405180910390f35b6101166105e8565b60405161012391906112f7565b60405180910390f35b6101346105ee565b005b61013e610602565b005b610148610740565b6040516101559190611312565b60405180910390f35b61017860048036038101906101739190611359565b61076a565b005b610182610a07565b60405161018f91906112f7565b60405180910390f35b6101b260048036038101906101ad91906113e5565b610a14565b005b6101bc610a97565b6000848490509050858110156101fe576040517f2e7dcd6e00000000000000000000000000000000000000000000000000000000815260040160405180910390fd5b60148161020b9190611441565b8383905014610246576040517f2ab6a12900000000000000000000000000000000000000000000000000000000815260040160405180910390fd5b606760006102549190610f27565b600080600090505b8281101561049e5760006014826102739190611441565b90506000868683906014856102889190611483565b92610295939291906114c1565b906102a09190611540565b60601c905060008989858181106102ba576102b961159f565b5b90506020028101906102cc91906115dd565b905003610305576040517fb54b70e400000000000000000000000000000000000000000000000000000000815260040160405180910390fd5b8073ffffffffffffffffffffffffffffffffffffffff168473ffffffffffffffffffffffffffffffffffffffff161061036a576040517fd53cfbe000000000000000000000000000000000000000000000000000000000815260040160405180910390fd5b809350606760405180604001604052808b8b8781811061038d5761038c61159f565b5b905060200281019061039f91906115dd565b8080601f016020809104026020016040519081016040528093929190818152602001838380828437600081840152601f19601f8201169050808301925050505050505081526020018373ffffffffffffffffffffffffffffffffffffffff168152509080600181540180825580915050600190039060005260206000209060020201600090919091909150600082015181600001908161043f919061186e565b5060208201518160010160006101000a81548173ffffffffffffffffffffffffffffffffffffffff021916908373ffffffffffffffffffffffffffffffffffffffff16021790555050505050808061049690611940565b91505061025c565b5083836040516104af9291906119c7565b6040518091039020606681905550866065819055507f831403fd381b3e6ac875d912ec2eee0e0203d0d29f7b3e0c96fc8f582d6db6576066546040516104f591906112cd565b60405180910390a150505050505050565b6067818154811061051657600080fd5b90600052602060002090600202016000915090508060000180546105399061169e565b80601f01602080910402602001604051908101604052809291908181526020018280546105659061169e565b80156105b25780601f10610587576101008083540402835291602001916105b2565b820191906000526020600020905b81548152906001019060200180831161059557829003601f168201915b5050505050908060010160009054906101000a900473ffffffffffffffffffffffffffffffffffffffff16905082565b60665481565b60655481565b6105f6610a97565b6106006000610b15565b565b60008060019054906101000a900460ff161590508080156106335750600160008054906101000a900460ff1660ff16105b80610660575061064230610bdb565b15801561065f5750600160008054906101000a900460ff1660ff16145b5b61069f576040517f08c379a000000000000000000000000000000000000000000000000000000000815260040161069690611a52565b60405180910390fd5b60016000806101000a81548160ff021916908360ff16021790555080156106dc576001600060016101000a81548160ff0219169083151502179055505b6106e4610bfe565b801561073d5760008060016101000a81548160ff0219169083151502179055507f7f26b83ff96e1f2b6a682f133852f6798a09c465da95921460cefb384740249860016040516107349190611aba565b60405180910390a15b50565b6000603360009054906101000a900473ffffffffffffffffffffffffffffffffffffffff16905090565b6000606554604161077b9190611441565b9050808383905010806107a9575060006014828585905061079c9190611ad5565b6107a69190611b38565b14155b156107e0576040517f6b8eec4600000000000000000000000000000000000000000000000000000000815260040160405180910390fd5b6066548383839080926107f5939291906114c1565b604051610803929190611b69565b604051809103902014610842576040517f6b156b2800000000000000000000000000000000000000000000000000000000815260040160405180910390fd5b600080601483868690506108569190611ad5565b6108609190611b82565b905060005b6065548110156109fe5760006108f28888886041866108849190611441565b90604180886108939190611441565b61089d9190611483565b926108aa939291906114c1565b8080601f016020809104026020016040519081016040528093929190818152602001838380828437600081840152601f19601f82011690508083019250505050505050610c5f565b90506000808590505b848110156109b15760006014826109129190611441565b8861091d9190611483565b905060008a8a83906014856109329190611483565b9261093f939291906114c1565b9061094a9190611540565b60601c90508473ffffffffffffffffffffffffffffffffffffffff168173ffffffffffffffffffffffffffffffffffffffff160361099c5760018361098f9190611483565b97506001935050506109b1565b505080806109a990611940565b9150506108fb565b50806109e9576040517f8431721300000000000000000000000000000000000000000000000000000000815260040160405180910390fd5b505080806109f690611940565b915050610865565b50505050505050565b6000606780549050905090565b610a1c610a97565b600073ffffffffffffffffffffffffffffffffffffffff168173ffffffffffffffffffffffffffffffffffffffff1603610a8b576040517f08c379a0000000000000000000000000000000000000000000000000000000008152600401610a8290611c25565b60405180910390fd5b610a9481610b15565b50565b610a9f610c86565b73ffffffffffffffffffffffffffffffffffffffff16610abd610740565b73ffffffffffffffffffffffffffffffffffffffff1614610b13576040517f08c379a0000000000000000000000000000000000000000000000000000000008152600401610b0a90611c91565b60405180910390fd5b565b6000603360009054906101000a900473ffffffffffffffffffffffffffffffffffffffff16905081603360006101000a81548173ffffffffffffffffffffffffffffffffffffffff021916908373ffffffffffffffffffffffffffffffffffffffff1602179055508173ffffffffffffffffffffffffffffffffffffffff168173ffffffffffffffffffffffffffffffffffffffff167f8be0079c531659141344cd1fd0a4f28419497f9722a3daafe3b4186f6b6457e060405160405180910390a35050565b6000808273ffffffffffffffffffffffffffffffffffffffff163b119050919050565b600060019054906101000a900460ff16610c4d576040517f08c379a0000000000000000000000000000000000000000000000000000000008152600401610c4490611d23565b60405180910390fd5b610c5d610c58610c86565b610b15565b565b6000806000610c6e8585610c8e565b91509150610c7b81610cdf565b819250505092915050565b600033905090565b6000806041835103610ccf5760008060006020860151925060408601519150606086015160001a9050610cc387828585610e45565b94509450505050610cd8565b60006002915091505b9250929050565b60006004811115610cf357610cf2611d43565b5b816004811115610d0657610d05611d43565b5b0315610e425760016004811115610d2057610d1f611d43565b5b816004811115610d3357610d32611d43565b5b03610d73576040517f08c379a0000000000000000000000000000000000000000000000000000000008152600401610d6a90611dbe565b60405180910390fd5b60026004811115610d8757610d86611d43565b5b816004811115610d9a57610d99611d43565b5b03610dda576040517f08c379a0000000000000000000000000000000000000000000000000000000008152600401610dd190611e2a565b60405180910390fd5b60036004811115610dee57610ded611d43565b5b816004811115610e0157610e00611d43565b5b03610e41576040517f08c379a0000000000000000000000000000000000000000000000000000000008152600401610e3890611ebc565b60405180910390fd5b5b50565b6000807f7fffffffffffffffffffffffffffffff5d576e7357a4501ddfe92f46681b20a08360001c1115610e80576000600391509150610f1e565b600060018787878760405160008152602001604052604051610ea59493929190611eeb565b6020604051602081039080840390855afa158015610ec7573d6000803e3d6000fd5b505050602060405103519050600073ffffffffffffffffffffffffffffffffffffffff168173ffffffffffffffffffffffffffffffffffffffff1603610f1557600060019250925050610f1e565b80600092509250505b94509492505050565b5080546000825560020290600052602060002090810190610f489190610f4b565b50565b5b80821115610f955760008082016000610f659190610f99565b6001820160006101000a81549073ffffffffffffffffffffffffffffffffffffffff021916905550600201610f4c565b5090565b508054610fa59061169e565b6000825580601f10610fb75750610fd6565b601f016020900490600052602060002090810190610fd59190610fd9565b5b50565b5b80821115610ff2576000816000905550600101610fda565b5090565b600080fd5b600080fd5b6000819050919050565b61101381611000565b811461101e57600080fd5b50565b6000813590506110308161100a565b92915050565b600080fd5b600080fd5b600080fd5b60008083601f84011261105b5761105a611036565b5b8235905067ffffffffffffffff8111156110785761107761103b565b5b60208301915083602082028301111561109457611093611040565b5b9250929050565b60008083601f8401126110b1576110b0611036565b5b8235905067ffffffffffffffff8111156110ce576110cd61103b565b5b6020830191508360018202830111156110ea576110e9611040565b5b9250929050565b60008060008060006060868803121561110d5761110c610ff6565b5b600061111b88828901611021565b955050602086013567ffffffffffffffff81111561113c5761113b610ffb565b5b61114888828901611045565b9450945050604086013567ffffffffffffffff81111561116b5761116a610ffb565b5b6111778882890161109b565b92509250509295509295909350565b60006020828403121561119c5761119b610ff6565b5b60006111aa84828501611021565b91505092915050565b600081519050919050565b600082825260208201905092915050565b60005b838110156111ed5780820151818401526020810190506111d2565b60008484015250505050565b6000601f19601f8301169050919050565b6000611215826111b3565b61121f81856111be565b935061122f8185602086016111cf565b611238816111f9565b840191505092915050565b600073ffffffffffffffffffffffffffffffffffffffff82169050919050565b600061126e82611243565b9050919050565b61127e81611263565b82525050565b6000604082019050818103600083015261129e818561120a565b90506112ad6020830184611275565b9392505050565b6000819050919050565b6112c7816112b4565b82525050565b60006020820190506112e260008301846112be565b92915050565b6112f181611000565b82525050565b600060208201905061130c60008301846112e8565b92915050565b60006020820190506113276000830184611275565b92915050565b611336816112b4565b811461134157600080fd5b50565b6000813590506113538161132d565b92915050565b60008060006040848603121561137257611371610ff6565b5b600061138086828701611344565b935050602084013567ffffffffffffffff8111156113a1576113a0610ffb565b5b6113ad8682870161109b565b92509250509250925092565b6113c281611263565b81146113cd57600080fd5b50565b6000813590506113df816113b9565b92915050565b6000602082840312156113fb576113fa610ff6565b5b6000611409848285016113d0565b91505092915050565b7f4e487b7100000000000000000000000000000000000000000000000000000000600052601160045260246000fd5b600061144c82611000565b915061145783611000565b925082820261146581611000565b9150828204841483151761147c5761147b611412565b5b5092915050565b600061148e82611000565b915061149983611000565b92508282019050808211156114b1576114b0611412565b5b92915050565b600080fd5b600080fd5b600080858511156114d5576114d46114b7565b5b838611156114e6576114e56114bc565b5b6001850283019150848603905094509492505050565b600082905092915050565b60007fffffffffffffffffffffffffffffffffffffffff00000000000000000000000082169050919050565b600082821b905092915050565b600061154c83836114fc565b826115578135611507565b92506014821015611597576115927fffffffffffffffffffffffffffffffffffffffff00000000000000000000000083601403600802611533565b831692505b505092915050565b7f4e487b7100000000000000000000000000000000000000000000000000000000600052603260045260246000fd5b600080fd5b600080fd5b600080fd5b600080833560016020038436030381126115fa576115f96115ce565b5b80840192508235915067ffffffffffffffff82111561161c5761161b6115d3565b5b602083019250600182023603831315611638576116376115d8565b5b509250929050565b7f4e487b7100000000000000000000000000000000000000000000000000000000600052604160045260246000fd5b7f4e487b7100000000000000000000000000000000000000000000000000000000600052602260045260246000fd5b600060028204905060018216806116b657607f821691505b6020821081036116c9576116c861166f565b5b50919050565b60008190508160005260206000209050919050565b60006020601f8301049050919050565b6000600883026117247fffffffffffffffffffffffffffffffffffffffffffffffffffffffffffffffff82611533565b61172e8683611533565b95508019841693508086168417925050509392505050565b6000819050919050565b600061176b61176661176184611000565b611746565b611000565b9050919050565b6000819050919050565b61178583611750565b61179961179182611772565b8484546116f4565b825550505050565b600090565b6117ae6117a1565b6117b981848461177c565b505050565b5b818110156117dd576117d26000826117a6565b6001810190506117bf565b5050565b601f821115611822576117f3816116cf565b6117fc846116e4565b8101602085101561180b578190505b61181f611817856116e4565b8301826117be565b50505b505050565b600082821c905092915050565b600061184560001984600802611827565b1980831691505092915050565b600061185e8383611834565b9150826002028217905092915050565b611877826111b3565b67ffffffffffffffff8111156118905761188f611640565b5b61189a825461169e565b6118a58282856117e1565b600060209050601f8311600181146118d857600084156118c6578287015190505b6118d08582611852565b865550611938565b601f1984166118e6866116cf565b60005b8281101561190e578489015182556001820191506020850194506020810190506118e9565b8683101561192b5784890151611927601f891682611834565b8355505b6001600288020188555050505b505050505050565b600061194b82611000565b91507fffffffffffffffffffffffffffffffffffffffffffffffffffffffffffffffff820361197d5761197c611412565b5b600182019050919050565b600081905092915050565b82818337600083830152505050565b60006119ae8385611988565b93506119bb838584611993565b82840190509392505050565b60006119d48284866119a2565b91508190509392505050565b7f496e697469616c697a61626c653a20636f6e747261637420697320616c72656160008201527f647920696e697469616c697a6564000000000000000000000000000000000000602082015250565b6000611a3c602e836111be565b9150611a47826119e0565b604082019050919050565b60006020820190508181036000830152611a6b81611a2f565b9050919050565b6000819050919050565b600060ff82169050919050565b6000611aa4611a9f611a9a84611a72565b611746565b611a7c565b9050919050565b611ab481611a89565b82525050565b6000602082019050611acf6000830184611aab565b92915050565b6000611ae082611000565b9150611aeb83611000565b9250828203905081811115611b0357611b02611412565b5b92915050565b7f4e487b7100000000000000000000000000000000000000000000000000000000600052601260045260246000fd5b6000611b4382611000565b9150611b4e83611000565b925082611b5e57611b5d611b09565b5b828206905092915050565b6000611b768284866119a2565b91508190509392505050565b6000611b8d82611000565b9150611b9883611000565b925082611ba857611ba7611b09565b5b828204905092915050565b7f4f776e61626c653a206e6577206f776e657220697320746865207a65726f206160008201527f6464726573730000000000000000000000000000000000000000000000000000602082015250565b6000611c0f6026836111be565b9150611c1a82611bb3565b604082019050919050565b60006020820190508181036000830152611c3e81611c02565b9050919050565b7f4f776e61626c653a2063616c6c6572206973206e6f7420746865206f776e6572600082015250565b6000611c7b6020836111be565b9150611c8682611c45565b602082019050919050565b60006020820190508181036000830152611caa81611c6e565b9050919050565b7f496e697469616c697a61626c653a20636f6e7472616374206973206e6f74206960008201527f6e697469616c697a696e67000000000000000000000000000000000000000000602082015250565b6000611d0d602b836111be565b9150611d1882611cb1565b604082019050919050565b60006020820190508181036000830152611d3c81611d00565b9050919050565b7f4e487b7100000000000000000000000000000000000000000000000000000000600052602160045260246000fd5b7f45434453413a20696e76616c6964207369676e61747572650000000000000000600082015250565b6000611da86018836111be565b9150611db382611d72565b602082019050919050565b60006020820190508181036000830152611dd781611d9b565b9050919050565b7f45434453413a20696e76616c6964207369676e6174757265206c656e67746800600082015250565b6000611e14601f836111be565b9150611e1f82611dde565b602082019050919050565b60006020820190508181036000830152611e4381611e07565b9050919050565b7f45434453413a20696e76616c6964207369676e6174757265202773272076616c60008201527f7565000000000000000000000000000000000000000000000000000000000000602082015250565b6000611ea66022836111be565b9150611eb182611e4a565b604082019050919050565b60006020820190508181036000830152611ed581611e99565b9050919050565b611ee581611a7c565b82525050565b6000608082019050611f0060008301876112be565b611f0d6020830186611edc565b611f1a60408301856112be565b611f2760608301846112be565b9594505050505056fea26469706673582212201f54bed54b61a2909161a8c859fc064d62ac41ca346915412ade2ebf88e98ac764736f6c63430008140033",
  "linkReferences": {},
  "deployedLinkReferences": {}
}