{
  "_format": "hh-sol-artifact-1",
  "contractName": "PolygonZkEVMGlobalExitRootMock",
  "sourceName": "contracts/mocks/PolygonZkEVMGlobalExitRootMock.sol",
  "abi": [
    {
      "inputs": [
        {
          "internalType": "address",
          "name": "_rollupAddress",
          "type": "address"
        },
        {
          "internalType": "address",
          "name": "_bridgeAddress",
          "type": "address"
        }
      ],
      "stateMutability": "nonpayable",
      "type": "constructor"
    },
    {
      "inputs": [],
      "name": "OnlyAllowedContracts",
      "type": "error"
    },
    {
      "anonymous": false,
      "inputs": [
        {
          "indexed": true,
          "internalType": "bytes32",
          "name": "mainnetExitRoot",
          "type": "bytes32"
        },
        {
          "indexed": true,
          "internalType": "bytes32",
          "name": "rollupExitRoot",
          "type": "bytes32"
        }
      ],
      "name": "UpdateGlobalExitRoot",
      "type": "event"
    },
    {
      "inputs": [],
      "name": "bridgeAddress",
      "outputs": [
        {
          "internalType": "address",
          "name": "",
          "type": "address"
        }
      ],
      "stateMutability": "view",
      "type": "function"
    },
    {
      "inputs": [],
      "name": "getLastGlobalExitRoot",
      "outputs": [
        {
          "internalType": "bytes32",
          "name": "",
          "type": "bytes32"
        }
      ],
      "stateMutability": "view",
      "type": "function"
    },
    {
      "inputs": [
        {
          "internalType": "bytes32",
          "name": "",
          "type": "bytes32"
        }
      ],
      "name": "globalExitRootMap",
      "outputs": [
        {
          "internalType": "uint256",
          "name": "",
          "type": "uint256"
        }
      ],
      "stateMutability": "view",
      "type": "function"
    },
    {
      "inputs": [],
      "name": "lastMainnetExitRoot",
      "outputs": [
        {
          "internalType": "bytes32",
          "name": "",
          "type": "bytes32"
        }
      ],
      "stateMutability": "view",
      "type": "function"
    },
    {
      "inputs": [],
      "name": "lastRollupExitRoot",
      "outputs": [
        {
          "internalType": "bytes32",
          "name": "",
          "type": "bytes32"
        }
      ],
      "stateMutability": "view",
      "type": "function"
    },
    {
      "inputs": [],
      "name": "rollupAddress",
      "outputs": [
        {
          "internalType": "address",
          "name": "",
          "type": "address"
        }
      ],
      "stateMutability": "view",
      "type": "function"
    },
    {
      "inputs": [
        {
          "internalType": "bytes32",
          "name": "globalExitRoot",
          "type": "bytes32"
        },
        {
          "internalType": "uint256",
          "name": "timestamp",
          "type": "uint256"
        }
      ],
      "name": "setGlobalExitRoot",
      "outputs": [],
      "stateMutability": "nonpayable",
      "type": "function"
    },
    {
      "inputs": [
        {
          "internalType": "uint256",
          "name": "timestamp",
          "type": "uint256"
        }
      ],
      "name": "setLastGlobalExitRoot",
      "outputs": [],
      "stateMutability": "nonpayable",
      "type": "function"
    },
    {
      "inputs": [
        {
          "internalType": "bytes32",
          "name": "newRoot",
          "type": "bytes32"
        }
      ],
      "name": "updateExitRoot",
      "outputs": [],
      "stateMutability": "nonpayable",
      "type": "function"
    }
  ],
  "bytecode": "0x60c060405234801561001057600080fd5b506040516107d73803806107d783398181016040528101906100329190610108565b81818173ffffffffffffffffffffffffffffffffffffffff1660a08173ffffffffffffffffffffffffffffffffffffffff16815250508073ffffffffffffffffffffffffffffffffffffffff1660808173ffffffffffffffffffffffffffffffffffffffff168152505050505050610148565b600080fd5b600073ffffffffffffffffffffffffffffffffffffffff82169050919050565b60006100d5826100aa565b9050919050565b6100e5816100ca565b81146100f057600080fd5b50565b600081519050610102816100dc565b92915050565b6000806040838503121561011f5761011e6100a5565b5b600061012d858286016100f3565b925050602061013e858286016100f3565b9150509250929050565b60805160a05161065c61017b6000396000818161026901526103a501526000818161020701526103c9015261065c6000f3fe608060405234801561001057600080fd5b50600436106100935760003560e01c806333d6247d1161006657806333d6247d146101205780633ed691ef1461013c5780635bcef6731461015a5780635ec6a8df14610176578063a3c573eb1461019457610093565b806301fd904414610098578063051a9e28146100b6578063257b3632146100d2578063319cf73514610102575b600080fd5b6100a06101b2565b6040516100ad9190610437565b60405180910390f35b6100d060048036038101906100cb919061048d565b6101b8565b005b6100ec60048036038101906100e791906104e6565b6101da565b6040516100f99190610522565b60405180910390f35b61010a6101f2565b6040516101179190610437565b60405180910390f35b61013a600480360381019061013591906104e6565b6101f8565b005b610144610372565b6040516101519190610437565b60405180910390f35b610174600480360381019061016f919061053d565b610387565b005b61017e6103a3565b60405161018b91906105be565b60405180910390f35b61019c6103c7565b6040516101a991906105be565b60405180910390f35b60005481565b80600260006101c5610372565b81526020019081526020016000208190555050565b60026020528060005260406000206000915090505481565b60015481565b600080549050600060015490507f000000000000000000000000000000000000000000000000000000000000000073ffffffffffffffffffffffffffffffffffffffff163373ffffffffffffffffffffffffffffffffffffffff160361026757826001819055508290506102fc565b7f000000000000000000000000000000000000000000000000000000000000000073ffffffffffffffffffffffffffffffffffffffff163373ffffffffffffffffffffffffffffffffffffffff16036102c957826000819055508291506102fb565b6040517fb49365dd00000000000000000000000000000000000000000000000000000000815260040160405180910390fd5b5b600061030882846103eb565b9050600060026000838152602001908152602001600020540361036c5742600260008381526020019081526020016000208190555082827f61014378f82a0d809aefaf87a8ac9505b89c321808287a6e7810f29304c1fce360405160405180910390a35b50505050565b60006103826001546000546103eb565b905090565b8060026000848152602001908152602001600020819055505050565b7f000000000000000000000000000000000000000000000000000000000000000081565b7f000000000000000000000000000000000000000000000000000000000000000081565b600082826040516020016104009291906105fa565b60405160208183030381529060405280519060200120905092915050565b6000819050919050565b6104318161041e565b82525050565b600060208201905061044c6000830184610428565b92915050565b600080fd5b6000819050919050565b61046a81610457565b811461047557600080fd5b50565b60008135905061048781610461565b92915050565b6000602082840312156104a3576104a2610452565b5b60006104b184828501610478565b91505092915050565b6104c38161041e565b81146104ce57600080fd5b50565b6000813590506104e0816104ba565b92915050565b6000602082840312156104fc576104fb610452565b5b600061050a848285016104d1565b91505092915050565b61051c81610457565b82525050565b60006020820190506105376000830184610513565b92915050565b6000806040838503121561055457610553610452565b5b6000610562858286016104d1565b925050602061057385828601610478565b9150509250929050565b600073ffffffffffffffffffffffffffffffffffffffff82169050919050565b60006105a88261057d565b9050919050565b6105b88161059d565b82525050565b60006020820190506105d360008301846105af565b92915050565b6000819050919050565b6105f46105ef8261041e565b6105d9565b82525050565b600061060682856105e3565b60208201915061061682846105e3565b602082019150819050939250505056fea264697066735822122002497e85cc7c4fd098023e8f018438085b1d9c500e0d206190386cf56e3aca5964736f6c63430008140033",
  "linkReferences": {},
  "deployedLinkReferences": {}
}