{
  "_format": "hh-sol-artifact-1",
  "contractName": "FflonkVerifier",
  "sourceName": "contracts/verifiers/FflonkVerifier.sol",
  "abi": [
    {
      "inputs": [
        {
          "internalType": "bytes32[24]",
          "name": "proof",
          "type": "bytes32[24]"
        },
        {
          "internalType": "uint256[1]",
          "name": "pubSignals",
          "type": "uint256[1]"
        }
      ],
      "name": "verifyProof",
      "outputs": [
        {
          "internalType": "bool",
          "name": "",
          "type": "bool"
        }
      ],
      "stateMutability": "view",
      "type": "function"
    }
  ],
  "bytecode": "0x608060405234801561001057600080fd5b50615f8e80620000216000396000f3fe608060405234801561001057600080fd5b506004361061002b5760003560e01c80639121da8a14610030575b600080fd5b61004a60048036038101906100459190615ee0565b610060565b6040516100579190615f3d565b60405180910390f35b6000615e22565b6040516104c08201518082526020820191507f30644e72e131a029b85045b68181585d2833e84879b9709143e1f593f00000016104e0840151820990508082526020820191507f30644e72e131a029b85045b68181585d2833e84879b9709143e1f593f0000001610500840151820990508082526020820191507f30644e72e131a029b85045b68181585d2833e84879b9709143e1f593f0000001610520840151820990508082526020820191507f30644e72e131a029b85045b68181585d2833e84879b9709143e1f593f0000001602061052001840151820990508082526020820191507f30644e72e131a029b85045b68181585d2833e84879b9709143e1f593f0000001604061052001840151820990508082526020820191507f30644e72e131a029b85045b68181585d2833e84879b9709143e1f593f0000001606061052001840151820990508082526020820191507f30644e72e131a029b85045b68181585d2833e84879b9709143e1f593f0000001608061052001840151820990508082526020820191507f30644e72e131a029b85045b68181585d2833e84879b9709143e1f593f000000160a061052001840151820990508082526020820191507f30644e72e131a029b85045b68181585d2833e84879b9709143e1f593f000000160c061052001840151820990508082526020820191507f30644e72e131a029b85045b68181585d2833e84879b9709143e1f593f000000160e061052001840151820990508082526020820191507f30644e72e131a029b85045b68181585d2833e84879b9709143e1f593f0000001610620840151820990508082526020820191507f30644e72e131a029b85045b68181585d2833e84879b9709143e1f593f0000001602061062001840151820990508082526020820191507f30644e72e131a029b85045b68181585d2833e84879b9709143e1f593f0000001604061062001840151820990508082526020820191507f30644e72e131a029b85045b68181585d2833e84879b9709143e1f593f0000001606061062001840151820990508082526020820191507f30644e72e131a029b85045b68181585d2833e84879b9709143e1f593f00000016106a0840151820990508082526020820191507f30644e72e131a029b85045b68181585d2833e84879b9709143e1f593f000000160206106a001840151820990508082526020820191507f30644e72e131a029b85045b68181585d2833e84879b9709143e1f593f000000160406106a001840151820990508082526020820191507f30644e72e131a029b85045b68181585d2833e84879b9709143e1f593f000000160606106a001840151820990508082526020820191507f30644e72e131a029b85045b68181585d2833e84879b9709143e1f593f000000160806106a001840151820990508082526020820191507f30644e72e131a029b85045b68181585d2833e84879b9709143e1f593f000000160a06106a001840151820990508082526020820191507f30644e72e131a029b85045b68181585d2833e84879b9709143e1f593f0000001610760840151820990508082526102e4357f30644e72e131a029b85045b68181585d2833e84879b9709143e1f593f000000181830960011461051d576000805260206000f35b8091506020830392507f30644e72e131a029b85045b68181585d2833e84879b9709143e1f593f00000018351830990507f30644e72e131a029b85045b68181585d2833e84879b9709143e1f593f000000161076085015183099150806107608501526020830392507f30644e72e131a029b85045b68181585d2833e84879b9709143e1f593f00000018351830990507f30644e72e131a029b85045b68181585d2833e84879b9709143e1f593f000000160a06106a001850151830991508060a06106a0018501526020830392507f30644e72e131a029b85045b68181585d2833e84879b9709143e1f593f00000018351830990507f30644e72e131a029b85045b68181585d2833e84879b9709143e1f593f000000160806106a001850151830991508060806106a0018501526020830392507f30644e72e131a029b85045b68181585d2833e84879b9709143e1f593f00000018351830990507f30644e72e131a029b85045b68181585d2833e84879b9709143e1f593f000000160606106a001850151830991508060606106a0018501526020830392507f30644e72e131a029b85045b68181585d2833e84879b9709143e1f593f00000018351830990507f30644e72e131a029b85045b68181585d2833e84879b9709143e1f593f000000160406106a001850151830991508060406106a0018501526020830392507f30644e72e131a029b85045b68181585d2833e84879b9709143e1f593f00000018351830990507f30644e72e131a029b85045b68181585d2833e84879b9709143e1f593f000000160206106a001850151830991508060206106a0018501526020830392507f30644e72e131a029b85045b68181585d2833e84879b9709143e1f593f00000018351830990507f30644e72e131a029b85045b68181585d2833e84879b9709143e1f593f00000016106a085015183099150806106a08501526020830392507f30644e72e131a029b85045b68181585d2833e84879b9709143e1f593f00000018351830990507f30644e72e131a029b85045b68181585d2833e84879b9709143e1f593f000000160606106200185015183099150806060610620018501526020830392507f30644e72e131a029b85045b68181585d2833e84879b9709143e1f593f00000018351830990507f30644e72e131a029b85045b68181585d2833e84879b9709143e1f593f000000160406106200185015183099150806040610620018501526020830392507f30644e72e131a029b85045b68181585d2833e84879b9709143e1f593f00000018351830990507f30644e72e131a029b85045b68181585d2833e84879b9709143e1f593f000000160206106200185015183099150806020610620018501526020830392507f30644e72e131a029b85045b68181585d2833e84879b9709143e1f593f00000018351830990507f30644e72e131a029b85045b68181585d2833e84879b9709143e1f593f000000161062085015183099150806106208501526020830392507f30644e72e131a029b85045b68181585d2833e84879b9709143e1f593f00000018351830990507f30644e72e131a029b85045b68181585d2833e84879b9709143e1f593f000000160e061052001850151830991508060e0610520018501526020830392507f30644e72e131a029b85045b68181585d2833e84879b9709143e1f593f00000018351830990507f30644e72e131a029b85045b68181585d2833e84879b9709143e1f593f000000160c061052001850151830991508060c0610520018501526020830392507f30644e72e131a029b85045b68181585d2833e84879b9709143e1f593f00000018351830990507f30644e72e131a029b85045b68181585d2833e84879b9709143e1f593f000000160a061052001850151830991508060a0610520018501526020830392507f30644e72e131a029b85045b68181585d2833e84879b9709143e1f593f00000018351830990507f30644e72e131a029b85045b68181585d2833e84879b9709143e1f593f000000160806105200185015183099150806080610520018501526020830392507f30644e72e131a029b85045b68181585d2833e84879b9709143e1f593f00000018351830990507f30644e72e131a029b85045b68181585d2833e84879b9709143e1f593f000000160606105200185015183099150806060610520018501526020830392507f30644e72e131a029b85045b68181585d2833e84879b9709143e1f593f00000018351830990507f30644e72e131a029b85045b68181585d2833e84879b9709143e1f593f000000160406105200185015183099150806040610520018501526020830392507f30644e72e131a029b85045b68181585d2833e84879b9709143e1f593f00000018351830990507f30644e72e131a029b85045b68181585d2833e84879b9709143e1f593f000000160206105200185015183099150806020610520018501526020830392507f30644e72e131a029b85045b68181585d2833e84879b9709143e1f593f00000018351830990507f30644e72e131a029b85045b68181585d2833e84879b9709143e1f593f000000161052085015183099150806105208501526020830392507f30644e72e131a029b85045b68181585d2833e84879b9709143e1f593f00000018351830990507f30644e72e131a029b85045b68181585d2833e84879b9709143e1f593f000000161050085015183099150806105008501526020830392507f30644e72e131a029b85045b68181585d2833e84879b9709143e1f593f00000018351830990507f30644e72e131a029b85045b68181585d2833e84879b9709143e1f593f00000016104e085015183099150806104e0850152816104c085015250505050565b7f30644e72e131a029b85045b68181585d2833e84879b9709143e1f593f00000018110610d83576000805260206000f35b50565b803560208201357f30644e72e131a029b85045b68181585d97816a916871ca8d3c208c16d87cfd4760037f30644e72e131a029b85045b68181585d97816a916871ca8d3c208c16d87cfd47808586098509087f30644e72e131a029b85045b68181585d97816a916871ca8d3c208c16d87cfd47828309808214610e0d576000805260206000f35b5050505050565b610e1e6004610d86565b610e286044610d86565b610e326084610d86565b610e3c60c4610d86565b610e4861010435610d52565b610e5461012435610d52565b610e6061014435610d52565b610e6c61016435610d52565b610e7861018435610d52565b610e846101a435610d52565b610e906101c435610d52565b610e9c6101e435610d52565b610ea861020435610d52565b610eb461022435610d52565b610ec061024435610d52565b610ecc61026435610d52565b610ed861028435610d52565b610ee46102a435610d52565b610ef06102c435610d52565b610efc6102e435610d52565b565b7f16d70f6937b88ea2890451712281f2073db9ac923d49d38d833cbbcbc2b281c86107808201527f1f7e1d70965392e542392cab2e10e88c03912b89107ae96c3a6b13f31f3a4cd06107a082015281356107c08201526004356107e08201526020600401356108008201527f30644e72e131a029b85045b68181585d2833e84879b9709143e1f593f000000160a06107808301200660208201527f30644e72e131a029b85045b68181585d2833e84879b9709143e1f593f000000160208083012006604082015260408101516107808201526044356107a08201526020604401356107c08201527f30644e72e131a029b85045b68181585d2833e84879b9709143e1f593f00000016060610780830120068060808301527f30644e72e131a029b85045b68181585d2833e84879b9709143e1f593f000000181820960a08301527f30644e72e131a029b85045b68181585d2833e84879b9709143e1f593f0000001608083015160a08401510960e08301527f30644e72e131a029b85045b68181585d2833e84879b9709143e1f593f00000017f2b337de1c8c14f22ec9b9e2f96afef3652627366f8170a0a948dad4ac1bd5e8060e0840151096101008301527f30644e72e131a029b85045b68181585d2833e84879b9709143e1f593f00000017f30644e72e131a029048b6e193fd841045cea24f6fd736bec231204708f70363660e0840151096101208301527f30644e72e131a029b85045b68181585d2833e84879b9709143e1f593f00000017f1d59376149b959ccbd157ac850893a6f07c2d99b3852513ab8d01be8e846a56660e0840151096101408301527f30644e72e131a029b85045b68181585d2833e84879b9709143e1f593f00000017f30644e72e131a029b85045b68181585d2833e84879b9709143e1f593f000000060e0840151096101608301527f30644e72e131a029b85045b68181585d2833e84879b9709143e1f593f00000017f0530d09118705106cbb4a786ead16926d5d174e181a26686af5448492e42a18160e0840151096101808301527f30644e72e131a029b85045b68181585d2833e84879b9709143e1f593f000000177b3c4d79d41a91758cb49c3517c4604a520cff123608fc9cb60e0840151096101a08301527f30644e72e131a029b85045b68181585d2833e84879b9709143e1f593f00000017f130b17119778465cfb3acaee30f81dee20710ead41671f568b11d9ab07b95a9b60e0840151096101c08301527f30644e72e131a029b85045b68181585d2833e84879b9709143e1f593f000000160e083015160e0840151096101e08301527f30644e72e131a029b85045b68181585d2833e84879b9709143e1f593f00000017f30644e72e131a029048b6e193fd841045cea24f6fd736bec231204708f7036366101e0840151096102008301527f30644e72e131a029b85045b68181585d2833e84879b9709143e1f593f00000017f30644e72e131a029b85045b68181585d2833e84879b9709143e1f593f00000006101e0840151096102208301527f30644e72e131a029b85045b68181585d2833e84879b9709143e1f593f000000177b3c4d79d41a91758cb49c3517c4604a520cff123608fc9cb6101e0840151096102408301527f30644e72e131a029b85045b68181585d2833e84879b9709143e1f593f000000160a08301516101e0840151096102608301527f30644e72e131a029b85045b68181585d2833e84879b9709143e1f593f00000017f30644e72e131a029048b6e193fd84104cc37a73fec2bc5e9b8ca0b2d36636f23610260840151096102808301527f30644e72e131a029b85045b68181585d2833e84879b9709143e1f593f000000177b3c4d79d41a917585bfc41088d8daaa78b17ea66b99c90dd610260840151096102a08301527f30644e72e131a029b85045b68181585d2833e84879b9709143e1f593f00000017f283ce45a2e5b8e4e78f9fbaf5f6a348bfcfaf76dd28e5ca7121b74ef68fdec2e610260840151096102c08301527f30644e72e131a029b85045b68181585d2833e84879b9709143e1f593f00000017f30644e72e131a029048b6e193fd84104cc37a73fec2bc5e9b8ca0b2d36636f236102c0840151096102e08301527f30644e72e131a029b85045b68181585d2833e84879b9709143e1f593f000000177b3c4d79d41a917585bfc41088d8daaa78b17ea66b99c90dd6102c0840151096103008301527f30644e72e131a029b85045b68181585d2833e84879b9709143e1f593f00000016102608301517f30644e72e131a029b85045b68181585d2833e84879b9709143e1f593f000000161026085015161026086015109098060c08401527f30644e72e131a029b85045b68181585d2833e84879b9709143e1f593f000000181820990507f30644e72e131a029b85045b68181585d2833e84879b9709143e1f593f000000181820990507f30644e72e131a029b85045b68181585d2833e84879b9709143e1f593f000000181820990507f30644e72e131a029b85045b68181585d2833e84879b9709143e1f593f000000181820990507f30644e72e131a029b85045b68181585d2833e84879b9709143e1f593f000000181820990507f30644e72e131a029b85045b68181585d2833e84879b9709143e1f593f000000181820990507f30644e72e131a029b85045b68181585d2833e84879b9709143e1f593f000000181820990507f30644e72e131a029b85045b68181585d2833e84879b9709143e1f593f000000181820990507f30644e72e131a029b85045b68181585d2833e84879b9709143e1f593f000000181820990507f30644e72e131a029b85045b68181585d2833e84879b9709143e1f593f000000181820990507f30644e72e131a029b85045b68181585d2833e84879b9709143e1f593f000000181820990507f30644e72e131a029b85045b68181585d2833e84879b9709143e1f593f000000181820990507f30644e72e131a029b85045b68181585d2833e84879b9709143e1f593f000000181820990507f30644e72e131a029b85045b68181585d2833e84879b9709143e1f593f000000181820990507f30644e72e131a029b85045b68181585d2833e84879b9709143e1f593f000000181820990507f30644e72e131a029b85045b68181585d2833e84879b9709143e1f593f000000181820990507f30644e72e131a029b85045b68181585d2833e84879b9709143e1f593f000000181820990507f30644e72e131a029b85045b68181585d2833e84879b9709143e1f593f000000181820990507f30644e72e131a029b85045b68181585d2833e84879b9709143e1f593f000000181820990507f30644e72e131a029b85045b68181585d2833e84879b9709143e1f593f000000181820990507f30644e72e131a029b85045b68181585d2833e84879b9709143e1f593f000000181820990507f30644e72e131a029b85045b68181585d2833e84879b9709143e1f593f000000181820990507f30644e72e131a029b85045b68181585d2833e84879b9709143e1f593f000000181820990507f30644e72e131a029b85045b68181585d2833e84879b9709143e1f593f000000181820990507f30644e72e131a029b85045b68181585d2833e84879b9709143e1f593f0000001806001830301069050806104a0840152806104c0840152816107808401526101e06101046107a08501377f30644e72e131a029b85045b68181585d2833e84879b9709143e1f593f000000161020061078085012006600084015260008301516107808401526084356107a08401526020608401356107c08401527f30644e72e131a029b85045b68181585d2833e84879b9709143e1f593f0000001606061078085012006606084015250505050565b60e0810151606082015160017f30644e72e131a029b85045b68181585d2833e84879b9709143e1f593f000000183820990507f30644e72e131a029b85045b68181585d2833e84879b9709143e1f593f000000183820990507f30644e72e131a029b85045b68181585d2833e84879b9709143e1f593f000000183820990507f30644e72e131a029b85045b68181585d2833e84879b9709143e1f593f000000183820990507f30644e72e131a029b85045b68181585d2833e84879b9709143e1f593f000000183820990507f30644e72e131a029b85045b68181585d2833e84879b9709143e1f593f000000183820990507f30644e72e131a029b85045b68181585d2833e84879b9709143e1f593f0000001816008099050602060086000600702060260e0018401517f30644e72e131a029b85045b68181585d2833e84879b9709143e1f593f000000180602060000260e0018701517f30644e72e131a029b85045b68181585d2833e84879b9709143e1f593f0000001030684087f30644e72e131a029b85045b68181585d2833e84879b9709143e1f593f0000001808284098409600061052001870152602060086001600702060260e00186015191507f30644e72e131a029b85045b68181585d2833e84879b9709143e1f593f000000180602060010260e0018801517f30644e72e131a029b85045b68181585d2833e84879b9709143e1f593f00000010306850890507f30644e72e131a029b85045b68181585d2833e84879b9709143e1f593f0000001808284098409602061052001870152602060086002600702060260e00186015191507f30644e72e131a029b85045b68181585d2833e84879b9709143e1f593f000000180602060020260e0018801517f30644e72e131a029b85045b68181585d2833e84879b9709143e1f593f00000010306850890507f30644e72e131a029b85045b68181585d2833e84879b9709143e1f593f0000001808284098409604061052001870152602060086003600702060260e00186015191507f30644e72e131a029b85045b68181585d2833e84879b9709143e1f593f000000180602060030260e0018801517f30644e72e131a029b85045b68181585d2833e84879b9709143e1f593f00000010306850890507f30644e72e131a029b85045b68181585d2833e84879b9709143e1f593f0000001808284098409606061052001870152602060086004600702060260e00186015191507f30644e72e131a029b85045b68181585d2833e84879b9709143e1f593f000000180602060040260e0018801517f30644e72e131a029b85045b68181585d2833e84879b9709143e1f593f00000010306850890507f30644e72e131a029b85045b68181585d2833e84879b9709143e1f593f0000001808284098409608061052001870152602060086005600702060260e00186015191507f30644e72e131a029b85045b68181585d2833e84879b9709143e1f593f000000180602060050260e0018801517f30644e72e131a029b85045b68181585d2833e84879b9709143e1f593f00000010306850890507f30644e72e131a029b85045b68181585d2833e84879b9709143e1f593f000000180828409840960a061052001870152602060086006600702060260e00186015191507f30644e72e131a029b85045b68181585d2833e84879b9709143e1f593f000000180602060060260e0018801517f30644e72e131a029b85045b68181585d2833e84879b9709143e1f593f00000010306850890507f30644e72e131a029b85045b68181585d2833e84879b9709143e1f593f000000180828409840960c0610520018701526020600860078002060260e00186015191507f30644e72e131a029b85045b68181585d2833e84879b9709143e1f593f000000180602060070260e0018801517f30644e72e131a029b85045b68181585d2833e84879b9709143e1f593f00000010306850890507f30644e72e131a029b85045b68181585d2833e84879b9709143e1f593f000000180828409840960e061052001870152505050505050565b6101e0810151606082015160017f30644e72e131a029b85045b68181585d2833e84879b9709143e1f593f000000183820990507f30644e72e131a029b85045b68181585d2833e84879b9709143e1f593f000000183820990507f30644e72e131a029b85045b68181585d2833e84879b9709143e1f593f000000181600409905060206004600060030206026101e0018401517f30644e72e131a029b85045b68181585d2833e84879b9709143e1f593f00000018060206000026101e0018701517f30644e72e131a029b85045b68181585d2833e84879b9709143e1f593f0000001030684087f30644e72e131a029b85045b68181585d2833e84879b9709143e1f593f000000180828409840960006106200187015260206004600160030206026101e00186015191507f30644e72e131a029b85045b68181585d2833e84879b9709143e1f593f00000018060206001026101e0018801517f30644e72e131a029b85045b68181585d2833e84879b9709143e1f593f00000010306850890507f30644e72e131a029b85045b68181585d2833e84879b9709143e1f593f000000180828409840960206106200187015260206004600260030206026101e00186015191507f30644e72e131a029b85045b68181585d2833e84879b9709143e1f593f00000018060206002026101e0018801517f30644e72e131a029b85045b68181585d2833e84879b9709143e1f593f00000010306850890507f30644e72e131a029b85045b68181585d2833e84879b9709143e1f593f0000001808284098409604061062001870152602060046003800206026101e00186015191507f30644e72e131a029b85045b68181585d2833e84879b9709143e1f593f00000018060206003026101e0018801517f30644e72e131a029b85045b68181585d2833e84879b9709143e1f593f00000010306850890507f30644e72e131a029b85045b68181585d2833e84879b9709143e1f593f0000001808284098409606061062001870152505050505050565b60608101517f30644e72e131a029b85045b68181585d2833e84879b9709143e1f593f0000001807f30644e72e131a029b85045b68181585d2833e84879b9709143e1f593f0000001807f0c9fabc7845d50d2852e2a0371c6441f145e0db82e8326961c25f1e3e32b045b60c0870151097f30644e72e131a029b85045b68181585d2833e84879b9709143e1f593f0000001030660c0850151087f30644e72e131a029b85045b68181585d2833e84879b9709143e1f593f0000001610260850151600309096020600360006002020602610260018301517f30644e72e131a029b85045b68181585d2833e84879b9709143e1f593f0000001806020600002610260018601517f30644e72e131a029b85045b68181585d2833e84879b9709143e1f593f0000001030684087f30644e72e131a029b85045b68181585d2833e84879b9709143e1f593f000000180828409840960006106a00186015260206003600160020206026102600185015191507f30644e72e131a029b85045b68181585d2833e84879b9709143e1f593f0000001806020600102610260018701517f30644e72e131a029b85045b68181585d2833e84879b9709143e1f593f00000010306850890507f30644e72e131a029b85045b68181585d2833e84879b9709143e1f593f000000180828409840960206106a001860152602060036002800206026102600185015191507f30644e72e131a029b85045b68181585d2833e84879b9709143e1f593f0000001806020600202610260018701517f30644e72e131a029b85045b68181585d2833e84879b9709143e1f593f00000010306850890507f30644e72e131a029b85045b68181585d2833e84879b9709143e1f593f000000180828409840960406106a0018601527f30644e72e131a029b85045b68181585d2833e84879b9709143e1f593f0000001807f30644e72e131a029b85045b68181585d2833e84879b9709143e1f593f000000160c08801517f30644e72e131a029b85045b68181585d2833e84879b9709143e1f593f000000103067f30644e72e131a029b85045b68181585d2833e84879b9709143e1f593f00000017f0c9fabc7845d50d2852e2a0371c6441f145e0db82e8326961c25f1e3e32b045b60c08a015109087f30644e72e131a029b85045b68181585d2833e84879b9709143e1f593f00000016102c088015160030909925060206003600060020206026102c00185015191507f30644e72e131a029b85045b68181585d2833e84879b9709143e1f593f00000018060206000026102c0018701517f30644e72e131a029b85045b68181585d2833e84879b9709143e1f593f00000010306850890507f30644e72e131a029b85045b68181585d2833e84879b9709143e1f593f000000180828409840960606106a00186015260206003600160020206026102c00185015191507f30644e72e131a029b85045b68181585d2833e84879b9709143e1f593f00000018060206001026102c0018701517f30644e72e131a029b85045b68181585d2833e84879b9709143e1f593f00000010306850890507f30644e72e131a029b85045b68181585d2833e84879b9709143e1f593f000000180828409840960806106a001860152602060036002800206026102c00185015191507f30644e72e131a029b85045b68181585d2833e84879b9709143e1f593f00000018060206002026102c0018701517f30644e72e131a029b85045b68181585d2833e84879b9709143e1f593f00000010306850890507f30644e72e131a029b85045b68181585d2833e84879b9709143e1f593f000000180828409840960a06106a0018601525050505050565b60608101517f30644e72e131a029b85045b68181585d2833e84879b9709143e1f593f0000001806101e08401517f30644e72e131a029b85045b68181585d2833e84879b9709143e1f593f0000001030682087f30644e72e131a029b85045b68181585d2833e84879b9709143e1f593f0000001807f30644e72e131a029b85045b68181585d2833e84879b9709143e1f593f00000016102008601517f30644e72e131a029b85045b68181585d2833e84879b9709143e1f593f000000103068408820990507f30644e72e131a029b85045b68181585d2833e84879b9709143e1f593f0000001807f30644e72e131a029b85045b68181585d2833e84879b9709143e1f593f00000016102208601517f30644e72e131a029b85045b68181585d2833e84879b9709143e1f593f000000103068408820990507f30644e72e131a029b85045b68181585d2833e84879b9709143e1f593f0000001807f30644e72e131a029b85045b68181585d2833e84879b9709143e1f593f00000016102408601517f30644e72e131a029b85045b68181585d2833e84879b9709143e1f593f00000010306840882099050806104e08401527f30644e72e131a029b85045b68181585d2833e84879b9709143e1f593f0000001806102608501517f30644e72e131a029b85045b68181585d2833e84879b9709143e1f593f00000010306830890507f30644e72e131a029b85045b68181585d2833e84879b9709143e1f593f0000001807f30644e72e131a029b85045b68181585d2833e84879b9709143e1f593f00000016102808601517f30644e72e131a029b85045b68181585d2833e84879b9709143e1f593f000000103068408820990507f30644e72e131a029b85045b68181585d2833e84879b9709143e1f593f0000001807f30644e72e131a029b85045b68181585d2833e84879b9709143e1f593f00000016102a08601517f30644e72e131a029b85045b68181585d2833e84879b9709143e1f593f000000103068408820990507f30644e72e131a029b85045b68181585d2833e84879b9709143e1f593f0000001807f30644e72e131a029b85045b68181585d2833e84879b9709143e1f593f00000016102c08601517f30644e72e131a029b85045b68181585d2833e84879b9709143e1f593f000000103068408820990507f30644e72e131a029b85045b68181585d2833e84879b9709143e1f593f0000001807f30644e72e131a029b85045b68181585d2833e84879b9709143e1f593f00000016102e08601517f30644e72e131a029b85045b68181585d2833e84879b9709143e1f593f000000103068408820990507f30644e72e131a029b85045b68181585d2833e84879b9709143e1f593f0000001807f30644e72e131a029b85045b68181585d2833e84879b9709143e1f593f00000016103008601517f30644e72e131a029b85045b68181585d2833e84879b9709143e1f593f0000001030684088209905080610500840152612c4783611a0a565b612c5083611fdc565b612c59836122c3565b6001905060c08301517f30644e72e131a029b85045b68181585d2833e84879b9709143e1f593f0000001807f30644e72e131a029b85045b68181585d2833e84879b9709143e1f593f00000018484030106630100000009610760850152612cbf84610067565b50505050565b6104a081015160017f30644e72e131a029b85045b68181585d2833e84879b9709143e1f593f00000018261076085015109610760840152505050565b60007f30644e72e131a029b85045b68181585d2833e84879b9709143e1f593f0000001807f30644e72e131a029b85045b68181585d2833e84879b9709143e1f593f000000185356107608601510983030106905080610320830152505050565b600160608201517f30644e72e131a029b85045b68181585d2833e84879b9709143e1f593f000000181830991507f30644e72e131a029b85045b68181585d2833e84879b9709143e1f593f000000181830991507f30644e72e131a029b85045b68181585d2833e84879b9709143e1f593f000000181830991507f30644e72e131a029b85045b68181585d2833e84879b9709143e1f593f000000181830991507f30644e72e131a029b85045b68181585d2833e84879b9709143e1f593f000000181830991507f30644e72e131a029b85045b68181585d2833e84879b9709143e1f593f000000181830991507f30644e72e131a029b85045b68181585d2833e84879b9709143e1f593f000000181830991507f30644e72e131a029b85045b68181585d2833e84879b9709143e1f593f000000181830991507f30644e72e131a029b85045b68181585d2833e84879b9709143e1f593f00000018060c08501517f30644e72e131a029b85045b68181585d2833e84879b9709143e1f593f000000103068308915060008060008060e087015192507f30644e72e131a029b85045b68181585d2833e84879b9709143e1f593f000000180846101243509610104350891507f30644e72e131a029b85045b68181585d2833e84879b9709143e1f593f000000183840990507f30644e72e131a029b85045b68181585d2833e84879b9709143e1f593f000000180826101643509830891507f30644e72e131a029b85045b68181585d2833e84879b9709143e1f593f000000183820990507f30644e72e131a029b85045b68181585d2833e84879b9709143e1f593f000000180826101443509830891507f30644e72e131a029b85045b68181585d2833e84879b9709143e1f593f000000183820990507f30644e72e131a029b85045b68181585d2833e84879b9709143e1f593f000000180826101843509830891507f30644e72e131a029b85045b68181585d2833e84879b9709143e1f593f000000183820990507f30644e72e131a029b85045b68181585d2833e84879b9709143e1f593f000000180826101a43509830891507f30644e72e131a029b85045b68181585d2833e84879b9709143e1f593f000000183820990507f30644e72e131a029b85045b68181585d2833e84879b9709143e1f593f000000180826101c43509830891507f30644e72e131a029b85045b68181585d2833e84879b9709143e1f593f000000183820990507f30644e72e131a029b85045b68181585d2833e84879b9709143e1f593f000000180826101e43509830891507f30644e72e131a029b85045b68181585d2833e84879b9709143e1f593f0000001807f30644e72e131a029b85045b68181585d2833e84879b9709143e1f593f00000016000610520018a0151890984098508935061010087015192507f30644e72e131a029b85045b68181585d2833e84879b9709143e1f593f000000180846101243509610104350891507f30644e72e131a029b85045b68181585d2833e84879b9709143e1f593f000000183840990507f30644e72e131a029b85045b68181585d2833e84879b9709143e1f593f000000180826101643509830891507f30644e72e131a029b85045b68181585d2833e84879b9709143e1f593f000000183820990507f30644e72e131a029b85045b68181585d2833e84879b9709143e1f593f000000180826101443509830891507f30644e72e131a029b85045b68181585d2833e84879b9709143e1f593f000000183820990507f30644e72e131a029b85045b68181585d2833e84879b9709143e1f593f000000180826101843509830891507f30644e72e131a029b85045b68181585d2833e84879b9709143e1f593f000000183820990507f30644e72e131a029b85045b68181585d2833e84879b9709143e1f593f000000180826101a43509830891507f30644e72e131a029b85045b68181585d2833e84879b9709143e1f593f000000183820990507f30644e72e131a029b85045b68181585d2833e84879b9709143e1f593f000000180826101c43509830891507f30644e72e131a029b85045b68181585d2833e84879b9709143e1f593f000000183820990507f30644e72e131a029b85045b68181585d2833e84879b9709143e1f593f000000180826101e43509830891507f30644e72e131a029b85045b68181585d2833e84879b9709143e1f593f0000001807f30644e72e131a029b85045b68181585d2833e84879b9709143e1f593f00000016020610520018a0151890984098508935061012087015192507f30644e72e131a029b85045b68181585d2833e84879b9709143e1f593f000000180846101243509610104350891507f30644e72e131a029b85045b68181585d2833e84879b9709143e1f593f000000183840990507f30644e72e131a029b85045b68181585d2833e84879b9709143e1f593f000000180826101643509830891507f30644e72e131a029b85045b68181585d2833e84879b9709143e1f593f000000183820990507f30644e72e131a029b85045b68181585d2833e84879b9709143e1f593f000000180826101443509830891507f30644e72e131a029b85045b68181585d2833e84879b9709143e1f593f000000183820990507f30644e72e131a029b85045b68181585d2833e84879b9709143e1f593f000000180826101843509830891507f30644e72e131a029b85045b68181585d2833e84879b9709143e1f593f000000183820990507f30644e72e131a029b85045b68181585d2833e84879b9709143e1f593f000000180826101a43509830891507f30644e72e131a029b85045b68181585d2833e84879b9709143e1f593f000000183820990507f30644e72e131a029b85045b68181585d2833e84879b9709143e1f593f000000180826101c43509830891507f30644e72e131a029b85045b68181585d2833e84879b9709143e1f593f000000183820990507f30644e72e131a029b85045b68181585d2833e84879b9709143e1f593f000000180826101e43509830891507f30644e72e131a029b85045b68181585d2833e84879b9709143e1f593f0000001807f30644e72e131a029b85045b68181585d2833e84879b9709143e1f593f00000016040610520018a0151890984098508935061014087015192507f30644e72e131a029b85045b68181585d2833e84879b9709143e1f593f000000180846101243509610104350891507f30644e72e131a029b85045b68181585d2833e84879b9709143e1f593f000000183840990507f30644e72e131a029b85045b68181585d2833e84879b9709143e1f593f000000180826101643509830891507f30644e72e131a029b85045b68181585d2833e84879b9709143e1f593f000000183820990507f30644e72e131a029b85045b68181585d2833e84879b9709143e1f593f000000180826101443509830891507f30644e72e131a029b85045b68181585d2833e84879b9709143e1f593f000000183820990507f30644e72e131a029b85045b68181585d2833e84879b9709143e1f593f000000180826101843509830891507f30644e72e131a029b85045b68181585d2833e84879b9709143e1f593f000000183820990507f30644e72e131a029b85045b68181585d2833e84879b9709143e1f593f000000180826101a43509830891507f30644e72e131a029b85045b68181585d2833e84879b9709143e1f593f000000183820990507f30644e72e131a029b85045b68181585d2833e84879b9709143e1f593f000000180826101c43509830891507f30644e72e131a029b85045b68181585d2833e84879b9709143e1f593f000000183820990507f30644e72e131a029b85045b68181585d2833e84879b9709143e1f593f000000180826101e43509830891507f30644e72e131a029b85045b68181585d2833e84879b9709143e1f593f0000001807f30644e72e131a029b85045b68181585d2833e84879b9709143e1f593f00000016060610520018a0151890984098508935061016087015192507f30644e72e131a029b85045b68181585d2833e84879b9709143e1f593f000000180846101243509610104350891507f30644e72e131a029b85045b68181585d2833e84879b9709143e1f593f000000183840990507f30644e72e131a029b85045b68181585d2833e84879b9709143e1f593f000000180826101643509830891507f30644e72e131a029b85045b68181585d2833e84879b9709143e1f593f000000183820990507f30644e72e131a029b85045b68181585d2833e84879b9709143e1f593f000000180826101443509830891507f30644e72e131a029b85045b68181585d2833e84879b9709143e1f593f000000183820990507f30644e72e131a029b85045b68181585d2833e84879b9709143e1f593f000000180826101843509830891507f30644e72e131a029b85045b68181585d2833e84879b9709143e1f593f000000183820990507f30644e72e131a029b85045b68181585d2833e84879b9709143e1f593f000000180826101a43509830891507f30644e72e131a029b85045b68181585d2833e84879b9709143e1f593f000000183820990507f30644e72e131a029b85045b68181585d2833e84879b9709143e1f593f000000180826101c43509830891507f30644e72e131a029b85045b68181585d2833e84879b9709143e1f593f000000183820990507f30644e72e131a029b85045b68181585d2833e84879b9709143e1f593f000000180826101e43509830891507f30644e72e131a029b85045b68181585d2833e84879b9709143e1f593f0000001807f30644e72e131a029b85045b68181585d2833e84879b9709143e1f593f00000016080610520018a0151890984098508935061018087015192507f30644e72e131a029b85045b68181585d2833e84879b9709143e1f593f000000180846101243509610104350891507f30644e72e131a029b85045b68181585d2833e84879b9709143e1f593f000000183840990507f30644e72e131a029b85045b68181585d2833e84879b9709143e1f593f000000180826101643509830891507f30644e72e131a029b85045b68181585d2833e84879b9709143e1f593f000000183820990507f30644e72e131a029b85045b68181585d2833e84879b9709143e1f593f000000180826101443509830891507f30644e72e131a029b85045b68181585d2833e84879b9709143e1f593f000000183820990507f30644e72e131a029b85045b68181585d2833e84879b9709143e1f593f000000180826101843509830891507f30644e72e131a029b85045b68181585d2833e84879b9709143e1f593f000000183820990507f30644e72e131a029b85045b68181585d2833e84879b9709143e1f593f000000180826101a43509830891507f30644e72e131a029b85045b68181585d2833e84879b9709143e1f593f000000183820990507f30644e72e131a029b85045b68181585d2833e84879b9709143e1f593f000000180826101c43509830891507f30644e72e131a029b85045b68181585d2833e84879b9709143e1f593f000000183820990507f30644e72e131a029b85045b68181585d2833e84879b9709143e1f593f000000180826101e43509830891507f30644e72e131a029b85045b68181585d2833e84879b9709143e1f593f0000001807f30644e72e131a029b85045b68181585d2833e84879b9709143e1f593f000000160a0610520018a015189098409850893506101a087015192507f30644e72e131a029b85045b68181585d2833e84879b9709143e1f593f000000180846101243509610104350891507f30644e72e131a029b85045b68181585d2833e84879b9709143e1f593f000000183840990507f30644e72e131a029b85045b68181585d2833e84879b9709143e1f593f000000180826101643509830891507f30644e72e131a029b85045b68181585d2833e84879b9709143e1f593f000000183820990507f30644e72e131a029b85045b68181585d2833e84879b9709143e1f593f000000180826101443509830891507f30644e72e131a029b85045b68181585d2833e84879b9709143e1f593f000000183820990507f30644e72e131a029b85045b68181585d2833e84879b9709143e1f593f000000180826101843509830891507f30644e72e131a029b85045b68181585d2833e84879b9709143e1f593f000000183820990507f30644e72e131a029b85045b68181585d2833e84879b9709143e1f593f000000180826101a43509830891507f30644e72e131a029b85045b68181585d2833e84879b9709143e1f593f000000183820990507f30644e72e131a029b85045b68181585d2833e84879b9709143e1f593f000000180826101c43509830891507f30644e72e131a029b85045b68181585d2833e84879b9709143e1f593f000000183820990507f30644e72e131a029b85045b68181585d2833e84879b9709143e1f593f000000180826101e43509830891507f30644e72e131a029b85045b68181585d2833e84879b9709143e1f593f0000001807f30644e72e131a029b85045b68181585d2833e84879b9709143e1f593f000000160c0610520018a015189098409850893506101c087015192507f30644e72e131a029b85045b68181585d2833e84879b9709143e1f593f000000180846101243509610104350891507f30644e72e131a029b85045b68181585d2833e84879b9709143e1f593f000000183840990507f30644e72e131a029b85045b68181585d2833e84879b9709143e1f593f000000180826101643509830891507f30644e72e131a029b85045b68181585d2833e84879b9709143e1f593f000000183820990507f30644e72e131a029b85045b68181585d2833e84879b9709143e1f593f000000180826101443509830891507f30644e72e131a029b85045b68181585d2833e84879b9709143e1f593f000000183820990507f30644e72e131a029b85045b68181585d2833e84879b9709143e1f593f000000180826101843509830891507f30644e72e131a029b85045b68181585d2833e84879b9709143e1f593f000000183820990507f30644e72e131a029b85045b68181585d2833e84879b9709143e1f593f000000180826101a43509830891507f30644e72e131a029b85045b68181585d2833e84879b9709143e1f593f000000183820990507f30644e72e131a029b85045b68181585d2833e84879b9709143e1f593f000000180826101c43509830891507f30644e72e131a029b85045b68181585d2833e84879b9709143e1f593f000000183820990507f30644e72e131a029b85045b68181585d2833e84879b9709143e1f593f000000180826101e43509830891507f30644e72e131a029b85045b68181585d2833e84879b9709143e1f593f0000001807f30644e72e131a029b85045b68181585d2833e84879b9709143e1f593f000000160e0610520018a015189098409850893508361034088015250505050505050565b600160608201517f30644e72e131a029b85045b68181585d2833e84879b9709143e1f593f000000181830991507f30644e72e131a029b85045b68181585d2833e84879b9709143e1f593f000000181830991507f30644e72e131a029b85045b68181585d2833e84879b9709143e1f593f000000181830991507f30644e72e131a029b85045b68181585d2833e84879b9709143e1f593f000000181830991507f30644e72e131a029b85045b68181585d2833e84879b9709143e1f593f00000018060c08501517f30644e72e131a029b85045b68181585d2833e84879b9709143e1f593f000000103068308915060006102043561022435610244357f30644e72e131a029b85045b68181585d2833e84879b9709143e1f593f000000183610104350993507f30644e72e131a029b85045b68181585d2833e84879b9709143e1f593f000000180836101243509850893507f30644e72e131a029b85045b68181585d2833e84879b9709143e1f593f0000001807f30644e72e131a029b85045b68181585d2833e84879b9709143e1f593f00000018486096101443509850893507f30644e72e131a029b85045b68181585d2833e84879b9709143e1f593f000000180826101643509850893507f30644e72e131a029b85045b68181585d2833e84879b9709143e1f593f000000161018435850893507f30644e72e131a029b85045b68181585d2833e84879b9709143e1f593f0000001610320880151850893507f30644e72e131a029b85045b68181585d2833e84879b9709143e1f593f00000016104c0880151850993506000806000808692506101e08b015191507f30644e72e131a029b85045b68181585d2833e84879b9709143e1f593f000000180878409840892507f30644e72e131a029b85045b68181585d2833e84879b9709143e1f593f000000182830990507f30644e72e131a029b85045b68181585d2833e84879b9709143e1f593f000000180868309840892507f30644e72e131a029b85045b68181585d2833e84879b9709143e1f593f000000180897f30644e72e131a029b85045b68181585d2833e84879b9709143e1f593f000000185850909840892507f30644e72e131a029b85045b68181585d2833e84879b9709143e1f593f0000001807f30644e72e131a029b85045b68181585d2833e84879b9709143e1f593f00000016020600002610620018e01518d098509850893508692506102008b015191507f30644e72e131a029b85045b68181585d2833e84879b9709143e1f593f000000180878409840892507f30644e72e131a029b85045b68181585d2833e84879b9709143e1f593f000000182830990507f30644e72e131a029b85045b68181585d2833e84879b9709143e1f593f000000180868309840892507f30644e72e131a029b85045b68181585d2833e84879b9709143e1f593f000000180897f30644e72e131a029b85045b68181585d2833e84879b9709143e1f593f000000185850909840892507f30644e72e131a029b85045b68181585d2833e84879b9709143e1f593f0000001807f30644e72e131a029b85045b68181585d2833e84879b9709143e1f593f00000016020600102610620018e01518d098509850893508692506102208b015191507f30644e72e131a029b85045b68181585d2833e84879b9709143e1f593f000000180878409840892507f30644e72e131a029b85045b68181585d2833e84879b9709143e1f593f000000182830990507f30644e72e131a029b85045b68181585d2833e84879b9709143e1f593f000000180868309840892507f30644e72e131a029b85045b68181585d2833e84879b9709143e1f593f000000180897f30644e72e131a029b85045b68181585d2833e84879b9709143e1f593f000000185850909840892507f30644e72e131a029b85045b68181585d2833e84879b9709143e1f593f0000001807f30644e72e131a029b85045b68181585d2833e84879b9709143e1f593f00000016020600202610620018e01518d098509850893508692506102408b015191507f30644e72e131a029b85045b68181585d2833e84879b9709143e1f593f000000180878409840892507f30644e72e131a029b85045b68181585d2833e84879b9709143e1f593f000000182830990507f30644e72e131a029b85045b68181585d2833e84879b9709143e1f593f000000180868309840892507f30644e72e131a029b85045b68181585d2833e84879b9709143e1f593f000000180897f30644e72e131a029b85045b68181585d2833e84879b9709143e1f593f000000185850909840892507f30644e72e131a029b85045b68181585d2833e84879b9709143e1f593f0000001807f30644e72e131a029b85045b68181585d2833e84879b9709143e1f593f00000016020600302610620018e01518d09850985089350836103608c01525050505050505050505050565b606081015160017f30644e72e131a029b85045b68181585d2833e84879b9709143e1f593f000000181830990507f30644e72e131a029b85045b68181585d2833e84879b9709143e1f593f000000181830990507f30644e72e131a029b85045b68181585d2833e84879b9709143e1f593f000000181830990507f30644e72e131a029b85045b68181585d2833e84879b9709143e1f593f000000181830990507f30644e72e131a029b85045b68181585d2833e84879b9709143e1f593f000000181830990507f30644e72e131a029b85045b68181585d2833e84879b9709143e1f593f0000001818309905060017f30644e72e131a029b85045b68181585d2833e84879b9709143e1f593f000000181840990507f30644e72e131a029b85045b68181585d2833e84879b9709143e1f593f000000181840990507f30644e72e131a029b85045b68181585d2833e84879b9709143e1f593f000000181840990507f30644e72e131a029b85045b68181585d2833e84879b9709143e1f593f00000018060c08601517f30644e72e131a029b85045b68181585d2833e84879b9709143e1f593f00000017f0c9fabc7845d50d2852e2a0371c6441f145e0db82e8326961c25f1e3e32b045b60c08901510908820990507f30644e72e131a029b85045b68181585d2833e84879b9709143e1f593f000000180827f30644e72e131a029b85045b68181585d2833e84879b9709143e1f593f00000010306830891507f30644e72e131a029b85045b68181585d2833e84879b9709143e1f593f000000160c08501517f30644e72e131a029b85045b68181585d2833e84879b9709143e1f593f00000017f0c9fabc7845d50d2852e2a0371c6441f145e0db82e8326961c25f1e3e32b045b60c0880151090990507f30644e72e131a029b85045b68181585d2833e84879b9709143e1f593f000000181830891506000807f30644e72e131a029b85045b68181585d2833e84879b9709143e1f593f000000160c087015160208801510960408701517f30644e72e131a029b85045b68181585d2833e84879b9709143e1f593f000000180828408610204350892507f30644e72e131a029b85045b68181585d2833e84879b9709143e1f593f0000001807f30644e72e131a029b85045b68181585d2833e84879b9709143e1f593f0000001837f30644e72e131a029b85045b68181585d2833e84879b9709143e1f593f000000160028709086102243508840992507f30644e72e131a029b85045b68181585d2833e84879b9709143e1f593f0000001807f30644e72e131a029b85045b68181585d2833e84879b9709143e1f593f0000001837f30644e72e131a029b85045b68181585d2833e84879b9709143e1f593f000000160038709086102443508840992507f30644e72e131a029b85045b68181585d2833e84879b9709143e1f593f000000161026435840992507f30644e72e131a029b85045b68181585d2833e84879b9709143e1f593f000000180827f30644e72e131a029b85045b68181585d2833e84879b9709143e1f593f00000016101a43560208d01510908610204350893507f30644e72e131a029b85045b68181585d2833e84879b9709143e1f593f0000001807f30644e72e131a029b85045b68181585d2833e84879b9709143e1f593f0000001837f30644e72e131a029b85045b68181585d2833e84879b9709143e1f593f00000016101c43560208e015109086102243508850993507f30644e72e131a029b85045b68181585d2833e84879b9709143e1f593f0000001807f30644e72e131a029b85045b68181585d2833e84879b9709143e1f593f0000001837f30644e72e131a029b85045b68181585d2833e84879b9709143e1f593f00000016101e43560208e015109086102443508850993507f30644e72e131a029b85045b68181585d2833e84879b9709143e1f593f000000161028435850993507f30644e72e131a029b85045b68181585d2833e84879b9709143e1f593f000000180857f30644e72e131a029b85045b68181585d2833e84879b9709143e1f593f00000010306840892507f30644e72e131a029b85045b68181585d2833e84879b9709143e1f593f00000016104c0890151840992506001610264350393507f30644e72e131a029b85045b68181585d2833e84879b9709143e1f593f0000001610760890151850993507f30644e72e131a029b85045b68181585d2833e84879b9709143e1f593f00000016104c089015185099350600090506000806102608a015191507f30644e72e131a029b85045b68181585d2833e84879b9709143e1f593f000000180878409610264350890507f30644e72e131a029b85045b68181585d2833e84879b9709143e1f593f000000180867f30644e72e131a029b85045b68181585d2833e84879b9709143e1f593f000000185860909820890507f30644e72e131a029b85045b68181585d2833e84879b9709143e1f593f0000001807f30644e72e131a029b85045b68181585d2833e84879b9709143e1f593f000000160206000026106a0018d01518b098309840892506102808a015191507f30644e72e131a029b85045b68181585d2833e84879b9709143e1f593f000000180878409610264350890507f30644e72e131a029b85045b68181585d2833e84879b9709143e1f593f000000180867f30644e72e131a029b85045b68181585d2833e84879b9709143e1f593f000000185860909820890507f30644e72e131a029b85045b68181585d2833e84879b9709143e1f593f0000001807f30644e72e131a029b85045b68181585d2833e84879b9709143e1f593f000000160206001026106a0018d01518b098309840892506102a08a015191507f30644e72e131a029b85045b68181585d2833e84879b9709143e1f593f000000180878409610264350890507f30644e72e131a029b85045b68181585d2833e84879b9709143e1f593f000000180867f30644e72e131a029b85045b68181585d2833e84879b9709143e1f593f000000185860909820890507f30644e72e131a029b85045b68181585d2833e84879b9709143e1f593f0000001807f30644e72e131a029b85045b68181585d2833e84879b9709143e1f593f000000160206002026106a0018d01518b098309840892506102c08a015191507f30644e72e131a029b85045b68181585d2833e84879b9709143e1f593f0000001806102a4358409610284350890507f30644e72e131a029b85045b68181585d2833e84879b9709143e1f593f0000001806102c4357f30644e72e131a029b85045b68181585d2833e84879b9709143e1f593f000000185860909820890507f30644e72e131a029b85045b68181585d2833e84879b9709143e1f593f0000001807f30644e72e131a029b85045b68181585d2833e84879b9709143e1f593f000000160206003026106a0018d01518b098309840892506102e08a015191507f30644e72e131a029b85045b68181585d2833e84879b9709143e1f593f0000001806102a4358409610284350890507f30644e72e131a029b85045b68181585d2833e84879b9709143e1f593f0000001806102c4357f30644e72e131a029b85045b68181585d2833e84879b9709143e1f593f000000185860909820890507f30644e72e131a029b85045b68181585d2833e84879b9709143e1f593f0000001807f30644e72e131a029b85045b68181585d2833e84879b9709143e1f593f000000160206004026106a0018d01518b098309840892506103008a015191507f30644e72e131a029b85045b68181585d2833e84879b9709143e1f593f0000001806102a4358409610284350890507f30644e72e131a029b85045b68181585d2833e84879b9709143e1f593f0000001806102c4357f30644e72e131a029b85045b68181585d2833e84879b9709143e1f593f000000185860909820890507f30644e72e131a029b85045b68181585d2833e84879b9709143e1f593f0000001807f30644e72e131a029b85045b68181585d2833e84879b9709143e1f593f000000160206005026106a0018d01518b09830984089250826103808b015250505050505050505050565b6040518151815260208201516020820152825160408201526020830151606082015260408260808360066107d05a03fa8061558c576000805260206000f35b50505050565b6000604051833581526020840135602082015284604082015260408160608360076107d05a03fa9150816155ca576000805260206000f35b825160408201526020830151606082015260408360808360066107d05a03fa9150816155fa576000805260206000f35b5050505050565b600060405183815284602082015285604082015260408160608360076107d05a03fa915081615634576000805260206000f35b825160408201526020830151606082015260408360808360066107d05a03fa915081615664576000805260206000f35b505050505050565b60608101517f30644e72e131a029b85045b68181585d2833e84879b9709143e1f593f00000018060e08401517f30644e72e131a029b85045b68181585d2833e84879b9709143e1f593f0000001030682087f30644e72e131a029b85045b68181585d2833e84879b9709143e1f593f0000001807f30644e72e131a029b85045b68181585d2833e84879b9709143e1f593f00000016101008601517f30644e72e131a029b85045b68181585d2833e84879b9709143e1f593f000000103068408820990507f30644e72e131a029b85045b68181585d2833e84879b9709143e1f593f0000001807f30644e72e131a029b85045b68181585d2833e84879b9709143e1f593f00000016101208601517f30644e72e131a029b85045b68181585d2833e84879b9709143e1f593f000000103068408820990507f30644e72e131a029b85045b68181585d2833e84879b9709143e1f593f0000001807f30644e72e131a029b85045b68181585d2833e84879b9709143e1f593f00000016101408601517f30644e72e131a029b85045b68181585d2833e84879b9709143e1f593f000000103068408820990507f30644e72e131a029b85045b68181585d2833e84879b9709143e1f593f0000001807f30644e72e131a029b85045b68181585d2833e84879b9709143e1f593f00000016101608601517f30644e72e131a029b85045b68181585d2833e84879b9709143e1f593f000000103068408820990507f30644e72e131a029b85045b68181585d2833e84879b9709143e1f593f0000001807f30644e72e131a029b85045b68181585d2833e84879b9709143e1f593f00000016101808601517f30644e72e131a029b85045b68181585d2833e84879b9709143e1f593f000000103068408820990507f30644e72e131a029b85045b68181585d2833e84879b9709143e1f593f0000001807f30644e72e131a029b85045b68181585d2833e84879b9709143e1f593f00000016101a08601517f30644e72e131a029b85045b68181585d2833e84879b9709143e1f593f000000103068408820990507f30644e72e131a029b85045b68181585d2833e84879b9709143e1f593f0000001807f30644e72e131a029b85045b68181585d2833e84879b9709143e1f593f00000016101c08601517f30644e72e131a029b85045b68181585d2833e84879b9709143e1f593f000000103068408820990507f30644e72e131a029b85045b68181585d2833e84879b9709143e1f593f0000001806104e085015183096000850151097f30644e72e131a029b85045b68181585d2833e84879b9709143e1f593f00000018061050086015184097f30644e72e131a029b85045b68181585d2833e84879b9709143e1f593f00000016000870151600088015109097f16d70f6937b88ea2890451712281f2073db9ac923d49d38d833cbbcbc2b281c86103a08601527f1f7e1d70965392e542392cab2e10e88c03912b89107ae96c3a6b13f31f3a4cd060206103a001860152615ac38260046103a08801615592565b615ad38160446103a08801615592565b615b607f30644e72e131a029b85045b68181585d2833e84879b9709143e1f593f0000001807f30644e72e131a029b85045b68181585d2833e84879b9709143e1f593f000000161038089015185097f30644e72e131a029b85045b68181585d2833e84879b9709143e1f593f00000016103608a015187090861034088015108600260016103e08901615601565b615b708360846104208801615592565b5050505050565b60006040517f30644e72e131a029b85045b68181585d97816a916871ca8d3c208c16d87cfd4760206103e0850101517f30644e72e131a029b85045b68181585d97816a916871ca8d3c208c16d87cfd47030660206103e0850101527f30644e72e131a029b85045b68181585d97816a916871ca8d3c208c16d87cfd476020610420850101517f30644e72e131a029b85045b68181585d97816a916871ca8d3c208c16d87cfd470306602061042085010152615c3a6103e084016103a0850161554d565b615c4c61042084016103a0850161554d565b615c60606084015160c46103a08601615592565b6103a0830151815260206103a08401015160208201527f198e9393920d483a7260bfb731fb5d25f1aa493335a9e71297e485b7aef312c260408201527f1800deef121f1e76426a00665e5c4479674322d4f75edadd46debd5cd992f6ed60608201527f090689d0585ff075ec9e99ad690c3395bc4b313370b38ef355acdadcd122975b60808201527f12c85ea5db8c6deb4aab71808dcb408fe3d1e7690c43d37b4ce6cc0166fa7daa60a082015260c43560c0820152602060c401357f30644e72e131a029b85045b68181585d97816a916871ca8d3c208c16d87cfd47817f30644e72e131a029b85045b68181585d97816a916871ca8d3c208c16d87cfd47030690508060e08301527f26186a2d65ee4d2f9c9a5b91f86597d35f192cd120caf7e935d8443d1938e23d6101008301527f30441fd1b5d3370482c42152a8899027716989a6996c2535bc9f7fee8aaef79e6101208301527f1970ea81dd6992adfbc571effb03503adbbb6a857f578403c6c40e22d65b3c026101408301527f054793348f12c0cf5622c340573cb277586319de359ab9389778f689786b1e486101608301526020826101808460086107d05a03fa825181169350505050919050565b6040516107808101604052615e35610e14565b615e3f8382610efe565b615e48816127ff565b615e5181612cc5565b615e5b8382612d01565b615e6481612d61565b615e6d816142b3565b615e76816149af565b615e7f8161566c565b615e8881615b77565b8060005260206000f35b600080fd5b600080fd5b600081905082602060180282011115615eb857615eb7615e97565b5b92915050565b600081905082602060010282011115615eda57615ed9615e97565b5b92915050565b6000806103208385031215615ef857615ef7615e92565b5b6000615f0685828601615e9c565b925050610300615f1885828601615ebe565b9150509250929050565b60008115159050919050565b615f3781615f22565b82525050565b6000602082019050615f526000830184615f2e565b9291505056fea2646970667358221220e2c151a6e448d80e885568f6d61d5710adbd8b599d294efa4b4186d6fed57f6864736f6c63430008140033",
  "linkReferences": {},
  "deployedLinkReferences": {}
}