{
  "_format": "hh-sol-artifact-1",
  "contractName": "CDKValidiumMock",
  "sourceName": "contracts/mocks/Supernets2Mock.sol",
  "abi": [
    {
      "inputs": [
        {
          "internalType": "contract IPolygonZkEVMGlobalExitRoot",
          "name": "_globalExitRootManager",
          "type": "address"
        },
        {
          "internalType": "contract IERC20Upgradeable",
          "name": "_matic",
          "type": "address"
        },
        {
          "internalType": "contract IVerifierRollup",
          "name": "_rollupVerifier",
          "type": "address"
        },
        {
          "internalType": "contract IPolygonZkEVMBridge",
          "name": "_bridgeAddress",
          "type": "address"
        },
        {
          "internalType": "contract ICDKDataCommittee",
          "name": "_dataComiteeAddress",
          "type": "address"
        },
        {
          "internalType": "uint64",
          "name": "_chainID",
          "type": "uint64"
        },
        {
          "internalType": "uint64",
          "name": "_forkID",
          "type": "uint64"
        }
      ],
      "stateMutability": "nonpayable",
      "type": "constructor"
    },
    {
      "inputs": [],
      "name": "BatchAlreadyVerified",
      "type": "error"
    },
    {
      "inputs": [],
      "name": "BatchNotSequencedOrNotSequenceEnd",
      "type": "error"
    },
    {
      "inputs": [],
      "name": "ExceedMaxVerifyBatches",
      "type": "error"
    },
    {
      "inputs": [],
      "name": "FinalNumBatchBelowLastVerifiedBatch",
      "type": "error"
    },
    {
      "inputs": [],
      "name": "FinalNumBatchDoesNotMatchPendingState",
      "type": "error"
    },
    {
      "inputs": [],
      "name": "FinalPendingStateNumInvalid",
      "type": "error"
    },
    {
      "inputs": [],
      "name": "ForceBatchNotAllowed",
      "type": "error"
    },
    {
      "inputs": [],
      "name": "ForceBatchTimeoutNotExpired",
      "type": "error"
    },
    {
      "inputs": [],
      "name": "ForceBatchesAlreadyActive",
      "type": "error"
    },
    {
      "inputs": [],
      "name": "ForceBatchesOverflow",
      "type": "error"
    },
    {
      "inputs": [],
      "name": "ForcedDataDoesNotMatch",
      "type": "error"
    },
    {
      "inputs": [],
      "name": "GlobalExitRootNotExist",
      "type": "error"
    },
    {
      "inputs": [],
      "name": "HaltTimeoutNotExpired",
      "type": "error"
    },
    {
      "inputs": [],
      "name": "InitNumBatchAboveLastVerifiedBatch",
      "type": "error"
    },
    {
      "inputs": [],
      "name": "InitNumBatchDoesNotMatchPendingState",
      "type": "error"
    },
    {
      "inputs": [],
      "name": "InvalidProof",
      "type": "error"
    },
    {
      "inputs": [],
      "name": "InvalidRangeBatchTimeTarget",
      "type": "error"
    },
    {
      "inputs": [],
      "name": "InvalidRangeForceBatchTimeout",
      "type": "error"
    },
    {
      "inputs": [],
      "name": "InvalidRangeMultiplierBatchFee",
      "type": "error"
    },
    {
      "inputs": [],
      "name": "NewAccInputHashDoesNotExist",
      "type": "error"
    },
    {
      "inputs": [],
      "name": "NewPendingStateTimeoutMustBeLower",
      "type": "error"
    },
    {
      "inputs": [],
      "name": "NewStateRootNotInsidePrime",
      "type": "error"
    },
    {
      "inputs": [],
      "name": "NewTrustedAggregatorTimeoutMustBeLower",
      "type": "error"
    },
    {
      "inputs": [],
      "name": "NotEnoughMaticAmount",
      "type": "error"
    },
    {
      "inputs": [],
      "name": "OldAccInputHashDoesNotExist",
      "type": "error"
    },
    {
      "inputs": [],
      "name": "OldStateRootDoesNotExist",
      "type": "error"
    },
    {
      "inputs": [],
      "name": "OnlyAdmin",
      "type": "error"
    },
    {
      "inputs": [],
      "name": "OnlyEmergencyState",
      "type": "error"
    },
    {
      "inputs": [],
      "name": "OnlyNotEmergencyState",
      "type": "error"
    },
    {
      "inputs": [],
      "name": "OnlyPendingAdmin",
      "type": "error"
    },
    {
      "inputs": [],
      "name": "OnlyTrustedAggregator",
      "type": "error"
    },
    {
      "inputs": [],
      "name": "OnlyTrustedSequencer",
      "type": "error"
    },
    {
      "inputs": [],
      "name": "PendingStateDoesNotExist",
      "type": "error"
    },
    {
      "inputs": [],
      "name": "PendingStateInvalid",
      "type": "error"
    },
    {
      "inputs": [],
      "name": "PendingStateNotConsolidable",
      "type": "error"
    },
    {
      "inputs": [],
      "name": "PendingStateTimeoutExceedHaltAggregationTimeout",
      "type": "error"
    },
    {
      "inputs": [],
      "name": "SequenceZeroBatches",
      "type": "error"
    },
    {
      "inputs": [],
      "name": "SequencedTimestampBelowForcedTimestamp",
      "type": "error"
    },
    {
      "inputs": [],
      "name": "SequencedTimestampInvalid",
      "type": "error"
    },
    {
      "inputs": [],
      "name": "StoredRootMustBeDifferentThanNewRoot",
      "type": "error"
    },
    {
      "inputs": [],
      "name": "TransactionsLengthAboveMax",
      "type": "error"
    },
    {
      "inputs": [],
      "name": "TrustedAggregatorTimeoutExceedHaltAggregationTimeout",
      "type": "error"
    },
    {
      "inputs": [],
      "name": "TrustedAggregatorTimeoutNotExpired",
      "type": "error"
    },
    {
      "anonymous": false,
      "inputs": [
        {
          "indexed": false,
          "internalType": "address",
          "name": "newAdmin",
          "type": "address"
        }
      ],
      "name": "AcceptAdminRole",
      "type": "event"
    },
    {
      "anonymous": false,
      "inputs": [],
      "name": "ActivateForceBatches",
      "type": "event"
    },
    {
      "anonymous": false,
      "inputs": [
        {
          "indexed": true,
          "internalType": "uint64",
          "name": "numBatch",
          "type": "uint64"
        },
        {
          "indexed": false,
          "internalType": "bytes32",
          "name": "stateRoot",
          "type": "bytes32"
        },
        {
          "indexed": true,
          "internalType": "uint64",
          "name": "pendingStateNum",
          "type": "uint64"
        }
      ],
      "name": "ConsolidatePendingState",
      "type": "event"
    },
    {
      "anonymous": false,
      "inputs": [],
      "name": "EmergencyStateActivated",
      "type": "event"
    },
    {
      "anonymous": false,
      "inputs": [],
      "name": "EmergencyStateDeactivated",
      "type": "event"
    },
    {
      "anonymous": false,
      "inputs": [
        {
          "indexed": true,
          "internalType": "uint64",
          "name": "forceBatchNum",
          "type": "uint64"
        },
        {
          "indexed": false,
          "internalType": "bytes32",
          "name": "lastGlobalExitRoot",
          "type": "bytes32"
        },
        {
          "indexed": false,
          "internalType": "address",
          "name": "sequencer",
          "type": "address"
        },
        {
          "indexed": false,
          "internalType": "bytes",
          "name": "transactions",
          "type": "bytes"
        }
      ],
      "name": "ForceBatch",
      "type": "event"
    },
    {
      "anonymous": false,
      "inputs": [
        {
          "indexed": false,
          "internalType": "uint8",
          "name": "version",
          "type": "uint8"
        }
      ],
      "name": "Initialized",
      "type": "event"
    },
    {
      "anonymous": false,
      "inputs": [
        {
          "indexed": true,
          "internalType": "uint64",
          "name": "numBatch",
          "type": "uint64"
        },
        {
          "indexed": false,
          "internalType": "bytes32",
          "name": "stateRoot",
          "type": "bytes32"
        },
        {
          "indexed": true,
          "internalType": "address",
          "name": "aggregator",
          "type": "address"
        }
      ],
      "name": "OverridePendingState",
      "type": "event"
    },
    {
      "anonymous": false,
      "inputs": [
        {
          "indexed": true,
          "internalType": "address",
          "name": "previousOwner",
          "type": "address"
        },
        {
          "indexed": true,
          "internalType": "address",
          "name": "newOwner",
          "type": "address"
        }
      ],
      "name": "OwnershipTransferred",
      "type": "event"
    },
    {
      "anonymous": false,
      "inputs": [
        {
          "indexed": false,
          "internalType": "bytes32",
          "name": "storedStateRoot",
          "type": "bytes32"
        },
        {
          "indexed": false,
          "internalType": "bytes32",
          "name": "provedStateRoot",
          "type": "bytes32"
        }
      ],
      "name": "ProveNonDeterministicPendingState",
      "type": "event"
    },
    {
      "anonymous": false,
      "inputs": [
        {
          "indexed": true,
          "internalType": "uint64",
          "name": "numBatch",
          "type": "uint64"
        }
      ],
      "name": "SequenceBatches",
      "type": "event"
    },
    {
      "anonymous": false,
      "inputs": [
        {
          "indexed": true,
          "internalType": "uint64",
          "name": "numBatch",
          "type": "uint64"
        }
      ],
      "name": "SequenceForceBatches",
      "type": "event"
    },
    {
      "anonymous": false,
      "inputs": [
        {
          "indexed": false,
          "internalType": "uint64",
          "name": "newforceBatchTimeout",
          "type": "uint64"
        }
      ],
      "name": "SetForceBatchTimeout",
      "type": "event"
    },
    {
      "anonymous": false,
      "inputs": [
        {
          "indexed": false,
          "internalType": "uint16",
          "name": "newMultiplierBatchFee",
          "type": "uint16"
        }
      ],
      "name": "SetMultiplierBatchFee",
      "type": "event"
    },
    {
      "anonymous": false,
      "inputs": [
        {
          "indexed": false,
          "internalType": "uint64",
          "name": "newPendingStateTimeout",
          "type": "uint64"
        }
      ],
      "name": "SetPendingStateTimeout",
      "type": "event"
    },
    {
      "anonymous": false,
      "inputs": [
        {
          "indexed": false,
          "internalType": "address",
          "name": "newTrustedAggregator",
          "type": "address"
        }
      ],
      "name": "SetTrustedAggregator",
      "type": "event"
    },
    {
      "anonymous": false,
      "inputs": [
        {
          "indexed": false,
          "internalType": "uint64",
          "name": "newTrustedAggregatorTimeout",
          "type": "uint64"
        }
      ],
      "name": "SetTrustedAggregatorTimeout",
      "type": "event"
    },
    {
      "anonymous": false,
      "inputs": [
        {
          "indexed": false,
          "internalType": "address",
          "name": "newTrustedSequencer",
          "type": "address"
        }
      ],
      "name": "SetTrustedSequencer",
      "type": "event"
    },
    {
      "anonymous": false,
      "inputs": [
        {
          "indexed": false,
          "internalType": "string",
          "name": "newTrustedSequencerURL",
          "type": "string"
        }
      ],
      "name": "SetTrustedSequencerURL",
      "type": "event"
    },
    {
      "anonymous": false,
      "inputs": [
        {
          "indexed": false,
          "internalType": "uint64",
          "name": "newVerifyBatchTimeTarget",
          "type": "uint64"
        }
      ],
      "name": "SetVerifyBatchTimeTarget",
      "type": "event"
    },
    {
      "anonymous": false,
      "inputs": [
        {
          "indexed": false,
          "internalType": "address",
          "name": "newPendingAdmin",
          "type": "address"
        }
      ],
      "name": "TransferAdminRole",
      "type": "event"
    },
    {
      "anonymous": false,
      "inputs": [
        {
          "indexed": false,
          "internalType": "uint64",
          "name": "numBatch",
          "type": "uint64"
        },
        {
          "indexed": false,
          "internalType": "uint64",
          "name": "forkID",
          "type": "uint64"
        },
        {
          "indexed": false,
          "internalType": "string",
          "name": "version",
          "type": "string"
        }
      ],
      "name": "UpdateZkEVMVersion",
      "type": "event"
    },
    {
      "anonymous": false,
      "inputs": [
        {
          "indexed": true,
          "internalType": "uint64",
          "name": "numBatch",
          "type": "uint64"
        },
        {
          "indexed": false,
          "internalType": "bytes32",
          "name": "stateRoot",
          "type": "bytes32"
        },
        {
          "indexed": true,
          "internalType": "address",
          "name": "aggregator",
          "type": "address"
        }
      ],
      "name": "VerifyBatches",
      "type": "event"
    },
    {
      "anonymous": false,
      "inputs": [
        {
          "indexed": true,
          "internalType": "uint64",
          "name": "numBatch",
          "type": "uint64"
        },
        {
          "indexed": false,
          "internalType": "bytes32",
          "name": "stateRoot",
          "type": "bytes32"
        },
        {
          "indexed": true,
          "internalType": "address",
          "name": "aggregator",
          "type": "address"
        }
      ],
      "name": "VerifyBatchesTrustedAggregator",
      "type": "event"
    },
    {
      "inputs": [],
      "name": "acceptAdminRole",
      "outputs": [],
      "stateMutability": "nonpayable",
      "type": "function"
    },
    {
      "inputs": [
        {
          "internalType": "uint64",
          "name": "sequencedBatchNum",
          "type": "uint64"
        }
      ],
      "name": "activateEmergencyState",
      "outputs": [],
      "stateMutability": "nonpayable",
      "type": "function"
    },
    {
      "inputs": [],
      "name": "activateForceBatches",
      "outputs": [],
      "stateMutability": "nonpayable",
      "type": "function"
    },
    {
      "inputs": [],
      "name": "admin",
      "outputs": [
        {
          "internalType": "address",
          "name": "",
          "type": "address"
        }
      ],
      "stateMutability": "view",
      "type": "function"
    },
    {
      "inputs": [],
      "name": "batchFee",
      "outputs": [
        {
          "internalType": "uint256",
          "name": "",
          "type": "uint256"
        }
      ],
      "stateMutability": "view",
      "type": "function"
    },
    {
      "inputs": [
        {
          "internalType": "uint64",
          "name": "",
          "type": "uint64"
        }
      ],
      "name": "batchNumToStateRoot",
      "outputs": [
        {
          "internalType": "bytes32",
          "name": "",
          "type": "bytes32"
        }
      ],
      "stateMutability": "view",
      "type": "function"
    },
    {
      "inputs": [],
      "name": "bridgeAddress",
      "outputs": [
        {
          "internalType": "contract IPolygonZkEVMBridge",
          "name": "",
          "type": "address"
        }
      ],
      "stateMutability": "view",
      "type": "function"
    },
    {
      "inputs": [
        {
          "internalType": "bytes32",
          "name": "currentAccInputHash",
          "type": "bytes32"
        },
        {
          "internalType": "bytes",
          "name": "transactions",
          "type": "bytes"
        },
        {
          "internalType": "bytes32",
          "name": "globalExitRoot",
          "type": "bytes32"
        },
        {
          "internalType": "uint64",
          "name": "timestamp",
          "type": "uint64"
        },
        {
          "internalType": "address",
          "name": "sequencerAddress",
          "type": "address"
        }
      ],
      "name": "calculateAccInputHash",
      "outputs": [
        {
          "internalType": "bytes32",
          "name": "",
          "type": "bytes32"
        }
      ],
      "stateMutability": "pure",
      "type": "function"
    },
    {
      "inputs": [],
      "name": "calculateRewardPerBatch",
      "outputs": [
        {
          "internalType": "uint256",
          "name": "",
          "type": "uint256"
        }
      ],
      "stateMutability": "view",
      "type": "function"
    },
    {
      "inputs": [],
      "name": "chainID",
      "outputs": [
        {
          "internalType": "uint64",
          "name": "",
          "type": "uint64"
        }
      ],
      "stateMutability": "view",
      "type": "function"
    },
    {
      "inputs": [
        {
          "internalType": "uint256",
          "name": "newStateRoot",
          "type": "uint256"
        }
      ],
      "name": "checkStateRootInsidePrime",
      "outputs": [
        {
          "internalType": "bool",
          "name": "",
          "type": "bool"
        }
      ],
      "stateMutability": "pure",
      "type": "function"
    },
    {
      "inputs": [
        {
          "internalType": "uint64",
          "name": "pendingStateNum",
          "type": "uint64"
        }
      ],
      "name": "consolidatePendingState",
      "outputs": [],
      "stateMutability": "nonpayable",
      "type": "function"
    },
    {
      "inputs": [],
      "name": "dataCommitteeAddress",
      "outputs": [
        {
          "internalType": "contract ICDKDataCommittee",
          "name": "",
          "type": "address"
        }
      ],
      "stateMutability": "view",
      "type": "function"
    },
    {
      "inputs": [],
      "name": "deactivateEmergencyState",
      "outputs": [],
      "stateMutability": "nonpayable",
      "type": "function"
    },
    {
      "inputs": [
        {
          "internalType": "bytes",
          "name": "transactions",
          "type": "bytes"
        },
        {
          "internalType": "uint256",
          "name": "maticAmount",
          "type": "uint256"
        }
      ],
      "name": "forceBatch",
      "outputs": [],
      "stateMutability": "nonpayable",
      "type": "function"
    },
    {
      "inputs": [],
      "name": "forceBatchTimeout",
      "outputs": [
        {
          "internalType": "uint64",
          "name": "",
          "type": "uint64"
        }
      ],
      "stateMutability": "view",
      "type": "function"
    },
    {
      "inputs": [
        {
          "internalType": "uint64",
          "name": "",
          "type": "uint64"
        }
      ],
      "name": "forcedBatches",
      "outputs": [
        {
          "internalType": "bytes32",
          "name": "",
          "type": "bytes32"
        }
      ],
      "stateMutability": "view",
      "type": "function"
    },
    {
      "inputs": [],
      "name": "forkID",
      "outputs": [
        {
          "internalType": "uint64",
          "name": "",
          "type": "uint64"
        }
      ],
      "stateMutability": "view",
      "type": "function"
    },
    {
      "inputs": [],
      "name": "getForcedBatchFee",
      "outputs": [
        {
          "internalType": "uint256",
          "name": "",
          "type": "uint256"
        }
      ],
      "stateMutability": "view",
      "type": "function"
    },
    {
      "inputs": [
        {
          "internalType": "uint64",
          "name": "initNumBatch",
          "type": "uint64"
        },
        {
          "internalType": "uint64",
          "name": "finalNewBatch",
          "type": "uint64"
        },
        {
          "internalType": "bytes32",
          "name": "newLocalExitRoot",
          "type": "bytes32"
        },
        {
          "internalType": "bytes32",
          "name": "oldStateRoot",
          "type": "bytes32"
        },
        {
          "internalType": "bytes32",
          "name": "newStateRoot",
          "type": "bytes32"
        }
      ],
      "name": "getInputSnarkBytes",
      "outputs": [
        {
          "internalType": "bytes",
          "name": "",
          "type": "bytes"
        }
      ],
      "stateMutability": "view",
      "type": "function"
    },
    {
      "inputs": [],
      "name": "getLastVerifiedBatch",
      "outputs": [
        {
          "internalType": "uint64",
          "name": "",
          "type": "uint64"
        }
      ],
      "stateMutability": "view",
      "type": "function"
    },
    {
      "inputs": [
        {
          "internalType": "uint64",
          "name": "pendingStateNum",
          "type": "uint64"
        },
        {
          "internalType": "uint64",
          "name": "initNumBatch",
          "type": "uint64"
        },
        {
          "internalType": "uint64",
          "name": "finalNewBatch",
          "type": "uint64"
        },
        {
          "internalType": "bytes32",
          "name": "newLocalExitRoot",
          "type": "bytes32"
        },
        {
          "internalType": "bytes32",
          "name": "newStateRoot",
          "type": "bytes32"
        }
      ],
      "name": "getNextSnarkInput",
      "outputs": [
        {
          "internalType": "uint256",
          "name": "",
          "type": "uint256"
        }
      ],
      "stateMutability": "view",
      "type": "function"
    },
    {
      "inputs": [],
      "name": "globalExitRootManager",
      "outputs": [
        {
          "internalType": "contract IPolygonZkEVMGlobalExitRoot",
          "name": "",
          "type": "address"
        }
      ],
      "stateMutability": "view",
      "type": "function"
    },
    {
      "inputs": [
        {
          "components": [
            {
              "internalType": "address",
              "name": "admin",
              "type": "address"
            },
            {
              "internalType": "address",
              "name": "trustedSequencer",
              "type": "address"
            },
            {
              "internalType": "uint64",
              "name": "pendingStateTimeout",
              "type": "uint64"
            },
            {
              "internalType": "address",
              "name": "trustedAggregator",
              "type": "address"
            },
            {
              "internalType": "uint64",
              "name": "trustedAggregatorTimeout",
              "type": "uint64"
            }
          ],
          "internalType": "struct CDKValidium.InitializePackedParameters",
          "name": "initializePackedParameters",
          "type": "tuple"
        },
        {
          "internalType": "bytes32",
          "name": "genesisRoot",
          "type": "bytes32"
        },
        {
          "internalType": "string",
          "name": "_trustedSequencerURL",
          "type": "string"
        },
        {
          "internalType": "string",
          "name": "_networkName",
          "type": "string"
        },
        {
          "internalType": "string",
          "name": "_version",
          "type": "string"
        }
      ],
      "name": "initialize",
      "outputs": [],
      "stateMutability": "nonpayable",
      "type": "function"
    },
    {
      "inputs": [],
      "name": "isEmergencyState",
      "outputs": [
        {
          "internalType": "bool",
          "name": "",
          "type": "bool"
        }
      ],
      "stateMutability": "view",
      "type": "function"
    },
    {
      "inputs": [],
      "name": "isForcedBatchDisallowed",
      "outputs": [
        {
          "internalType": "bool",
          "name": "",
          "type": "bool"
        }
      ],
      "stateMutability": "view",
      "type": "function"
    },
    {
      "inputs": [
        {
          "internalType": "uint64",
          "name": "pendingStateNum",
          "type": "uint64"
        }
      ],
      "name": "isPendingStateConsolidable",
      "outputs": [
        {
          "internalType": "bool",
          "name": "",
          "type": "bool"
        }
      ],
      "stateMutability": "view",
      "type": "function"
    },
    {
      "inputs": [],
      "name": "lastBatchSequenced",
      "outputs": [
        {
          "internalType": "uint64",
          "name": "",
          "type": "uint64"
        }
      ],
      "stateMutability": "view",
      "type": "function"
    },
    {
      "inputs": [],
      "name": "lastForceBatch",
      "outputs": [
        {
          "internalType": "uint64",
          "name": "",
          "type": "uint64"
        }
      ],
      "stateMutability": "view",
      "type": "function"
    },
    {
      "inputs": [],
      "name": "lastForceBatchSequenced",
      "outputs": [
        {
          "internalType": "uint64",
          "name": "",
          "type": "uint64"
        }
      ],
      "stateMutability": "view",
      "type": "function"
    },
    {
      "inputs": [],
      "name": "lastPendingState",
      "outputs": [
        {
          "internalType": "uint64",
          "name": "",
          "type": "uint64"
        }
      ],
      "stateMutability": "view",
      "type": "function"
    },
    {
      "inputs": [],
      "name": "lastPendingStateConsolidated",
      "outputs": [
        {
          "internalType": "uint64",
          "name": "",
          "type": "uint64"
        }
      ],
      "stateMutability": "view",
      "type": "function"
    },
    {
      "inputs": [],
      "name": "lastTimestamp",
      "outputs": [
        {
          "internalType": "uint64",
          "name": "",
          "type": "uint64"
        }
      ],
      "stateMutability": "view",
      "type": "function"
    },
    {
      "inputs": [],
      "name": "lastVerifiedBatch",
      "outputs": [
        {
          "internalType": "uint64",
          "name": "",
          "type": "uint64"
        }
      ],
      "stateMutability": "view",
      "type": "function"
    },
    {
      "inputs": [],
      "name": "matic",
      "outputs": [
        {
          "internalType": "contract IERC20Upgradeable",
          "name": "",
          "type": "address"
        }
      ],
      "stateMutability": "view",
      "type": "function"
    },
    {
      "inputs": [],
      "name": "multiplierBatchFee",
      "outputs": [
        {
          "internalType": "uint16",
          "name": "",
          "type": "uint16"
        }
      ],
      "stateMutability": "view",
      "type": "function"
    },
    {
      "inputs": [],
      "name": "networkName",
      "outputs": [
        {
          "internalType": "string",
          "name": "",
          "type": "string"
        }
      ],
      "stateMutability": "view",
      "type": "function"
    },
    {
      "inputs": [
        {
          "internalType": "uint64",
          "name": "initPendingStateNum",
          "type": "uint64"
        },
        {
          "internalType": "uint64",
          "name": "finalPendingStateNum",
          "type": "uint64"
        },
        {
          "internalType": "uint64",
          "name": "initNumBatch",
          "type": "uint64"
        },
        {
          "internalType": "uint64",
          "name": "finalNewBatch",
          "type": "uint64"
        },
        {
          "internalType": "bytes32",
          "name": "newLocalExitRoot",
          "type": "bytes32"
        },
        {
          "internalType": "bytes32",
          "name": "newStateRoot",
          "type": "bytes32"
        },
        {
          "internalType": "bytes32[24]",
          "name": "proof",
          "type": "bytes32[24]"
        }
      ],
      "name": "overridePendingState",
      "outputs": [],
      "stateMutability": "nonpayable",
      "type": "function"
    },
    {
      "inputs": [],
      "name": "owner",
      "outputs": [
        {
          "internalType": "address",
          "name": "",
          "type": "address"
        }
      ],
      "stateMutability": "view",
      "type": "function"
    },
    {
      "inputs": [],
      "name": "pendingAdmin",
      "outputs": [
        {
          "internalType": "address",
          "name": "",
          "type": "address"
        }
      ],
      "stateMutability": "view",
      "type": "function"
    },
    {
      "inputs": [],
      "name": "pendingStateTimeout",
      "outputs": [
        {
          "internalType": "uint64",
          "name": "",
          "type": "uint64"
        }
      ],
      "stateMutability": "view",
      "type": "function"
    },
    {
      "inputs": [
        {
          "internalType": "uint256",
          "name": "",
          "type": "uint256"
        }
      ],
      "name": "pendingStateTransitions",
      "outputs": [
        {
          "internalType": "uint64",
          "name": "timestamp",
          "type": "uint64"
        },
        {
          "internalType": "uint64",
          "name": "lastVerifiedBatch",
          "type": "uint64"
        },
        {
          "internalType": "bytes32",
          "name": "exitRoot",
          "type": "bytes32"
        },
        {
          "internalType": "bytes32",
          "name": "stateRoot",
          "type": "bytes32"
        }
      ],
      "stateMutability": "view",
      "type": "function"
    },
    {
      "inputs": [
        {
          "internalType": "uint64",
          "name": "initPendingStateNum",
          "type": "uint64"
        },
        {
          "internalType": "uint64",
          "name": "finalPendingStateNum",
          "type": "uint64"
        },
        {
          "internalType": "uint64",
          "name": "initNumBatch",
          "type": "uint64"
        },
        {
          "internalType": "uint64",
          "name": "finalNewBatch",
          "type": "uint64"
        },
        {
          "internalType": "bytes32",
          "name": "newLocalExitRoot",
          "type": "bytes32"
        },
        {
          "internalType": "bytes32",
          "name": "newStateRoot",
          "type": "bytes32"
        },
        {
          "internalType": "bytes32[24]",
          "name": "proof",
          "type": "bytes32[24]"
        }
      ],
      "name": "proveNonDeterministicPendingState",
      "outputs": [],
      "stateMutability": "nonpayable",
      "type": "function"
    },
    {
      "inputs": [],
      "name": "renounceOwnership",
      "outputs": [],
      "stateMutability": "nonpayable",
      "type": "function"
    },
    {
      "inputs": [],
      "name": "rollupVerifier",
      "outputs": [
        {
          "internalType": "contract IVerifierRollup",
          "name": "",
          "type": "address"
        }
      ],
      "stateMutability": "view",
      "type": "function"
    },
    {
      "inputs": [
        {
          "components": [
            {
              "internalType": "bytes32",
              "name": "transactionsHash",
              "type": "bytes32"
            },
            {
              "internalType": "bytes32",
              "name": "globalExitRoot",
              "type": "bytes32"
            },
            {
              "internalType": "uint64",
              "name": "timestamp",
              "type": "uint64"
            },
            {
              "internalType": "uint64",
              "name": "minForcedTimestamp",
              "type": "uint64"
            }
          ],
          "internalType": "struct CDKValidium.BatchData[]",
          "name": "batches",
          "type": "tuple[]"
        },
        {
          "internalType": "address",
          "name": "l2Coinbase",
          "type": "address"
        },
        {
          "internalType": "bytes",
          "name": "signaturesAndAddrs",
          "type": "bytes"
        }
      ],
      "name": "sequenceBatches",
      "outputs": [],
      "stateMutability": "nonpayable",
      "type": "function"
    },
    {
      "inputs": [
        {
          "components": [
            {
              "internalType": "bytes",
              "name": "transactions",
              "type": "bytes"
            },
            {
              "internalType": "bytes32",
              "name": "globalExitRoot",
              "type": "bytes32"
            },
            {
              "internalType": "uint64",
              "name": "minForcedTimestamp",
              "type": "uint64"
            }
          ],
          "internalType": "struct CDKValidium.ForcedBatchData[]",
          "name": "batches",
          "type": "tuple[]"
        }
      ],
      "name": "sequenceForceBatches",
      "outputs": [],
      "stateMutability": "nonpayable",
      "type": "function"
    },
    {
      "inputs": [
        {
          "internalType": "uint64",
          "name": "",
          "type": "uint64"
        }
      ],
      "name": "sequencedBatches",
      "outputs": [
        {
          "internalType": "bytes32",
          "name": "accInputHash",
          "type": "bytes32"
        },
        {
          "internalType": "uint64",
          "name": "sequencedTimestamp",
          "type": "uint64"
        },
        {
          "internalType": "uint64",
          "name": "previousLastBatchSequenced",
          "type": "uint64"
        }
      ],
      "stateMutability": "view",
      "type": "function"
    },
    {
      "inputs": [
        {
          "internalType": "uint64",
          "name": "newforceBatchTimeout",
          "type": "uint64"
        }
      ],
      "name": "setForceBatchTimeout",
      "outputs": [],
      "stateMutability": "nonpayable",
      "type": "function"
    },
    {
      "inputs": [
        {
          "internalType": "uint16",
          "name": "newMultiplierBatchFee",
          "type": "uint16"
        }
      ],
      "name": "setMultiplierBatchFee",
      "outputs": [],
      "stateMutability": "nonpayable",
      "type": "function"
    },
    {
      "inputs": [
        {
          "internalType": "string",
          "name": "_networkName",
          "type": "string"
        }
      ],
      "name": "setNetworkName",
      "outputs": [],
      "stateMutability": "nonpayable",
      "type": "function"
    },
    {
      "inputs": [
        {
          "internalType": "uint64",
          "name": "newPendingStateTimeout",
          "type": "uint64"
        }
      ],
      "name": "setPendingStateTimeout",
      "outputs": [],
      "stateMutability": "nonpayable",
      "type": "function"
    },
    {
      "inputs": [
        {
          "internalType": "uint64",
          "name": "_numBatch",
          "type": "uint64"
        }
      ],
      "name": "setSequencedBatch",
      "outputs": [],
      "stateMutability": "nonpayable",
      "type": "function"
    },
    {
      "inputs": [
        {
          "internalType": "uint64",
          "name": "batchNum",
          "type": "uint64"
        },
        {
          "internalType": "bytes32",
          "name": "accInputData",
          "type": "bytes32"
        },
        {
          "internalType": "uint64",
          "name": "timestamp",
          "type": "uint64"
        },
        {
          "internalType": "uint64",
          "name": "lastPendingStateConsolidated",
          "type": "uint64"
        }
      ],
      "name": "setSequencedBatches",
      "outputs": [],
      "stateMutability": "nonpayable",
      "type": "function"
    },
    {
      "inputs": [
        {
          "internalType": "bytes32",
          "name": "newStateRoot",
          "type": "bytes32"
        },
        {
          "internalType": "uint64",
          "name": "batchNum",
          "type": "uint64"
        }
      ],
      "name": "setStateRoot",
      "outputs": [],
      "stateMutability": "nonpayable",
      "type": "function"
    },
    {
      "inputs": [
        {
          "internalType": "address",
          "name": "newTrustedAggregator",
          "type": "address"
        }
      ],
      "name": "setTrustedAggregator",
      "outputs": [],
      "stateMutability": "nonpayable",
      "type": "function"
    },
    {
      "inputs": [
        {
          "internalType": "uint64",
          "name": "newTrustedAggregatorTimeout",
          "type": "uint64"
        }
      ],
      "name": "setTrustedAggregatorTimeout",
      "outputs": [],
      "stateMutability": "nonpayable",
      "type": "function"
    },
    {
      "inputs": [
        {
          "internalType": "address",
          "name": "newTrustedSequencer",
          "type": "address"
        }
      ],
      "name": "setTrustedSequencer",
      "outputs": [],
      "stateMutability": "nonpayable",
      "type": "function"
    },
    {
      "inputs": [
        {
          "internalType": "string",
          "name": "newTrustedSequencerURL",
          "type": "string"
        }
      ],
      "name": "setTrustedSequencerURL",
      "outputs": [],
      "stateMutability": "nonpayable",
      "type": "function"
    },
    {
      "inputs": [
        {
          "internalType": "uint64",
          "name": "_numBatch",
          "type": "uint64"
        }
      ],
      "name": "setVerifiedBatch",
      "outputs": [],
      "stateMutability": "nonpayable",
      "type": "function"
    },
    {
      "inputs": [
        {
          "internalType": "uint64",
          "name": "newVerifyBatchTimeTarget",
          "type": "uint64"
        }
      ],
      "name": "setVerifyBatchTimeTarget",
      "outputs": [],
      "stateMutability": "nonpayable",
      "type": "function"
    },
    {
      "inputs": [
        {
          "internalType": "address",
          "name": "newPendingAdmin",
          "type": "address"
        }
      ],
      "name": "transferAdminRole",
      "outputs": [],
      "stateMutability": "nonpayable",
      "type": "function"
    },
    {
      "inputs": [
        {
          "internalType": "address",
          "name": "newOwner",
          "type": "address"
        }
      ],
      "name": "transferOwnership",
      "outputs": [],
      "stateMutability": "nonpayable",
      "type": "function"
    },
    {
      "inputs": [],
      "name": "trustedAggregator",
      "outputs": [
        {
          "internalType": "address",
          "name": "",
          "type": "address"
        }
      ],
      "stateMutability": "view",
      "type": "function"
    },
    {
      "inputs": [],
      "name": "trustedAggregatorTimeout",
      "outputs": [
        {
          "internalType": "uint64",
          "name": "",
          "type": "uint64"
        }
      ],
      "stateMutability": "view",
      "type": "function"
    },
    {
      "inputs": [],
      "name": "trustedSequencer",
      "outputs": [
        {
          "internalType": "address",
          "name": "",
          "type": "address"
        }
      ],
      "stateMutability": "view",
      "type": "function"
    },
    {
      "inputs": [],
      "name": "trustedSequencerURL",
      "outputs": [
        {
          "internalType": "string",
          "name": "",
          "type": "string"
        }
      ],
      "stateMutability": "view",
      "type": "function"
    },
    {
      "inputs": [
        {
          "internalType": "uint64",
          "name": "pendingStateNum",
          "type": "uint64"
        },
        {
          "internalType": "uint64",
          "name": "initNumBatch",
          "type": "uint64"
        },
        {
          "internalType": "uint64",
          "name": "finalNewBatch",
          "type": "uint64"
        },
        {
          "internalType": "bytes32",
          "name": "newLocalExitRoot",
          "type": "bytes32"
        },
        {
          "internalType": "bytes32",
          "name": "newStateRoot",
          "type": "bytes32"
        },
        {
          "internalType": "uint256[2]",
          "name": "proofA",
          "type": "uint256[2]"
        },
        {
          "internalType": "uint256[2][2]",
          "name": "proofB",
          "type": "uint256[2][2]"
        },
        {
          "internalType": "uint256[2]",
          "name": "proofC",
          "type": "uint256[2]"
        }
      ],
      "name": "trustedVerifyBatchesMock",
      "outputs": [],
      "stateMutability": "nonpayable",
      "type": "function"
    },
    {
      "inputs": [
        {
          "internalType": "uint64",
          "name": "newLastVerifiedBatch",
          "type": "uint64"
        }
      ],
      "name": "updateBatchFee",
      "outputs": [],
      "stateMutability": "nonpayable",
      "type": "function"
    },
    {
      "inputs": [],
      "name": "verifyBatchTimeTarget",
      "outputs": [
        {
          "internalType": "uint64",
          "name": "",
          "type": "uint64"
        }
      ],
      "stateMutability": "view",
      "type": "function"
    },
    {
      "inputs": [
        {
          "internalType": "uint64",
          "name": "pendingStateNum",
          "type": "uint64"
        },
        {
          "internalType": "uint64",
          "name": "initNumBatch",
          "type": "uint64"
        },
        {
          "internalType": "uint64",
          "name": "finalNewBatch",
          "type": "uint64"
        },
        {
          "internalType": "bytes32",
          "name": "newLocalExitRoot",
          "type": "bytes32"
        },
        {
          "internalType": "bytes32",
          "name": "newStateRoot",
          "type": "bytes32"
        },
        {
          "internalType": "bytes32[24]",
          "name": "proof",
          "type": "bytes32[24]"
        }
      ],
      "name": "verifyBatches",
      "outputs": [],
      "stateMutability": "nonpayable",
      "type": "function"
    },
    {
      "inputs": [
        {
          "internalType": "uint64",
          "name": "pendingStateNum",
          "type": "uint64"
        },
        {
          "internalType": "uint64",
          "name": "initNumBatch",
          "type": "uint64"
        },
        {
          "internalType": "uint64",
          "name": "finalNewBatch",
          "type": "uint64"
        },
        {
          "internalType": "bytes32",
          "name": "newLocalExitRoot",
          "type": "bytes32"
        },
        {
          "internalType": "bytes32",
          "name": "newStateRoot",
          "type": "bytes32"
        },
        {
          "internalType": "bytes32[24]",
          "name": "proof",
          "type": "bytes32[24]"
        }
      ],
      "name": "verifyBatchesTrustedAggregator",
      "outputs": [],
      "stateMutability": "nonpayable",
      "type": "function"
    }
  ],
  "bytecode": "0x6101606040523480156200001257600080fd5b506040516200925e3803806200925e833981810160405281019062000038919062000369565b868686868686868673ffffffffffffffffffffffffffffffffffffffff1660c08173ffffffffffffffffffffffffffffffffffffffff16815250508573ffffffffffffffffffffffffffffffffffffffff1660808173ffffffffffffffffffffffffffffffffffffffff16815250508473ffffffffffffffffffffffffffffffffffffffff1660a08173ffffffffffffffffffffffffffffffffffffffff16815250508373ffffffffffffffffffffffffffffffffffffffff1660e08173ffffffffffffffffffffffffffffffffffffffff16815250508273ffffffffffffffffffffffffffffffffffffffff166101008173ffffffffffffffffffffffffffffffffffffffff16815250508167ffffffffffffffff166101208167ffffffffffffffff16815250508067ffffffffffffffff166101408167ffffffffffffffff168152505050505050505050505050505050506200041c565b600080fd5b600073ffffffffffffffffffffffffffffffffffffffff82169050919050565b6000620001c48262000197565b9050919050565b6000620001d882620001b7565b9050919050565b620001ea81620001cb565b8114620001f657600080fd5b50565b6000815190506200020a81620001df565b92915050565b60006200021d82620001b7565b9050919050565b6200022f8162000210565b81146200023b57600080fd5b50565b6000815190506200024f8162000224565b92915050565b60006200026282620001b7565b9050919050565b620002748162000255565b81146200028057600080fd5b50565b600081519050620002948162000269565b92915050565b6000620002a782620001b7565b9050919050565b620002b9816200029a565b8114620002c557600080fd5b50565b600081519050620002d981620002ae565b92915050565b6000620002ec82620001b7565b9050919050565b620002fe81620002df565b81146200030a57600080fd5b50565b6000815190506200031e81620002f3565b92915050565b600067ffffffffffffffff82169050919050565b620003438162000324565b81146200034f57600080fd5b50565b600081519050620003638162000338565b92915050565b600080600080600080600060e0888a0312156200038b576200038a62000192565b5b60006200039b8a828b01620001f9565b9750506020620003ae8a828b016200023e565b9650506040620003c18a828b0162000283565b9550506060620003d48a828b01620002c8565b9450506080620003e78a828b016200030d565b93505060a0620003fa8a828b0162000352565b92505060c06200040d8a828b0162000352565b91505092959891949750929550565b60805160a05160c05160e051610100516101205161014051618d5b62000503600039600081816117260152818161346b015261443d0152600081816117050152613ce80152600081816123e601526128d50152600081816126da01528181613bc201528181614b0001526162710152600081816113830152818161193401528181611b890152818161224901528181612f1801528181613ffd01528181614df90152615e83015260008181614c73015281816155770152615a7601526000818161268b015281816136a701528181613d8601528181614db001526156830152618d5b6000f3fe608060405234801561001057600080fd5b50600436106104285760003560e01c80638c3d73011161022b578063c754c7ed11610130578063e7a7ed02116100b8578063f14916d611610087578063f14916d614610c2e578063f2fde38b14610c4a578063f851a44014610c66578063f8b823e414610c84578063fe16564f14610ca257610428565b8063e7a7ed0214610bb8578063e8bf92ed14610bd6578063eaeb077b14610bf4578063ed6b010414610c1057610428565b8063d2e129f9116100ff578063d2e129f914610b3c578063d8d1091b14610b58578063d939b31514610b74578063dbc1697614610b92578063e0d1744114610b9c57610428565b8063c754c7ed14610ac6578063c89e42df14610ae4578063cfa8ed4714610b00578063d02103ca14610b1e57610428565b8063ada8f919116101b3578063b4f77ea911610182578063b4f77ea914610a22578063b6b0b09714610a3e578063ba58ae3914610a5c578063c0cad30214610a8c578063c0ed84e014610aa857610428565b8063ada8f91914610998578063adc879e9146109b4578063afd23cbe146109d2578063b4d63f58146109f057610428565b80639aa972a3116101fa5780639aa972a31461090a5780639b796760146109265780639c9f3dfe14610942578063a066215c1461095e578063a3c573eb1461097a57610428565b80638c3d7301146108a85780638da5cb5b146108b257806396dc3d39146108d057806399f5634e146108ec57610428565b80634a1a89a711610331578063621dd411116102b95780637215541a116102885780637215541a146107ff5780637fcb36531461081b578063831c7ead14610839578063837a473814610857578063841b24d71461088a57610428565b8063621dd4111461078d5780636b8616ce146107a95780636ff512cc146107d9578063715018a6146107f557610428565b80635392c5e0116103005780635392c5e0146106e7578063542028d514610717578063574f649e146107355780635ec9195814610765578063604691691461076f57610428565b80634a1a89a7146106735780634a910e6a146106915780634df61d24146106ad5780634e487706146106cb57610428565b806329878983116103b4578063394218e911610383578063394218e9146105e1578063423fa856146105fd578063438a53991461061b5780634560526714610637578063458c04771461065557610428565b8063298789831461055b5780632b0006fa146105795780632c1f816a14610595578063383b3be8146105b157610428565b806315064c96116103fb57806315064c96146104b55780631816b7e5146104d357806319d8ac61146104ef578063220d78991461050d578063267822471461053d57610428565b80630a0d9fbe1461042d5780630eaa86ea1461044b578063107bf28c1461047b57806310a01a7214610499575b600080fd5b610435610cbe565b60405161044291906167bf565b60405180910390f35b61046560048036038101906104609190616850565b610cd8565b60405161047291906168e4565b60405180910390f35b610483610fc2565b604051610490919061698f565b60405180910390f35b6104b360048036038101906104ae91906169fa565b611050565b005b6104bd611472565b6040516104ca9190616acc565b60405180910390f35b6104ed60048036038101906104e89190616b21565b611485565b005b6104f76115b3565b60405161050491906167bf565b60405180910390f35b61052760048036038101906105229190616b4e565b6115cd565b6040516105349190616c1e565b60405180910390f35b61054561177e565b6040516105529190616c81565b60405180910390f35b6105636117a4565b6040516105709190616c81565b60405180910390f35b610593600480360381019061058e9190616cbe565b6117ca565b005b6105af60048036038101906105aa9190616d4c565b611a1e565b005b6105cb60048036038101906105c69190616def565b611ca0565b6040516105d89190616acc565b60405180910390f35b6105fb60048036038101906105f69190616def565b611d0c565b005b610605611ebf565b60405161061291906167bf565b60405180910390f35b61063560048036038101906106309190616efe565b611ed9565b005b61063f61279d565b60405161064c91906167bf565b60405180910390f35b61065d6127b7565b60405161066a91906167bf565b60405180910390f35b61067b6127d1565b60405161068891906167bf565b60405180910390f35b6106ab60048036038101906106a69190616def565b6127eb565b005b6106b56128d3565b6040516106c29190616ff2565b60405180910390f35b6106e560048036038101906106e09190616def565b6128f7565b005b61070160048036038101906106fc9190616def565b612aaa565b60405161070e919061701c565b60405180910390f35b61071f612ac2565b60405161072c919061698f565b60405180910390f35b61074f600480360381019061074a9190617167565b612b50565b60405161075c919061701c565b60405180910390f35b61076d612b93565b005b610777612ca9565b60405161078491906168e4565b60405180910390f35b6107a760048036038101906107a29190616cbe565b612cbf565b005b6107c360048036038101906107be9190616def565b61313a565b6040516107d0919061701c565b60405180910390f35b6107f360048036038101906107ee91906171fe565b613152565b005b6107fd613254565b005b61081960048036038101906108149190616def565b613268565b005b61082361344f565b60405161083091906167bf565b60405180910390f35b610841613469565b60405161084e91906167bf565b60405180910390f35b610871600480360381019061086c9190617257565b61348d565b6040516108819493929190617284565b60405180910390f35b6108926134e5565b60405161089f91906167bf565b60405180910390f35b6108b06134ff565b005b6108ba613644565b6040516108c79190616c81565b60405180910390f35b6108ea60048036038101906108e59190616def565b61366e565b005b6108f46136a2565b60405161090191906168e4565b60405180910390f35b610924600480360381019061091f9190616d4c565b6137e1565b005b610940600480360381019061093b9190616def565b6138a8565b005b61095c60048036038101906109579190616def565b6138dc565b005b61097860048036038101906109739190616def565b613a8f565b005b610982613bc0565b60405161098f91906172ea565b60405180910390f35b6109b260048036038101906109ad91906171fe565b613be4565b005b6109bc613ce6565b6040516109c991906167bf565b60405180910390f35b6109da613d0a565b6040516109e79190617314565b60405180910390f35b610a0a6004803603810190610a059190616def565b613d1e565b604051610a199392919061732f565b60405180910390f35b610a3c6004803603810190610a379190616def565b613d70565b005b610a46613d84565b604051610a539190617387565b60405180910390f35b610a766004803603810190610a719190617257565b613da8565b604051610a839190616acc565b60405180910390f35b610aa66004803603810190610aa19190617443565b613e36565b005b610ab0613e51565b604051610abd91906167bf565b60405180910390f35b610ace613eea565b604051610adb91906167bf565b60405180910390f35b610afe6004803603810190610af99190617443565b613f04565b005b610b08613fd5565b604051610b159190616c81565b60405180910390f35b610b26613ffb565b604051610b3391906174ad565b60405180910390f35b610b566004803603810190610b519190617542565b61401f565b005b610b726004803603810190610b6d919061766c565b6144d8565b005b610b7c614a5d565b604051610b8991906167bf565b60405180910390f35b610b9a614a77565b005b610bb66004803603810190610bb191906176b9565b614b88565b005b610bc0614c57565b604051610bcd91906167bf565b60405180910390f35b610bde614c71565b604051610beb9190617741565b60405180910390f35b610c0e6004803603810190610c09919061775c565b614c95565b005b610c18615050565b604051610c259190616acc565b60405180910390f35b610c486004803603810190610c4391906171fe565b615063565b005b610c646004803603810190610c5f91906171fe565b615165565b005b610c6e6151e8565b604051610c7b9190616c81565b60405180910390f35b610c8c61520e565b604051610c9991906168e4565b60405180910390f35b610cbc6004803603810190610cb791906177bc565b615214565b005b606f60019054906101000a900467ffffffffffffffff1681565b6000806000610ce5613e51565b905060008867ffffffffffffffff1614610e0257607960009054906101000a900467ffffffffffffffff1667ffffffffffffffff168867ffffffffffffffff161115610d66576040517f08c379a0000000000000000000000000000000000000000000000000000000008152600401610d5d90617894565b60405180910390fd5b6000607860008a67ffffffffffffffff1681526020019081526020016000209050806002015492508060000160089054906101000a900467ffffffffffffffff1667ffffffffffffffff168867ffffffffffffffff1614610dfc576040517f08c379a0000000000000000000000000000000000000000000000000000000008152600401610df39061794c565b60405180910390fd5b50610ec9565b607560008867ffffffffffffffff1667ffffffffffffffff1681526020019081526020016000205491506000801b8203610e71576040517f08c379a0000000000000000000000000000000000000000000000000000000008152600401610e6890617a04565b60405180910390fd5b8067ffffffffffffffff168767ffffffffffffffff161115610ec8576040517f08c379a0000000000000000000000000000000000000000000000000000000008152600401610ebf90617abc565b60405180910390fd5b5b8067ffffffffffffffff168667ffffffffffffffff1611610f1f576040517f08c379a0000000000000000000000000000000000000000000000000000000008152600401610f1690617b74565b60405180910390fd5b6000610f2e88888886896115cd565b905060007f30644e72e131a029b85045b68181585d2833e84879b9709143e1f593f0000001600283604051610f639190617bd0565b602060405180830381855afa158015610f80573d6000803e3d6000fd5b5050506040513d601f19601f82011682018060405250810190610fa39190617bfc565b60001c610fb09190617c58565b90508094505050505095945050505050565b60778054610fcf90617cb8565b80601f0160208091040260200160405190810160405280929190818152602001828054610ffb90617cb8565b80156110485780601f1061101d57610100808354040283529160200191611048565b820191906000526020600020905b81548152906001019060200180831161102b57829003601f168201915b505050505081565b61105861524c565b600080611063613e51565b905060008a67ffffffffffffffff161461118057607960009054906101000a900467ffffffffffffffff1667ffffffffffffffff168a67ffffffffffffffff1611156110e4576040517f08c379a00000000000000000000000000000000000000000000000000000000081526004016110db90617894565b60405180910390fd5b6000607860008c67ffffffffffffffff1681526020019081526020016000209050806002015492508060000160089054906101000a900467ffffffffffffffff1667ffffffffffffffff168a67ffffffffffffffff161461117a576040517f08c379a00000000000000000000000000000000000000000000000000000000081526004016111719061794c565b60405180910390fd5b50611247565b607560008a67ffffffffffffffff1667ffffffffffffffff1681526020019081526020016000205491506000801b82036111ef576040517f08c379a00000000000000000000000000000000000000000000000000000000081526004016111e690617a04565b60405180910390fd5b8067ffffffffffffffff168967ffffffffffffffff161115611246576040517f08c379a000000000000000000000000000000000000000000000000000000000815260040161123d90617abc565b60405180910390fd5b5b8067ffffffffffffffff168867ffffffffffffffff161161129d576040517f08c379a000000000000000000000000000000000000000000000000000000000815260040161129490617b74565b60405180910390fd5b60006112ac8a8a8a868b6115cd565b905088607460006101000a81548167ffffffffffffffff021916908367ffffffffffffffff16021790555086607560008b67ffffffffffffffff1667ffffffffffffffff168152602001908152602001600020819055506000607960009054906101000a900467ffffffffffffffff1667ffffffffffffffff161115611381576000607960006101000a81548167ffffffffffffffff021916908367ffffffffffffffff1602179055506000607960086101000a81548167ffffffffffffffff021916908367ffffffffffffffff1602179055505b7f000000000000000000000000000000000000000000000000000000000000000073ffffffffffffffffffffffffffffffffffffffff166333d6247d896040518263ffffffff1660e01b81526004016113da919061701c565b600060405180830381600087803b1580156113f457600080fd5b505af1158015611408573d6000803e3d6000fd5b505050503373ffffffffffffffffffffffffffffffffffffffff168967ffffffffffffffff167fcb339b570a7f0b25afa7333371ff11192092a0aeace12b671f4c212f2815c6fe8960405161145d919061701c565b60405180910390a35050505050505050505050565b606f60009054906101000a900460ff1681565b3373ffffffffffffffffffffffffffffffffffffffff16607a60009054906101000a900473ffffffffffffffffffffffffffffffffffffffff1673ffffffffffffffffffffffffffffffffffffffff161461150c576040517f4755657900000000000000000000000000000000000000000000000000000000815260040160405180910390fd5b6103e88161ffff16108061152557506103ff8161ffff16115b1561155c576040517f4c2533c800000000000000000000000000000000000000000000000000000000815260040160405180910390fd5b80606f60096101000a81548161ffff021916908361ffff1602179055507f7019933d795eba185c180209e8ae8bffbaa25bcef293364687702c31f4d302c5816040516115a89190617314565b60405180910390a150565b607360009054906101000a900467ffffffffffffffff1681565b60606000607260008867ffffffffffffffff1667ffffffffffffffff1681526020019081526020016000206000015490506000607260008867ffffffffffffffff1667ffffffffffffffff16815260200190815260200160002060000154905060008867ffffffffffffffff161415801561164a57506000801b82145b15611681576040517f6818c29e00000000000000000000000000000000000000000000000000000000815260040160405180910390fd5b6000801b81036116bd576040517f66385b5100000000000000000000000000000000000000000000000000000000815260040160405180910390fd5b6116c98460001c613da8565b6116ff576040517f176b913c00000000000000000000000000000000000000000000000000000000815260040160405180910390fd5b3385838a7f00000000000000000000000000000000000000000000000000000000000000007f000000000000000000000000000000000000000000000000000000000000000089878d8f6040516020016117629a99989796959493929190617d88565b6040516020818303038152906040529250505095945050505050565b607b60009054906101000a900473ffffffffffffffffffffffffffffffffffffffff1681565b607460089054906101000a900473ffffffffffffffffffffffffffffffffffffffff1681565b3373ffffffffffffffffffffffffffffffffffffffff16607460089054906101000a900473ffffffffffffffffffffffffffffffffffffffff1673ffffffffffffffffffffffffffffffffffffffff1614611851576040517fbbcbbc0500000000000000000000000000000000000000000000000000000000815260040160405180910390fd5b61185f8686868686866152ca565b83607460006101000a81548167ffffffffffffffff021916908367ffffffffffffffff16021790555081607560008667ffffffffffffffff1667ffffffffffffffff168152602001908152602001600020819055506000607960009054906101000a900467ffffffffffffffff1667ffffffffffffffff161115611932576000607960006101000a81548167ffffffffffffffff021916908367ffffffffffffffff1602179055506000607960086101000a81548167ffffffffffffffff021916908367ffffffffffffffff1602179055505b7f000000000000000000000000000000000000000000000000000000000000000073ffffffffffffffffffffffffffffffffffffffff166333d6247d846040518263ffffffff1660e01b815260040161198b919061701c565b600060405180830381600087803b1580156119a557600080fd5b505af11580156119b9573d6000803e3d6000fd5b505050503373ffffffffffffffffffffffffffffffffffffffff168467ffffffffffffffff167fcb339b570a7f0b25afa7333371ff11192092a0aeace12b671f4c212f2815c6fe84604051611a0e919061701c565b60405180910390a3505050505050565b3373ffffffffffffffffffffffffffffffffffffffff16607460089054906101000a900473ffffffffffffffffffffffffffffffffffffffff1673ffffffffffffffffffffffffffffffffffffffff1614611aa5576040517fbbcbbc0500000000000000000000000000000000000000000000000000000000815260040160405180910390fd5b611ab4878787878787876156d3565b83607460006101000a81548167ffffffffffffffff021916908367ffffffffffffffff16021790555081607560008667ffffffffffffffff1667ffffffffffffffff168152602001908152602001600020819055506000607960009054906101000a900467ffffffffffffffff1667ffffffffffffffff161115611b87576000607960006101000a81548167ffffffffffffffff021916908367ffffffffffffffff1602179055506000607960086101000a81548167ffffffffffffffff021916908367ffffffffffffffff1602179055505b7f000000000000000000000000000000000000000000000000000000000000000073ffffffffffffffffffffffffffffffffffffffff166333d6247d846040518263ffffffff1660e01b8152600401611be0919061701c565b600060405180830381600087803b158015611bfa57600080fd5b505af1158015611c0e573d6000803e3d6000fd5b5050505062093a80607960186101000a81548167ffffffffffffffff021916908367ffffffffffffffff1602179055503373ffffffffffffffffffffffffffffffffffffffff168467ffffffffffffffff167fcc1b5520188bf1dd3e63f98164b577c4d75c11a619ddea692112f0d1aec4cf7284604051611c8f919061701c565b60405180910390a350505050505050565b600042607960109054906101000a900467ffffffffffffffff16607860008567ffffffffffffffff16815260200190815260200160002060000160009054906101000a900467ffffffffffffffff16611cf99190617e6b565b67ffffffffffffffff1611159050919050565b3373ffffffffffffffffffffffffffffffffffffffff16607a60009054906101000a900473ffffffffffffffffffffffffffffffffffffffff1673ffffffffffffffffffffffffffffffffffffffff1614611d93576040517f4755657900000000000000000000000000000000000000000000000000000000815260040160405180910390fd5b62093a8067ffffffffffffffff168167ffffffffffffffff161115611de4576040517f1d06e87900000000000000000000000000000000000000000000000000000000815260040160405180910390fd5b606f60009054906101000a900460ff16611e5c57607960189054906101000a900467ffffffffffffffff1667ffffffffffffffff168167ffffffffffffffff1610611e5b576040517f401636df00000000000000000000000000000000000000000000000000000000815260040160405180910390fd5b5b80607960186101000a81548167ffffffffffffffff021916908367ffffffffffffffff1602179055507f1f4fa24c2e4bad19a7f3ec5c5485f70d46c798461c2e684f55bbd0fc661373a181604051611eb491906167bf565b60405180910390a150565b607360089054906101000a900467ffffffffffffffff1681565b606f60009054906101000a900460ff1615611f20576040517f2f0047fc00000000000000000000000000000000000000000000000000000000815260040160405180910390fd5b3373ffffffffffffffffffffffffffffffffffffffff16606f600b9054906101000a900473ffffffffffffffffffffffffffffffffffffffff1673ffffffffffffffffffffffffffffffffffffffff1614611fa7576040517f11e7be1500000000000000000000000000000000000000000000000000000000815260040160405180910390fd5b600085859050905060008103611fe9576040517fcb591a5f00000000000000000000000000000000000000000000000000000000815260040160405180910390fd5b6103e867ffffffffffffffff1681111561202f576040517fb59f753a00000000000000000000000000000000000000000000000000000000815260040160405180910390fd5b6000607360009054906101000a900467ffffffffffffffff1690506000607360089054906101000a900467ffffffffffffffff1690506000607360109054906101000a900467ffffffffffffffff1690506000607260008467ffffffffffffffff1667ffffffffffffffff168152602001908152602001600020600001549050600082905060005b868110156123e35760008c8c838181106120d4576120d3617ea7565b5b9050608002018036038101906120ea9190617f58565b90506000816060015167ffffffffffffffff16111561223357848061210e90617f85565b955050600081600001518260200151836060015160405160200161213493929190617fb5565b604051602081830303815290604052805190602001209050607160008767ffffffffffffffff1667ffffffffffffffff1681526020019081526020016000205481146121ac576040517fce3d755e00000000000000000000000000000000000000000000000000000000815260040160405180910390fd5b607160008767ffffffffffffffff1667ffffffffffffffff16815260200190815260200160002060009055816060015167ffffffffffffffff16826040015167ffffffffffffffff16101561222d576040517f7f7ab87200000000000000000000000000000000000000000000000000000000815260040160405180910390fd5b50612321565b6000801b8160200151141580156122e9575060007f000000000000000000000000000000000000000000000000000000000000000073ffffffffffffffffffffffffffffffffffffffff1663257b363283602001516040518263ffffffff1660e01b81526004016122a4919061701c565b6020604051808303816000875af11580156122c3573d6000803e3d6000fd5b505050506040513d601f19601f820116820180604052508101906122e79190618007565b145b15612320576040517f73bd668d00000000000000000000000000000000000000000000000000000000815260040160405180910390fd5b5b8667ffffffffffffffff16816040015167ffffffffffffffff161080612354575042816040015167ffffffffffffffff16115b1561238b576040517fea82791600000000000000000000000000000000000000000000000000000000815260040160405180910390fd5b838160000151826020015183604001518e6040516020016123b0959493929190618034565b604051602081830303815290604052805190602001209350806040015196505080806123db90618093565b9150506120b7565b507f000000000000000000000000000000000000000000000000000000000000000073ffffffffffffffffffffffffffffffffffffffff1663c7a823e0838a8a6040518463ffffffff1660e01b815260040161244193929190618108565b60006040518083038186803b15801561245957600080fd5b505afa15801561246d573d6000803e3d6000fd5b50505050858461247d9190617e6b565b9350607360189054906101000a900467ffffffffffffffff1667ffffffffffffffff168367ffffffffffffffff1611156124e3576040517fc630a00d00000000000000000000000000000000000000000000000000000000815260040160405180910390fd5b600081846124f1919061813a565b67ffffffffffffffff16876125069190618176565b905060405180606001604052808481526020014267ffffffffffffffff168152602001607360089054906101000a900467ffffffffffffffff1667ffffffffffffffff16815250607260008767ffffffffffffffff1667ffffffffffffffff1681526020019081526020016000206000820151816000015560208201518160010160006101000a81548167ffffffffffffffff021916908367ffffffffffffffff16021790555060408201518160010160086101000a81548167ffffffffffffffff021916908367ffffffffffffffff16021790555090505085607360006101000a81548167ffffffffffffffff021916908367ffffffffffffffff16021790555084607360086101000a81548167ffffffffffffffff021916908367ffffffffffffffff1602179055508167ffffffffffffffff168467ffffffffffffffff16146126765783607360106101000a81548167ffffffffffffffff021916908367ffffffffffffffff1602179055505b6126d033308360705461268991906181aa565b7f000000000000000000000000000000000000000000000000000000000000000073ffffffffffffffffffffffffffffffffffffffff16615bb9909392919063ffffffff16565b6126d8615c42565b7f000000000000000000000000000000000000000000000000000000000000000073ffffffffffffffffffffffffffffffffffffffff166379e2cf976040518163ffffffff1660e01b8152600401600060405180830381600087803b15801561274057600080fd5b505af1158015612754573d6000803e3d6000fd5b505050508467ffffffffffffffff167f303446e6a8cb73c83dff421c0b1d5e5ce0719dab1bff13660fc254e58cc17fce60405160405180910390a2505050505050505050505050565b607360109054906101000a900467ffffffffffffffff1681565b607960009054906101000a900467ffffffffffffffff1681565b607960089054906101000a900467ffffffffffffffff1681565b607460089054906101000a900473ffffffffffffffffffffffffffffffffffffffff1673ffffffffffffffffffffffffffffffffffffffff163373ffffffffffffffffffffffffffffffffffffffff16146128c757606f60009054906101000a900460ff1615612887576040517f2f0047fc00000000000000000000000000000000000000000000000000000000815260040160405180910390fd5b61289081611ca0565b6128c6576040517f0ce9e4a200000000000000000000000000000000000000000000000000000000815260040160405180910390fd5b5b6128d081615d28565b50565b7f000000000000000000000000000000000000000000000000000000000000000081565b3373ffffffffffffffffffffffffffffffffffffffff16607a60009054906101000a900473ffffffffffffffffffffffffffffffffffffffff1673ffffffffffffffffffffffffffffffffffffffff161461297e576040517f4755657900000000000000000000000000000000000000000000000000000000815260040160405180910390fd5b62093a8067ffffffffffffffff168167ffffffffffffffff1611156129cf576040517ff5e37f2f00000000000000000000000000000000000000000000000000000000815260040160405180910390fd5b606f60009054906101000a900460ff16612a4757607b60149054906101000a900467ffffffffffffffff1667ffffffffffffffff168167ffffffffffffffff1610612a46576040517ff5e37f2f00000000000000000000000000000000000000000000000000000000815260040160405180910390fd5b5b80607b60146101000a81548167ffffffffffffffff021916908367ffffffffffffffff1602179055507fa7eb6cb8a613eb4e8bddc1ac3d61ec6cf10898760f0b187bcca794c6ca6fa40b81604051612a9f91906167bf565b60405180910390a150565b60756020528060005260406000206000915090505481565b60768054612acf90617cb8565b80601f0160208091040260200160405190810160405280929190818152602001828054612afb90617cb8565b8015612b485780601f10612b1d57610100808354040283529160200191612b48565b820191906000526020600020905b815481529060010190602001808311612b2b57829003601f168201915b505050505081565b6000858580519060200120858585604051602001612b72959493929190618034565b60405160208183030381529060405280519060200120905095945050505050565b3373ffffffffffffffffffffffffffffffffffffffff16607a60009054906101000a900473ffffffffffffffffffffffffffffffffffffffff1673ffffffffffffffffffffffffffffffffffffffff1614612c1a576040517f4755657900000000000000000000000000000000000000000000000000000000815260040160405180910390fd5b607b601c9054906101000a900460ff16612c60576040517ff6ba91a100000000000000000000000000000000000000000000000000000000815260040160405180910390fd5b6000607b601c6101000a81548160ff0219169083151502179055507f854dd6ce5a1445c4c54388b21cffd11cf5bba1b9e763aec48ce3da75d617412f60405160405180910390a1565b60006064607054612cba91906181aa565b905090565b606f60009054906101000a900460ff1615612d06576040517f2f0047fc00000000000000000000000000000000000000000000000000000000815260040160405180910390fd5b42607960189054906101000a900467ffffffffffffffff16607260008767ffffffffffffffff1667ffffffffffffffff16815260200190815260200160002060010160009054906101000a900467ffffffffffffffff16612d679190617e6b565b67ffffffffffffffff161115612da9576040517f8a0704d300000000000000000000000000000000000000000000000000000000815260040160405180910390fd5b6103e867ffffffffffffffff168585612dc2919061813a565b67ffffffffffffffff161115612e04576040517fb59f753a00000000000000000000000000000000000000000000000000000000815260040160405180910390fd5b612e128686868686866152ca565b612e1b84615f66565b6000607960109054906101000a900467ffffffffffffffff1667ffffffffffffffff1603612fa65783607460006101000a81548167ffffffffffffffff021916908367ffffffffffffffff16021790555081607560008667ffffffffffffffff1667ffffffffffffffff168152602001908152602001600020819055506000607960009054906101000a900467ffffffffffffffff1667ffffffffffffffff161115612f16576000607960006101000a81548167ffffffffffffffff021916908367ffffffffffffffff1602179055506000607960086101000a81548167ffffffffffffffff021916908367ffffffffffffffff1602179055505b7f000000000000000000000000000000000000000000000000000000000000000073ffffffffffffffffffffffffffffffffffffffff166333d6247d846040518263ffffffff1660e01b8152600401612f6f919061701c565b600060405180830381600087803b158015612f8957600080fd5b505af1158015612f9d573d6000803e3d6000fd5b505050506130d9565b612fae615c42565b6079600081819054906101000a900467ffffffffffffffff1680929190612fd490617f85565b91906101000a81548167ffffffffffffffff021916908367ffffffffffffffff1602179055505060405180608001604052804267ffffffffffffffff1681526020018567ffffffffffffffff1681526020018481526020018381525060786000607960009054906101000a900467ffffffffffffffff1667ffffffffffffffff16815260200190815260200160002060008201518160000160006101000a81548167ffffffffffffffff021916908367ffffffffffffffff16021790555060208201518160000160086101000a81548167ffffffffffffffff021916908367ffffffffffffffff16021790555060408201518160010155606082015181600201559050505b3373ffffffffffffffffffffffffffffffffffffffff168467ffffffffffffffff167f9c72852172521097ba7e1482e6b44b351323df0155f97f4ea18fcec28e1f59668460405161312a919061701c565b60405180910390a3505050505050565b60716020528060005260406000206000915090505481565b3373ffffffffffffffffffffffffffffffffffffffff16607a60009054906101000a900473ffffffffffffffffffffffffffffffffffffffff1673ffffffffffffffffffffffffffffffffffffffff16146131d9576040517f4755657900000000000000000000000000000000000000000000000000000000815260040160405180910390fd5b80606f600b6101000a81548173ffffffffffffffffffffffffffffffffffffffff021916908373ffffffffffffffffffffffffffffffffffffffff1602179055507ff54144f9611984021529f814a1cb6a41e22c58351510a0d9f7e822618abb9cc0816040516132499190616c81565b60405180910390a150565b61325c61524c565b61326660006161a9565b565b613270613644565b73ffffffffffffffffffffffffffffffffffffffff163373ffffffffffffffffffffffffffffffffffffffff16146134445760006132ac613e51565b90508067ffffffffffffffff168267ffffffffffffffff16116132fb576040517f812a372d00000000000000000000000000000000000000000000000000000000815260040160405180910390fd5b607360089054906101000a900467ffffffffffffffff1667ffffffffffffffff168267ffffffffffffffff16118061337b57506000607260008467ffffffffffffffff1667ffffffffffffffff16815260200190815260200160002060010160009054906101000a900467ffffffffffffffff1667ffffffffffffffff16145b156133b2576040517f98c5c01400000000000000000000000000000000000000000000000000000000815260040160405180910390fd5b4262093a80607260008567ffffffffffffffff1667ffffffffffffffff16815260200190815260200160002060010160009054906101000a900467ffffffffffffffff166134009190617e6b565b67ffffffffffffffff161115613442576040517fd257555a00000000000000000000000000000000000000000000000000000000815260040160405180910390fd5b505b61344c61626f565b50565b607460009054906101000a900467ffffffffffffffff1681565b7f000000000000000000000000000000000000000000000000000000000000000081565b60786020528060005260406000206000915090508060000160009054906101000a900467ffffffffffffffff16908060000160089054906101000a900467ffffffffffffffff16908060010154908060020154905084565b607960189054906101000a900467ffffffffffffffff1681565b3373ffffffffffffffffffffffffffffffffffffffff16607b60009054906101000a900473ffffffffffffffffffffffffffffffffffffffff1673ffffffffffffffffffffffffffffffffffffffff1614613586576040517fd1ec4b2300000000000000000000000000000000000000000000000000000000815260040160405180910390fd5b607b60009054906101000a900473ffffffffffffffffffffffffffffffffffffffff16607a60006101000a81548173ffffffffffffffffffffffffffffffffffffffff021916908373ffffffffffffffffffffffffffffffffffffffff1602179055507f056dc487bbf0795d0bbb1b4f0af523a855503cff740bfb4d5475f7a90c091e8e607b60009054906101000a900473ffffffffffffffffffffffffffffffffffffffff1660405161363a9190616c81565b60405180910390a1565b6000603360009054906101000a900473ffffffffffffffffffffffffffffffffffffffff16905090565b61367661524c565b80607460006101000a81548167ffffffffffffffff021916908367ffffffffffffffff16021790555050565b6000807f000000000000000000000000000000000000000000000000000000000000000073ffffffffffffffffffffffffffffffffffffffff166370a08231306040518263ffffffff1660e01b81526004016136fe9190616c81565b602060405180830381865afa15801561371b573d6000803e3d6000fd5b505050506040513d601f19601f8201168201806040525081019061373f9190618007565b9050600061374b613e51565b607360089054906101000a900467ffffffffffffffff16607360109054906101000a900467ffffffffffffffff16607360189054906101000a900467ffffffffffffffff1661379a919061813a565b6137a49190617e6b565b6137ae919061813a565b67ffffffffffffffff169050600081036137cd576000925050506137de565b80826137d991906181ec565b925050505b90565b606f60009054906101000a900460ff1615613828576040517f2f0047fc00000000000000000000000000000000000000000000000000000000815260040160405180910390fd5b613837878787878787876156d3565b7f1f44c21118c4603cfb4e1b621dbcfa2b73efcececee2b99b620b2953d33a7010607560008667ffffffffffffffff1667ffffffffffffffff168152602001908152602001600020548360405161388f92919061821d565b60405180910390a161389f61626f565b50505050505050565b6138b061524c565b80607360086101000a81548167ffffffffffffffff021916908367ffffffffffffffff16021790555050565b3373ffffffffffffffffffffffffffffffffffffffff16607a60009054906101000a900473ffffffffffffffffffffffffffffffffffffffff1673ffffffffffffffffffffffffffffffffffffffff1614613963576040517f4755657900000000000000000000000000000000000000000000000000000000815260040160405180910390fd5b62093a8067ffffffffffffffff168167ffffffffffffffff1611156139b4576040517fcc96507000000000000000000000000000000000000000000000000000000000815260040160405180910390fd5b606f60009054906101000a900460ff16613a2c57607960109054906101000a900467ffffffffffffffff1667ffffffffffffffff168167ffffffffffffffff1610613a2b576040517f48a05a9000000000000000000000000000000000000000000000000000000000815260040160405180910390fd5b5b80607960106101000a81548167ffffffffffffffff021916908367ffffffffffffffff1602179055507fc4121f4e22c69632ebb7cf1f462be0511dc034f999b52013eddfb24aab765c7581604051613a8491906167bf565b60405180910390a150565b3373ffffffffffffffffffffffffffffffffffffffff16607a60009054906101000a900473ffffffffffffffffffffffffffffffffffffffff1673ffffffffffffffffffffffffffffffffffffffff1614613b16576040517f4755657900000000000000000000000000000000000000000000000000000000815260040160405180910390fd5b620151808167ffffffffffffffff161115613b5d576040517fe067dfe800000000000000000000000000000000000000000000000000000000815260040160405180910390fd5b80606f60016101000a81548167ffffffffffffffff021916908367ffffffffffffffff1602179055507f1b023231a1ab6b5d93992f168fb44498e1a7e64cef58daff6f1c216de6a68c2881604051613bb591906167bf565b60405180910390a150565b7f000000000000000000000000000000000000000000000000000000000000000081565b3373ffffffffffffffffffffffffffffffffffffffff16607a60009054906101000a900473ffffffffffffffffffffffffffffffffffffffff1673ffffffffffffffffffffffffffffffffffffffff1614613c6b576040517f4755657900000000000000000000000000000000000000000000000000000000815260040160405180910390fd5b80607b60006101000a81548173ffffffffffffffffffffffffffffffffffffffff021916908373ffffffffffffffffffffffffffffffffffffffff1602179055507fa5b56b7906fd0a20e3f35120dd8343db1e12e037a6c90111c7e42885e82a1ce681604051613cdb9190616c81565b60405180910390a150565b7f000000000000000000000000000000000000000000000000000000000000000081565b606f60099054906101000a900461ffff1681565b60726020528060005260406000206000915090508060000154908060010160009054906101000a900467ffffffffffffffff16908060010160089054906101000a900467ffffffffffffffff16905083565b613d7861524c565b613d8181615f66565b50565b7f000000000000000000000000000000000000000000000000000000000000000081565b600067ffffffff0000000167ffffffffffffffff80168316108015613de4575067ffffffff0000000167ffffffffffffffff8016604084901c16105b8015613e07575067ffffffff0000000167ffffffffffffffff8016608084901c16105b8015613e1e575067ffffffff0000000160c083901c105b15613e2c5760019050613e31565b600090505b919050565b613e3e61524c565b8060779081613e4d91906183e8565b5050565b600080607960009054906101000a900467ffffffffffffffff1667ffffffffffffffff161115613ecd5760786000607960009054906101000a900467ffffffffffffffff1667ffffffffffffffff16815260200190815260200160002060000160089054906101000a900467ffffffffffffffff169050613ee7565b607460009054906101000a900467ffffffffffffffff1690505b90565b607b60149054906101000a900467ffffffffffffffff1681565b3373ffffffffffffffffffffffffffffffffffffffff16607a60009054906101000a900473ffffffffffffffffffffffffffffffffffffffff1673ffffffffffffffffffffffffffffffffffffffff1614613f8b576040517f4755657900000000000000000000000000000000000000000000000000000000815260040160405180910390fd5b8060769081613f9a91906183e8565b507f6b8f723a4c7a5335cafae8a598a0aa0301be1387c037dccc085b62add6448b2081604051613fca919061698f565b60405180910390a150565b606f600b9054906101000a900473ffffffffffffffffffffffffffffffffffffffff1681565b7f000000000000000000000000000000000000000000000000000000000000000081565b60008060019054906101000a900460ff161590508080156140505750600160008054906101000a900460ff1660ff16105b8061407d575061405f306162f9565b15801561407c5750600160008054906101000a900460ff1660ff16145b5b6140bc576040517f08c379a00000000000000000000000000000000000000000000000000000000081526004016140b39061852c565b60405180910390fd5b60016000806101000a81548160ff021916908360ff16021790555080156140f9576001600060016101000a81548160ff0219169083151502179055505b86600001602081019061410c91906171fe565b607a60006101000a81548173ffffffffffffffffffffffffffffffffffffffff021916908373ffffffffffffffffffffffffffffffffffffffff16021790555086602001602081019061415f91906171fe565b606f600b6101000a81548173ffffffffffffffffffffffffffffffffffffffff021916908373ffffffffffffffffffffffffffffffffffffffff1602179055508660600160208101906141b291906171fe565b607460086101000a81548173ffffffffffffffffffffffffffffffffffffffff021916908373ffffffffffffffffffffffffffffffffffffffff16021790555085607560008067ffffffffffffffff16815260200190815260200160002081905550846076908161422391906183e8565b50836077908161423391906183e8565b5062093a8067ffffffffffffffff168760400160208101906142559190616def565b67ffffffffffffffff161115614297576040517fcc96507000000000000000000000000000000000000000000000000000000000815260040160405180910390fd5b8660400160208101906142aa9190616def565b607960106101000a81548167ffffffffffffffff021916908367ffffffffffffffff16021790555062093a8067ffffffffffffffff168760800160208101906142f39190616def565b67ffffffffffffffff161115614335576040517f1d06e87900000000000000000000000000000000000000000000000000000000815260040160405180910390fd5b8660800160208101906143489190616def565b607960186101000a81548167ffffffffffffffff021916908367ffffffffffffffff16021790555067016345785d8a0000607081905550610708606f60016101000a81548167ffffffffffffffff021916908367ffffffffffffffff1602179055506103ea606f60096101000a81548161ffff021916908361ffff16021790555062069780607b60146101000a81548167ffffffffffffffff021916908367ffffffffffffffff1602179055506001607b601c6101000a81548160ff02191690831515021790555061441861631c565b7fed7be53c9f1a96a481223b15568a5b1a475e01a74b347d6ca187c8bf0c078cd660007f0000000000000000000000000000000000000000000000000000000000000000858560405161446e94939291906185b4565b60405180910390a180156144cf5760008060016101000a81548160ff0219169083151502179055507f7f26b83ff96e1f2b6a682f133852f6798a09c465da95921460cefb384740249860016040516144c6919061863c565b60405180910390a15b50505050505050565b607b601c9054906101000a900460ff161561451f576040517f24eff8c300000000000000000000000000000000000000000000000000000000815260040160405180910390fd5b606f60009054906101000a900460ff1615614566576040517f2f0047fc00000000000000000000000000000000000000000000000000000000815260040160405180910390fd5b6000828290509050600081036145a8576040517fcb591a5f00000000000000000000000000000000000000000000000000000000815260040160405180910390fd5b6103e867ffffffffffffffff168111156145ee576040517fb59f753a00000000000000000000000000000000000000000000000000000000815260040160405180910390fd5b607360189054906101000a900467ffffffffffffffff1667ffffffffffffffff1681607360109054906101000a900467ffffffffffffffff1667ffffffffffffffff1661463b9190618657565b1115614673576040517fc630a00d00000000000000000000000000000000000000000000000000000000815260040160405180910390fd5b6000607360089054906101000a900467ffffffffffffffff1690506000607360109054906101000a900467ffffffffffffffff1690506000607260008467ffffffffffffffff1667ffffffffffffffff16815260200190815260200160002060000154905060005b848110156148bd5760008787838181106146f8576146f7617ea7565b5b905060200281019061470a9190618690565b61471390618738565b9050838061472090617f85565b945050600081600001518051906020012090506000818360200151846040015160405160200161475293929190617fb5565b604051602081830303815290604052805190602001209050607160008767ffffffffffffffff1667ffffffffffffffff1681526020019081526020016000205481146147ca576040517fce3d755e00000000000000000000000000000000000000000000000000000000815260040160405180910390fd5b607160008767ffffffffffffffff1667ffffffffffffffff168152602001908152602001600020600090556001886148029190618176565b84036148725742607b60149054906101000a900467ffffffffffffffff16846040015161482f9190617e6b565b67ffffffffffffffff161115614871576040517fc44a082100000000000000000000000000000000000000000000000000000000815260040160405180910390fd5b5b84828460200151423360405160200161488f959493929190618034565b60405160208183030381529060405280519060200120945050505080806148b590618093565b9150506146db565b5083836148ca9190617e6b565b925042607360006101000a81548167ffffffffffffffff021916908367ffffffffffffffff16021790555060405180606001604052808281526020014267ffffffffffffffff168152602001607360089054906101000a900467ffffffffffffffff1667ffffffffffffffff16815250607260008567ffffffffffffffff1667ffffffffffffffff1681526020019081526020016000206000820151816000015560208201518160010160006101000a81548167ffffffffffffffff021916908367ffffffffffffffff16021790555060408201518160010160086101000a81548167ffffffffffffffff021916908367ffffffffffffffff16021790555090505082607360086101000a81548167ffffffffffffffff021916908367ffffffffffffffff16021790555081607360106101000a81548167ffffffffffffffff021916908367ffffffffffffffff1602179055508267ffffffffffffffff167f648a61dd2438f072f5a1960939abd30f37aea80d2e94c9792ad142d3e0a490a460405160405180910390a2505050505050565b607960109054906101000a900467ffffffffffffffff1681565b3373ffffffffffffffffffffffffffffffffffffffff16607a60009054906101000a900473ffffffffffffffffffffffffffffffffffffffff1673ffffffffffffffffffffffffffffffffffffffff1614614afe576040517f4755657900000000000000000000000000000000000000000000000000000000815260040160405180910390fd5b7f000000000000000000000000000000000000000000000000000000000000000073ffffffffffffffffffffffffffffffffffffffff1663dbc169766040518163ffffffff1660e01b8152600401600060405180830381600087803b158015614b6657600080fd5b505af1158015614b7a573d6000803e3d6000fd5b50505050614b8661637d565b565b614b9061524c565b60405180606001604052808481526020018367ffffffffffffffff1681526020018267ffffffffffffffff16815250607260008667ffffffffffffffff1667ffffffffffffffff1681526020019081526020016000206000820151816000015560208201518160010160006101000a81548167ffffffffffffffff021916908367ffffffffffffffff16021790555060408201518160010160086101000a81548167ffffffffffffffff021916908367ffffffffffffffff16021790555090505050505050565b607360189054906101000a900467ffffffffffffffff1681565b7f000000000000000000000000000000000000000000000000000000000000000081565b607b601c9054906101000a900460ff1615614cdc576040517f24eff8c300000000000000000000000000000000000000000000000000000000815260040160405180910390fd5b606f60009054906101000a900460ff1615614d23576040517f2f0047fc00000000000000000000000000000000000000000000000000000000815260040160405180910390fd5b6000614d2d612ca9565b905081811115614d69576040517f4732fdb500000000000000000000000000000000000000000000000000000000815260040160405180910390fd5b611388848490501115614da8576040517fa29a6c7c00000000000000000000000000000000000000000000000000000000815260040160405180910390fd5b614df53330837f000000000000000000000000000000000000000000000000000000000000000073ffffffffffffffffffffffffffffffffffffffff16615bb9909392919063ffffffff16565b60007f000000000000000000000000000000000000000000000000000000000000000073ffffffffffffffffffffffffffffffffffffffff16633ed691ef6040518163ffffffff1660e01b8152600401602060405180830381865afa158015614e62573d6000803e3d6000fd5b505050506040513d601f19601f82011682018060405250810190614e869190617bfc565b90506073601881819054906101000a900467ffffffffffffffff1680929190614eae90617f85565b91906101000a81548167ffffffffffffffff021916908367ffffffffffffffff160217905550508484604051614ee5929190618770565b60405180910390208142604051602001614f0193929190617fb5565b6040516020818303038152906040528051906020012060716000607360189054906101000a900467ffffffffffffffff1667ffffffffffffffff1667ffffffffffffffff168152602001908152602001600020819055503273ffffffffffffffffffffffffffffffffffffffff163373ffffffffffffffffffffffffffffffffffffffff1603614fea57607360189054906101000a900467ffffffffffffffff1667ffffffffffffffff167ff94bb37db835f1ab585ee00041849a09b12cd081d77fa15ca070757619cbc9318233604051614fdd9291906187af565b60405180910390a2615049565b607360189054906101000a900467ffffffffffffffff1667ffffffffffffffff167ff94bb37db835f1ab585ee00041849a09b12cd081d77fa15ca070757619cbc9318233888860405161504094939291906187eb565b60405180910390a25b5050505050565b607b601c9054906101000a900460ff1681565b3373ffffffffffffffffffffffffffffffffffffffff16607a60009054906101000a900473ffffffffffffffffffffffffffffffffffffffff1673ffffffffffffffffffffffffffffffffffffffff16146150ea576040517f4755657900000000000000000000000000000000000000000000000000000000815260040160405180910390fd5b80607460086101000a81548173ffffffffffffffffffffffffffffffffffffffff021916908373ffffffffffffffffffffffffffffffffffffffff1602179055507f61f8fec29495a3078e9271456f05fb0707fd4e41f7661865f80fc437d06681ca8160405161515a9190616c81565b60405180910390a150565b61516d61524c565b600073ffffffffffffffffffffffffffffffffffffffff168173ffffffffffffffffffffffffffffffffffffffff16036151dc576040517f08c379a00000000000000000000000000000000000000000000000000000000081526004016151d39061889d565b60405180910390fd5b6151e5816161a9565b50565b607a60009054906101000a900473ffffffffffffffffffffffffffffffffffffffff1681565b60705481565b61521c61524c565b81607560008367ffffffffffffffff1667ffffffffffffffff168152602001908152602001600020819055505050565b61525461640c565b73ffffffffffffffffffffffffffffffffffffffff16615272613644565b73ffffffffffffffffffffffffffffffffffffffff16146152c8576040517f08c379a00000000000000000000000000000000000000000000000000000000081526004016152bf90618909565b60405180910390fd5b565b6000806152d5613e51565b905060008867ffffffffffffffff16146153e057607960009054906101000a900467ffffffffffffffff1667ffffffffffffffff168867ffffffffffffffff16111561534d576040517fbb14c20500000000000000000000000000000000000000000000000000000000815260040160405180910390fd5b6000607860008a67ffffffffffffffff1681526020019081526020016000209050806002015492508060000160089054906101000a900467ffffffffffffffff1667ffffffffffffffff168867ffffffffffffffff16146153da576040517f2bd2e3e700000000000000000000000000000000000000000000000000000000815260040160405180910390fd5b50615495565b607560008867ffffffffffffffff1667ffffffffffffffff1681526020019081526020016000205491506000801b8203615446576040517f4997b98600000000000000000000000000000000000000000000000000000000815260040160405180910390fd5b8067ffffffffffffffff168767ffffffffffffffff161115615494576040517f1e56e9e200000000000000000000000000000000000000000000000000000000815260040160405180910390fd5b5b8067ffffffffffffffff168667ffffffffffffffff16116154e2576040517fb9b18f5700000000000000000000000000000000000000000000000000000000815260040160405180910390fd5b60006154f188888886896115cd565b905060007f30644e72e131a029b85045b68181585d2833e84879b9709143e1f593f00000016002836040516155269190617bd0565b602060405180830381855afa158015615543573d6000803e3d6000fd5b5050506040513d601f19601f820116820180604052508101906155669190617bfc565b60001c6155739190617c58565b90507f000000000000000000000000000000000000000000000000000000000000000073ffffffffffffffffffffffffffffffffffffffff16639121da8a866040518060200160405280858152506040518363ffffffff1660e01b81526004016155de9291906189ee565b602060405180830381865afa1580156155fb573d6000803e3d6000fd5b505050506040513d601f19601f8201168201806040525081019061561f9190618a45565b615655576040517f09bde33900000000000000000000000000000000000000000000000000000000815260040160405180910390fd5b6156c733848a615665919061813a565b67ffffffffffffffff166156776136a2565b61568191906181aa565b7f000000000000000000000000000000000000000000000000000000000000000073ffffffffffffffffffffffffffffffffffffffff166164149092919063ffffffff16565b50505050505050505050565b6000808867ffffffffffffffff16146157dd57607960009054906101000a900467ffffffffffffffff1667ffffffffffffffff168867ffffffffffffffff16111561574a576040517fbb14c20500000000000000000000000000000000000000000000000000000000815260040160405180910390fd5b6000607860008a67ffffffffffffffff1681526020019081526020016000209050806002015491508060000160089054906101000a900467ffffffffffffffff1667ffffffffffffffff168767ffffffffffffffff16146157d7576040517f2bd2e3e700000000000000000000000000000000000000000000000000000000815260040160405180910390fd5b506158a8565b607560008767ffffffffffffffff1667ffffffffffffffff1681526020019081526020016000205490506000801b8103615843576040517f4997b98600000000000000000000000000000000000000000000000000000000815260040160405180910390fd5b607460009054906101000a900467ffffffffffffffff1667ffffffffffffffff168667ffffffffffffffff1611156158a7576040517f1e56e9e200000000000000000000000000000000000000000000000000000000815260040160405180910390fd5b5b607960009054906101000a900467ffffffffffffffff1667ffffffffffffffff168767ffffffffffffffff1611806158f457508767ffffffffffffffff168767ffffffffffffffff1611155b806159295750607960089054906101000a900467ffffffffffffffff1667ffffffffffffffff168767ffffffffffffffff1611155b15615960576040517fbfa7079f00000000000000000000000000000000000000000000000000000000815260040160405180910390fd5b607860008867ffffffffffffffff16815260200190815260200160002060000160089054906101000a900467ffffffffffffffff1667ffffffffffffffff168567ffffffffffffffff16146159e1576040517f32a2a77f00000000000000000000000000000000000000000000000000000000815260040160405180910390fd5b60006159f087878785886115cd565b905060007f30644e72e131a029b85045b68181585d2833e84879b9709143e1f593f0000001600283604051615a259190617bd0565b602060405180830381855afa158015615a42573d6000803e3d6000fd5b5050506040513d601f19601f82011682018060405250810190615a659190617bfc565b60001c615a729190617c58565b90507f000000000000000000000000000000000000000000000000000000000000000073ffffffffffffffffffffffffffffffffffffffff16639121da8a856040518060200160405280858152506040518363ffffffff1660e01b8152600401615add9291906189ee565b602060405180830381865afa158015615afa573d6000803e3d6000fd5b505050506040513d601f19601f82011682018060405250810190615b1e9190618a45565b615b54576040517f09bde33900000000000000000000000000000000000000000000000000000000815260040160405180910390fd5b84607860008b67ffffffffffffffff1681526020019081526020016000206002015403615bad576040517fa47276bd00000000000000000000000000000000000000000000000000000000815260040160405180910390fd5b50505050505050505050565b615c3c846323b872dd60e01b858585604051602401615bda93929190618a72565b604051602081830303815290604052907bffffffffffffffffffffffffffffffffffffffffffffffffffffffff19166020820180517bffffffffffffffffffffffffffffffffffffffffffffffffffffffff838183161783525050505061649a565b50505050565b607960089054906101000a900467ffffffffffffffff1667ffffffffffffffff16607960009054906101000a900467ffffffffffffffff1667ffffffffffffffff161115615d265760006001607960089054906101000a900467ffffffffffffffff16615caf9190617e6b565b9050615cba81611ca0565b15615d24576000600282607960009054906101000a900467ffffffffffffffff16615ce5919061813a565b615cef9190618aa9565b82615cfa9190617e6b565b9050615d0581611ca0565b15615d1857615d1381615d28565b615d22565b615d2182615d28565b5b505b505b565b607960089054906101000a900467ffffffffffffffff1667ffffffffffffffff168167ffffffffffffffff16111580615d8a5750607960009054906101000a900467ffffffffffffffff1667ffffffffffffffff168167ffffffffffffffff16115b15615dc1576040517fd086b70b00000000000000000000000000000000000000000000000000000000815260040160405180910390fd5b6000607860008367ffffffffffffffff168152602001908152602001600020905060008160000160089054906101000a900467ffffffffffffffff16905080607460006101000a81548167ffffffffffffffff021916908367ffffffffffffffff1602179055508160020154607560008367ffffffffffffffff1667ffffffffffffffff1681526020019081526020016000208190555082607960086101000a81548167ffffffffffffffff021916908367ffffffffffffffff1602179055507f000000000000000000000000000000000000000000000000000000000000000073ffffffffffffffffffffffffffffffffffffffff166333d6247d83600101546040518263ffffffff1660e01b8152600401615ede919061701c565b600060405180830381600087803b158015615ef857600080fd5b505af1158015615f0c573d6000803e3d6000fd5b505050508267ffffffffffffffff168167ffffffffffffffff167f328d3c6c0fd6f1be0515e422f2d87e59f25922cbc2233568515a0c4bc3f8510e8460020154604051615f59919061701c565b60405180910390a3505050565b6000615f70613e51565b905060008290506000808385615f86919061813a565b67ffffffffffffffff1690506000606f60019054906101000a900467ffffffffffffffff1667ffffffffffffffff1642615fc09190618176565b90505b8467ffffffffffffffff168467ffffffffffffffff1614616077576000607260008667ffffffffffffffff1667ffffffffffffffff16815260200190815260200160002090508060010160009054906101000a900467ffffffffffffffff1667ffffffffffffffff16821015616053578060010160089054906101000a900467ffffffffffffffff169450616071565b858561605f919061813a565b67ffffffffffffffff16935050616077565b50615fc3565b600083836160859190618176565b9050838110156160e45760008185039050600c81116160a457806160a7565b600c5b9050806103e80a81606f60099054906101000a900461ffff1661ffff160a60705402816160d7576160d6617c29565b5b046070819055505061615d565b60008482039050600c81116160f957806160fc565b600c5b90506000816103e80a82606f60099054906101000a900461ffff1661ffff160a670de0b6b3a7640000028161613457616133617c29565b5b04905080607054670de0b6b3a7640000028161615357616152617c29565b5b0460708190555050505b683635c9adc5dea00000607054111561618557683635c9adc5dea000006070819055506161a0565b633b9aca00607054101561619f57633b9aca006070819055505b5b50505050505050565b6000603360009054906101000a900473ffffffffffffffffffffffffffffffffffffffff16905081603360006101000a81548173ffffffffffffffffffffffffffffffffffffffff021916908373ffffffffffffffffffffffffffffffffffffffff1602179055508173ffffffffffffffffffffffffffffffffffffffff168173ffffffffffffffffffffffffffffffffffffffff167f8be0079c531659141344cd1fd0a4f28419497f9722a3daafe3b4186f6b6457e060405160405180910390a35050565b7f000000000000000000000000000000000000000000000000000000000000000073ffffffffffffffffffffffffffffffffffffffff16632072f6c56040518163ffffffff1660e01b8152600401600060405180830381600087803b1580156162d757600080fd5b505af11580156162eb573d6000803e3d6000fd5b505050506162f7616562565b565b6000808273ffffffffffffffffffffffffffffffffffffffff163b119050919050565b600060019054906101000a900460ff1661636b576040517f08c379a000000000000000000000000000000000000000000000000000000000815260040161636290618b4c565b60405180910390fd5b61637b61637661640c565b6161a9565b565b606f60009054906101000a900460ff166163c3576040517f5386698100000000000000000000000000000000000000000000000000000000815260040160405180910390fd5b6000606f60006101000a81548160ff0219169083151502179055507f1e5e34eea33501aecf2ebec9fe0e884a40804275ea7fe10b2ba084c8374308b360405160405180910390a1565b600033905090565b6164958363a9059cbb60e01b8484604051602401616433929190618b6c565b604051602081830303815290604052907bffffffffffffffffffffffffffffffffffffffffffffffffffffffff19166020820180517bffffffffffffffffffffffffffffffffffffffffffffffffffffffff838183161783525050505061649a565b505050565b60006164fc826040518060400160405280602081526020017f5361666545524332303a206c6f772d6c6576656c2063616c6c206661696c65648152508573ffffffffffffffffffffffffffffffffffffffff166165f29092919063ffffffff16565b905060008151148061651e57508080602001905181019061651d9190618a45565b5b61655d576040517f08c379a000000000000000000000000000000000000000000000000000000000815260040161655490618c07565b60405180910390fd5b505050565b606f60009054906101000a900460ff16156165a9576040517f2f0047fc00000000000000000000000000000000000000000000000000000000815260040160405180910390fd5b6001606f60006101000a81548160ff0219169083151502179055507f2261efe5aef6fedc1fd1550b25facc9181745623049c7901287030b9ad1a549760405160405180910390a1565b6060616601848460008561660a565b90509392505050565b60608247101561664f576040517f08c379a000000000000000000000000000000000000000000000000000000000815260040161664690618c99565b60405180910390fd5b6000808673ffffffffffffffffffffffffffffffffffffffff1685876040516166789190617bd0565b60006040518083038185875af1925050503d80600081146166b5576040519150601f19603f3d011682016040523d82523d6000602084013e6166ba565b606091505b50915091506166cb878383876166d7565b92505050949350505050565b60608315616739576000835103616731576166f1856162f9565b616730576040517f08c379a000000000000000000000000000000000000000000000000000000000815260040161672790618d05565b60405180910390fd5b5b829050616744565b616743838361674c565b5b949350505050565b60008251111561675f5781518083602001fd5b806040517f08c379a0000000000000000000000000000000000000000000000000000000008152600401616793919061698f565b60405180910390fd5b600067ffffffffffffffff82169050919050565b6167b98161679c565b82525050565b60006020820190506167d460008301846167b0565b92915050565b6000604051905090565b600080fd5b600080fd5b6167f78161679c565b811461680257600080fd5b50565b600081359050616814816167ee565b92915050565b6000819050919050565b61682d8161681a565b811461683857600080fd5b50565b60008135905061684a81616824565b92915050565b600080600080600060a0868803121561686c5761686b6167e4565b5b600061687a88828901616805565b955050602061688b88828901616805565b945050604061689c88828901616805565b93505060606168ad8882890161683b565b92505060806168be8882890161683b565b9150509295509295909350565b6000819050919050565b6168de816168cb565b82525050565b60006020820190506168f960008301846168d5565b92915050565b600081519050919050565b600082825260208201905092915050565b60005b8381101561693957808201518184015260208101905061691e565b60008484015250505050565b6000601f19601f8301169050919050565b6000616961826168ff565b61696b818561690a565b935061697b81856020860161691b565b61698481616945565b840191505092915050565b600060208201905081810360008301526169a98184616956565b905092915050565b600080fd5b6000819050826020600202820111156169d2576169d16169b1565b5b92915050565b6000819050826040600202820111156169f4576169f36169b1565b5b92915050565b6000806000806000806000806101a0898b031215616a1b57616a1a6167e4565b5b6000616a298b828c01616805565b9850506020616a3a8b828c01616805565b9750506040616a4b8b828c01616805565b9650506060616a5c8b828c0161683b565b9550506080616a6d8b828c0161683b565b94505060a0616a7e8b828c016169b6565b93505060e0616a8f8b828c016169d8565b925050610160616aa18b828c016169b6565b9150509295985092959890939650565b60008115159050919050565b616ac681616ab1565b82525050565b6000602082019050616ae16000830184616abd565b92915050565b600061ffff82169050919050565b616afe81616ae7565b8114616b0957600080fd5b50565b600081359050616b1b81616af5565b92915050565b600060208284031215616b3757616b366167e4565b5b6000616b4584828501616b0c565b91505092915050565b600080600080600060a08688031215616b6a57616b696167e4565b5b6000616b7888828901616805565b9550506020616b8988828901616805565b9450506040616b9a8882890161683b565b9350506060616bab8882890161683b565b9250506080616bbc8882890161683b565b9150509295509295909350565b600081519050919050565b600082825260208201905092915050565b6000616bf082616bc9565b616bfa8185616bd4565b9350616c0a81856020860161691b565b616c1381616945565b840191505092915050565b60006020820190508181036000830152616c388184616be5565b905092915050565b600073ffffffffffffffffffffffffffffffffffffffff82169050919050565b6000616c6b82616c40565b9050919050565b616c7b81616c60565b82525050565b6000602082019050616c966000830184616c72565b92915050565b600081905082602060180282011115616cb857616cb76169b1565b5b92915050565b6000806000806000806103a08789031215616cdc57616cdb6167e4565b5b6000616cea89828a01616805565b9650506020616cfb89828a01616805565b9550506040616d0c89828a01616805565b9450506060616d1d89828a0161683b565b9350506080616d2e89828a0161683b565b92505060a0616d3f89828a01616c9c565b9150509295509295509295565b60008060008060008060006103c0888a031215616d6c57616d6b6167e4565b5b6000616d7a8a828b01616805565b9750506020616d8b8a828b01616805565b9650506040616d9c8a828b01616805565b9550506060616dad8a828b01616805565b9450506080616dbe8a828b0161683b565b93505060a0616dcf8a828b0161683b565b92505060c0616de08a828b01616c9c565b91505092959891949750929550565b600060208284031215616e0557616e046167e4565b5b6000616e1384828501616805565b91505092915050565b600080fd5b600080fd5b60008083601f840112616e3c57616e3b616e1c565b5b8235905067ffffffffffffffff811115616e5957616e58616e21565b5b602083019150836080820283011115616e7557616e746169b1565b5b9250929050565b616e8581616c60565b8114616e9057600080fd5b50565b600081359050616ea281616e7c565b92915050565b60008083601f840112616ebe57616ebd616e1c565b5b8235905067ffffffffffffffff811115616edb57616eda616e21565b5b602083019150836001820283011115616ef757616ef66169b1565b5b9250929050565b600080600080600060608688031215616f1a57616f196167e4565b5b600086013567ffffffffffffffff811115616f3857616f376167e9565b5b616f4488828901616e26565b95509550506020616f5788828901616e93565b935050604086013567ffffffffffffffff811115616f7857616f776167e9565b5b616f8488828901616ea8565b92509250509295509295909350565b6000819050919050565b6000616fb8616fb3616fae84616c40565b616f93565b616c40565b9050919050565b6000616fca82616f9d565b9050919050565b6000616fdc82616fbf565b9050919050565b616fec81616fd1565b82525050565b60006020820190506170076000830184616fe3565b92915050565b6170168161681a565b82525050565b6000602082019050617031600083018461700d565b92915050565b600080fd5b7f4e487b7100000000000000000000000000000000000000000000000000000000600052604160045260246000fd5b61707482616945565b810181811067ffffffffffffffff821117156170935761709261703c565b5b80604052505050565b60006170a66167da565b90506170b2828261706b565b919050565b600067ffffffffffffffff8211156170d2576170d161703c565b5b6170db82616945565b9050602081019050919050565b82818337600083830152505050565b600061710a617105846170b7565b61709c565b90508281526020810184848401111561712657617125617037565b5b6171318482856170e8565b509392505050565b600082601f83011261714e5761714d616e1c565b5b813561715e8482602086016170f7565b91505092915050565b600080600080600060a08688031215617183576171826167e4565b5b60006171918882890161683b565b955050602086013567ffffffffffffffff8111156171b2576171b16167e9565b5b6171be88828901617139565b94505060406171cf8882890161683b565b93505060606171e088828901616805565b92505060806171f188828901616e93565b9150509295509295909350565b600060208284031215617214576172136167e4565b5b600061722284828501616e93565b91505092915050565b617234816168cb565b811461723f57600080fd5b50565b6000813590506172518161722b565b92915050565b60006020828403121561726d5761726c6167e4565b5b600061727b84828501617242565b91505092915050565b600060808201905061729960008301876167b0565b6172a660208301866167b0565b6172b3604083018561700d565b6172c0606083018461700d565b95945050505050565b60006172d482616fbf565b9050919050565b6172e4816172c9565b82525050565b60006020820190506172ff60008301846172db565b92915050565b61730e81616ae7565b82525050565b60006020820190506173296000830184617305565b92915050565b6000606082019050617344600083018661700d565b61735160208301856167b0565b61735e60408301846167b0565b949350505050565b600061737182616fbf565b9050919050565b61738181617366565b82525050565b600060208201905061739c6000830184617378565b92915050565b600067ffffffffffffffff8211156173bd576173bc61703c565b5b6173c682616945565b9050602081019050919050565b60006173e66173e1846173a2565b61709c565b90508281526020810184848401111561740257617401617037565b5b61740d8482856170e8565b509392505050565b600082601f83011261742a57617429616e1c565b5b813561743a8482602086016173d3565b91505092915050565b600060208284031215617459576174586167e4565b5b600082013567ffffffffffffffff811115617477576174766167e9565b5b61748384828501617415565b91505092915050565b600061749782616fbf565b9050919050565b6174a78161748c565b82525050565b60006020820190506174c2600083018461749e565b92915050565b600080fd5b600060a082840312156174e3576174e26174c8565b5b81905092915050565b60008083601f84011261750257617501616e1c565b5b8235905067ffffffffffffffff81111561751f5761751e616e21565b5b60208301915083600182028301111561753b5761753a6169b1565b5b9250929050565b60008060008060008061012087890312156175605761755f6167e4565b5b600061756e89828a016174cd565b96505060a061757f89828a0161683b565b95505060c087013567ffffffffffffffff8111156175a05761759f6167e9565b5b6175ac89828a01617415565b94505060e087013567ffffffffffffffff8111156175cd576175cc6167e9565b5b6175d989828a01617415565b93505061010087013567ffffffffffffffff8111156175fb576175fa6167e9565b5b61760789828a016174ec565b92509250509295509295509295565b60008083601f84011261762c5761762b616e1c565b5b8235905067ffffffffffffffff81111561764957617648616e21565b5b602083019150836020820283011115617665576176646169b1565b5b9250929050565b60008060208385031215617683576176826167e4565b5b600083013567ffffffffffffffff8111156176a1576176a06167e9565b5b6176ad85828601617616565b92509250509250929050565b600080600080608085870312156176d3576176d26167e4565b5b60006176e187828801616805565b94505060206176f28782880161683b565b935050604061770387828801616805565b925050606061771487828801616805565b91505092959194509250565b600061772b82616fbf565b9050919050565b61773b81617720565b82525050565b60006020820190506177566000830184617732565b92915050565b600080600060408486031215617775576177746167e4565b5b600084013567ffffffffffffffff811115617793576177926167e9565b5b61779f86828701616ea8565b935093505060206177b286828701617242565b9150509250925092565b600080604083850312156177d3576177d26167e4565b5b60006177e18582860161683b565b92505060206177f285828601616805565b9150509250929050565b7f43444b56616c696469756d3a3a766572696679426174636865733a2070656e6460008201527f696e6753746174654e756d206d757374206265206c657373206f72206571756160208201527f6c207468616e206c61737450656e64696e675374617465000000000000000000604082015250565b600061787e60578361690a565b9150617889826177fc565b606082019050919050565b600060208201905081810360008301526178ad81617871565b9050919050565b7f43444b56616c696469756d3a3a766572696679426174636865733a20696e697460008201527f4e756d4261746368206d757374206d61746368207468652070656e64696e672060208201527f7374617465206261746368000000000000000000000000000000000000000000604082015250565b6000617936604b8361690a565b9150617941826178b4565b606082019050919050565b6000602082019050818103600083015261796581617929565b9050919050565b7f43444b56616c696469756d3a3a766572696679426174636865733a20696e697460008201527f4e756d426174636820737461746520726f6f7420646f6573206e6f742065786960208201527f7374000000000000000000000000000000000000000000000000000000000000604082015250565b60006179ee60428361690a565b91506179f98261796c565b606082019050919050565b60006020820190508181036000830152617a1d816179e1565b9050919050565b7f43444b56616c696469756d3a3a766572696679426174636865733a20696e697460008201527f4e756d4261746368206d757374206265206c657373206f7220657175616c207460208201527f68616e2063757272656e744c6173745665726966696564426174636800000000604082015250565b6000617aa6605c8361690a565b9150617ab182617a24565b606082019050919050565b60006020820190508181036000830152617ad581617a99565b9050919050565b7f43444b56616c696469756d3a3a766572696679426174636865733a2066696e6160008201527f6c4e65774261746368206d75737420626520626967676572207468616e20637560208201527f7272656e744c6173745665726966696564426174636800000000000000000000604082015250565b6000617b5e60568361690a565b9150617b6982617adc565b606082019050919050565b60006020820190508181036000830152617b8d81617b51565b9050919050565b600081905092915050565b6000617baa82616bc9565b617bb48185617b94565b9350617bc481856020860161691b565b80840191505092915050565b6000617bdc8284617b9f565b915081905092915050565b600081519050617bf681616824565b92915050565b600060208284031215617c1257617c116167e4565b5b6000617c2084828501617be7565b91505092915050565b7f4e487b7100000000000000000000000000000000000000000000000000000000600052601260045260246000fd5b6000617c63826168cb565b9150617c6e836168cb565b925082617c7e57617c7d617c29565b5b828206905092915050565b7f4e487b7100000000000000000000000000000000000000000000000000000000600052602260045260246000fd5b60006002820490506001821680617cd057607f821691505b602082108103617ce357617ce2617c89565b5b50919050565b60008160601b9050919050565b6000617d0182617ce9565b9050919050565b6000617d1382617cf6565b9050919050565b617d2b617d2682616c60565b617d08565b82525050565b6000819050919050565b617d4c617d478261681a565b617d31565b82525050565b60008160c01b9050919050565b6000617d6a82617d52565b9050919050565b617d82617d7d8261679c565b617d5f565b82525050565b6000617d94828d617d1a565b601482019150617da4828c617d3b565b602082019150617db4828b617d3b565b602082019150617dc4828a617d71565b600882019150617dd48289617d71565b600882019150617de48288617d71565b600882019150617df48287617d3b565b602082019150617e048286617d3b565b602082019150617e148285617d3b565b602082019150617e248284617d71565b6008820191508190509b9a5050505050505050505050565b7f4e487b7100000000000000000000000000000000000000000000000000000000600052601160045260246000fd5b6000617e768261679c565b9150617e818361679c565b9250828201905067ffffffffffffffff811115617ea157617ea0617e3c565b5b92915050565b7f4e487b7100000000000000000000000000000000000000000000000000000000600052603260045260246000fd5b600080fd5b600080fd5b600060808284031215617ef657617ef5617ed6565b5b617f00608061709c565b90506000617f108482850161683b565b6000830152506020617f248482850161683b565b6020830152506040617f3884828501616805565b6040830152506060617f4c84828501616805565b60608301525092915050565b600060808284031215617f6e57617f6d6167e4565b5b6000617f7c84828501617ee0565b91505092915050565b6000617f908261679c565b915067ffffffffffffffff8203617faa57617fa9617e3c565b5b600182019050919050565b6000617fc18286617d3b565b602082019150617fd18285617d3b565b602082019150617fe18284617d71565b600882019150819050949350505050565b6000815190506180018161722b565b92915050565b60006020828403121561801d5761801c6167e4565b5b600061802b84828501617ff2565b91505092915050565b60006180408288617d3b565b6020820191506180508287617d3b565b6020820191506180608286617d3b565b6020820191506180708285617d71565b6008820191506180808284617d1a565b6014820191508190509695505050505050565b600061809e826168cb565b91507fffffffffffffffffffffffffffffffffffffffffffffffffffffffffffffffff82036180d0576180cf617e3c565b5b600182019050919050565b60006180e78385616bd4565b93506180f48385846170e8565b6180fd83616945565b840190509392505050565b600060408201905061811d600083018661700d565b81810360208301526181308184866180db565b9050949350505050565b60006181458261679c565b91506181508361679c565b9250828203905067ffffffffffffffff8111156181705761816f617e3c565b5b92915050565b6000618181826168cb565b915061818c836168cb565b92508282039050818111156181a4576181a3617e3c565b5b92915050565b60006181b5826168cb565b91506181c0836168cb565b92508282026181ce816168cb565b915082820484148315176181e5576181e4617e3c565b5b5092915050565b60006181f7826168cb565b9150618202836168cb565b92508261821257618211617c29565b5b828204905092915050565b6000604082019050618232600083018561700d565b61823f602083018461700d565b9392505050565b60008190508160005260206000209050919050565b60006020601f8301049050919050565b600082821b905092915050565b6000600883026182a87fffffffffffffffffffffffffffffffffffffffffffffffffffffffffffffffff8261826b565b6182b2868361826b565b95508019841693508086168417925050509392505050565b60006182e56182e06182db846168cb565b616f93565b6168cb565b9050919050565b6000819050919050565b6182ff836182ca565b61831361830b826182ec565b848454618278565b825550505050565b600090565b61832861831b565b6183338184846182f6565b505050565b5b818110156183575761834c600082618320565b600181019050618339565b5050565b601f82111561839c5761836d81618246565b6183768461825b565b81016020851015618385578190505b6183996183918561825b565b830182618338565b50505b505050565b600082821c905092915050565b60006183bf600019846008026183a1565b1980831691505092915050565b60006183d883836183ae565b9150826002028217905092915050565b6183f1826168ff565b67ffffffffffffffff81111561840a5761840961703c565b5b6184148254617cb8565b61841f82828561835b565b600060209050601f8311600181146184525760008415618440578287015190505b61844a85826183cc565b8655506184b2565b601f19841661846086618246565b60005b8281101561848857848901518255600182019150602085019450602081019050618463565b868310156184a557848901516184a1601f8916826183ae565b8355505b6001600288020188555050505b505050505050565b7f496e697469616c697a61626c653a20636f6e747261637420697320616c72656160008201527f647920696e697469616c697a6564000000000000000000000000000000000000602082015250565b6000618516602e8361690a565b9150618521826184ba565b604082019050919050565b6000602082019050818103600083015261854581618509565b9050919050565b6000819050919050565b600061857161856c6185678461854c565b616f93565b61679c565b9050919050565b61858181618556565b82525050565b6000618593838561690a565b93506185a08385846170e8565b6185a983616945565b840190509392505050565b60006060820190506185c96000830187618578565b6185d660208301866167b0565b81810360408301526185e9818486618587565b905095945050505050565b6000819050919050565b600060ff82169050919050565b600061862661862161861c846185f4565b616f93565b6185fe565b9050919050565b6186368161860b565b82525050565b6000602082019050618651600083018461862d565b92915050565b6000618662826168cb565b915061866d836168cb565b925082820190508082111561868557618684617e3c565b5b92915050565b600080fd5b6000823560016060038336030381126186ac576186ab61868b565b5b80830191505092915050565b6000606082840312156186ce576186cd617ed6565b5b6186d8606061709c565b9050600082013567ffffffffffffffff8111156186f8576186f7617edb565b5b61870484828501617139565b60008301525060206187188482850161683b565b602083015250604061872c84828501616805565b60408301525092915050565b600061874436836186b8565b9050919050565b60006187578385617b94565b93506187648385846170e8565b82840190509392505050565b600061877d82848661874b565b91508190509392505050565b50565b6000618799600083616bd4565b91506187a482618789565b600082019050919050565b60006060820190506187c4600083018561700d565b6187d16020830184616c72565b81810360408301526187e28161878c565b90509392505050565b6000606082019050618800600083018761700d565b61880d6020830186616c72565b81810360408301526188208184866180db565b905095945050505050565b7f4f776e61626c653a206e6577206f776e657220697320746865207a65726f206160008201527f6464726573730000000000000000000000000000000000000000000000000000602082015250565b600061888760268361690a565b91506188928261882b565b604082019050919050565b600060208201905081810360008301526188b68161887a565b9050919050565b7f4f776e61626c653a2063616c6c6572206973206e6f7420746865206f776e6572600082015250565b60006188f360208361690a565b91506188fe826188bd565b602082019050919050565b60006020820190508181036000830152618922816188e6565b9050919050565b82818337505050565b61893f6103008383618929565b5050565b600060019050919050565b600081905092915050565b6000819050919050565b61896c816168cb565b82525050565b600061897e8383618963565b60208301905092915050565b6000602082019050919050565b6189a081618943565b6189aa818461894e565b92506189b582618959565b8060005b838110156189e65781516189cd8782618972565b96506189d88361898a565b9250506001810190506189b9565b505050505050565b600061032082019050618a046000830185618932565b618a12610300830184618997565b9392505050565b618a2281616ab1565b8114618a2d57600080fd5b50565b600081519050618a3f81618a19565b92915050565b600060208284031215618a5b57618a5a6167e4565b5b6000618a6984828501618a30565b91505092915050565b6000606082019050618a876000830186616c72565b618a946020830185616c72565b618aa160408301846168d5565b949350505050565b6000618ab48261679c565b9150618abf8361679c565b925082618acf57618ace617c29565b5b828204905092915050565b7f496e697469616c697a61626c653a20636f6e7472616374206973206e6f74206960008201527f6e697469616c697a696e67000000000000000000000000000000000000000000602082015250565b6000618b36602b8361690a565b9150618b4182618ada565b604082019050919050565b60006020820190508181036000830152618b6581618b29565b9050919050565b6000604082019050618b816000830185616c72565b618b8e60208301846168d5565b9392505050565b7f5361666545524332303a204552433230206f7065726174696f6e20646964206e60008201527f6f74207375636365656400000000000000000000000000000000000000000000602082015250565b6000618bf1602a8361690a565b9150618bfc82618b95565b604082019050919050565b60006020820190508181036000830152618c2081618be4565b9050919050565b7f416464726573733a20696e73756666696369656e742062616c616e636520666f60008201527f722063616c6c0000000000000000000000000000000000000000000000000000602082015250565b6000618c8360268361690a565b9150618c8e82618c27565b604082019050919050565b60006020820190508181036000830152618cb281618c76565b9050919050565b7f416464726573733a2063616c6c20746f206e6f6e2d636f6e7472616374000000600082015250565b6000618cef601d8361690a565b9150618cfa82618cb9565b602082019050919050565b60006020820190508181036000830152618d1e81618ce2565b905091905056fea2646970667358221220d3817513078cfa91f694827e0fdec05ec9f2de3686ab25dd8d5ee54f37a4a45164736f6c63430008140033",
  "linkReferences": {},
  "deployedLinkReferences": {}
}