{
  "_format": "hh-sol-artifact-1",
  "contractName": "EmergencyManager",
  "sourceName": "contracts/lib/EmergencyManager.sol",
  "abi": [
    {
      "inputs": [],
      "name": "OnlyEmergencyState",
      "type": "error"
    },
    {
      "inputs": [],
      "name": "OnlyNotEmergencyState",
      "type": "error"
    },
    {
      "anonymous": false,
      "inputs": [],
      "name": "EmergencyStateActivated",
      "type": "event"
    },
    {
      "anonymous": false,
      "inputs": [],
      "name": "EmergencyStateDeactivated",
      "type": "event"
    },
    {
      "inputs": [],
      "name": "isEmergencyState",
      "outputs": [
        {
          "internalType": "bool",
          "name": "",
          "type": "bool"
        }
      ],
      "stateMutability": "view",
      "type": "function"
    }
  ],
  "bytecode": "0x608060405234801561001057600080fd5b5060c28061001f6000396000f3fe6080604052348015600f57600080fd5b506004361060285760003560e01c806315064c9614602d575b600080fd5b60336047565b604051603e91906073565b60405180910390f35b600a60009054906101000a900460ff1681565b60008115159050919050565b606d81605a565b82525050565b6000602082019050608660008301846066565b9291505056fea2646970667358221220134b05fc76fbe9cba0a9473b42ba1451ab88638ff6624a8f714e49520c90126e64736f6c63430008140033",
  "linkReferences": {},
  "deployedLinkReferences": {}
}