{
  "_format": "hh-sol-artifact-1",
  "contractName": "CDKValidiumDeployer",
  "sourceName": "contracts/deployment/CDKValidiumDeployer.sol",
  "abi": [
    {
      "inputs": [
        {
          "internalType": "address",
          "name": "_owner",
          "type": "address"
        }
      ],
      "stateMutability": "nonpayable",
      "type": "constructor"
    },
    {
      "anonymous": false,
      "inputs": [],
      "name": "FunctionCall",
      "type": "event"
    },
    {
      "anonymous": false,
      "inputs": [
        {
          "indexed": false,
          "internalType": "address",
          "name": "newContractAddress",
          "type": "address"
        }
      ],
      "name": "NewDeterministicDeployment",
      "type": "event"
    },
    {
      "anonymous": false,
      "inputs": [
        {
          "indexed": true,
          "internalType": "address",
          "name": "previousOwner",
          "type": "address"
        },
        {
          "indexed": true,
          "internalType": "address",
          "name": "newOwner",
          "type": "address"
        }
      ],
      "name": "OwnershipTransferred",
      "type": "event"
    },
    {
      "inputs": [
        {
          "internalType": "uint256",
          "name": "amount",
          "type": "uint256"
        },
        {
          "internalType": "bytes32",
          "name": "salt",
          "type": "bytes32"
        },
        {
          "internalType": "bytes",
          "name": "initBytecode",
          "type": "bytes"
        }
      ],
      "name": "deployDeterministic",
      "outputs": [],
      "stateMutability": "payable",
      "type": "function"
    },
    {
      "inputs": [
        {
          "internalType": "uint256",
          "name": "amount",
          "type": "uint256"
        },
        {
          "internalType": "bytes32",
          "name": "salt",
          "type": "bytes32"
        },
        {
          "internalType": "bytes",
          "name": "initBytecode",
          "type": "bytes"
        },
        {
          "internalType": "bytes",
          "name": "dataCall",
          "type": "bytes"
        }
      ],
      "name": "deployDeterministicAndCall",
      "outputs": [],
      "stateMutability": "payable",
      "type": "function"
    },
    {
      "inputs": [
        {
          "internalType": "address",
          "name": "targetAddress",
          "type": "address"
        },
        {
          "internalType": "bytes",
          "name": "dataCall",
          "type": "bytes"
        },
        {
          "internalType": "uint256",
          "name": "amount",
          "type": "uint256"
        }
      ],
      "name": "functionCall",
      "outputs": [],
      "stateMutability": "payable",
      "type": "function"
    },
    {
      "inputs": [],
      "name": "owner",
      "outputs": [
        {
          "internalType": "address",
          "name": "",
          "type": "address"
        }
      ],
      "stateMutability": "view",
      "type": "function"
    },
    {
      "inputs": [
        {
          "internalType": "bytes32",
          "name": "salt",
          "type": "bytes32"
        },
        {
          "internalType": "bytes32",
          "name": "bytecodeHash",
          "type": "bytes32"
        }
      ],
      "name": "predictDeterministicAddress",
      "outputs": [
        {
          "internalType": "address",
          "name": "",
          "type": "address"
        }
      ],
      "stateMutability": "view",
      "type": "function"
    },
    {
      "inputs": [],
      "name": "renounceOwnership",
      "outputs": [],
      "stateMutability": "nonpayable",
      "type": "function"
    },
    {
      "inputs": [
        {
          "internalType": "address",
          "name": "newOwner",
          "type": "address"
        }
      ],
      "name": "transferOwnership",
      "outputs": [],
      "stateMutability": "nonpayable",
      "type": "function"
    }
  ],
  "bytecode": "0x60806040523480156200001157600080fd5b50604051620012bf380380620012bf8339818101604052810190620000379190620001a5565b620000576200004b6200006f60201b60201c565b6200007760201b60201c565b62000068816200007760201b60201c565b50620001d7565b600033905090565b60008060009054906101000a900473ffffffffffffffffffffffffffffffffffffffff169050816000806101000a81548173ffffffffffffffffffffffffffffffffffffffff021916908373ffffffffffffffffffffffffffffffffffffffff1602179055508173ffffffffffffffffffffffffffffffffffffffff168173ffffffffffffffffffffffffffffffffffffffff167f8be0079c531659141344cd1fd0a4f28419497f9722a3daafe3b4186f6b6457e060405160405180910390a35050565b600080fd5b600073ffffffffffffffffffffffffffffffffffffffff82169050919050565b60006200016d8262000140565b9050919050565b6200017f8162000160565b81146200018b57600080fd5b50565b6000815190506200019f8162000174565b92915050565b600060208284031215620001be57620001bd6200013b565b5b6000620001ce848285016200018e565b91505092915050565b6110d880620001e76000396000f3fe6080604052600436106100705760003560e01c8063715018a61161004e578063715018a6146100ea5780638da5cb5b14610101578063e11ae6cb1461012c578063f2fde38b1461014857610070565b80632b79805a146100755780634a94d487146100915780636d07dbf8146100ad575b600080fd5b61008f600480360381019061008a91906109c8565b610171565b005b6100ab60048036038101906100a69190610ac5565b6101d1565b005b3480156100b957600080fd5b506100d460048036038101906100cf9190610b34565b610216565b6040516100e19190610b83565b60405180910390f35b3480156100f657600080fd5b506100ff61022a565b005b34801561010d57600080fd5b5061011661023e565b6040516101239190610b83565b60405180910390f35b61014660048036038101906101419190610b9e565b610267565b005b34801561015457600080fd5b5061016f600480360381019061016a9190610c0d565b6102bb565b005b61017961033e565b60006101868585856103bc565b905061019281836104c6565b507fba82f25fed02cd2a23d9f5d11c2ef588d22af5437cbf23bfe61d87257c480e4c816040516101c29190610b83565b60405180910390a15050505050565b6101d961033e565b6101e4838383610512565b507f25adb19089b6a549831a273acdf7908cff8b7ee5f551f8d1d37996cf01c5df5b60405160405180910390a1505050565b60006102228383610541565b905092915050565b61023261033e565b61023c6000610556565b565b60008060009054906101000a900473ffffffffffffffffffffffffffffffffffffffff16905090565b61026f61033e565b600061027c8484846103bc565b90507fba82f25fed02cd2a23d9f5d11c2ef588d22af5437cbf23bfe61d87257c480e4c816040516102ad9190610b83565b60405180910390a150505050565b6102c361033e565b600073ffffffffffffffffffffffffffffffffffffffff168173ffffffffffffffffffffffffffffffffffffffff1603610332576040517f08c379a000000000000000000000000000000000000000000000000000000000815260040161032990610cbd565b60405180910390fd5b61033b81610556565b50565b61034661061a565b73ffffffffffffffffffffffffffffffffffffffff1661036461023e565b73ffffffffffffffffffffffffffffffffffffffff16146103ba576040517f08c379a00000000000000000000000000000000000000000000000000000000081526004016103b190610d29565b60405180910390fd5b565b600083471015610401576040517f08c379a00000000000000000000000000000000000000000000000000000000081526004016103f890610d95565b60405180910390fd5b6000825103610445576040517f08c379a000000000000000000000000000000000000000000000000000000000815260040161043c90610e01565b60405180910390fd5b8282516020840186f59050600073ffffffffffffffffffffffffffffffffffffffff168173ffffffffffffffffffffffffffffffffffffffff16036104bf576040517f08c379a00000000000000000000000000000000000000000000000000000000081526004016104b690610e6d565b60405180910390fd5b9392505050565b606061050a838360006040518060400160405280601e81526020017f416464726573733a206c6f772d6c6576656c2063616c6c206661696c65640000815250610622565b905092915050565b606061053884848460405180606001604052806029815260200161107a60299139610622565b90509392505050565b600061054e8383306106ef565b905092915050565b60008060009054906101000a900473ffffffffffffffffffffffffffffffffffffffff169050816000806101000a81548173ffffffffffffffffffffffffffffffffffffffff021916908373ffffffffffffffffffffffffffffffffffffffff1602179055508173ffffffffffffffffffffffffffffffffffffffff168173ffffffffffffffffffffffffffffffffffffffff167f8be0079c531659141344cd1fd0a4f28419497f9722a3daafe3b4186f6b6457e060405160405180910390a35050565b600033905090565b606082471015610667576040517f08c379a000000000000000000000000000000000000000000000000000000000815260040161065e90610eff565b60405180910390fd5b6000808673ffffffffffffffffffffffffffffffffffffffff1685876040516106909190610f90565b60006040518083038185875af1925050503d80600081146106cd576040519150601f19603f3d011682016040523d82523d6000602084013e6106d2565b606091505b50915091506106e38783838761071a565b92505050949350505050565b6000604051836040820152846020820152828152600b810160ff815360558120925050509392505050565b6060831561077c576000835103610774576107348561078f565b610773576040517f08c379a000000000000000000000000000000000000000000000000000000000815260040161076a90610ff3565b60405180910390fd5b5b829050610787565b61078683836107b2565b5b949350505050565b6000808273ffffffffffffffffffffffffffffffffffffffff163b119050919050565b6000825111156107c55781518083602001fd5b806040517f08c379a00000000000000000000000000000000000000000000000000000000081526004016107f99190611057565b60405180910390fd5b6000604051905090565b600080fd5b600080fd5b6000819050919050565b61082981610816565b811461083457600080fd5b50565b60008135905061084681610820565b92915050565b6000819050919050565b61085f8161084c565b811461086a57600080fd5b50565b60008135905061087c81610856565b92915050565b600080fd5b600080fd5b6000601f19601f8301169050919050565b7f4e487b7100000000000000000000000000000000000000000000000000000000600052604160045260246000fd5b6108d58261088c565b810181811067ffffffffffffffff821117156108f4576108f361089d565b5b80604052505050565b6000610907610802565b905061091382826108cc565b919050565b600067ffffffffffffffff8211156109335761093261089d565b5b61093c8261088c565b9050602081019050919050565b82818337600083830152505050565b600061096b61096684610918565b6108fd565b90508281526020810184848401111561098757610986610887565b5b610992848285610949565b509392505050565b600082601f8301126109af576109ae610882565b5b81356109bf848260208601610958565b91505092915050565b600080600080608085870312156109e2576109e161080c565b5b60006109f087828801610837565b9450506020610a018782880161086d565b935050604085013567ffffffffffffffff811115610a2257610a21610811565b5b610a2e8782880161099a565b925050606085013567ffffffffffffffff811115610a4f57610a4e610811565b5b610a5b8782880161099a565b91505092959194509250565b600073ffffffffffffffffffffffffffffffffffffffff82169050919050565b6000610a9282610a67565b9050919050565b610aa281610a87565b8114610aad57600080fd5b50565b600081359050610abf81610a99565b92915050565b600080600060608486031215610ade57610add61080c565b5b6000610aec86828701610ab0565b935050602084013567ffffffffffffffff811115610b0d57610b0c610811565b5b610b198682870161099a565b9250506040610b2a86828701610837565b9150509250925092565b60008060408385031215610b4b57610b4a61080c565b5b6000610b598582860161086d565b9250506020610b6a8582860161086d565b9150509250929050565b610b7d81610a87565b82525050565b6000602082019050610b986000830184610b74565b92915050565b600080600060608486031215610bb757610bb661080c565b5b6000610bc586828701610837565b9350506020610bd68682870161086d565b925050604084013567ffffffffffffffff811115610bf757610bf6610811565b5b610c038682870161099a565b9150509250925092565b600060208284031215610c2357610c2261080c565b5b6000610c3184828501610ab0565b91505092915050565b600082825260208201905092915050565b7f4f776e61626c653a206e6577206f776e657220697320746865207a65726f206160008201527f6464726573730000000000000000000000000000000000000000000000000000602082015250565b6000610ca7602683610c3a565b9150610cb282610c4b565b604082019050919050565b60006020820190508181036000830152610cd681610c9a565b9050919050565b7f4f776e61626c653a2063616c6c6572206973206e6f7420746865206f776e6572600082015250565b6000610d13602083610c3a565b9150610d1e82610cdd565b602082019050919050565b60006020820190508181036000830152610d4281610d06565b9050919050565b7f437265617465323a20696e73756666696369656e742062616c616e6365000000600082015250565b6000610d7f601d83610c3a565b9150610d8a82610d49565b602082019050919050565b60006020820190508181036000830152610dae81610d72565b9050919050565b7f437265617465323a2062797465636f6465206c656e677468206973207a65726f600082015250565b6000610deb602083610c3a565b9150610df682610db5565b602082019050919050565b60006020820190508181036000830152610e1a81610dde565b9050919050565b7f437265617465323a204661696c6564206f6e206465706c6f7900000000000000600082015250565b6000610e57601983610c3a565b9150610e6282610e21565b602082019050919050565b60006020820190508181036000830152610e8681610e4a565b9050919050565b7f416464726573733a20696e73756666696369656e742062616c616e636520666f60008201527f722063616c6c0000000000000000000000000000000000000000000000000000602082015250565b6000610ee9602683610c3a565b9150610ef482610e8d565b604082019050919050565b60006020820190508181036000830152610f1881610edc565b9050919050565b600081519050919050565b600081905092915050565b60005b83811015610f53578082015181840152602081019050610f38565b60008484015250505050565b6000610f6a82610f1f565b610f748185610f2a565b9350610f84818560208601610f35565b80840191505092915050565b6000610f9c8284610f5f565b915081905092915050565b7f416464726573733a2063616c6c20746f206e6f6e2d636f6e7472616374000000600082015250565b6000610fdd601d83610c3a565b9150610fe882610fa7565b602082019050919050565b6000602082019050818103600083015261100c81610fd0565b9050919050565b600081519050919050565b600061102982611013565b6110338185610c3a565b9350611043818560208601610f35565b61104c8161088c565b840191505092915050565b60006020820190508181036000830152611071818461101e565b90509291505056fe416464726573733a206c6f772d6c6576656c2063616c6c20776974682076616c7565206661696c6564a264697066735822122033c5fb54e3fc66665fba617bbabcb012d7104b9e57a476ff7840c7f45c95464a64736f6c63430008140033",
  "linkReferences": {},
  "deployedLinkReferences": {}
}