{
  "_format": "hh-sol-artifact-1",
  "contractName": "PolygonZkEVMGlobalExitRoot",
  "sourceName": "contracts/PolygonZkEVMGlobalExitRoot.sol",
  "abi": [
    {
      "inputs": [
        {
          "internalType": "address",
          "name": "_rollupAddress",
          "type": "address"
        },
        {
          "internalType": "address",
          "name": "_bridgeAddress",
          "type": "address"
        }
      ],
      "stateMutability": "nonpayable",
      "type": "constructor"
    },
    {
      "inputs": [],
      "name": "OnlyAllowedContracts",
      "type": "error"
    },
    {
      "anonymous": false,
      "inputs": [
        {
          "indexed": true,
          "internalType": "bytes32",
          "name": "mainnetExitRoot",
          "type": "bytes32"
        },
        {
          "indexed": true,
          "internalType": "bytes32",
          "name": "rollupExitRoot",
          "type": "bytes32"
        }
      ],
      "name": "UpdateGlobalExitRoot",
      "type": "event"
    },
    {
      "inputs": [],
      "name": "bridgeAddress",
      "outputs": [
        {
          "internalType": "address",
          "name": "",
          "type": "address"
        }
      ],
      "stateMutability": "view",
      "type": "function"
    },
    {
      "inputs": [],
      "name": "getLastGlobalExitRoot",
      "outputs": [
        {
          "internalType": "bytes32",
          "name": "",
          "type": "bytes32"
        }
      ],
      "stateMutability": "view",
      "type": "function"
    },
    {
      "inputs": [
        {
          "internalType": "bytes32",
          "name": "",
          "type": "bytes32"
        }
      ],
      "name": "globalExitRootMap",
      "outputs": [
        {
          "internalType": "uint256",
          "name": "",
          "type": "uint256"
        }
      ],
      "stateMutability": "view",
      "type": "function"
    },
    {
      "inputs": [],
      "name": "lastMainnetExitRoot",
      "outputs": [
        {
          "internalType": "bytes32",
          "name": "",
          "type": "bytes32"
        }
      ],
      "stateMutability": "view",
      "type": "function"
    },
    {
      "inputs": [],
      "name": "lastRollupExitRoot",
      "outputs": [
        {
          "internalType": "bytes32",
          "name": "",
          "type": "bytes32"
        }
      ],
      "stateMutability": "view",
      "type": "function"
    },
    {
      "inputs": [],
      "name": "rollupAddress",
      "outputs": [
        {
          "internalType": "address",
          "name": "",
          "type": "address"
        }
      ],
      "stateMutability": "view",
      "type": "function"
    },
    {
      "inputs": [
        {
          "internalType": "bytes32",
          "name": "newRoot",
          "type": "bytes32"
        }
      ],
      "name": "updateExitRoot",
      "outputs": [],
      "stateMutability": "nonpayable",
      "type": "function"
    }
  ],
  "bytecode": "0x60c060405234801561001057600080fd5b506040516106ae3803806106ae83398181016040528101906100329190610104565b8173ffffffffffffffffffffffffffffffffffffffff1660a08173ffffffffffffffffffffffffffffffffffffffff16815250508073ffffffffffffffffffffffffffffffffffffffff1660808173ffffffffffffffffffffffffffffffffffffffff16815250505050610144565b600080fd5b600073ffffffffffffffffffffffffffffffffffffffff82169050919050565b60006100d1826100a6565b9050919050565b6100e1816100c6565b81146100ec57600080fd5b50565b6000815190506100fe816100d8565b92915050565b6000806040838503121561011b5761011a6100a1565b5b6000610129858286016100ef565b925050602061013a858286016100ef565b9150509250929050565b60805160a051610537610177600039600081816101f90152610319015260008181610197015261033d01526105376000f3fe608060405234801561001057600080fd5b506004361061007d5760003560e01c806333d6247d1161005b57806333d6247d146100ee5780633ed691ef1461010a5780635ec6a8df14610128578063a3c573eb146101465761007d565b806301fd904414610082578063257b3632146100a0578063319cf735146100d0575b600080fd5b61008a610164565b60405161009791906103ab565b60405180910390f35b6100ba60048036038101906100b591906103f7565b61016a565b6040516100c7919061043d565b60405180910390f35b6100d8610182565b6040516100e591906103ab565b60405180910390f35b610108600480360381019061010391906103f7565b610188565b005b610112610302565b60405161011f91906103ab565b60405180910390f35b610130610317565b60405161013d9190610499565b60405180910390f35b61014e61033b565b60405161015b9190610499565b60405180910390f35b60005481565b60026020528060005260406000206000915090505481565b60015481565b600080549050600060015490507f000000000000000000000000000000000000000000000000000000000000000073ffffffffffffffffffffffffffffffffffffffff163373ffffffffffffffffffffffffffffffffffffffff16036101f7578260018190555082905061028c565b7f000000000000000000000000000000000000000000000000000000000000000073ffffffffffffffffffffffffffffffffffffffff163373ffffffffffffffffffffffffffffffffffffffff1603610259578260008190555082915061028b565b6040517fb49365dd00000000000000000000000000000000000000000000000000000000815260040160405180910390fd5b5b6000610298828461035f565b905060006002600083815260200190815260200160002054036102fc5742600260008381526020019081526020016000208190555082827f61014378f82a0d809aefaf87a8ac9505b89c321808287a6e7810f29304c1fce360405160405180910390a35b50505050565b600061031260015460005461035f565b905090565b7f000000000000000000000000000000000000000000000000000000000000000081565b7f000000000000000000000000000000000000000000000000000000000000000081565b600082826040516020016103749291906104d5565b60405160208183030381529060405280519060200120905092915050565b6000819050919050565b6103a581610392565b82525050565b60006020820190506103c0600083018461039c565b92915050565b600080fd5b6103d481610392565b81146103df57600080fd5b50565b6000813590506103f1816103cb565b92915050565b60006020828403121561040d5761040c6103c6565b5b600061041b848285016103e2565b91505092915050565b6000819050919050565b61043781610424565b82525050565b6000602082019050610452600083018461042e565b92915050565b600073ffffffffffffffffffffffffffffffffffffffff82169050919050565b600061048382610458565b9050919050565b61049381610478565b82525050565b60006020820190506104ae600083018461048a565b92915050565b6000819050919050565b6104cf6104ca82610392565b6104b4565b82525050565b60006104e182856104be565b6020820191506104f182846104be565b602082019150819050939250505056fea2646970667358221220a4963900938afe0d13089ebd6bef73a7b300d9b8fd1db50d5b49354c93df693364736f6c63430008140033",
  "linkReferences": {},
  "deployedLinkReferences": {}
}