{
  "_format": "hh-sol-artifact-1",
  "contractName": "PolygonZkEVMGlobalExitRootL2Mock",
  "sourceName": "contracts/mocks/PolygonZkEVMGlobalExitRootL2Mock.sol",
  "abi": [
    {
      "inputs": [
        {
          "internalType": "address",
          "name": "_bridgeAddress",
          "type": "address"
        }
      ],
      "stateMutability": "nonpayable",
      "type": "constructor"
    },
    {
      "inputs": [],
      "name": "OnlyAllowedContracts",
      "type": "error"
    },
    {
      "inputs": [],
      "name": "bridgeAddress",
      "outputs": [
        {
          "internalType": "address",
          "name": "",
          "type": "address"
        }
      ],
      "stateMutability": "view",
      "type": "function"
    },
    {
      "inputs": [
        {
          "internalType": "bytes32",
          "name": "",
          "type": "bytes32"
        }
      ],
      "name": "globalExitRootMap",
      "outputs": [
        {
          "internalType": "uint256",
          "name": "",
          "type": "uint256"
        }
      ],
      "stateMutability": "view",
      "type": "function"
    },
    {
      "inputs": [],
      "name": "lastRollupExitRoot",
      "outputs": [
        {
          "internalType": "bytes32",
          "name": "",
          "type": "bytes32"
        }
      ],
      "stateMutability": "view",
      "type": "function"
    },
    {
      "inputs": [
        {
          "internalType": "bytes32",
          "name": "newRoot",
          "type": "bytes32"
        }
      ],
      "name": "setExitRoot",
      "outputs": [],
      "stateMutability": "nonpayable",
      "type": "function"
    },
    {
      "inputs": [
        {
          "internalType": "bytes32",
          "name": "globalExitRoot",
          "type": "bytes32"
        },
        {
          "internalType": "uint256",
          "name": "blockNumber",
          "type": "uint256"
        }
      ],
      "name": "setLastGlobalExitRoot",
      "outputs": [],
      "stateMutability": "nonpayable",
      "type": "function"
    },
    {
      "inputs": [
        {
          "internalType": "bytes32",
          "name": "newRoot",
          "type": "bytes32"
        }
      ],
      "name": "updateExitRoot",
      "outputs": [],
      "stateMutability": "nonpayable",
      "type": "function"
    }
  ],
  "bytecode": "0x60a060405234801561001057600080fd5b50604051610501380380610501833981810160405281019061003291906100d1565b808073ffffffffffffffffffffffffffffffffffffffff1660808173ffffffffffffffffffffffffffffffffffffffff168152505050506100fe565b600080fd5b600073ffffffffffffffffffffffffffffffffffffffff82169050919050565b600061009e82610073565b9050919050565b6100ae81610093565b81146100b957600080fd5b50565b6000815190506100cb816100a5565b92915050565b6000602082840312156100e7576100e661006e565b5b60006100f5848285016100bc565b91505092915050565b6080516103e16101206000396000818161015101526101fb01526103e16000f3fe608060405234801561001057600080fd5b50600436106100625760003560e01c806301fd904414610067578063116c40c314610085578063257b3632146100a157806333d6247d146100d157806396e07459146100ed578063a3c573eb14610109575b600080fd5b61006f610127565b60405161007c9190610236565b60405180910390f35b61009f600480360381019061009a9190610282565b61012d565b005b6100bb60048036038101906100b69190610282565b610137565b6040516100c891906102c8565b60405180910390f35b6100eb60048036038101906100e69190610282565b61014f565b005b6101076004803603810190610102919061030f565b6101de565b005b6101116101f9565b60405161011e9190610390565b60405180910390f35b60015481565b8060018190555050565b60006020528060005260406000206000915090505481565b7f000000000000000000000000000000000000000000000000000000000000000073ffffffffffffffffffffffffffffffffffffffff163373ffffffffffffffffffffffffffffffffffffffff16146101d4576040517fb49365dd00000000000000000000000000000000000000000000000000000000815260040160405180910390fd5b8060018190555050565b80600080848152602001908152602001600020819055505050565b7f000000000000000000000000000000000000000000000000000000000000000081565b6000819050919050565b6102308161021d565b82525050565b600060208201905061024b6000830184610227565b92915050565b600080fd5b61025f8161021d565b811461026a57600080fd5b50565b60008135905061027c81610256565b92915050565b60006020828403121561029857610297610251565b5b60006102a68482850161026d565b91505092915050565b6000819050919050565b6102c2816102af565b82525050565b60006020820190506102dd60008301846102b9565b92915050565b6102ec816102af565b81146102f757600080fd5b50565b600081359050610309816102e3565b92915050565b6000806040838503121561032657610325610251565b5b60006103348582860161026d565b9250506020610345858286016102fa565b9150509250929050565b600073ffffffffffffffffffffffffffffffffffffffff82169050919050565b600061037a8261034f565b9050919050565b61038a8161036f565b82525050565b60006020820190506103a56000830184610381565b9291505056fea2646970667358221220b85cf325098e12d7c30e03ba6468b2b2822b19eb17f95659083418abd4edd9e764736f6c63430008140033",
  "linkReferences": {},
  "deployedLinkReferences": {}
}