{
  "_format": "hh-sol-artifact-1",
  "contractName": "CDKValidiumTimelock",
  "sourceName": "contracts/CDKValidiumTimelock.sol",
  "abi": [
    {
      "inputs": [
        {
          "internalType": "uint256",
          "name": "minDelay",
          "type": "uint256"
        },
        {
          "internalType": "address[]",
          "name": "proposers",
          "type": "address[]"
        },
        {
          "internalType": "address[]",
          "name": "executors",
          "type": "address[]"
        },
        {
          "internalType": "address",
          "name": "admin",
          "type": "address"
        },
        {
          "internalType": "contract CDKValidium",
          "name": "_cdkValidium",
          "type": "address"
        }
      ],
      "stateMutability": "nonpayable",
      "type": "constructor"
    },
    {
      "anonymous": false,
      "inputs": [
        {
          "indexed": true,
          "internalType": "bytes32",
          "name": "id",
          "type": "bytes32"
        },
        {
          "indexed": true,
          "internalType": "uint256",
          "name": "index",
          "type": "uint256"
        },
        {
          "indexed": false,
          "internalType": "address",
          "name": "target",
          "type": "address"
        },
        {
          "indexed": false,
          "internalType": "uint256",
          "name": "value",
          "type": "uint256"
        },
        {
          "indexed": false,
          "internalType": "bytes",
          "name": "data",
          "type": "bytes"
        }
      ],
      "name": "CallExecuted",
      "type": "event"
    },
    {
      "anonymous": false,
      "inputs": [
        {
          "indexed": true,
          "internalType": "bytes32",
          "name": "id",
          "type": "bytes32"
        },
        {
          "indexed": false,
          "internalType": "bytes32",
          "name": "salt",
          "type": "bytes32"
        }
      ],
      "name": "CallSalt",
      "type": "event"
    },
    {
      "anonymous": false,
      "inputs": [
        {
          "indexed": true,
          "internalType": "bytes32",
          "name": "id",
          "type": "bytes32"
        },
        {
          "indexed": true,
          "internalType": "uint256",
          "name": "index",
          "type": "uint256"
        },
        {
          "indexed": false,
          "internalType": "address",
          "name": "target",
          "type": "address"
        },
        {
          "indexed": false,
          "internalType": "uint256",
          "name": "value",
          "type": "uint256"
        },
        {
          "indexed": false,
          "internalType": "bytes",
          "name": "data",
          "type": "bytes"
        },
        {
          "indexed": false,
          "internalType": "bytes32",
          "name": "predecessor",
          "type": "bytes32"
        },
        {
          "indexed": false,
          "internalType": "uint256",
          "name": "delay",
          "type": "uint256"
        }
      ],
      "name": "CallScheduled",
      "type": "event"
    },
    {
      "anonymous": false,
      "inputs": [
        {
          "indexed": true,
          "internalType": "bytes32",
          "name": "id",
          "type": "bytes32"
        }
      ],
      "name": "Cancelled",
      "type": "event"
    },
    {
      "anonymous": false,
      "inputs": [
        {
          "indexed": false,
          "internalType": "uint256",
          "name": "oldDuration",
          "type": "uint256"
        },
        {
          "indexed": false,
          "internalType": "uint256",
          "name": "newDuration",
          "type": "uint256"
        }
      ],
      "name": "MinDelayChange",
      "type": "event"
    },
    {
      "anonymous": false,
      "inputs": [
        {
          "indexed": true,
          "internalType": "bytes32",
          "name": "role",
          "type": "bytes32"
        },
        {
          "indexed": true,
          "internalType": "bytes32",
          "name": "previousAdminRole",
          "type": "bytes32"
        },
        {
          "indexed": true,
          "internalType": "bytes32",
          "name": "newAdminRole",
          "type": "bytes32"
        }
      ],
      "name": "RoleAdminChanged",
      "type": "event"
    },
    {
      "anonymous": false,
      "inputs": [
        {
          "indexed": true,
          "internalType": "bytes32",
          "name": "role",
          "type": "bytes32"
        },
        {
          "indexed": true,
          "internalType": "address",
          "name": "account",
          "type": "address"
        },
        {
          "indexed": true,
          "internalType": "address",
          "name": "sender",
          "type": "address"
        }
      ],
      "name": "RoleGranted",
      "type": "event"
    },
    {
      "anonymous": false,
      "inputs": [
        {
          "indexed": true,
          "internalType": "bytes32",
          "name": "role",
          "type": "bytes32"
        },
        {
          "indexed": true,
          "internalType": "address",
          "name": "account",
          "type": "address"
        },
        {
          "indexed": true,
          "internalType": "address",
          "name": "sender",
          "type": "address"
        }
      ],
      "name": "RoleRevoked",
      "type": "event"
    },
    {
      "inputs": [],
      "name": "CANCELLER_ROLE",
      "outputs": [
        {
          "internalType": "bytes32",
          "name": "",
          "type": "bytes32"
        }
      ],
      "stateMutability": "view",
      "type": "function"
    },
    {
      "inputs": [],
      "name": "DEFAULT_ADMIN_ROLE",
      "outputs": [
        {
          "internalType": "bytes32",
          "name": "",
          "type": "bytes32"
        }
      ],
      "stateMutability": "view",
      "type": "function"
    },
    {
      "inputs": [],
      "name": "EXECUTOR_ROLE",
      "outputs": [
        {
          "internalType": "bytes32",
          "name": "",
          "type": "bytes32"
        }
      ],
      "stateMutability": "view",
      "type": "function"
    },
    {
      "inputs": [],
      "name": "PROPOSER_ROLE",
      "outputs": [
        {
          "internalType": "bytes32",
          "name": "",
          "type": "bytes32"
        }
      ],
      "stateMutability": "view",
      "type": "function"
    },
    {
      "inputs": [],
      "name": "TIMELOCK_ADMIN_ROLE",
      "outputs": [
        {
          "internalType": "bytes32",
          "name": "",
          "type": "bytes32"
        }
      ],
      "stateMutability": "view",
      "type": "function"
    },
    {
      "inputs": [
        {
          "internalType": "bytes32",
          "name": "id",
          "type": "bytes32"
        }
      ],
      "name": "cancel",
      "outputs": [],
      "stateMutability": "nonpayable",
      "type": "function"
    },
    {
      "inputs": [],
      "name": "cdkValidium",
      "outputs": [
        {
          "internalType": "contract CDKValidium",
          "name": "",
          "type": "address"
        }
      ],
      "stateMutability": "view",
      "type": "function"
    },
    {
      "inputs": [
        {
          "internalType": "address",
          "name": "target",
          "type": "address"
        },
        {
          "internalType": "uint256",
          "name": "value",
          "type": "uint256"
        },
        {
          "internalType": "bytes",
          "name": "payload",
          "type": "bytes"
        },
        {
          "internalType": "bytes32",
          "name": "predecessor",
          "type": "bytes32"
        },
        {
          "internalType": "bytes32",
          "name": "salt",
          "type": "bytes32"
        }
      ],
      "name": "execute",
      "outputs": [],
      "stateMutability": "payable",
      "type": "function"
    },
    {
      "inputs": [
        {
          "internalType": "address[]",
          "name": "targets",
          "type": "address[]"
        },
        {
          "internalType": "uint256[]",
          "name": "values",
          "type": "uint256[]"
        },
        {
          "internalType": "bytes[]",
          "name": "payloads",
          "type": "bytes[]"
        },
        {
          "internalType": "bytes32",
          "name": "predecessor",
          "type": "bytes32"
        },
        {
          "internalType": "bytes32",
          "name": "salt",
          "type": "bytes32"
        }
      ],
      "name": "executeBatch",
      "outputs": [],
      "stateMutability": "payable",
      "type": "function"
    },
    {
      "inputs": [],
      "name": "getMinDelay",
      "outputs": [
        {
          "internalType": "uint256",
          "name": "duration",
          "type": "uint256"
        }
      ],
      "stateMutability": "view",
      "type": "function"
    },
    {
      "inputs": [
        {
          "internalType": "bytes32",
          "name": "role",
          "type": "bytes32"
        }
      ],
      "name": "getRoleAdmin",
      "outputs": [
        {
          "internalType": "bytes32",
          "name": "",
          "type": "bytes32"
        }
      ],
      "stateMutability": "view",
      "type": "function"
    },
    {
      "inputs": [
        {
          "internalType": "bytes32",
          "name": "id",
          "type": "bytes32"
        }
      ],
      "name": "getTimestamp",
      "outputs": [
        {
          "internalType": "uint256",
          "name": "",
          "type": "uint256"
        }
      ],
      "stateMutability": "view",
      "type": "function"
    },
    {
      "inputs": [
        {
          "internalType": "bytes32",
          "name": "role",
          "type": "bytes32"
        },
        {
          "internalType": "address",
          "name": "account",
          "type": "address"
        }
      ],
      "name": "grantRole",
      "outputs": [],
      "stateMutability": "nonpayable",
      "type": "function"
    },
    {
      "inputs": [
        {
          "internalType": "bytes32",
          "name": "role",
          "type": "bytes32"
        },
        {
          "internalType": "address",
          "name": "account",
          "type": "address"
        }
      ],
      "name": "hasRole",
      "outputs": [
        {
          "internalType": "bool",
          "name": "",
          "type": "bool"
        }
      ],
      "stateMutability": "view",
      "type": "function"
    },
    {
      "inputs": [
        {
          "internalType": "address",
          "name": "target",
          "type": "address"
        },
        {
          "internalType": "uint256",
          "name": "value",
          "type": "uint256"
        },
        {
          "internalType": "bytes",
          "name": "data",
          "type": "bytes"
        },
        {
          "internalType": "bytes32",
          "name": "predecessor",
          "type": "bytes32"
        },
        {
          "internalType": "bytes32",
          "name": "salt",
          "type": "bytes32"
        }
      ],
      "name": "hashOperation",
      "outputs": [
        {
          "internalType": "bytes32",
          "name": "",
          "type": "bytes32"
        }
      ],
      "stateMutability": "pure",
      "type": "function"
    },
    {
      "inputs": [
        {
          "internalType": "address[]",
          "name": "targets",
          "type": "address[]"
        },
        {
          "internalType": "uint256[]",
          "name": "values",
          "type": "uint256[]"
        },
        {
          "internalType": "bytes[]",
          "name": "payloads",
          "type": "bytes[]"
        },
        {
          "internalType": "bytes32",
          "name": "predecessor",
          "type": "bytes32"
        },
        {
          "internalType": "bytes32",
          "name": "salt",
          "type": "bytes32"
        }
      ],
      "name": "hashOperationBatch",
      "outputs": [
        {
          "internalType": "bytes32",
          "name": "",
          "type": "bytes32"
        }
      ],
      "stateMutability": "pure",
      "type": "function"
    },
    {
      "inputs": [
        {
          "internalType": "bytes32",
          "name": "id",
          "type": "bytes32"
        }
      ],
      "name": "isOperation",
      "outputs": [
        {
          "internalType": "bool",
          "name": "",
          "type": "bool"
        }
      ],
      "stateMutability": "view",
      "type": "function"
    },
    {
      "inputs": [
        {
          "internalType": "bytes32",
          "name": "id",
          "type": "bytes32"
        }
      ],
      "name": "isOperationDone",
      "outputs": [
        {
          "internalType": "bool",
          "name": "",
          "type": "bool"
        }
      ],
      "stateMutability": "view",
      "type": "function"
    },
    {
      "inputs": [
        {
          "internalType": "bytes32",
          "name": "id",
          "type": "bytes32"
        }
      ],
      "name": "isOperationPending",
      "outputs": [
        {
          "internalType": "bool",
          "name": "",
          "type": "bool"
        }
      ],
      "stateMutability": "view",
      "type": "function"
    },
    {
      "inputs": [
        {
          "internalType": "bytes32",
          "name": "id",
          "type": "bytes32"
        }
      ],
      "name": "isOperationReady",
      "outputs": [
        {
          "internalType": "bool",
          "name": "",
          "type": "bool"
        }
      ],
      "stateMutability": "view",
      "type": "function"
    },
    {
      "inputs": [
        {
          "internalType": "address",
          "name": "",
          "type": "address"
        },
        {
          "internalType": "address",
          "name": "",
          "type": "address"
        },
        {
          "internalType": "uint256[]",
          "name": "",
          "type": "uint256[]"
        },
        {
          "internalType": "uint256[]",
          "name": "",
          "type": "uint256[]"
        },
        {
          "internalType": "bytes",
          "name": "",
          "type": "bytes"
        }
      ],
      "name": "onERC1155BatchReceived",
      "outputs": [
        {
          "internalType": "bytes4",
          "name": "",
          "type": "bytes4"
        }
      ],
      "stateMutability": "nonpayable",
      "type": "function"
    },
    {
      "inputs": [
        {
          "internalType": "address",
          "name": "",
          "type": "address"
        },
        {
          "internalType": "address",
          "name": "",
          "type": "address"
        },
        {
          "internalType": "uint256",
          "name": "",
          "type": "uint256"
        },
        {
          "internalType": "uint256",
          "name": "",
          "type": "uint256"
        },
        {
          "internalType": "bytes",
          "name": "",
          "type": "bytes"
        }
      ],
      "name": "onERC1155Received",
      "outputs": [
        {
          "internalType": "bytes4",
          "name": "",
          "type": "bytes4"
        }
      ],
      "stateMutability": "nonpayable",
      "type": "function"
    },
    {
      "inputs": [
        {
          "internalType": "address",
          "name": "",
          "type": "address"
        },
        {
          "internalType": "address",
          "name": "",
          "type": "address"
        },
        {
          "internalType": "uint256",
          "name": "",
          "type": "uint256"
        },
        {
          "internalType": "bytes",
          "name": "",
          "type": "bytes"
        }
      ],
      "name": "onERC721Received",
      "outputs": [
        {
          "internalType": "bytes4",
          "name": "",
          "type": "bytes4"
        }
      ],
      "stateMutability": "nonpayable",
      "type": "function"
    },
    {
      "inputs": [
        {
          "internalType": "bytes32",
          "name": "role",
          "type": "bytes32"
        },
        {
          "internalType": "address",
          "name": "account",
          "type": "address"
        }
      ],
      "name": "renounceRole",
      "outputs": [],
      "stateMutability": "nonpayable",
      "type": "function"
    },
    {
      "inputs": [
        {
          "internalType": "bytes32",
          "name": "role",
          "type": "bytes32"
        },
        {
          "internalType": "address",
          "name": "account",
          "type": "address"
        }
      ],
      "name": "revokeRole",
      "outputs": [],
      "stateMutability": "nonpayable",
      "type": "function"
    },
    {
      "inputs": [
        {
          "internalType": "address",
          "name": "target",
          "type": "address"
        },
        {
          "internalType": "uint256",
          "name": "value",
          "type": "uint256"
        },
        {
          "internalType": "bytes",
          "name": "data",
          "type": "bytes"
        },
        {
          "internalType": "bytes32",
          "name": "predecessor",
          "type": "bytes32"
        },
        {
          "internalType": "bytes32",
          "name": "salt",
          "type": "bytes32"
        },
        {
          "internalType": "uint256",
          "name": "delay",
          "type": "uint256"
        }
      ],
      "name": "schedule",
      "outputs": [],
      "stateMutability": "nonpayable",
      "type": "function"
    },
    {
      "inputs": [
        {
          "internalType": "address[]",
          "name": "targets",
          "type": "address[]"
        },
        {
          "internalType": "uint256[]",
          "name": "values",
          "type": "uint256[]"
        },
        {
          "internalType": "bytes[]",
          "name": "payloads",
          "type": "bytes[]"
        },
        {
          "internalType": "bytes32",
          "name": "predecessor",
          "type": "bytes32"
        },
        {
          "internalType": "bytes32",
          "name": "salt",
          "type": "bytes32"
        },
        {
          "internalType": "uint256",
          "name": "delay",
          "type": "uint256"
        }
      ],
      "name": "scheduleBatch",
      "outputs": [],
      "stateMutability": "nonpayable",
      "type": "function"
    },
    {
      "inputs": [
        {
          "internalType": "bytes4",
          "name": "interfaceId",
          "type": "bytes4"
        }
      ],
      "name": "supportsInterface",
      "outputs": [
        {
          "internalType": "bool",
          "name": "",
          "type": "bool"
        }
      ],
      "stateMutability": "view",
      "type": "function"
    },
    {
      "inputs": [
        {
          "internalType": "uint256",
          "name": "newDelay",
          "type": "uint256"
        }
      ],
      "name": "updateDelay",
      "outputs": [],
      "stateMutability": "nonpayable",
      "type": "function"
    },
    {
      "stateMutability": "payable",
      "type": "receive"
    }
  ],
  "bytecode": "0x60a06040523480156200001157600080fd5b5060405162003f8f38038062003f8f83398181016040528101906200003791906200081d565b848484846200006d7f5f58e3a2316349923ce3780f8d587db2d72378aed66a8261c916544fa6846ca580620003b460201b60201c565b620000bf7fb09aa5aeb3702cfd50b6b62bc4532604938f21248a27a1d5ca736082b6819cc17f5f58e3a2316349923ce3780f8d587db2d72378aed66a8261c916544fa6846ca5620003b460201b60201c565b620001117fd8aa0f3194971a2a116679f7c2090f6939c8d4e01a2a8d7e41d55e5351469e637f5f58e3a2316349923ce3780f8d587db2d72378aed66a8261c916544fa6846ca5620003b460201b60201c565b620001637ffd643c72710c63c0180259aba6b2d05451e3591a24e58b62239378085726f7837f5f58e3a2316349923ce3780f8d587db2d72378aed66a8261c916544fa6846ca5620003b460201b60201c565b620001957f5f58e3a2316349923ce3780f8d587db2d72378aed66a8261c916544fa6846ca5306200041760201b60201c565b600073ffffffffffffffffffffffffffffffffffffffff168173ffffffffffffffffffffffffffffffffffffffff1614620001fd57620001fc7f5f58e3a2316349923ce3780f8d587db2d72378aed66a8261c916544fa6846ca5826200041760201b60201c565b5b60005b8351811015620002bc57620002597fb09aa5aeb3702cfd50b6b62bc4532604938f21248a27a1d5ca736082b6819cc1858381518110620002455762000244620008e3565b5b60200260200101516200041760201b60201c565b620002a87ffd643c72710c63c0180259aba6b2d05451e3591a24e58b62239378085726f783858381518110620002945762000293620008e3565b5b60200260200101516200041760201b60201c565b80620002b49062000941565b905062000200565b5060005b82518110156200032d57620003197fd8aa0f3194971a2a116679f7c2090f6939c8d4e01a2a8d7e41d55e5351469e63848381518110620003055762000304620008e3565b5b60200260200101516200041760201b60201c565b80620003259062000941565b9050620002c0565b50836002819055507f11c24f4ead16507c69ac467fbd5e4eed5fb5c699626d2cc6d66421df253886d560008560405162000369929190620009ec565b60405180910390a1505050508073ffffffffffffffffffffffffffffffffffffffff1660808173ffffffffffffffffffffffffffffffffffffffff1681525050505050505062000a19565b6000620003c7836200042d60201b60201c565b905081600080858152602001908152602001600020600101819055508181847fbd79b86ffe0ab8e8776151514217cd7cacd52c909f66475c3af44e129f0b00ff60405160405180910390a4505050565b6200042982826200044c60201b60201c565b5050565b6000806000838152602001908152602001600020600101549050919050565b6200045e82826200053d60201b60201c565b6200053957600160008084815260200190815260200160002060000160008373ffffffffffffffffffffffffffffffffffffffff1673ffffffffffffffffffffffffffffffffffffffff16815260200190815260200160002060006101000a81548160ff021916908315150217905550620004de620005a760201b60201c565b73ffffffffffffffffffffffffffffffffffffffff168173ffffffffffffffffffffffffffffffffffffffff16837f2f8788117e7eff1d82e926ec794901d17c78024a50270940304540a733656f0d60405160405180910390a45b5050565b600080600084815260200190815260200160002060000160008373ffffffffffffffffffffffffffffffffffffffff1673ffffffffffffffffffffffffffffffffffffffff16815260200190815260200160002060009054906101000a900460ff16905092915050565b600033905090565b6000604051905090565b600080fd5b600080fd5b6000819050919050565b620005d881620005c3565b8114620005e457600080fd5b50565b600081519050620005f881620005cd565b92915050565b600080fd5b6000601f19601f8301169050919050565b7f4e487b7100000000000000000000000000000000000000000000000000000000600052604160045260246000fd5b6200064e8262000603565b810181811067ffffffffffffffff8211171562000670576200066f62000614565b5b80604052505050565b600062000685620005af565b905062000693828262000643565b919050565b600067ffffffffffffffff821115620006b657620006b562000614565b5b602082029050602081019050919050565b600080fd5b600073ffffffffffffffffffffffffffffffffffffffff82169050919050565b6000620006f982620006cc565b9050919050565b6200070b81620006ec565b81146200071757600080fd5b50565b6000815190506200072b8162000700565b92915050565b600062000748620007428462000698565b62000679565b905080838252602082019050602084028301858111156200076e576200076d620006c7565b5b835b818110156200079b57806200078688826200071a565b84526020840193505060208101905062000770565b5050509392505050565b600082601f830112620007bd57620007bc620005fe565b5b8151620007cf84826020860162000731565b91505092915050565b6000620007e582620006ec565b9050919050565b620007f781620007d8565b81146200080357600080fd5b50565b6000815190506200081781620007ec565b92915050565b600080600080600060a086880312156200083c576200083b620005b9565b5b60006200084c88828901620005e7565b955050602086015167ffffffffffffffff81111562000870576200086f620005be565b5b6200087e88828901620007a5565b945050604086015167ffffffffffffffff811115620008a257620008a1620005be565b5b620008b088828901620007a5565b9350506060620008c3888289016200071a565b9250506080620008d68882890162000806565b9150509295509295909350565b7f4e487b7100000000000000000000000000000000000000000000000000000000600052603260045260246000fd5b7f4e487b7100000000000000000000000000000000000000000000000000000000600052601160045260246000fd5b60006200094e82620005c3565b91507fffffffffffffffffffffffffffffffffffffffffffffffffffffffffffffffff820362000983576200098262000912565b5b600182019050919050565b6000819050919050565b6000819050919050565b6000620009c3620009bd620009b7846200098e565b62000998565b620005c3565b9050919050565b620009d581620009a2565b82525050565b620009e681620005c3565b82525050565b600060408201905062000a036000830185620009ca565b62000a126020830184620009db565b9392505050565b60805161354c62000a4360003960008181610aee0152818161122a015261126a015261354c6000f3fe6080604052600436106101c65760003560e01c806364d62353116100f7578063b1c5f42711610095578063d547741f11610064578063d547741f146106c2578063e38335e5146106eb578063f23a6e6114610707578063f27a0c9214610744576101cd565b8063b1c5f427146105e2578063bc197c811461061f578063c4d252f51461065c578063d45c443514610685576101cd565b80638f61f4f5116100d15780638f61f4f51461052457806391d148541461054f578063a217fddf1461058c578063b08e51c0146105b7576101cd565b806364d62353146104955780638065657f146104be5780638f2a0bb0146104fb576101cd565b8063248a9ca31161016457806331d507501161013e57806331d50750146103c757806336568abe146104045780633951b92f1461042d578063584b153e14610458576101cd565b8063248a9ca3146103245780632ab0f529146103615780632f2ff15d1461039e576101cd565b80630d3cf6fc116101a05780630d3cf6fc14610263578063134008d31461028e57806313bc9f20146102aa578063150b7a02146102e7576101cd565b806301d5062a146101d257806301ffc9a7146101fb57806307bd026514610238576101cd565b366101cd57005b600080fd5b3480156101de57600080fd5b506101f960048036038101906101f49190611c85565b61076f565b005b34801561020757600080fd5b50610222600480360381019061021d9190611d8c565b610847565b60405161022f9190611dd4565b60405180910390f35b34801561024457600080fd5b5061024d6108c1565b60405161025a9190611dfe565b60405180910390f35b34801561026f57600080fd5b506102786108e5565b6040516102859190611dfe565b60405180910390f35b6102a860048036038101906102a39190611e19565b610909565b005b3480156102b657600080fd5b506102d160048036038101906102cc9190611eb3565b6109c6565b6040516102de9190611dd4565b60405180910390f35b3480156102f357600080fd5b5061030e60048036038101906103099190612021565b6109ec565b60405161031b91906120b3565b60405180910390f35b34801561033057600080fd5b5061034b60048036038101906103469190611eb3565b610a00565b6040516103589190611dfe565b60405180910390f35b34801561036d57600080fd5b5061038860048036038101906103839190611eb3565b610a1f565b6040516103959190611dd4565b60405180910390f35b3480156103aa57600080fd5b506103c560048036038101906103c091906120ce565b610a34565b005b3480156103d357600080fd5b506103ee60048036038101906103e99190611eb3565b610a55565b6040516103fb9190611dd4565b60405180910390f35b34801561041057600080fd5b5061042b600480360381019061042691906120ce565b610a69565b005b34801561043957600080fd5b50610442610aec565b60405161044f919061216d565b60405180910390f35b34801561046457600080fd5b5061047f600480360381019061047a9190611eb3565b610b10565b60405161048c9190611dd4565b60405180910390f35b3480156104a157600080fd5b506104bc60048036038101906104b79190612188565b610b25565b005b3480156104ca57600080fd5b506104e560048036038101906104e09190611e19565b610bd8565b6040516104f29190611dfe565b60405180910390f35b34801561050757600080fd5b50610522600480360381019061051d91906122b7565b610c17565b005b34801561053057600080fd5b50610539610e05565b6040516105469190611dfe565b60405180910390f35b34801561055b57600080fd5b50610576600480360381019061057191906120ce565b610e29565b6040516105839190611dd4565b60405180910390f35b34801561059857600080fd5b506105a1610e93565b6040516105ae9190611dfe565b60405180910390f35b3480156105c357600080fd5b506105cc610e9a565b6040516105d99190611dfe565b60405180910390f35b3480156105ee57600080fd5b50610609600480360381019061060491906123a6565b610ebe565b6040516106169190611dfe565b60405180910390f35b34801561062b57600080fd5b5061064660048036038101906106419190612545565b610f03565b60405161065391906120b3565b60405180910390f35b34801561066857600080fd5b50610683600480360381019061067e9190611eb3565b610f18565b005b34801561069157600080fd5b506106ac60048036038101906106a79190611eb3565b610fd2565b6040516106b99190612623565b60405180910390f35b3480156106ce57600080fd5b506106e960048036038101906106e491906120ce565b610fef565b005b610705600480360381019061070091906123a6565b611010565b005b34801561071357600080fd5b5061072e6004803603810190610729919061263e565b6111fa565b60405161073b91906120b3565b60405180910390f35b34801561075057600080fd5b5061075961120f565b6040516107669190612623565b60405180910390f35b7fb09aa5aeb3702cfd50b6b62bc4532604938f21248a27a1d5ca736082b6819cc161079981611314565b60006107a9898989898989610bd8565b90506107b58184611328565b6000817f4cf4410cc57040e44862ef0f45f3dd5a5e02db8eb8add648d4b0e236f1d07dca8b8b8b8b8b8a6040516107f196959493929190612722565b60405180910390a36000801b841461083c57807f20fda5fd27a1ea7bf5b9567f143ac5470bb059374a27e8f67cb44f946f6d0387856040516108339190611dfe565b60405180910390a25b505050505050505050565b60007f4e2312e0000000000000000000000000000000000000000000000000000000007bffffffffffffffffffffffffffffffffffffffffffffffffffffffff1916827bffffffffffffffffffffffffffffffffffffffffffffffffffffffff191614806108ba57506108b9826113e2565b5b9050919050565b7fd8aa0f3194971a2a116679f7c2090f6939c8d4e01a2a8d7e41d55e5351469e6381565b7f5f58e3a2316349923ce3780f8d587db2d72378aed66a8261c916544fa6846ca581565b7fd8aa0f3194971a2a116679f7c2090f6939c8d4e01a2a8d7e41d55e5351469e63610935816000610e29565b61094b5761094a8161094561145c565b611464565b5b600061095b888888888888610bd8565b905061096781856114e9565b6109738888888861158a565b6000817fc2617efa69bab66782fa219543714338489c4e9e178271560a91b82c3f612b588a8a8a8a6040516109ab949392919061277e565b60405180910390a36109bc81611641565b5050505050505050565b6000806109d283610fd2565b90506001811180156109e45750428111155b915050919050565b600063150b7a0260e01b9050949350505050565b6000806000838152602001908152602001600020600101549050919050565b60006001610a2c83610fd2565b149050919050565b610a3d82610a00565b610a4681611314565b610a5083836116a4565b505050565b600080610a6183610fd2565b119050919050565b610a7161145c565b73ffffffffffffffffffffffffffffffffffffffff168173ffffffffffffffffffffffffffffffffffffffff1614610ade576040517f08c379a0000000000000000000000000000000000000000000000000000000008152600401610ad590612841565b60405180910390fd5b610ae88282611784565b5050565b7f000000000000000000000000000000000000000000000000000000000000000081565b60006001610b1d83610fd2565b119050919050565b3073ffffffffffffffffffffffffffffffffffffffff163373ffffffffffffffffffffffffffffffffffffffff1614610b93576040517f08c379a0000000000000000000000000000000000000000000000000000000008152600401610b8a906128d3565b60405180910390fd5b7f11c24f4ead16507c69ac467fbd5e4eed5fb5c699626d2cc6d66421df253886d560025482604051610bc69291906128f3565b60405180910390a18060028190555050565b6000868686868686604051602001610bf59695949392919061291c565b6040516020818303038152906040528051906020012090509695505050505050565b7fb09aa5aeb3702cfd50b6b62bc4532604938f21248a27a1d5ca736082b6819cc1610c4181611314565b878790508a8a905014610c89576040517f08c379a0000000000000000000000000000000000000000000000000000000008152600401610c80906129ea565b60405180910390fd5b858590508a8a905014610cd1576040517f08c379a0000000000000000000000000000000000000000000000000000000008152600401610cc8906129ea565b60405180910390fd5b6000610ce38b8b8b8b8b8b8b8b610ebe565b9050610cef8184611328565b60005b8b8b9050811015610db45780827f4cf4410cc57040e44862ef0f45f3dd5a5e02db8eb8add648d4b0e236f1d07dca8e8e85818110610d3357610d32612a0a565b5b9050602002016020810190610d489190612a39565b8d8d86818110610d5b57610d5a612a0a565b5b905060200201358c8c87818110610d7557610d74612a0a565b5b9050602002810190610d879190612a75565b8c8b604051610d9b96959493929190612722565b60405180910390a380610dad90612b07565b9050610cf2565b506000801b8414610df857807f20fda5fd27a1ea7bf5b9567f143ac5470bb059374a27e8f67cb44f946f6d038785604051610def9190611dfe565b60405180910390a25b5050505050505050505050565b7fb09aa5aeb3702cfd50b6b62bc4532604938f21248a27a1d5ca736082b6819cc181565b600080600084815260200190815260200160002060000160008373ffffffffffffffffffffffffffffffffffffffff1673ffffffffffffffffffffffffffffffffffffffff16815260200190815260200160002060009054906101000a900460ff16905092915050565b6000801b81565b7ffd643c72710c63c0180259aba6b2d05451e3591a24e58b62239378085726f78381565b60008888888888888888604051602001610edf989796959493929190612df1565b60405160208183030381529060405280519060200120905098975050505050505050565b600063bc197c8160e01b905095945050505050565b7ffd643c72710c63c0180259aba6b2d05451e3591a24e58b62239378085726f783610f4281611314565b610f4b82610b10565b610f8a576040517f08c379a0000000000000000000000000000000000000000000000000000000008152600401610f8190612ed1565b60405180910390fd5b6001600083815260200190815260200160002060009055817fbaa1eb22f2a492ba1a5fea61b8df4d27c6c8b5f3971e63bb58fa14ff72eedb7060405160405180910390a25050565b600060016000838152602001908152602001600020549050919050565b610ff882610a00565b61100181611314565b61100b8383611784565b505050565b7fd8aa0f3194971a2a116679f7c2090f6939c8d4e01a2a8d7e41d55e5351469e6361103c816000610e29565b611052576110518161104c61145c565b611464565b5b86869050898990501461109a576040517f08c379a0000000000000000000000000000000000000000000000000000000008152600401611091906129ea565b60405180910390fd5b8484905089899050146110e2576040517f08c379a00000000000000000000000000000000000000000000000000000000081526004016110d9906129ea565b60405180910390fd5b60006110f48a8a8a8a8a8a8a8a610ebe565b905061110081856114e9565b60005b8a8a90508110156111e45760008b8b8381811061112357611122612a0a565b5b90506020020160208101906111389190612a39565b905060008a8a8481811061114f5761114e612a0a565b5b9050602002013590503660008a8a8681811061116e5761116d612a0a565b5b90506020028101906111809190612a75565b915091506111908484848461158a565b84867fc2617efa69bab66782fa219543714338489c4e9e178271560a91b82c3f612b58868686866040516111c7949392919061277e565b60405180910390a350505050806111dd90612b07565b9050611103565b506111ee81611641565b50505050505050505050565b600063f23a6e6160e01b905095945050505050565b60008073ffffffffffffffffffffffffffffffffffffffff167f000000000000000000000000000000000000000000000000000000000000000073ffffffffffffffffffffffffffffffffffffffff16141580156112f857507f000000000000000000000000000000000000000000000000000000000000000073ffffffffffffffffffffffffffffffffffffffff166315064c966040518163ffffffff1660e01b8152600401602060405180830381865afa1580156112d3573d6000803e3d6000fd5b505050506040513d601f19601f820116820180604052508101906112f79190612f1d565b5b156113065760009050611311565b61130e611865565b90505b90565b6113258161132061145c565b611464565b50565b61133182610a55565b15611371576040517f08c379a000000000000000000000000000000000000000000000000000000000815260040161136890612fbc565b60405180910390fd5b61137961120f565b8110156113bb576040517f08c379a00000000000000000000000000000000000000000000000000000000081526004016113b29061304e565b60405180910390fd5b80426113c7919061306e565b60016000848152602001908152602001600020819055505050565b60007f7965db0b000000000000000000000000000000000000000000000000000000007bffffffffffffffffffffffffffffffffffffffffffffffffffffffff1916827bffffffffffffffffffffffffffffffffffffffffffffffffffffffff1916148061145557506114548261186f565b5b9050919050565b600033905090565b61146e8282610e29565b6114e55761147b816118d9565b6114898360001c6020611906565b60405160200161149a9291906131ab565b6040516020818303038152906040526040517f08c379a00000000000000000000000000000000000000000000000000000000081526004016114dc919061321e565b60405180910390fd5b5050565b6114f2826109c6565b611531576040517f08c379a0000000000000000000000000000000000000000000000000000000008152600401611528906132b2565b60405180910390fd5b6000801b811480611547575061154681610a1f565b5b611586576040517f08c379a000000000000000000000000000000000000000000000000000000000815260040161157d90613344565b60405180910390fd5b5050565b60008473ffffffffffffffffffffffffffffffffffffffff168484846040516115b4929190613394565b60006040518083038185875af1925050503d80600081146115f1576040519150601f19603f3d011682016040523d82523d6000602084013e6115f6565b606091505b505090508061163a576040517f08c379a00000000000000000000000000000000000000000000000000000000081526004016116319061341f565b60405180910390fd5b5050505050565b61164a816109c6565b611689576040517f08c379a0000000000000000000000000000000000000000000000000000000008152600401611680906132b2565b60405180910390fd5b60018060008381526020019081526020016000208190555050565b6116ae8282610e29565b61178057600160008084815260200190815260200160002060000160008373ffffffffffffffffffffffffffffffffffffffff1673ffffffffffffffffffffffffffffffffffffffff16815260200190815260200160002060006101000a81548160ff02191690831515021790555061172561145c565b73ffffffffffffffffffffffffffffffffffffffff168173ffffffffffffffffffffffffffffffffffffffff16837f2f8788117e7eff1d82e926ec794901d17c78024a50270940304540a733656f0d60405160405180910390a45b5050565b61178e8282610e29565b1561186157600080600084815260200190815260200160002060000160008373ffffffffffffffffffffffffffffffffffffffff1673ffffffffffffffffffffffffffffffffffffffff16815260200190815260200160002060006101000a81548160ff02191690831515021790555061180661145c565b73ffffffffffffffffffffffffffffffffffffffff168173ffffffffffffffffffffffffffffffffffffffff16837ff6391f5c32d9c69d2a47ea670b442974b53935d1edc7fd64eb21e047a839171b60405160405180910390a45b5050565b6000600254905090565b60007f01ffc9a7000000000000000000000000000000000000000000000000000000007bffffffffffffffffffffffffffffffffffffffffffffffffffffffff1916827bffffffffffffffffffffffffffffffffffffffffffffffffffffffff1916149050919050565b60606118ff8273ffffffffffffffffffffffffffffffffffffffff16601460ff16611906565b9050919050565b606060006002836002611919919061343f565b611923919061306e565b67ffffffffffffffff81111561193c5761193b611ef6565b5b6040519080825280601f01601f19166020018201604052801561196e5781602001600182028036833780820191505090505b5090507f3000000000000000000000000000000000000000000000000000000000000000816000815181106119a6576119a5612a0a565b5b60200101907effffffffffffffffffffffffffffffffffffffffffffffffffffffffffffff1916908160001a9053507f780000000000000000000000000000000000000000000000000000000000000081600181518110611a0a57611a09612a0a565b5b60200101907effffffffffffffffffffffffffffffffffffffffffffffffffffffffffffff1916908160001a90535060006001846002611a4a919061343f565b611a54919061306e565b90505b6001811115611af4577f3031323334353637383961626364656600000000000000000000000000000000600f861660108110611a9657611a95612a0a565b5b1a60f81b828281518110611aad57611aac612a0a565b5b60200101907effffffffffffffffffffffffffffffffffffffffffffffffffffffffffffff1916908160001a905350600485901c945080611aed90613481565b9050611a57565b5060008414611b38576040517f08c379a0000000000000000000000000000000000000000000000000000000008152600401611b2f906134f6565b60405180910390fd5b8091505092915050565b6000604051905090565b600080fd5b600080fd5b600073ffffffffffffffffffffffffffffffffffffffff82169050919050565b6000611b8182611b56565b9050919050565b611b9181611b76565b8114611b9c57600080fd5b50565b600081359050611bae81611b88565b92915050565b6000819050919050565b611bc781611bb4565b8114611bd257600080fd5b50565b600081359050611be481611bbe565b92915050565b600080fd5b600080fd5b600080fd5b60008083601f840112611c0f57611c0e611bea565b5b8235905067ffffffffffffffff811115611c2c57611c2b611bef565b5b602083019150836001820283011115611c4857611c47611bf4565b5b9250929050565b6000819050919050565b611c6281611c4f565b8114611c6d57600080fd5b50565b600081359050611c7f81611c59565b92915050565b600080600080600080600060c0888a031215611ca457611ca3611b4c565b5b6000611cb28a828b01611b9f565b9750506020611cc38a828b01611bd5565b965050604088013567ffffffffffffffff811115611ce457611ce3611b51565b5b611cf08a828b01611bf9565b95509550506060611d038a828b01611c70565b9350506080611d148a828b01611c70565b92505060a0611d258a828b01611bd5565b91505092959891949750929550565b60007fffffffff0000000000000000000000000000000000000000000000000000000082169050919050565b611d6981611d34565b8114611d7457600080fd5b50565b600081359050611d8681611d60565b92915050565b600060208284031215611da257611da1611b4c565b5b6000611db084828501611d77565b91505092915050565b60008115159050919050565b611dce81611db9565b82525050565b6000602082019050611de96000830184611dc5565b92915050565b611df881611c4f565b82525050565b6000602082019050611e136000830184611def565b92915050565b60008060008060008060a08789031215611e3657611e35611b4c565b5b6000611e4489828a01611b9f565b9650506020611e5589828a01611bd5565b955050604087013567ffffffffffffffff811115611e7657611e75611b51565b5b611e8289828a01611bf9565b94509450506060611e9589828a01611c70565b9250506080611ea689828a01611c70565b9150509295509295509295565b600060208284031215611ec957611ec8611b4c565b5b6000611ed784828501611c70565b91505092915050565b600080fd5b6000601f19601f8301169050919050565b7f4e487b7100000000000000000000000000000000000000000000000000000000600052604160045260246000fd5b611f2e82611ee5565b810181811067ffffffffffffffff82111715611f4d57611f4c611ef6565b5b80604052505050565b6000611f60611b42565b9050611f6c8282611f25565b919050565b600067ffffffffffffffff821115611f8c57611f8b611ef6565b5b611f9582611ee5565b9050602081019050919050565b82818337600083830152505050565b6000611fc4611fbf84611f71565b611f56565b905082815260208101848484011115611fe057611fdf611ee0565b5b611feb848285611fa2565b509392505050565b600082601f83011261200857612007611bea565b5b8135612018848260208601611fb1565b91505092915050565b6000806000806080858703121561203b5761203a611b4c565b5b600061204987828801611b9f565b945050602061205a87828801611b9f565b935050604061206b87828801611bd5565b925050606085013567ffffffffffffffff81111561208c5761208b611b51565b5b61209887828801611ff3565b91505092959194509250565b6120ad81611d34565b82525050565b60006020820190506120c860008301846120a4565b92915050565b600080604083850312156120e5576120e4611b4c565b5b60006120f385828601611c70565b925050602061210485828601611b9f565b9150509250929050565b6000819050919050565b600061213361212e61212984611b56565b61210e565b611b56565b9050919050565b600061214582612118565b9050919050565b60006121578261213a565b9050919050565b6121678161214c565b82525050565b6000602082019050612182600083018461215e565b92915050565b60006020828403121561219e5761219d611b4c565b5b60006121ac84828501611bd5565b91505092915050565b60008083601f8401126121cb576121ca611bea565b5b8235905067ffffffffffffffff8111156121e8576121e7611bef565b5b60208301915083602082028301111561220457612203611bf4565b5b9250929050565b60008083601f84011261222157612220611bea565b5b8235905067ffffffffffffffff81111561223e5761223d611bef565b5b60208301915083602082028301111561225a57612259611bf4565b5b9250929050565b60008083601f84011261227757612276611bea565b5b8235905067ffffffffffffffff81111561229457612293611bef565b5b6020830191508360208202830111156122b0576122af611bf4565b5b9250929050565b600080600080600080600080600060c08a8c0312156122d9576122d8611b4c565b5b60008a013567ffffffffffffffff8111156122f7576122f6611b51565b5b6123038c828d016121b5565b995099505060208a013567ffffffffffffffff81111561232657612325611b51565b5b6123328c828d0161220b565b975097505060408a013567ffffffffffffffff81111561235557612354611b51565b5b6123618c828d01612261565b955095505060606123748c828d01611c70565b93505060806123858c828d01611c70565b92505060a06123968c828d01611bd5565b9150509295985092959850929598565b60008060008060008060008060a0898b0312156123c6576123c5611b4c565b5b600089013567ffffffffffffffff8111156123e4576123e3611b51565b5b6123f08b828c016121b5565b9850985050602089013567ffffffffffffffff81111561241357612412611b51565b5b61241f8b828c0161220b565b9650965050604089013567ffffffffffffffff81111561244257612441611b51565b5b61244e8b828c01612261565b945094505060606124618b828c01611c70565b92505060806124728b828c01611c70565b9150509295985092959890939650565b600067ffffffffffffffff82111561249d5761249c611ef6565b5b602082029050602081019050919050565b60006124c16124bc84612482565b611f56565b905080838252602082019050602084028301858111156124e4576124e3611bf4565b5b835b8181101561250d57806124f98882611bd5565b8452602084019350506020810190506124e6565b5050509392505050565b600082601f83011261252c5761252b611bea565b5b813561253c8482602086016124ae565b91505092915050565b600080600080600060a0868803121561256157612560611b4c565b5b600061256f88828901611b9f565b955050602061258088828901611b9f565b945050604086013567ffffffffffffffff8111156125a1576125a0611b51565b5b6125ad88828901612517565b935050606086013567ffffffffffffffff8111156125ce576125cd611b51565b5b6125da88828901612517565b925050608086013567ffffffffffffffff8111156125fb576125fa611b51565b5b61260788828901611ff3565b9150509295509295909350565b61261d81611bb4565b82525050565b60006020820190506126386000830184612614565b92915050565b600080600080600060a0868803121561265a57612659611b4c565b5b600061266888828901611b9f565b955050602061267988828901611b9f565b945050604061268a88828901611bd5565b935050606061269b88828901611bd5565b925050608086013567ffffffffffffffff8111156126bc576126bb611b51565b5b6126c888828901611ff3565b9150509295509295909350565b6126de81611b76565b82525050565b600082825260208201905092915050565b600061270183856126e4565b935061270e838584611fa2565b61271783611ee5565b840190509392505050565b600060a08201905061273760008301896126d5565b6127446020830188612614565b81810360408301526127578186886126f5565b90506127666060830185611def565b6127736080830184612614565b979650505050505050565b600060608201905061279360008301876126d5565b6127a06020830186612614565b81810360408301526127b38184866126f5565b905095945050505050565b600082825260208201905092915050565b7f416363657373436f6e74726f6c3a2063616e206f6e6c792072656e6f756e636560008201527f20726f6c657320666f722073656c660000000000000000000000000000000000602082015250565b600061282b602f836127be565b9150612836826127cf565b604082019050919050565b6000602082019050818103600083015261285a8161281e565b9050919050565b7f54696d656c6f636b436f6e74726f6c6c65723a2063616c6c6572206d7573742060008201527f62652074696d656c6f636b000000000000000000000000000000000000000000602082015250565b60006128bd602b836127be565b91506128c882612861565b604082019050919050565b600060208201905081810360008301526128ec816128b0565b9050919050565b60006040820190506129086000830185612614565b6129156020830184612614565b9392505050565b600060a08201905061293160008301896126d5565b61293e6020830188612614565b81810360408301526129518186886126f5565b90506129606060830185611def565b61296d6080830184611def565b979650505050505050565b7f54696d656c6f636b436f6e74726f6c6c65723a206c656e677468206d69736d6160008201527f7463680000000000000000000000000000000000000000000000000000000000602082015250565b60006129d46023836127be565b91506129df82612978565b604082019050919050565b60006020820190508181036000830152612a03816129c7565b9050919050565b7f4e487b7100000000000000000000000000000000000000000000000000000000600052603260045260246000fd5b600060208284031215612a4f57612a4e611b4c565b5b6000612a5d84828501611b9f565b91505092915050565b600080fd5b600080fd5b600080fd5b60008083356001602003843603038112612a9257612a91612a66565b5b80840192508235915067ffffffffffffffff821115612ab457612ab3612a6b565b5b602083019250600182023603831315612ad057612acf612a70565b5b509250929050565b7f4e487b7100000000000000000000000000000000000000000000000000000000600052601160045260246000fd5b6000612b1282611bb4565b91507fffffffffffffffffffffffffffffffffffffffffffffffffffffffffffffffff8203612b4457612b43612ad8565b5b600182019050919050565b600082825260208201905092915050565b6000819050919050565b612b7381611b76565b82525050565b6000612b858383612b6a565b60208301905092915050565b6000612ba06020840184611b9f565b905092915050565b6000602082019050919050565b6000612bc18385612b4f565b9350612bcc82612b60565b8060005b85811015612c0557612be28284612b91565b612bec8882612b79565b9750612bf783612ba8565b925050600181019050612bd0565b5085925050509392505050565b600082825260208201905092915050565b600080fd5b82818337505050565b6000612c3d8385612c12565b93507f07ffffffffffffffffffffffffffffffffffffffffffffffffffffffffffffff831115612c7057612c6f612c23565b5b602083029250612c81838584612c28565b82840190509392505050565b600082825260208201905092915050565b6000819050919050565b600082825260208201905092915050565b6000612cc58385612ca8565b9350612cd2838584611fa2565b612cdb83611ee5565b840190509392505050565b6000612cf3848484612cb9565b90509392505050565b600080fd5b600080fd5b600080fd5b60008083356001602003843603038112612d2857612d27612d06565b5b83810192508235915060208301925067ffffffffffffffff821115612d5057612d4f612cfc565b5b600182023603831315612d6657612d65612d01565b5b509250929050565b6000602082019050919050565b6000612d878385612c8d565b935083602084028501612d9984612c9e565b8060005b87811015612ddf578484038952612db48284612d0b565b612dbf868284612ce6565b9550612dca84612d6e565b935060208b019a505050600181019050612d9d565b50829750879450505050509392505050565b600060a0820190508181036000830152612e0c818a8c612bb5565b90508181036020830152612e2181888a612c31565b90508181036040830152612e36818688612d7b565b9050612e456060830185611def565b612e526080830184611def565b9998505050505050505050565b7f54696d656c6f636b436f6e74726f6c6c65723a206f7065726174696f6e20636160008201527f6e6e6f742062652063616e63656c6c6564000000000000000000000000000000602082015250565b6000612ebb6031836127be565b9150612ec682612e5f565b604082019050919050565b60006020820190508181036000830152612eea81612eae565b9050919050565b612efa81611db9565b8114612f0557600080fd5b50565b600081519050612f1781612ef1565b92915050565b600060208284031215612f3357612f32611b4c565b5b6000612f4184828501612f08565b91505092915050565b7f54696d656c6f636b436f6e74726f6c6c65723a206f7065726174696f6e20616c60008201527f7265616479207363686564756c65640000000000000000000000000000000000602082015250565b6000612fa6602f836127be565b9150612fb182612f4a565b604082019050919050565b60006020820190508181036000830152612fd581612f99565b9050919050565b7f54696d656c6f636b436f6e74726f6c6c65723a20696e73756666696369656e7460008201527f2064656c61790000000000000000000000000000000000000000000000000000602082015250565b60006130386026836127be565b915061304382612fdc565b604082019050919050565b600060208201905081810360008301526130678161302b565b9050919050565b600061307982611bb4565b915061308483611bb4565b925082820190508082111561309c5761309b612ad8565b5b92915050565b600081905092915050565b7f416363657373436f6e74726f6c3a206163636f756e7420000000000000000000600082015250565b60006130e36017836130a2565b91506130ee826130ad565b601782019050919050565b600081519050919050565b60005b83811015613122578082015181840152602081019050613107565b60008484015250505050565b6000613139826130f9565b61314381856130a2565b9350613153818560208601613104565b80840191505092915050565b7f206973206d697373696e6720726f6c6520000000000000000000000000000000600082015250565b60006131956011836130a2565b91506131a08261315f565b601182019050919050565b60006131b6826130d6565b91506131c2828561312e565b91506131cd82613188565b91506131d9828461312e565b91508190509392505050565b60006131f0826130f9565b6131fa81856127be565b935061320a818560208601613104565b61321381611ee5565b840191505092915050565b6000602082019050818103600083015261323881846131e5565b905092915050565b7f54696d656c6f636b436f6e74726f6c6c65723a206f7065726174696f6e20697360008201527f206e6f7420726561647900000000000000000000000000000000000000000000602082015250565b600061329c602a836127be565b91506132a782613240565b604082019050919050565b600060208201905081810360008301526132cb8161328f565b9050919050565b7f54696d656c6f636b436f6e74726f6c6c65723a206d697373696e67206465706560008201527f6e64656e63790000000000000000000000000000000000000000000000000000602082015250565b600061332e6026836127be565b9150613339826132d2565b604082019050919050565b6000602082019050818103600083015261335d81613321565b9050919050565b600081905092915050565b600061337b8385613364565b9350613388838584611fa2565b82840190509392505050565b60006133a182848661336f565b91508190509392505050565b7f54696d656c6f636b436f6e74726f6c6c65723a20756e6465726c79696e67207460008201527f72616e73616374696f6e20726576657274656400000000000000000000000000602082015250565b60006134096033836127be565b9150613414826133ad565b604082019050919050565b60006020820190508181036000830152613438816133fc565b9050919050565b600061344a82611bb4565b915061345583611bb4565b925082820261346381611bb4565b9150828204841483151761347a57613479612ad8565b5b5092915050565b600061348c82611bb4565b91506000820361349f5761349e612ad8565b5b600182039050919050565b7f537472696e67733a20686578206c656e67746820696e73756666696369656e74600082015250565b60006134e06020836127be565b91506134eb826134aa565b602082019050919050565b6000602082019050818103600083015261350f816134d3565b905091905056fea2646970667358221220bd0734ed0ef50c2bde9589fd8e00e7a60098e6f81090e48576e4c68c4f4166c764736f6c63430008140033",
  "linkReferences": {},
  "deployedLinkReferences": {}
}